{
    "contractName": "InsuranceRocketCompany",
    "abi": [
        {
            "inputs": [],
            "stateMutability": "nonpayable",
            "type": "constructor"
        },
        {
            "anonymous": false,
            "inputs": [
                {
                    "indexed": false,
                    "internalType": "string",
                    "name": "",
                    "type": "string"
                },
                {
                    "indexed": false,
                    "internalType": "address",
                    "name": "",
                    "type": "address"
                }
            ],
            "name": "asignServiceClientEvent",
            "type": "event"
        },
        {
            "anonymous": false,
            "inputs": [
                {
                    "indexed": false,
                    "internalType": "string",
                    "name": "",
                    "type": "string"
                }
            ],
            "name": "changeStatusServiceEvent",
            "type": "event"
        },
        {
            "anonymous": false,
            "inputs": [
                {
                    "indexed": false,
                    "internalType": "string",
                    "name": "",
                    "type": "string"
                },
                {
                    "indexed": false,
                    "internalType": "address",
                    "name": "",
                    "type": "address"
                }
            ],
            "name": "createFactoryEvent",
            "type": "event"
        },
        {
            "anonymous": false,
            "inputs": [
                {
                    "indexed": false,
                    "internalType": "string",
                    "name": "",
                    "type": "string"
                }
            ],
            "name": "createServiceEvent",
            "type": "event"
        },
        {
            "anonymous": false,
            "inputs": [
                {
                    "indexed": false,
                    "internalType": "string",
                    "name": "",
                    "type": "string"
                }
            ],
            "name": "enableSubscriptionEvent",
            "type": "event"
        },
        {
            "anonymous": false,
            "inputs": [
                {
                    "indexed": false,
                    "internalType": "uint16",
                    "name": "",
                    "type": "uint16"
                }
            ],
            "name": "rechargeTokensEvent",
            "type": "event"
        },
        {
            "stateMutability": "payable",
            "type": "fallback"
        },
        {
            "inputs": [],
            "name": "BalanceContractEthers",
            "outputs": [
                {
                    "internalType": "uint256",
                    "name": "",
                    "type": "uint256"
                }
            ],
            "stateMutability": "view",
            "type": "function"
        },
        {
            "inputs": [
                {
                    "internalType": "address",
                    "name": "",
                    "type": "address"
                }
            ],
            "name": "RequestStatus",
            "outputs": [
                {
                    "internalType": "uint16",
                    "name": "requestType",
                    "type": "uint16"
                },
                {
                    "internalType": "bool",
                    "name": "statusRequest",
                    "type": "bool"
                },
                {
                    "internalType": "address",
                    "name": "addressContract",
                    "type": "address"
                }
            ],
            "stateMutability": "view",
            "type": "function"
        },
        {
            "inputs": [
                {
                    "internalType": "string",
                    "name": "",
                    "type": "string"
                }
            ],
            "name": "Services",
            "outputs": [
                {
                    "internalType": "uint16",
                    "name": "priceService",
                    "type": "uint16"
                },
                {
                    "internalType": "bool",
                    "name": "statusService",
                    "type": "bool"
                }
            ],
            "stateMutability": "view",
            "type": "function"
        },
        {
            "inputs": [
                {
                    "internalType": "string",
                    "name": "",
                    "type": "string"
                }
            ],
            "name": "SpecialServices",
            "outputs": [
                {
                    "internalType": "uint16",
                    "name": "priceService",
                    "type": "uint16"
                },
                {
                    "internalType": "bool",
                    "name": "statusService",
                    "type": "bool"
                },
                {
                    "internalType": "address",
                    "name": "laboratory",
                    "type": "address"
                }
            ],
            "stateMutability": "view",
            "type": "function"
        },
        {
            "inputs": [],
            "name": "addressContract",
            "outputs": [
                {
                    "internalType": "address",
                    "name": "",
                    "type": "address"
                }
            ],
            "stateMutability": "view",
            "type": "function"
        },
        {
            "inputs": [
                {
                    "internalType": "string",
                    "name": "_nameService",
                    "type": "string"
                },
                {
                    "internalType": "address",
                    "name": "_userWallet",
                    "type": "address"
                }
            ],
            "name": "asignServiceClient",
            "outputs": [],
            "stateMutability": "nonpayable",
            "type": "function"
        },
        {
            "inputs": [
                {
                    "internalType": "string",
                    "name": "_nameService",
                    "type": "string"
                },
                {
                    "internalType": "address",
                    "name": "_userWallet",
                    "type": "address"
                }
            ],
            "name": "asignSpecialServiceClient",
            "outputs": [],
            "stateMutability": "nonpayable",
            "type": "function"
        },
        {
            "inputs": [],
            "name": "balanceContractTokens",
            "outputs": [
                {
                    "internalType": "uint256",
                    "name": "",
                    "type": "uint256"
                }
            ],
            "stateMutability": "view",
            "type": "function"
        },
        {
            "inputs": [
                {
                    "internalType": "address",
                    "name": "_addr",
                    "type": "address"
                }
            ],
            "name": "balanceContractUser",
            "outputs": [
                {
                    "internalType": "uint256",
                    "name": "",
                    "type": "uint256"
                }
            ],
            "stateMutability": "view",
            "type": "function"
        },
        {
            "inputs": [
                {
                    "internalType": "uint256",
                    "name": "_quantity",
                    "type": "uint256"
                },
                {
                    "internalType": "address",
                    "name": "ownerClient",
                    "type": "address"
                }
            ],
            "name": "buyTokens",
            "outputs": [],
            "stateMutability": "payable",
            "type": "function"
        },
        {
            "inputs": [
                {
                    "internalType": "address",
                    "name": "_userWallet",
                    "type": "address"
                }
            ],
            "name": "cancelContractClient",
            "outputs": [
                {
                    "internalType": "string",
                    "name": "",
                    "type": "string"
                }
            ],
            "stateMutability": "payable",
            "type": "function"
        },
        {
            "inputs": [
                {
                    "internalType": "address",
                    "name": "_laboratory",
                    "type": "address"
                }
            ],
            "name": "cancelContractLaboratory",
            "outputs": [
                {
                    "internalType": "string",
                    "name": "",
                    "type": "string"
                }
            ],
            "stateMutability": "payable",
            "type": "function"
        },
        {
            "inputs": [
                {
                    "internalType": "string",
                    "name": "_name",
                    "type": "string"
                }
            ],
            "name": "changeStatusService",
            "outputs": [],
            "stateMutability": "nonpayable",
            "type": "function"
        },
        {
            "inputs": [
                {
                    "internalType": "string",
                    "name": "_name",
                    "type": "string"
                },
                {
                    "internalType": "address",
                    "name": "ownerLaboratory",
                    "type": "address"
                }
            ],
            "name": "changeStatusServiceLaboratory",
            "outputs": [],
            "stateMutability": "nonpayable",
            "type": "function"
        },
        {
            "inputs": [],
            "name": "checkNumberContract",
            "outputs": [
                {
                    "internalType": "address",
                    "name": "",
                    "type": "address"
                }
            ],
            "stateMutability": "view",
            "type": "function"
        },
        {
            "inputs": [],
            "name": "createClientFactory",
            "outputs": [],
            "stateMutability": "nonpayable",
            "type": "function"
        },
        {
            "inputs": [],
            "name": "createLaboratoryFactory",
            "outputs": [],
            "stateMutability": "nonpayable",
            "type": "function"
        },
        {
            "inputs": [
                {
                    "internalType": "string",
                    "name": "_name",
                    "type": "string"
                },
                {
                    "internalType": "uint16",
                    "name": "_price",
                    "type": "uint16"
                }
            ],
            "name": "createService",
            "outputs": [],
            "stateMutability": "nonpayable",
            "type": "function"
        },
        {
            "inputs": [
                {
                    "internalType": "string",
                    "name": "_name",
                    "type": "string"
                },
                {
                    "internalType": "uint16",
                    "name": "_price",
                    "type": "uint16"
                },
                {
                    "internalType": "address",
                    "name": "ownerLaboratory",
                    "type": "address"
                }
            ],
            "name": "createSpecialService",
            "outputs": [],
            "stateMutability": "nonpayable",
            "type": "function"
        },
        {
            "inputs": [
                {
                    "internalType": "address",
                    "name": "_addr",
                    "type": "address"
                }
            ],
            "name": "enableSubscription",
            "outputs": [],
            "stateMutability": "nonpayable",
            "type": "function"
        },
        {
            "inputs": [
                {
                    "internalType": "uint256",
                    "name": "",
                    "type": "uint256"
                }
            ],
            "name": "listServices",
            "outputs": [
                {
                    "internalType": "string",
                    "name": "",
                    "type": "string"
                }
            ],
            "stateMutability": "view",
            "type": "function"
        },
        {
            "inputs": [
                {
                    "internalType": "uint256",
                    "name": "",
                    "type": "uint256"
                }
            ],
            "name": "listSpecialServices",
            "outputs": [
                {
                    "internalType": "string",
                    "name": "",
                    "type": "string"
                }
            ],
            "stateMutability": "view",
            "type": "function"
        },
        {
            "inputs": [],
            "name": "owner",
            "outputs": [
                {
                    "internalType": "address",
                    "name": "",
                    "type": "address"
                }
            ],
            "stateMutability": "view",
            "type": "function"
        },
        {
            "inputs": [
                {
                    "internalType": "uint16",
                    "name": "_amount",
                    "type": "uint16"
                }
            ],
            "name": "rechargeTokens",
            "outputs": [],
            "stateMutability": "nonpayable",
            "type": "function"
        },
        {
            "inputs": [],
            "name": "requestSubscriptionClient",
            "outputs": [],
            "stateMutability": "nonpayable",
            "type": "function"
        },
        {
            "inputs": [],
            "name": "requestSubscriptionLaboratory",
            "outputs": [],
            "stateMutability": "nonpayable",
            "type": "function"
        },
        {
            "inputs": [
                {
                    "internalType": "address",
                    "name": "",
                    "type": "address"
                },
                {
                    "internalType": "uint256",
                    "name": "",
                    "type": "uint256"
                }
            ],
            "name": "servicesClientHistory",
            "outputs": [
                {
                    "internalType": "string",
                    "name": "",
                    "type": "string"
                }
            ],
            "stateMutability": "view",
            "type": "function"
        },
        {
            "inputs": [],
            "name": "showActivedServices",
            "outputs": [
                {
                    "internalType": "string[]",
                    "name": "",
                    "type": "string[]"
                }
            ],
            "stateMutability": "view",
            "type": "function"
        },
        {
            "inputs": [],
            "name": "showActivedSpecialServices",
            "outputs": [
                {
                    "internalType": "string[]",
                    "name": "",
                    "type": "string[]"
                }
            ],
            "stateMutability": "view",
            "type": "function"
        },
        {
            "inputs": [],
            "name": "showMyActivedSpecialServices",
            "outputs": [
                {
                    "internalType": "string[]",
                    "name": "",
                    "type": "string[]"
                }
            ],
            "stateMutability": "view",
            "type": "function"
        },
        {
            "inputs": [
                {
                    "internalType": "string",
                    "name": "_type",
                    "type": "string"
                }
            ],
            "name": "showPendingRequest",
            "outputs": [
                {
                    "internalType": "address[]",
                    "name": "",
                    "type": "address[]"
                }
            ],
            "stateMutability": "view",
            "type": "function"
        },
        {
            "inputs": [
                {
                    "internalType": "string",
                    "name": "_name",
                    "type": "string"
                }
            ],
            "name": "showServiceDetails",
            "outputs": [
                {
                    "internalType": "string",
                    "name": "",
                    "type": "string"
                },
                {
                    "internalType": "uint16",
                    "name": "",
                    "type": "uint16"
                },
                {
                    "internalType": "bool",
                    "name": "",
                    "type": "bool"
                }
            ],
            "stateMutability": "view",
            "type": "function"
        },
        {
            "inputs": [
                {
                    "internalType": "address",
                    "name": "_userWallet",
                    "type": "address"
                }
            ],
            "name": "showServicesClient",
            "outputs": [
                {
                    "internalType": "string[]",
                    "name": "",
                    "type": "string[]"
                }
            ],
            "stateMutability": "view",
            "type": "function"
        },
        {
            "inputs": [
                {
                    "internalType": "string",
                    "name": "_name",
                    "type": "string"
                }
            ],
            "name": "showSpecialServiceDetails",
            "outputs": [
                {
                    "internalType": "string",
                    "name": "",
                    "type": "string"
                },
                {
                    "internalType": "uint16",
                    "name": "",
                    "type": "uint16"
                },
                {
                    "internalType": "bool",
                    "name": "",
                    "type": "bool"
                }
            ],
            "stateMutability": "view",
            "type": "function"
        },
        {
            "inputs": [],
            "name": "showStatusAndRole",
            "outputs": [
                {
                    "internalType": "uint16",
                    "name": "",
                    "type": "uint16"
                },
                {
                    "internalType": "bool",
                    "name": "",
                    "type": "bool"
                }
            ],
            "stateMutability": "view",
            "type": "function"
        },
        {
            "inputs": [
                {
                    "internalType": "address",
                    "name": "_laboratoryWallet",
                    "type": "address"
                },
                {
                    "internalType": "uint16",
                    "name": "_quantityTokens",
                    "type": "uint16"
                }
            ],
            "name": "withdrawBalanceLaboratory",
            "outputs": [
                {
                    "internalType": "string",
                    "name": "",
                    "type": "string"
                }
            ],
            "stateMutability": "payable",
            "type": "function"
        },
        {
            "stateMutability": "payable",
            "type": "receive"
        }
    ],
    "bytecode": "60806040523480156200001157600080fd5b50604051620000209062000115565b6040808252600e908201526d1359591a58da5b99549bd8dad95d60921b60608201526080602082018190526002908201526126a960f11b60a082015260c001604051809103906000f0801580156200007c573d6000803e3d6000fd5b50600080546001600160a01b0319166001600160a01b0392909216918217905560405163140e25ad60e31b8152612710600482015263a0712d6890602401600060405180830381600087803b158015620000d557600080fd5b505af1158015620000ea573d6000803e3d6000fd5b5050600180546001600160a01b03199081163317909155600280549091163017905550620001239050565b6109c9806200549083390190565b61535d80620001336000396000f3fe608060405260043610620002265760003560e01c806362909f9311620001235780639da1ec6b11620000a7578063c47fe02a1162000075578063c47fe02a1462000772578063c625e9b1146200078a578063e43ae2cd14620007a1578063e6cbd05814620007c6578063ee1e2d3d14620007eb57005b80639da1ec6b1462000713578063b53f2fa9146200072b578063b60c704f1462000743578063bc224fb6146200075b57005b80637748d3c411620000f15780637748d3c4146200066d57806382a6f77c14620006925780638609b2fc14620006aa5780638da5cb5b14620006cc5780638f87519714620006ee57005b806362909f9314620005c15780636894ebce14620005d85780636b073db614620005fd5780636fbb8422146200062257005b80633ceb906d11620001ab57806347f2b7c0116200017957806347f2b7c014620004c757806354ba5d78146200051057806354c844fa14620005285780635b14ce06146200054d5780635ef31a2e146200056557005b80633ceb906d14620003e157806342924ca81462000406578063441548ee146200042b5780634634852714620004a657005b806326c8fb7011620001f557806326c8fb7014620002ec5780632c38c787146200032057806336c9aed6146200034557806337776a2f146200035d57806337cf779314620003ab57005b80624cef25146200023057806305c713c6146200026d5780631275497214620002a1578063161e9e2314620002c757005b366200022e57005b005b3480156200023d57600080fd5b50620002556200024f36600462003241565b62000810565b60405162000264919062003282565b60405180910390f35b3480156200027a57600080fd5b50620002926200028c366004620032e9565b62000ca0565b6040516200026491906200336f565b620002b8620002b2366004620033e8565b62000dff565b60405162000264919062003420565b348015620002d457600080fd5b506200022e620002e636600462003435565b620010e9565b348015620002f957600080fd5b50620003116200030b366004620032e9565b62001441565b60405190815260200162000264565b3480156200032d57600080fd5b50620002b86200033f36600462003480565b620014ba565b3480156200035257600080fd5b50620003116200157c565b3480156200036a57600080fd5b506200039233600090815260056020526040902054630100000090046001600160a01b031690565b6040516001600160a01b03909116815260200162000264565b348015620003b857600080fd5b50620003d0620003ca36600462003241565b620015b6565b6040516200026493929190620034ad565b348015620003ee57600080fd5b506200022e62000400366004620032e9565b6200161b565b3480156200041357600080fd5b506200022e62000425366004620034dd565b620016ed565b3480156200043857600080fd5b506200047c6200044a366004620032e9565b60056020526000908152604090205461ffff81169062010000810460ff1690630100000090046001600160a01b031683565b6040805161ffff909416845291151560208401526001600160a01b03169082015260600162000264565b348015620004b357600080fd5b506002546001600160a01b03163162000311565b348015620004d457600080fd5b503360009081526005602052604090205461ffff81169062010000900460ff165b6040805161ffff909316835290151560208301520162000264565b3480156200051d57600080fd5b506200022e6200195c565b3480156200053557600080fd5b506200022e6200054736600462003528565b62001aaa565b3480156200055a57600080fd5b506200029262001de3565b3480156200057257600080fd5b506200047c6200058436600462003241565b805160208183018101805160048252928201919093012091525461ffff81169062010000810460ff1690630100000090046001600160a01b031683565b620002b8620005d2366004620032e9565b62001fb2565b348015620005e557600080fd5b50620002b8620005f73660046200358e565b620022bf565b3480156200060a57600080fd5b50620003d06200061c36600462003241565b620022ed565b3480156200062f57600080fd5b50620004f56200064136600462003241565b805160208183018101805160038252928201919093012091525461ffff81169062010000900460ff1682565b3480156200067a57600080fd5b506200022e6200068c36600462003435565b6200232a565b3480156200069f57600080fd5b506200029262002597565b348015620006b757600080fd5b5060025462000392906001600160a01b031681565b348015620006d957600080fd5b5060015462000392906001600160a01b031681565b348015620006fb57600080fd5b50620002b86200070d3660046200358e565b6200276b565b3480156200072057600080fd5b50620002926200277c565b3480156200073857600080fd5b506200022e62002943565b3480156200075057600080fd5b506200022e62002a30565b620002b86200076c366004620032e9565b62002aad565b3480156200077f57600080fd5b506200022e62002b21565b6200022e6200079b366004620035a8565b62002b5e565b348015620007ae57600080fd5b506200022e620007c0366004620035ce565b62002cf0565b348015620007d357600080fd5b506200022e620007e536600462003435565b62002db6565b348015620007f857600080fd5b506200022e6200080a36600462003241565b62002f54565b6001546060906001600160a01b03163314620008495760405162461bcd60e51b81526004016200084090620035ec565b60405180910390fd5b6040516510db1a595b9d60d21b6020820152602601604051602081830303815290604052805190602001208260405160200162000887919062003649565b604051602081830303815290604052805190602001201480620008ff5750604051694c61626f7261746f727960b01b6020820152602a016040516020818303038152906040528051906020012082604051602001620008e7919062003649565b60405160208183030381529060405280519060200120145b6200094d5760405162461bcd60e51b815260206004820181905260248201527f456c207469706f20696e6772657361646f206e6f20657320636f72726563746f604482015260640162000840565b600954600090819067ffffffffffffffff81111562000970576200097062003196565b6040519080825280602002602001820160405280156200099a578160200160208202803683370190505b506040516510db1a595b9d60d21b60208201529091506026016040516020818303038152906040528051906020012084604051602001620009dc919062003649565b604051602081830303815290604052805190602001200362000b4a5760005b60095461ffff8216101562000b43576005600060098361ffff168154811062000a285762000a2862003667565b60009182526020808320909101546001600160a01b0316835282019290925260400190205460ff620100009091041615801562000aaf5750600061ffff166005600060098461ffff168154811062000a845762000a8462003667565b60009182526020808320909101546001600160a01b0316835282019290925260400190205461ffff16145b1562000b2e5760098161ffff168154811062000acf5762000acf62003667565b9060005260206000200160009054906101000a90046001600160a01b0316828461ffff168151811062000b065762000b0662003667565b6001600160a01b03909216602092830291909101909101528262000b2a8162003693565b9350505b8062000b3a8162003693565b915050620009fb565b5062000c97565b60005b60095461ffff8216101562000c95576005600060098361ffff168154811062000b7a5762000b7a62003667565b60009182526020808320909101546001600160a01b0316835282019290925260400190205460ff620100009091041615801562000c015750600161ffff166005600060098461ffff168154811062000bd65762000bd662003667565b60009182526020808320909101546001600160a01b0316835282019290925260400190205461ffff16145b1562000c805760098161ffff168154811062000c215762000c2162003667565b9060005260206000200160009054906101000a90046001600160a01b0316828461ffff168151811062000c585762000c5862003667565b6001600160a01b03909216602092830291909101909101528262000c7c8162003693565b9350505b8062000c8c8162003693565b91505062000b4d565b505b9150505b919050565b6001600160a01b038116600090815260056020526040902054606090829061ffff1615801562000cf357506001600160a01b03811660009081526005602052604090205462010000900460ff1615156001145b62000d125760405162461bcd60e51b81526004016200084090620036b7565b33600090815260066020908152604080832080548251818502810185019093528083529193909284015b8282101562000df257838290600052602060002001805462000d5e90620036ee565b80601f016020809104026020016040519081016040528092919081815260200182805462000d8c90620036ee565b801562000ddd5780601f1062000db15761010080835404028352916020019162000ddd565b820191906000526020600020905b81548152906001019060200180831162000dbf57829003601f168201915b50505050508152602001906001019062000d3c565b5050505091505b50919050565b6001600160a01b038216600090815260056020526040902054606090839061ffff16600114801562000e5457506001600160a01b03811660009081526005602052604090205462010000900460ff1615156001145b62000e735760405162461bcd60e51b8152600401620008409062003724565b600080546040516370a0823160e01b81523360048201526001600160a01b03909116906370a0823190602401602060405180830381865afa15801562000ebd573d6000803e3d6000fd5b505050506040513d601f19601f8201168201806040525081019062000ee3919062003759565b1162000f325760405162461bcd60e51b815260206004820152601b60248201527f4e6f20706f7365652062616c616e636520737566696369656e74650000000000604482015260640162000840565b600080546040516370a0823160e01b81523360048201526001600160a01b03909116906370a0823190602401602060405180830381865afa15801562000f7c573d6000803e3d6000fd5b505050506040513d601f19601f8201168201806040525081019062000fa2919062003759565b90508361ffff168110620010a8576000546002546040516328e709cd60e11b81523360048201526001600160a01b03918216602482015261ffff871660448201529116906351ce139a90606401600060405180830381600087803b1580156200100a57600080fd5b505af11580156200101f573d6000803e3d6000fd5b50505050846001600160a01b03166108fc6200103f8661ffff1662003062565b6040518115909202916000818181858888f1935050505015801562001068573d6000803e3d6000fd5b506040518060400160405280601981526020017f74752072657469726f206861207369646f20657869746f736f00000000000000815250925050620010e2565b6040518060400160405280601c81526020017f4e6f207469656e6520666f6e646f7320737566696369656e7465732e000000008152509250505b5092915050565b6001600160a01b038116600090815260056020526040902054819061ffff161580156200113957506001600160a01b03811660009081526005602052604090205462010000900460ff1615156001145b620011585760405162461bcd60e51b81526004016200084090620036b7565b6001600160a01b03828116600090815260056020526040902054630100000090041633146200119b5760405162461bcd60e51b8152600401620008409062003773565b600383604051620011ad919062003649565b9081526040516020918190039190910190205462010000900460ff161515600114620012155760405162461bcd60e51b8152602060048201526016602482015275536572766963696f206e6f20646973706f6e69626c6560501b604482015260640162000840565b6000546040516370a0823160e01b81523360048201526001600160a01b03909116906370a0823190602401602060405180830381865afa1580156200125e573d6000803e3d6000fd5b505050506040513d601f19601f8201168201806040525081019062001284919062003759565b60038460405162001296919062003649565b9081526040519081900360200190205461ffff161115620012fa5760405162461bcd60e51b815260206004820152601c60248201527f4e6f20706f73656520666f6e646f732073756669656369656e74657300000000604482015260640162000840565b6000546002546040516001600160a01b03928316926351ce139a9233929116906003906200132a90899062003649565b908152604051908190036020018120546001600160e01b031960e086901b1682526001600160a01b03938416600483015291909216602483015261ffff166044820152606401600060405180830381600087803b1580156200138b57600080fd5b505af1158015620013a0573d6000803e3d6000fd5b5050336000908152600660209081526040822080546001810182559083529120019150620013d19050848262003815565b5060408051818152601f918101919091527f536572766963696f20617367696e61646f20636f7272656374616d656e74650060608201523360208201527faeec4cc17945dc276cca5dfcea87d02aea4287ddf3d60038ed95a0c26e84e2fe906080015b60405180910390a1505050565b600080546040516370a0823160e01b81526001600160a01b038481166004830152909116906370a08231906024015b602060405180830381865afa1580156200148e573d6000803e3d6000fd5b505050506040513d601f19601f82011682018060405250810190620014b4919062003759565b92915050565b60066020528160005260406000208181548110620014d757600080fd5b90600052602060002001600091509150508054620014f590620036ee565b80601f01602080910402602001604051908101604052809291908181526020018280546200152390620036ee565b8015620015745780601f10620015485761010080835404028352916020019162001574565b820191906000526020600020905b8154815290600101906020018083116200155657829003601f168201915b505050505081565b600080546002546040516370a0823160e01b81526001600160a01b039182166004820152839291909116906370a082319060240162001470565b606060008083600485604051620015ce919062003649565b9081526040519081900360200181205461ffff1690600490620015f390889062003649565b90815260405190819003602001902054919450925060ff620100009091041690509193909250565b6001546001600160a01b03163314620016485760405162461bcd60e51b81526004016200084090620035ec565b6001600160a01b03811660009081526005602052604090819020805462ff0000191662010000179055517f354c6a72b329f685c38dfa60613c835b26904be271112de710efa2e2c44eb3b490620016e29060208082526029908201527f536520686120686162696c697461646f20756e20636c69656e7465206f20737560408201526839b1b934b831b4b7b760b91b606082015260800190565b60405180910390a150565b6001546001600160a01b031633146200171a5760405162461bcd60e51b81526004016200084090620035ec565b620018016007805480602002602001604051908101604052809291908181526020016000905b82821015620017f65783829060005260206000200180546200176290620036ee565b80601f01602080910402602001604051908101604052809291908181526020018280546200179090620036ee565b8015620017e15780601f10620017b557610100808354040283529160200191620017e1565b820191906000526020600020905b815481529060010190602001808311620017c357829003601f168201915b50505050508152602001906001019062001740565b505050508362003074565b6200184f5760405162461bcd60e51b815260206004820152601e60248201527f4e6f6d62726520646520736572766963696f73207961206578697374652e0000604482015260640162000840565b60408051808201825261ffff831681526001602082015290516003906200187890859062003649565b9081526040516020918190038201902082518154939092015161ffff90921662ffffff19909316929092176201000091151591909102179055600780546001810182556000919091527fa66cc928b5edb82af9bd49922954155ab7b0942694bea4ce44661d9a8736c68801620018ef838262003815565b507f8e57bf275bc9d4afbccb31ba764024cab254f99c0a08044738ca22f06756a30860405162001950906020808252601f908201527f53652068612063726561646f20756e206e7565766f20736572766963696f2e00604082015260600190565b60405180910390a15050565b3360009081526005602052604090205462010000900460ff16151560011480156200199a57503360009081526005602052604090205461ffff166001145b620019b95760405162461bcd60e51b81526004016200084090620038e2565b60025460405160009133916001600160a01b0390911690620019db906200317a565b6001600160a01b03928316815291166020820152604001604051809103906000f08015801562001a0f573d6000803e3d6000fd5b50336000908152600560205260409081902080546301000000600160b81b03191663010000006001600160a01b03851602179055519091507f9ca50741aa35660fc78a732a8556916f45f5e93abc509a86d03a6aaaa7a2228090620016e29083906040808252600f908201526e436f6e747261746f2063726561646f60881b60608201526001600160a01b0391909116602082015260800190565b6001600160a01b038116600090815260056020526040902054819061ffff16600114801562001afc57506001600160a01b03811660009081526005602052604090205462010000900460ff1615156001145b62001b1b5760405162461bcd60e51b8152600401620008409062003724565b62001c026008805480602002602001604051908101604052809291908181526020016000905b8282101562001bf757838290600052602060002001805462001b6390620036ee565b80601f016020809104026020016040519081016040528092919081815260200182805462001b9190620036ee565b801562001be25780601f1062001bb65761010080835404028352916020019162001be2565b820191906000526020600020905b81548152906001019060200180831162001bc457829003601f168201915b50505050508152602001906001019062001b41565b505050508562003074565b62001c505760405162461bcd60e51b815260206004820152601e60248201527f4e6f6d62726520646520736572766963696f73207961206578697374652e0000604482015260640162000840565b6001600160a01b038281166000908152600560205260409020546301000000900416331462001c935760405162461bcd60e51b8152600401620008409062003773565b6040805160608101825261ffff85168152600160208201523381830152905160049062001cc290879062003649565b90815260408051918290036020908101909220835181549385015194909201516001600160a01b03166301000000026301000000600160b81b0319941515620100000262ffffff1990941661ffff909316929092179290921792909216919091179055600880546001810182556000919091527ff3f7a9fe364faab93b216da50a3214154f22a0a2b415b23a84c8169e8b636ee30162001d63858262003815565b507f8e57bf275bc9d4afbccb31ba764024cab254f99c0a08044738ca22f06756a30860405162001dd59060208082526028908201527f53652068612063726561646f20756e206e7565766f20736572766963696f206560408201526739b832b1b4b0b61760c11b606082015260800190565b60405180910390a150505050565b60085460609060009067ffffffffffffffff81111562001e075762001e0762003196565b60405190808252806020026020018201604052801562001e3c57816020015b606081526020019060019003908162001e265790505b5090506000805b60085461ffff8216101562001faa57600460088261ffff168154811062001e6e5762001e6e62003667565b9060005260206000200160405162001e87919062003953565b9081526040519081900360200190205460ff6201000090910416151560010362001f955760088161ffff168154811062001ec55762001ec562003667565b90600052602060002001805462001edc90620036ee565b80601f016020809104026020016040519081016040528092919081815260200182805462001f0a90620036ee565b801562001f5b5780601f1062001f2f5761010080835404028352916020019162001f5b565b820191906000526020600020905b81548152906001019060200180831162001f3d57829003601f168201915b5050505050838361ffff168151811062001f795762001f7962003667565b6020026020010181905250818062001f919062003693565b9250505b8062001fa18162003693565b91505062001e43565b509092915050565b6001600160a01b038116600090815260056020526040902054606090829061ffff161580156200200557506001600160a01b03811660009081526005602052604090205462010000900460ff1615156001145b620020245760405162461bcd60e51b81526004016200084090620036b7565b6001600160a01b0383811660009081526005602052604090205463010000009004163314620020675760405162461bcd60e51b8152600401620008409062003773565b6000339050806001600160a01b031663085634ec6040518163ffffffff1660e01b8152600401600060405180830381600087803b158015620020a857600080fd5b505af1158015620020bd573d6000803e3d6000fd5b5050600080546040516370a0823160e01b81523360048201529193506001600160a01b031691506370a0823190602401602060405180830381865afa1580156200210b573d6000803e3d6000fd5b505050506040513d601f19601f8201168201806040525081019062002131919062003759565b11156200228057600080546040516370a0823160e01b81523360048201526001600160a01b03909116906370a0823190602401602060405180830381865afa15801562002182573d6000803e3d6000fd5b505050506040513d601f19601f82011682018060405250810190620021a8919062003759565b6000546002546040516328e709cd60e11b81523360048201526001600160a01b0391821660248201526044810184905292935016906351ce139a90606401600060405180830381600087803b1580156200220157600080fd5b505af115801562002216573d6000803e3d6000fd5b50505050846001600160a01b03166108fc620022328362003062565b6040518115909202916000818181858888f193505050501580156200225b573d6000803e3d6000fd5b506040518060600160405280603e8152602001620052ea603e91399350505062000df9565b6040518060400160405280601d81526020017f547520636f6e747261746f206861207369646f2063616e63656c61646f00000081525092505062000df9565b60088181548110620022d057600080fd5b906000526020600020016000915090508054620014f590620036ee565b60606000808360038560405162002305919062003649565b9081526040519081900360200181205461ffff1690600390620015f390889062003649565b6001600160a01b038116600090815260056020526040902054819061ffff161580156200237a57506001600160a01b03811660009081526005602052604090205462010000900460ff1615156001145b620023995760405162461bcd60e51b81526004016200084090620036b7565b6001600160a01b0382811660009081526005602052604090205463010000009004163314620023dc5760405162461bcd60e51b8152600401620008409062003773565b600483604051620023ee919062003649565b9081526040516020918190039190910190205462010000900460ff161515600114620024565760405162461bcd60e51b8152602060048201526016602482015275536572766963696f206e6f20646973706f6e69626c6560501b604482015260640162000840565b6000546040516370a0823160e01b81523360048201526001600160a01b03909116906370a0823190602401602060405180830381865afa1580156200249f573d6000803e3d6000fd5b505050506040513d601f19601f82011682018060405250810190620024c5919062003759565b600484604051620024d7919062003649565b9081526040519081900360200190205461ffff1611156200253b5760405162461bcd60e51b815260206004820152601b60248201527f4e6f20706f73656520666f6e646f7320737566696369656e7465730000000000604482015260640162000840565b6000546040516001600160a01b03909116906351ce139a9033906004906200256590889062003649565b908152604051908190036020018120546001600160a01b03630100000090910416906004906200132a90899062003649565b60085460609060009067ffffffffffffffff811115620025bb57620025bb62003196565b604051908082528060200260200182016040528015620025f057816020015b6060815260200190600190039081620025da5790505b5090506000805b60085461ffff8216101562001faa57336001600160a01b0316600460088361ffff16815481106200262c576200262c62003667565b9060005260206000200160405162002645919062003953565b908152604051908190036020019020546001600160a01b0363010000009091041603620027565760088161ffff168154811062002686576200268662003667565b9060005260206000200180546200269d90620036ee565b80601f0160208091040260200160405190810160405280929190818152602001828054620026cb90620036ee565b80156200271c5780601f10620026f0576101008083540402835291602001916200271c565b820191906000526020600020905b815481529060010190602001808311620026fe57829003601f168201915b5050505050838361ffff16815181106200273a576200273a62003667565b60200260200101819052508180620027529062003693565b9250505b80620027628162003693565b915050620025f7565b60078181548110620022d057600080fd5b60075460609060009067ffffffffffffffff811115620027a057620027a062003196565b604051908082528060200260200182016040528015620027d557816020015b6060815260200190600190039081620027bf5790505b5090506000805b60075461ffff8216101562001faa57600360078261ffff168154811062002807576200280762003667565b9060005260206000200160405162002820919062003953565b9081526040519081900360200190205460ff620100009091041615156001036200292e5760078161ffff16815481106200285e576200285e62003667565b9060005260206000200180546200287590620036ee565b80601f0160208091040260200160405190810160405280929190818152602001828054620028a390620036ee565b8015620028f45780601f10620028c857610100808354040283529160200191620028f4565b820191906000526020600020905b815481529060010190602001808311620028d657829003601f168201915b5050505050838361ffff168151811062002912576200291262003667565b602002602001018190525081806200292a9062003693565b9250505b806200293a8162003693565b915050620027dc565b6200294d62003111565b6200296c5760405162461bcd60e51b81526004016200084090620039d1565b60408051606081019091528060005b61ffff90811682526000602080840182905260409384018290523380835260058252848320865181549388015197909601516001600160a01b03166301000000026301000000600160b81b0319971515620100000262ffffff1990941696909516959095179190911794909416919091179091556009805460018101825591527f6e1540171b6c0c960b71a7020d9f60077f6af931a8bbf590da0223dacf75c7af0180546001600160a01b0319169091179055565b3360009081526005602052604090205462010000900460ff161515600114801562002a6c57503360009081526005602052604090205461ffff16155b62002a8b5760405162461bcd60e51b81526004016200084090620038e2565b60025460405160009133916001600160a01b0390911690620019db9062003188565b6001600160a01b038116600090815260056020526040902054606090829061ffff16600114801562002b0257506001600160a01b03811660009081526005602052604090205462010000900460ff1615156001145b620020245760405162461bcd60e51b8152600401620008409062003724565b62002b2b62003111565b62002b4a5760405162461bcd60e51b81526004016200084090620039d1565b60408051606081019091528060016200297b565b6001600160a01b038181166000908152600560205260409020546301000000900416331462002ba15760405162461bcd60e51b8152600401620008409062003773565b600062002bae8362003062565b90508034101562002c285760405162461bcd60e51b815260206004820152603a60248201527f4e6563657369746173206d617320657468657273207061726120636f6d70726160448201527f7220657374612063616e746964616420646520746f6b656e732e000000000000606482015260840162000840565b600062002c36823462003a17565b6040519091506001600160a01b0384169082156108fc029083906000818181858888f1935050505015801562002c70573d6000803e3d6000fd5b5060005460405163a9059cbb60e01b8152336004820152602481018690526001600160a01b039091169063a9059cbb906044016020604051808303816000875af115801562002cc3573d6000803e3d6000fd5b505050506040513d601f19601f8201168201806040525081019062002ce9919062003a31565b5050505050565b6001546001600160a01b0316331462002d1d5760405162461bcd60e51b81526004016200084090620035ec565b60005460405163140e25ad60e31b815261ffff831660048201526001600160a01b039091169063a0712d6890602401600060405180830381600087803b15801562002d6757600080fd5b505af115801562002d7c573d6000803e3d6000fd5b505060405161ffff841681527fa3fcbf85d2ee7bc02b55f15a3259f856a2b3489f50d6a91e302b612e43df01cb92506020019050620016e2565b6001600160a01b038116600090815260056020526040902054819061ffff16600114801562002e0857506001600160a01b03811660009081526005602052604090205462010000900460ff1615156001145b62002e275760405162461bcd60e51b8152600401620008409062003724565b6001600160a01b038281166000908152600560205260409020546301000000900416331462002e6a5760405162461bcd60e51b8152600401620008409062003773565b60048360405162002e7c919062003649565b9081526040519081900360200181205460ff6201000090910416159060049062002ea890869062003649565b9081526040519081900360200181208054921515620100000262ff000019909316929092179091557f7ea7da48cf18f9bc204a2781adfa6f4f7a2c3eb23101b97cf76fd373f029036f9062001434906020808252603d908201527f53652068612063616d626961646f20656c2065737461646f2064656c2073657260408201527f766963696f20657370656369616c20636f7272656374616d656e74652e000000606082015260800190565b6001546001600160a01b0316331462002f815760405162461bcd60e51b81526004016200084090620035ec565b60038160405162002f93919062003649565b9081526040519081900360200181205460ff6201000090910416159060039062002fbf90849062003649565b9081526040519081900360200181208054921515620100000262ff000019909316929092179091557f7ea7da48cf18f9bc204a2781adfa6f4f7a2c3eb23101b97cf76fd373f029036f90620016e29060208082526034908201527f53652068612063616d626961646f20656c2065737461646f2064656c207365726040820152733b34b1b4b79031b7b93932b1ba30b6b2b73a329760611b606082015260800190565b6000620014b482633b9aca0062003a55565b600160005b8351811015620010e2578260405160200162003096919062003649565b60405160208183030381529060405280519060200120848281518110620030c157620030c162003667565b6020026020010151604051602001620030db919062003649565b6040516020818303038152906040528051906020012003620030fc57600091505b80620031088162003a77565b91505062003079565b600160005b6009548110156200317657336001600160a01b03166009828154811062003141576200314162003667565b6000918252602090912001546001600160a01b0316036200316157600091505b806200316d8162003a77565b91505062003116565b5090565b610ae38062003a9483390190565b610d73806200457783390190565b634e487b7160e01b600052604160045260246000fd5b600082601f830112620031be57600080fd5b813567ffffffffffffffff80821115620031dc57620031dc62003196565b604051601f8301601f19908116603f0116810190828211818310171562003207576200320762003196565b816040528381528660208588010111156200322157600080fd5b836020870160208301376000602085830101528094505050505092915050565b6000602082840312156200325457600080fd5b813567ffffffffffffffff8111156200326c57600080fd5b6200327a84828501620031ac565b949350505050565b6020808252825182820181905260009190848201906040850190845b81811015620032c55783516001600160a01b0316835292840192918401916001016200329e565b50909695505050505050565b80356001600160a01b038116811462000c9b57600080fd5b600060208284031215620032fc57600080fd5b6200330782620032d1565b9392505050565b60005b838110156200332b57818101518382015260200162003311565b838111156200333b576000848401525b50505050565b600081518084526200335b8160208601602086016200330e565b601f01601f19169290920160200192915050565b6000602080830181845280855180835260408601915060408160051b870101925083870160005b82811015620033c857603f19888603018452620033b585835162003341565b9450928501929085019060010162003396565b5092979650505050505050565b803561ffff8116811462000c9b57600080fd5b60008060408385031215620033fc57600080fd5b6200340783620032d1565b91506200341760208401620033d5565b90509250929050565b60208152600062003307602083018462003341565b600080604083850312156200344957600080fd5b823567ffffffffffffffff8111156200346157600080fd5b6200346f85828601620031ac565b9250506200341760208401620032d1565b600080604083850312156200349457600080fd5b6200349f83620032d1565b946020939093013593505050565b606081526000620034c2606083018662003341565b61ffff94909416602083015250901515604090910152919050565b60008060408385031215620034f157600080fd5b823567ffffffffffffffff8111156200350957600080fd5b6200351785828601620031ac565b9250506200341760208401620033d5565b6000806000606084860312156200353e57600080fd5b833567ffffffffffffffff8111156200355657600080fd5b6200356486828701620031ac565b9350506200357560208501620033d5565b91506200358560408501620032d1565b90509250925092565b600060208284031215620035a157600080fd5b5035919050565b60008060408385031215620035bc57600080fd5b823591506200341760208401620032d1565b600060208284031215620035e157600080fd5b6200330782620033d5565b6020808252603c908201527f4e6f207469656e6573206c6f73207065726d69736f73206e656365736172696f60408201527f73207061726120656a65637574617220657374612066756e63696f6e00000000606082015260800190565b600082516200365d8184602087016200330e565b9190910192915050565b634e487b7160e01b600052603260045260246000fd5b634e487b7160e01b600052601160045260246000fd5b600061ffff808316818103620036ad57620036ad6200367d565b6001019392505050565b6020808252601c908201527f4e6f20706f736565207065726d69736f7320646520636c69656e746500000000604082015260600190565b600181811c908216806200370357607f821691505b60208210810362000df957634e487b7160e01b600052602260045260246000fd5b6020808252818101527f4e6f20706f736565207065726d69736f73206465206c61626f7261746f72696f604082015260600190565b6000602082840312156200376c57600080fd5b5051919050565b6020808252602f908201527f4e6f207469656e6573207065726d69736f73207061726120656a65637574617260408201526e1032b9ba309037b832b930b1b4b7b760891b606082015260800190565b601f8211156200381057600081815260208120601f850160051c81016020861015620037eb5750805b601f850160051c820191505b818110156200380c57828155600101620037f7565b5050505b505050565b815167ffffffffffffffff81111562003832576200383262003196565b6200384a81620038438454620036ee565b84620037c2565b602080601f831160018114620038825760008415620038695750858301515b600019600386901b1c1916600185901b1785556200380c565b600085815260208120601f198616915b82811015620038b35788860151825594840194600190910190840162003892565b5085821015620038d25787850151600019600388901b60f8161c191681555b5050505050600190811b01905550565b6020808252604b908201527f4e6f207469656e657320686162696c697461646f20706172612063726561722060408201527f747520636f6e747261746f206f207469706f20646520636f6e747261746f206e60608201526a379031b7b4b731b4b2329760a91b608082015260a00190565b60008083546200396381620036ee565b600182811680156200397e57600181146200399457620039c5565b60ff1984168752821515830287019450620039c5565b8760005260208060002060005b85811015620039bc5781548a820152908401908201620039a1565b50505082870194505b50929695505050505050565b60208082526026908201527f5961207469656e657320756e61207065746963696f6e2061207475206469726560408201526531b1b4b7b71760d11b606082015260800190565b60008282101562003a2c5762003a2c6200367d565b500390565b60006020828403121562003a4457600080fd5b815180151581146200330757600080fd5b600081600019048311821515161562003a725762003a726200367d565b500290565b60006001820162003a8c5762003a8c6200367d565b506001019056fe608060405234801561001057600080fd5b50604051610ae3380380610ae383398101604081905261002f916100a4565b600080546001600160a01b03199081166001600160a01b0394851617909155600180546002805490931693909416929092179055600160a01b6001600160a81b03199092163060ff60a01b1916179190911790556100d7565b80516001600160a01b038116811461009f57600080fd5b919050565b600080604083850312156100b757600080fd5b6100c083610088565b91506100ce60208401610088565b90509250929050565b6109fd806100e66000396000f3fe6080604052600436106100865760003560e01c8063c98c64b711610059578063c98c64b71461011e578063cc805c201461013e578063d5808c7514610151578063e3e97a9a14610182578063ea54d212146101a557600080fd5b8063085634ec1461008b57806312494d16146100ac5780638da5cb5b146100c157806396b0e90d146100fe575b600080fd5b34801561009757600080fd5b506100aa6001805460ff60a01b19169055565b005b3480156100b857600080fd5b506100aa6101c7565b3480156100cd57600080fd5b506000546100e1906001600160a01b031681565b6040516001600160a01b0390911681526020015b60405180910390f35b34801561010a57600080fd5b506100aa610119366004610657565b610272565b34801561012a57600080fd5b506100aa6101393660046106ab565b610307565b6100aa61014c3660046106f9565b61039d565b34801561015d57600080fd5b5060015461017290600160a01b900460ff1681565b60405190151581526020016100f5565b34801561018e57600080fd5b5061019761044a565b6040519081526020016100f5565b3480156101b157600080fd5b506101ba6104eb565b6040516100f59190610777565b600154600160a01b900460ff166101f95760405162461bcd60e51b81526004016101f0906107d9565b60405180910390fd5b600254600054604051635e1127db60e11b81526001600160a01b03918216600482015291169063bc224fb6906024016000604051808303816000875af1158015610247573d6000803e3d6000fd5b505050506040513d6000823e601f3d908101601f1916820160405261026f9190810190610855565b50565b600154600160a01b900460ff1661029b5760405162461bcd60e51b81526004016101f0906107d9565b600254600054604051631cd97a0b60e31b81526001600160a01b039283169263e6cbd058926102d29286929091169060040161088a565b600060405180830381600087803b1580156102ec57600080fd5b505af1158015610300573d6000803e3d6000fd5b5050505050565b600154600160a01b900460ff166103305760405162461bcd60e51b81526004016101f0906107d9565b600254600054604051632a64227d60e11b81526001600160a01b03928316926354c844fa92610367928792879216906004016108b4565b600060405180830381600087803b15801561038157600080fd5b505af1158015610395573d6000803e3d6000fd5b505050505050565b600154600160a01b900460ff166103c65760405162461bcd60e51b81526004016101f0906107d9565b60025460005460405163093aa4b960e11b81526001600160a01b03918216600482015261ffff841660248201529116906312754972906044016000604051808303816000875af115801561041e573d6000803e3d6000fd5b505050506040513d6000823e601f3d908101601f191682016040526104469190810190610855565b5050565b600154600090600160a01b900460ff166104765760405162461bcd60e51b81526004016101f0906107d9565b60025460015460405163026c8fb760e41b81526001600160a01b0391821660048201529116906326c8fb7090602401602060405180830381865afa1580156104c2573d6000803e3d6000fd5b505050506040513d601f19601f820116820180604052508101906104e691906108eb565b905090565b600154606090600160a01b900460ff166105175760405162461bcd60e51b81526004016101f0906107d9565b600260009054906101000a90046001600160a01b03166001600160a01b03166382a6f77c6040518163ffffffff1660e01b8152600401600060405180830381865afa15801561056a573d6000803e3d6000fd5b505050506040513d6000823e601f3d908101601f191682016040526104e69190810190610904565b634e487b7160e01b600052604160045260246000fd5b604051601f8201601f1916810167ffffffffffffffff811182821017156105d1576105d1610592565b604052919050565b600067ffffffffffffffff8211156105f3576105f3610592565b50601f01601f191660200190565b600082601f83011261061257600080fd5b8135610625610620826105d9565b6105a8565b81815284602083860101111561063a57600080fd5b816020850160208301376000918101602001919091529392505050565b60006020828403121561066957600080fd5b813567ffffffffffffffff81111561068057600080fd5b61068c84828501610601565b949350505050565b803561ffff811681146106a657600080fd5b919050565b600080604083850312156106be57600080fd5b823567ffffffffffffffff8111156106d557600080fd5b6106e185828601610601565b9250506106f060208401610694565b90509250929050565b60006020828403121561070b57600080fd5b61071482610694565b9392505050565b60005b8381101561073657818101518382015260200161071e565b83811115610745576000848401525b50505050565b6000815180845261076381602086016020860161071b565b601f01601f19169290920160200192915050565b6000602080830181845280855180835260408601915060408160051b870101925083870160005b828110156107cc57603f198886030184526107ba85835161074b565b9450928501929085019060010161079e565b5092979650505050505050565b6020808252601c908201527f4e6f20706f73656520756e20636f6e74726163746f2061637469766f00000000604082015260600190565b600082601f83011261082157600080fd5b815161082f610620826105d9565b81815284602083860101111561084457600080fd5b61068c82602083016020870161071b565b60006020828403121561086757600080fd5b815167ffffffffffffffff81111561087e57600080fd5b61068c84828501610810565b60408152600061089d604083018561074b565b905060018060a01b03831660208301529392505050565b6060815260006108c7606083018661074b565b61ffff949094166020830152506001600160a01b0391909116604090910152919050565b6000602082840312156108fd57600080fd5b5051919050565b6000602080838503121561091757600080fd5b825167ffffffffffffffff8082111561092f57600080fd5b818501915085601f83011261094357600080fd5b81518181111561095557610955610592565b8060051b6109648582016105a8565b918252838101850191858101908984111561097e57600080fd5b86860192505b838310156109ba5782518581111561099c5760008081fd5b6109aa8b89838a0101610810565b8352509186019190860190610984565b999850505050505050505056fea2646970667358221220623125b4654968cc8109b9e075efe7ab8c06125d652c7c34c592b1471622591264736f6c634300080f0033608060405234801561001057600080fd5b50604051610d73380380610d7383398101604081905261002f916100a3565b600080546001600160a01b039384166001600160a01b031991821617909155600180548216301790556002805460038054909316939094169283179091556001600160a81b031990921617600160a01b1790556100d6565b80516001600160a01b038116811461009e57600080fd5b919050565b600080604083850312156100b657600080fd5b6100bf83610087565b91506100cd60208401610087565b90509250929050565b610c8e806100e56000396000f3fe6080604052600436106100dd5760003560e01c8063c73e27101161007f578063db8366eb11610059578063db8366eb1461024d578063de1c54881461026d578063e4f05b7614610282578063ea54d212146102a257600080fd5b8063c73e2710146101d7578063d25120ce146101f9578063d5808c751461021c57600080fd5b806314f52f3a116100bb57806314f52f3a146101535780632b68bb2d146101825780638da5cb5b14610197578063a5487a03146101b757600080fd5b8063072ec0bb146100e2578063085634ec1461011f5780630e662cf014610140575b600080fd5b3480156100ee57600080fd5b50600254610102906001600160a01b031681565b6040516001600160a01b0390911681526020015b60405180910390f35b34801561012b57600080fd5b5061013e6002805460ff60a01b19169055565b005b61013e61014e36600461081d565b6102b7565b34801561015f57600080fd5b5061017361016e3660046108b0565b610359565b6040516101169392919061098c565b61018a61040c565b60405161011691906109ba565b3480156101a357600080fd5b50600054610102906001600160a01b031681565b3480156101c357600080fd5b506101736101d23660046108b0565b6104f3565b3480156101e357600080fd5b506101ec610554565b60405161011691906109cd565b34801561020557600080fd5b5061020e6105cd565b604051908152602001610116565b34801561022857600080fd5b5060025461023d90600160a01b900460ff1681565b6040519015158152602001610116565b34801561025957600080fd5b5061013e6102683660046108b0565b610669565b34801561027957600080fd5b506101ec6106d5565b34801561028e57600080fd5b5061013e61029d3660046108b0565b610754565b3480156102ae57600080fd5b506101ec61078b565b600254600160a01b900460ff166102e95760405162461bcd60e51b81526004016102e090610a2f565b60405180910390fd5b60035460005460405163c625e9b160e01b815261ffff841660048201526001600160a01b03918216602482015291169063c625e9b19034906044016000604051808303818588803b15801561033d57600080fd5b505af1158015610351573d6000803e3d6000fd5b505050505050565b6060600080600260149054906101000a900460ff1661038a5760405162461bcd60e51b81526004016102e090610a2f565b6003546040516335839edb60e11b81526001600160a01b0390911690636b073db6906103ba9087906004016109ba565b600060405180830381865afa1580156103d7573d6000803e3d6000fd5b505050506040513d6000823e601f3d908101601f191682016040526103ff9190810190610ab3565b9250925092509193909250565b600254606090600160a01b900460ff166104785760405162461bcd60e51b815260206004820152602760248201527f4e6f20706f73656520756e20636f6e74726163746f2061637469766f2061206360448201526630b731b2b630b960c91b60648201526084016102e0565b6003546000546040516362909f9360e01b81526001600160a01b0391821660048201529116906362909f93906024016000604051808303816000875af11580156104c6573d6000803e3d6000fd5b505050506040513d6000823e601f3d908101601f191682016040526104ee9190810190610b1d565b905090565b6060600080600260149054906101000a900460ff166105245760405162461bcd60e51b81526004016102e090610a2f565b6003546040516337cf779360e01b81526001600160a01b03909116906337cf7793906103ba9087906004016109ba565b6003546000546040516302e389e360e11b81526001600160a01b03918216600482015260609291909116906305c713c690602401600060405180830381865afa1580156105a5573d6000803e3d6000fd5b505050506040513d6000823e601f3d908101601f191682016040526104ee9190810190610b52565b600254600090600160a01b900460ff166105f95760405162461bcd60e51b81526004016102e090610a2f565b60035460015460405163026c8fb760e41b81526001600160a01b0391821660048201529116906326c8fb7090602401602060405180830381865afa158015610645573d6000803e3d6000fd5b505050506040513d601f19601f820116820180604052508101906104ee9190610c15565b60035460005460405163161e9e2360e01b81526001600160a01b039283169263161e9e23926106a092869290911690600401610c2e565b600060405180830381600087803b1580156106ba57600080fd5b505af11580156106ce573d6000803e3d6000fd5b5050505050565b600254606090600160a01b900460ff166107015760405162461bcd60e51b81526004016102e090610a2f565b600360009054906101000a90046001600160a01b03166001600160a01b0316639da1ec6b6040518163ffffffff1660e01b8152600401600060405180830381865afa1580156105a5573d6000803e3d6000fd5b600354600054604051631dd234f160e21b81526001600160a01b0392831692637748d3c4926106a092869290911690600401610c2e565b600254606090600160a01b900460ff166107b75760405162461bcd60e51b81526004016102e090610a2f565b600360009054906101000a90046001600160a01b03166001600160a01b0316635b14ce066040518163ffffffff1660e01b8152600401600060405180830381865afa1580156105a5573d6000803e3d6000fd5b61ffff8116811461081a57600080fd5b50565b60006020828403121561082f57600080fd5b813561083a8161080a565b9392505050565b634e487b7160e01b600052604160045260246000fd5b604051601f8201601f1916810167ffffffffffffffff8111828210171561088057610880610841565b604052919050565b600067ffffffffffffffff8211156108a2576108a2610841565b50601f01601f191660200190565b6000602082840312156108c257600080fd5b813567ffffffffffffffff8111156108d957600080fd5b8201601f810184136108ea57600080fd5b80356108fd6108f882610888565b610857565b81815285602083850101111561091257600080fd5b81602084016020830137600091810160200191909152949350505050565b60005b8381101561094b578181015183820152602001610933565b8381111561095a576000848401525b50505050565b60008151808452610978816020860160208601610930565b601f01601f19169290920160200192915050565b60608152600061099f6060830186610960565b61ffff94909416602083015250901515604090910152919050565b60208152600061083a6020830184610960565b6000602080830181845280855180835260408601915060408160051b870101925083870160005b82811015610a2257603f19888603018452610a10858351610960565b945092850192908501906001016109f4565b5092979650505050505050565b6020808252601c908201527f4e6f20706f73656520756e20636f6e74726163746f2061637469766f00000000604082015260600190565b600082601f830112610a7757600080fd5b8151610a856108f882610888565b818152846020838601011115610a9a57600080fd5b610aab826020830160208701610930565b949350505050565b600080600060608486031215610ac857600080fd5b835167ffffffffffffffff811115610adf57600080fd5b610aeb86828701610a66565b9350506020840151610afc8161080a565b60408501519092508015158114610b1257600080fd5b809150509250925092565b600060208284031215610b2f57600080fd5b815167ffffffffffffffff811115610b4657600080fd5b610aab84828501610a66565b60006020808385031215610b6557600080fd5b825167ffffffffffffffff80821115610b7d57600080fd5b818501915085601f830112610b9157600080fd5b815181811115610ba357610ba3610841565b8060051b610bb2858201610857565b9182528381018501918581019089841115610bcc57600080fd5b86860192505b83831015610c0857825185811115610bea5760008081fd5b610bf88b89838a0101610a66565b8352509186019190860190610bd2565b9998505050505050505050565b600060208284031215610c2757600080fd5b5051919050565b604081526000610c416040830185610960565b905060018060a01b0383166020830152939250505056fea2646970667358221220dca9ee783362bd3d2fa6f051e17d5f9e7575a9e358debbffe40ac8a98190e60464736f6c634300080f0033547520636f6e747261746f206861207369646f2063616e63656c61646f20792074752064696e65726f2064657675656c746f20612074752077616c6c6574a2646970667358221220c935bb818bae29039d2232076c367555e93990a329900ce1b614961c7f56b7a364736f6c634300080f003360806040523480156200001157600080fd5b50604051620009c9380380620009c9833981016040819052620000349162000127565b600262000042838262000220565b50600362000051828262000220565b505050620002ec565b634e487b7160e01b600052604160045260246000fd5b600082601f8301126200008257600080fd5b81516001600160401b03808211156200009f576200009f6200005a565b604051601f8301601f19908116603f01168101908282118183101715620000ca57620000ca6200005a565b81604052838152602092508683858801011115620000e757600080fd5b600091505b838210156200010b5785820183015181830184015290820190620000ec565b838211156200011d5760008385830101525b9695505050505050565b600080604083850312156200013b57600080fd5b82516001600160401b03808211156200015357600080fd5b620001618683870162000070565b935060208501519150808211156200017857600080fd5b50620001878582860162000070565b9150509250929050565b600181811c90821680620001a657607f821691505b602082108103620001c757634e487b7160e01b600052602260045260246000fd5b50919050565b601f8211156200021b57600081815260208120601f850160051c81016020861015620001f65750805b601f850160051c820191505b81811015620002175782815560010162000202565b5050505b505050565b81516001600160401b038111156200023c576200023c6200005a565b62000254816200024d845462000191565b84620001cd565b602080601f8311600181146200028c5760008415620002735750858301515b600019600386901b1c1916600185901b17855562000217565b600085815260208120601f198616915b82811015620002bd578886015182559484019460019091019084016200029c565b5085821015620002dc5787850151600019600388901b60f8161c191681555b5050505050600190811b01905550565b6106cd80620002fc6000396000f3fe608060405234801561001057600080fd5b506004361061007d5760003560e01c806370a082311161005b57806370a08231146100c757806395d89b41146100f0578063a0712d68146100f8578063a9059cbb1461010b57600080fd5b806306fdde031461008257806318160ddd146100a057806351ce139a146100b2575b600080fd5b61008a61012e565b6040516100979190610506565b60405180910390f35b6001545b604051908152602001610097565b6100c56100c0366004610577565b6101c0565b005b6100a46100d53660046105b3565b6001600160a01b031660009081526020819052604090205490565b61008a61021f565b6100c56101063660046105d5565b61022e565b61011e6101193660046105ee565b61023b565b6040519015158152602001610097565b60606002805461013d90610618565b80601f016020809104026020016040519081016040528092919081815260200182805461016990610618565b80156101b65780601f1061018b576101008083540402835291602001916101b6565b820191906000526020600020905b81548152906001019060200180831161019957829003601f168201915b5050505050905090565b6001600160a01b038316600090815260208190526040812080548392906101e8908490610668565b90915550506001600160a01b0382166000908152602081905260408120805483929061021590849061067f565b9091555050505050565b60606003805461013d90610618565b6102383382610253565b50565b600033610249818585610337565b5060019392505050565b6001600160a01b0382166102ae5760405162461bcd60e51b815260206004820152601f60248201527f45524332303a206d696e7420746f20746865207a65726f20616464726573730060448201526064015b60405180910390fd5b80600160008282546102c0919061067f565b90915550506001600160a01b038216600090815260208190526040812080548392906102ed90849061067f565b90915550506040518181526001600160a01b038316906000907fddf252ad1be2c89b69c2b068fc378daa952ba7f163c4a11628f55a4df523b3ef9060200160405180910390a35050565b6001600160a01b03831661039b5760405162461bcd60e51b815260206004820152602560248201527f45524332303a207472616e736665722066726f6d20746865207a65726f206164604482015264647265737360d81b60648201526084016102a5565b6001600160a01b0382166103fd5760405162461bcd60e51b815260206004820152602360248201527f45524332303a207472616e7366657220746f20746865207a65726f206164647260448201526265737360e81b60648201526084016102a5565b6001600160a01b038316600090815260208190526040902054818110156104755760405162461bcd60e51b815260206004820152602660248201527f45524332303a207472616e7366657220616d6f756e7420657863656564732062604482015265616c616e636560d01b60648201526084016102a5565b6001600160a01b038085166000908152602081905260408082208585039055918516815290812080548492906104ac90849061067f565b92505081905550826001600160a01b0316846001600160a01b03167fddf252ad1be2c89b69c2b068fc378daa952ba7f163c4a11628f55a4df523b3ef846040516104f891815260200190565b60405180910390a350505050565b600060208083528351808285015260005b8181101561053357858101830151858201604001528201610517565b81811115610545576000604083870101525b50601f01601f1916929092016040019392505050565b80356001600160a01b038116811461057257600080fd5b919050565b60008060006060848603121561058c57600080fd5b6105958461055b565b92506105a36020850161055b565b9150604084013590509250925092565b6000602082840312156105c557600080fd5b6105ce8261055b565b9392505050565b6000602082840312156105e757600080fd5b5035919050565b6000806040838503121561060157600080fd5b61060a8361055b565b946020939093013593505050565b600181811c9082168061062c57607f821691505b60208210810361064c57634e487b7160e01b600052602260045260246000fd5b50919050565b634e487b7160e01b600052601160045260246000fd5b60008282101561067a5761067a610652565b500390565b6000821982111561069257610692610652565b50019056fea26469706673582212200e4c0377b43960d7dd8d060d18cf50c5ecec614e603199446fb5a9504333495264736f6c634300080f0033",
    "sourcePath": "/home/andres/Escritorio/sistema_salud_full/contracts/System/Company/InsuranceRocketCompany.sol",
    "compiler": {
        "name": "solc",
        "version": "0.8.15+commit.e14f2714"
    },
    "functionHashes": {
        "BalanceContractEthers()": "46348527",
        "RequestStatus(address)": "441548ee",
        "Services(string)": "6fbb8422",
        "SpecialServices(string)": "5ef31a2e",
        "addressContract()": "8609b2fc",
        "asignServiceClient(string,address)": "161e9e23",
        "asignSpecialServiceClient(string,address)": "7748d3c4",
        "balanceContractTokens()": "36c9aed6",
        "balanceContractUser(address)": "26c8fb70",
        "buyTokens(uint256,address)": "c625e9b1",
        "cancelContractClient(address)": "62909f93",
        "cancelContractLaboratory(address)": "bc224fb6",
        "changeStatusService(string)": "ee1e2d3d",
        "changeStatusServiceLaboratory(string,address)": "e6cbd058",
        "checkNumberContract()": "37776a2f",
        "createClientFactory()": "b60c704f",
        "createLaboratoryFactory()": "54ba5d78",
        "createService(string,uint16)": "42924ca8",
        "createSpecialService(string,uint16,address)": "54c844fa",
        "enableSubscription(address)": "3ceb906d",
        "listServices(uint256)": "8f875197",
        "listSpecialServices(uint256)": "6894ebce",
        "owner()": "8da5cb5b",
        "rechargeTokens(uint16)": "e43ae2cd",
        "requestSubscriptionClient()": "b53f2fa9",
        "requestSubscriptionLaboratory()": "c47fe02a",
        "servicesClientHistory(address,uint256)": "2c38c787",
        "showActivedServices()": "9da1ec6b",
        "showActivedSpecialServices()": "5b14ce06",
        "showMyActivedSpecialServices()": "82a6f77c",
        "showPendingRequest(string)": "004cef25",
        "showServiceDetails(string)": "6b073db6",
        "showServicesClient(address)": "05c713c6",
        "showSpecialServiceDetails(string)": "37cf7793",
        "showStatusAndRole()": "47f2b7c0",
        "withdrawBalanceLaboratory(address,uint16)": "12754972"
    },
    "gasEstimates": {
        "creation": {
            "codeDepositCost": "4268200",
            "executionCost": "infinite",
            "totalCost": "infinite"
        },
        "external": {
            "": "208",
            "BalanceContractEthers()": "5022",
            "RequestStatus(address)": "2739",
            "Services(string)": "infinite",
            "SpecialServices(string)": "infinite",
            "addressContract()": "2426",
            "asignServiceClient(string,address)": "infinite",
            "asignSpecialServiceClient(string,address)": "infinite",
            "balanceContractTokens()": "infinite",
            "balanceContractUser(address)": "infinite",
            "buyTokens(uint256,address)": "infinite",
            "cancelContractClient(address)": "infinite",
            "cancelContractLaboratory(address)": "infinite",
            "changeStatusService(string)": "infinite",
            "changeStatusServiceLaboratory(string,address)": "infinite",
            "checkNumberContract()": "2525",
            "createClientFactory()": "infinite",
            "createLaboratoryFactory()": "infinite",
            "createService(string,uint16)": "infinite",
            "createSpecialService(string,uint16,address)": "infinite",
            "enableSubscription(address)": "28710",
            "listServices(uint256)": "infinite",
            "listSpecialServices(uint256)": "infinite",
            "owner()": "2448",
            "rechargeTokens(uint16)": "infinite",
            "requestSubscriptionClient()": "infinite",
            "requestSubscriptionLaboratory()": "infinite",
            "servicesClientHistory(address,uint256)": "infinite",
            "showActivedServices()": "infinite",
            "showActivedSpecialServices()": "infinite",
            "showMyActivedSpecialServices()": "infinite",
            "showPendingRequest(string)": "infinite",
            "showServiceDetails(string)": "infinite",
            "showServicesClient(address)": "infinite",
            "showSpecialServiceDetails(string)": "infinite",
            "showStatusAndRole()": "2456",
            "withdrawBalanceLaboratory(address,uint16)": "infinite"
        },
        "internal": {
            "checkRepeatRequest()": "infinite",
            "checkRepeatService(string memory[] memory,string memory)": "infinite",
            "tokenToGwei(uint256)": "127"
        }
    }
}