{
  "contractName": "Client",
  "abi": [
    {
      "inputs": [
        {
          "internalType": "address",
          "name": "_addr",
          "type": "address"
        },
        {
          "internalType": "address",
          "name": "_addressContract",
          "type": "address"
        }
      ],
      "stateMutability": "nonpayable",
      "type": "constructor"
    },
    {
      "inputs": [],
      "name": "addressContract",
      "outputs": [
        {
          "internalType": "address",
          "name": "",
          "type": "address"
        }
      ],
      "stateMutability": "view",
      "type": "function"
    },
    {
      "inputs": [],
      "name": "addressPrincipalContract",
      "outputs": [
        {
          "internalType": "address",
          "name": "",
          "type": "address"
        }
      ],
      "stateMutability": "view",
      "type": "function"
    },
    {
      "inputs": [],
      "name": "owner",
      "outputs": [
        {
          "internalType": "address",
          "name": "",
          "type": "address"
        }
      ],
      "stateMutability": "view",
      "type": "function"
    },
    {
      "inputs": [
        {
          "internalType": "uint16",
          "name": "_quantity",
          "type": "uint16"
        }
      ],
      "name": "buyTokens",
      "outputs": [],
      "stateMutability": "payable",
      "type": "function"
    },
    {
      "inputs": [],
      "name": "balanceUser",
      "outputs": [
        {
          "internalType": "uint256",
          "name": "",
          "type": "uint256"
        }
      ],
      "stateMutability": "view",
      "type": "function"
    },
    {
      "inputs": [],
      "name": "listServices",
      "outputs": [
        {
          "internalType": "string[]",
          "name": "",
          "type": "string[]"
        }
      ],
      "stateMutability": "view",
      "type": "function"
    },
    {
      "inputs": [
        {
          "internalType": "string",
          "name": "_name",
          "type": "string"
        }
      ],
      "name": "detailsService",
      "outputs": [
        {
          "internalType": "string",
          "name": "",
          "type": "string"
        },
        {
          "internalType": "uint16",
          "name": "",
          "type": "uint16"
        },
        {
          "internalType": "bool",
          "name": "",
          "type": "bool"
        }
      ],
      "stateMutability": "view",
      "type": "function"
    },
    {
      "inputs": [],
      "name": "cancelContract",
      "outputs": [],
      "stateMutability": "payable",
      "type": "function"
    },
    {
      "inputs": [
        {
          "internalType": "string",
          "name": "_nameService",
          "type": "string"
        }
      ],
      "name": "useService",
      "outputs": [],
      "stateMutability": "nonpayable",
      "type": "function"
    },
    {
      "inputs": [
        {
          "internalType": "string",
          "name": "_nameService",
          "type": "string"
        }
      ],
      "name": "useSpecialService",
      "outputs": [],
      "stateMutability": "nonpayable",
      "type": "function"
    },
    {
      "inputs": [],
      "name": "listSpecialServices",
      "outputs": [
        {
          "internalType": "string[]",
          "name": "",
          "type": "string[]"
        }
      ],
      "stateMutability": "view",
      "type": "function"
    },
    {
      "inputs": [
        {
          "internalType": "string",
          "name": "_name",
          "type": "string"
        }
      ],
      "name": "detailsSpecialService",
      "outputs": [
        {
          "internalType": "string",
          "name": "",
          "type": "string"
        },
        {
          "internalType": "uint16",
          "name": "",
          "type": "uint16"
        },
        {
          "internalType": "bool",
          "name": "",
          "type": "bool"
        },
        {
          "internalType": "address",
          "name": "",
          "type": "address"
        }
      ],
      "stateMutability": "view",
      "type": "function"
    }
  ],
  "bytecode": "0x608060405234801561001057600080fd5b50604051610cc6380380610cc683398101604081905261002f91610093565b60008054600160a060020a03938416600160a060020a0319918216179091556001805482163017905560028054929093169181168217909255600380549092161790556100c6565b8051600160a060020a038116811461008e57600080fd5b919050565b600080604083850312156100a657600080fd5b6100af83610077565b91506100bd60208401610077565b90509250929050565b610bf1806100d56000396000f3fe6080604052600436106100c4576000357c010000000000000000000000000000000000000000000000000000000090048063a5487a0311610081578063a5487a0314610192578063d25120ce146101c2578063db8366eb146101e5578063de1c548814610205578063e4f05b7614610227578063ea54d2121461024757600080fd5b8063072ec0bb146100c95780630e662cf01461010657806314f52f3a1461011b5780632b68bb2d1461014a5780638609b2fc146101525780638da5cb5b14610172575b600080fd5b3480156100d557600080fd5b506002546100e990600160a060020a031681565b604051600160a060020a0390911681526020015b60405180910390f35b610119610114366004610712565b61025c565b005b34801561012757600080fd5b5061013b6101363660046107be565b6102e5565b6040516100fd93929190610896565b610119610386565b34801561015e57600080fd5b506001546100e990600160a060020a031681565b34801561017e57600080fd5b506000546100e990600160a060020a031681565b34801561019e57600080fd5b506101b26101ad3660046107be565b610402565b6040516100fd94939291906108c4565b3480156101ce57600080fd5b506101d76104a9565b6040519081526020016100fd565b3480156101f157600080fd5b506101196102003660046107be565b61053c565b34801561021157600080fd5b5061021a6105c1565b6040516100fd9190610900565b34801561023357600080fd5b506101196102423660046107be565b61064c565b34801561025357600080fd5b5061021a61069c565b6003546000546040517fc625e9b100000000000000000000000000000000000000000000000000000000815261ffff84166004820152600160a060020a03918216602482015291169063c625e9b19034906044016000604051808303818588803b1580156102c957600080fd5b505af11580156102dd573d6000803e3d6000fd5b505050505050565b6003546040517f6b073db60000000000000000000000000000000000000000000000000000000081526060916000918291600160a060020a031690636b073db690610334908790600401610961565b600060405180830381865afa158015610351573d6000803e3d6000fd5b505050506040513d6000823e601f3d908101601f1916820160405261037991908101906109d6565b9250925092509193909250565b6003546000546040517faef5beb7000000000000000000000000000000000000000000000000000000008152600160a060020a03918216600482015291169063aef5beb790602401600060405180830381600087803b1580156103e857600080fd5b505af11580156103fc573d6000803e3d6000fd5b50505050565b6003546040517f37cf779300000000000000000000000000000000000000000000000000000000815260609160009182918291600160a060020a03909116906337cf779390610455908890600401610961565b600060405180830381865afa158015610472573d6000803e3d6000fd5b505050506040513d6000823e601f3d908101601f1916820160405261049a9190810190610a36565b93509350935093509193509193565b6003546001546040517f26c8fb70000000000000000000000000000000000000000000000000000000008152600160a060020a03918216600482015260009291909116906326c8fb7090602401602060405180830381865afa158015610513573d6000803e3d6000fd5b505050506040513d601f19601f820116820180604052508101906105379190610ab5565b905090565b6003546000546040517f161e9e23000000000000000000000000000000000000000000000000000000008152600160a060020a039283169263161e9e239261058c92869290911690600401610ace565b600060405180830381600087803b1580156105a657600080fd5b505af11580156105ba573d6000803e3d6000fd5b5050505050565b600354604080517f9da1ec6b0000000000000000000000000000000000000000000000000000000081529051606092600160a060020a031691639da1ec6b9160048083019260009291908290030181865afa158015610624573d6000803e3d6000fd5b505050506040513d6000823e601f3d908101601f191682016040526105379190810190610af9565b6003546000546040517f7748d3c4000000000000000000000000000000000000000000000000000000008152600160a060020a0392831692637748d3c49261058c92869290911690600401610ace565b600354604080517f5b14ce060000000000000000000000000000000000000000000000000000000081529051606092600160a060020a031691635b14ce069160048083019260009291908290030181865afa158015610624573d6000803e3d6000fd5b61ffff8116811461070f57600080fd5b50565b60006020828403121561072457600080fd5b813561072f816106ff565b9392505050565b7f4e487b7100000000000000000000000000000000000000000000000000000000600052604160045260246000fd5b604051601f8201601f1916810167ffffffffffffffff8111828210171561078e5761078e610736565b604052919050565b600067ffffffffffffffff8211156107b0576107b0610736565b50601f01601f191660200190565b6000602082840312156107d057600080fd5b813567ffffffffffffffff8111156107e757600080fd5b8201601f810184136107f857600080fd5b803561080b61080682610796565b610765565b81815285602083850101111561082057600080fd5b81602084016020830137600091810160200191909152949350505050565b60005b83811015610859578181015183820152602001610841565b838111156103fc5750506000910152565b6000815180845261088281602086016020860161083e565b601f01601f19169290920160200192915050565b6060815260006108a9606083018661086a565b61ffff94909416602083015250901515604090910152919050565b6080815260006108d7608083018761086a565b61ffff959095166020830152509115156040830152600160a060020a0316606090910152919050565b600060208083018184528085518083526040860191506040848202870101925083870160005b8281101561095457603f1988860301845261094285835161086a565b94509285019290850190600101610926565b5092979650505050505050565b60208152600061072f602083018461086a565b600082601f83011261098557600080fd5b815161099361080682610796565b8181528460208386010111156109a857600080fd5b6109b982602083016020870161083e565b949350505050565b805180151581146109d157600080fd5b919050565b6000806000606084860312156109eb57600080fd5b835167ffffffffffffffff811115610a0257600080fd5b610a0e86828701610974565b9350506020840151610a1f816106ff565b9150610a2d604085016109c1565b90509250925092565b60008060008060808587031215610a4c57600080fd5b845167ffffffffffffffff811115610a6357600080fd5b610a6f87828801610974565b9450506020850151610a80816106ff565b9250610a8e604086016109c1565b91506060850151600160a060020a0381168114610aaa57600080fd5b939692955090935050565b600060208284031215610ac757600080fd5b5051919050565b604081526000610ae1604083018561086a565b9050600160a060020a03831660208301529392505050565b60006020808385031215610b0c57600080fd5b825167ffffffffffffffff80821115610b2457600080fd5b818501915085601f830112610b3857600080fd5b815181811115610b4a57610b4a610736565b838102610b58858201610765565b9182528381018501918581019089841115610b7257600080fd5b86860192505b83831015610bae57825185811115610b905760008081fd5b610b9e8b89838a0101610974565b8352509186019190860190610b78565b999850505050505050505056fea2646970667358221220699424c344392196a23132f3ef39bc672e39860031cbf34c8c106902916d7c2264736f6c634300080e0033",
  "immutableReferences": {},
  "source": "// SPDX-License-Identifier: MIT\npragma solidity >=0.7.0 < 0.9.0;\nimport \"./InsuranceRocketCompany.sol\";\n\ncontract Client{\n    address public owner;\n    address public addressContract;\n    address public addressPrincipalContract;\n    InsuranceRocketCompany private IPrincipalContract;\n\n    constructor(address _addr , address _addressContract ) {\n        owner = _addr;\n        addressContract = address(this);\n        addressPrincipalContract= _addressContract;\n        IPrincipalContract =InsuranceRocketCompany(payable(addressPrincipalContract));\n    }\n\n    //---------------------------------------Funciones contrato clientes---------------------------------------\n    //Funcion para comprar tokens\n    function buyTokens(uint16 _quantity) public payable {\n        IPrincipalContract.buyTokens{value: msg.value}(_quantity, owner);\n    }\n\n    //Funcion para devolver ether cuando un Cliente se da de baja\n    function balanceUser() public  view returns(uint){\n        return  IPrincipalContract.balanceContractUser(addressContract);\n    }\n\n    //Funcion para ver servicios disponibles\n    function listServices() public view returns(string[] memory){\n        return IPrincipalContract.showActivedServices();\n    }\n\n    //Funcion ver detalles de un servicio\n    function detailsService(string memory _name) public  view returns(string memory , uint16 , bool){\n       return IPrincipalContract.showServiceDetails(_name);\n    }\n\n    //Funcion para cancelar mi contrato\n    function cancelContract() public payable {\n        IPrincipalContract.changeStatusContract(owner);\n    }\n\n    //Funcion usar un servicio\n    function useService(string memory _nameService) public {\n        IPrincipalContract.asignServiceClient(_nameService, owner);\n    }\n\n    //Funcion usar un servicio\n    function useSpecialService(string memory _nameService) public {\n        IPrincipalContract.asignSpecialServiceClient(_nameService, owner);\n    }\n\n    //Funcion para ver servicios especiales disponibles\n    function listSpecialServices() public view returns(string[] memory){\n        return IPrincipalContract.showActivedSpecialServices();\n    }\n\n    //Funcion ver detalles de un servicios especiales\n    function detailsSpecialService(string memory _name) public  view returns(string memory , uint16 , bool, address){\n       return IPrincipalContract.showSpecialServiceDetails(_name);\n    }\n}",
  "sourcePath": "/home/xdx/Escritorio/Solidity proyects/sistema_salud_full/contracts/System/Company/InsuranceClientRocketCompany.sol",
  "compiler": {
    "name": "solc",
    "version": "0.8.14+commit.80d49f37.Emscripten.clang"
  },
  "schemaVersion": "3.4.7",
  "updatedAt": "2022-07-31T07:54:41.746Z",
  "devdoc": {
    "kind": "dev",
    "methods": {},
    "version": 1
  },
  "userdoc": {
    "kind": "user",
    "methods": {},
    "version": 1
  }
}