{
  "contractName": "Client",
  "abi": [
    {
      "inputs": [
        {
          "internalType": "address",
          "name": "_addr",
          "type": "address"
        },
        {
          "internalType": "address",
          "name": "_addressContract",
          "type": "address"
        }
      ],
      "stateMutability": "nonpayable",
      "type": "constructor"
    },
    {
      "inputs": [],
      "name": "addressContract",
      "outputs": [
        {
          "internalType": "address",
          "name": "",
          "type": "address"
        }
      ],
      "stateMutability": "view",
      "type": "function"
    },
    {
      "inputs": [],
      "name": "addressPrincipalContract",
      "outputs": [
        {
          "internalType": "address",
          "name": "",
          "type": "address"
        }
      ],
      "stateMutability": "view",
      "type": "function"
    },
    {
      "inputs": [],
      "name": "owner",
      "outputs": [
        {
          "internalType": "address",
          "name": "",
          "type": "address"
        }
      ],
      "stateMutability": "view",
      "type": "function"
    },
    {
      "inputs": [
        {
          "internalType": "uint16",
          "name": "_quantity",
          "type": "uint16"
        }
      ],
      "name": "buyTokens",
      "outputs": [],
      "stateMutability": "payable",
      "type": "function"
    },
    {
      "inputs": [],
      "name": "balanceUser",
      "outputs": [
        {
          "internalType": "uint256",
          "name": "",
          "type": "uint256"
        }
      ],
      "stateMutability": "view",
      "type": "function"
    },
    {
      "inputs": [],
      "name": "listServices",
      "outputs": [
        {
          "internalType": "string[]",
          "name": "",
          "type": "string[]"
        }
      ],
      "stateMutability": "view",
      "type": "function"
    },
    {
      "inputs": [
        {
          "internalType": "string",
          "name": "_name",
          "type": "string"
        }
      ],
      "name": "detailsService",
      "outputs": [
        {
          "internalType": "string",
          "name": "",
          "type": "string"
        },
        {
          "internalType": "uint16",
          "name": "",
          "type": "uint16"
        },
        {
          "internalType": "bool",
          "name": "",
          "type": "bool"
        }
      ],
      "stateMutability": "view",
      "type": "function"
    },
    {
      "inputs": [],
      "name": "cancelContract",
      "outputs": [],
      "stateMutability": "payable",
      "type": "function"
    },
    {
      "inputs": [
        {
          "internalType": "string",
          "name": "_nameService",
          "type": "string"
        }
      ],
      "name": "useService",
      "outputs": [],
      "stateMutability": "nonpayable",
      "type": "function"
    },
    {
      "inputs": [
        {
          "internalType": "string",
          "name": "_nameService",
          "type": "string"
        }
      ],
      "name": "useSpecialService",
      "outputs": [],
      "stateMutability": "nonpayable",
      "type": "function"
    },
    {
      "inputs": [],
      "name": "listSpecialServices",
      "outputs": [
        {
          "internalType": "string[]",
          "name": "",
          "type": "string[]"
        }
      ],
      "stateMutability": "view",
      "type": "function"
    },
    {
      "inputs": [
        {
          "internalType": "string",
          "name": "_name",
          "type": "string"
        }
      ],
      "name": "detailsSpecialService",
      "outputs": [
        {
          "internalType": "string",
          "name": "",
          "type": "string"
        },
        {
          "internalType": "uint16",
          "name": "",
          "type": "uint16"
        },
        {
          "internalType": "bool",
          "name": "",
          "type": "bool"
        }
      ],
      "stateMutability": "view",
      "type": "function"
    }
  ],
  "bytecode": "0x608060405234801561001057600080fd5b50604051610b98380380610b9883398101604081905261002f91610093565b60008054600160a060020a03938416600160a060020a0319918216179091556001805482163017905560028054929093169181168217909255600380549092161790556100c6565b8051600160a060020a038116811461008e57600080fd5b919050565b600080604083850312156100a657600080fd5b6100af83610077565b91506100bd60208401610077565b90509250929050565b610ac3806100d56000396000f3fe6080604052600436106100c4576000357c010000000000000000000000000000000000000000000000000000000090048063a5487a0311610081578063a5487a0314610192578063d25120ce146101b2578063db8366eb146101d5578063de1c5488146101f5578063e4f05b7614610217578063ea54d2121461023757600080fd5b8063072ec0bb146100c95780630e662cf01461010657806314f52f3a1461011b5780632b68bb2d1461014a5780638609b2fc146101525780638da5cb5b14610172575b600080fd5b3480156100d557600080fd5b506002546100e990600160a060020a031681565b604051600160a060020a0390911681526020015b60405180910390f35b6101196101143660046106aa565b61024c565b005b34801561012757600080fd5b5061013b610136366004610756565b6102d5565b6040516100fd9392919061082e565b610119610376565b34801561015e57600080fd5b506001546100e990600160a060020a031681565b34801561017e57600080fd5b506000546100e990600160a060020a031681565b34801561019e57600080fd5b5061013b6101ad366004610756565b6103f2565b3480156101be57600080fd5b506101c7610441565b6040519081526020016100fd565b3480156101e157600080fd5b506101196101f0366004610756565b6104d4565b34801561020157600080fd5b5061020a610559565b6040516100fd919061085c565b34801561022357600080fd5b50610119610232366004610756565b6105e4565b34801561024357600080fd5b5061020a610634565b6003546000546040517fc625e9b100000000000000000000000000000000000000000000000000000000815261ffff84166004820152600160a060020a03918216602482015291169063c625e9b19034906044016000604051808303818588803b1580156102b957600080fd5b505af11580156102cd573d6000803e3d6000fd5b505050505050565b6003546040517f6b073db60000000000000000000000000000000000000000000000000000000081526060916000918291600160a060020a031690636b073db6906103249087906004016108bd565b600060405180830381865afa158015610341573d6000803e3d6000fd5b505050506040513d6000823e601f3d908101601f19168201604052610369919081019061091d565b9250925092509193909250565b6003546000546040517faef5beb7000000000000000000000000000000000000000000000000000000008152600160a060020a03918216600482015291169063aef5beb790602401600060405180830381600087803b1580156103d857600080fd5b505af11580156103ec573d6000803e3d6000fd5b50505050565b6003546040517f37cf77930000000000000000000000000000000000000000000000000000000081526060916000918291600160a060020a0316906337cf7793906103249087906004016108bd565b6003546001546040517f26c8fb70000000000000000000000000000000000000000000000000000000008152600160a060020a03918216600482015260009291909116906326c8fb7090602401602060405180830381865afa1580156104ab573d6000803e3d6000fd5b505050506040513d601f19601f820116820180604052508101906104cf9190610987565b905090565b6003546000546040517f161e9e23000000000000000000000000000000000000000000000000000000008152600160a060020a039283169263161e9e2392610524928692909116906004016109a0565b600060405180830381600087803b15801561053e57600080fd5b505af1158015610552573d6000803e3d6000fd5b5050505050565b600354604080517f9da1ec6b0000000000000000000000000000000000000000000000000000000081529051606092600160a060020a031691639da1ec6b9160048083019260009291908290030181865afa1580156105bc573d6000803e3d6000fd5b505050506040513d6000823e601f3d908101601f191682016040526104cf91908101906109cb565b6003546000546040517f7748d3c4000000000000000000000000000000000000000000000000000000008152600160a060020a0392831692637748d3c492610524928692909116906004016109a0565b600354604080517f5b14ce060000000000000000000000000000000000000000000000000000000081529051606092600160a060020a031691635b14ce069160048083019260009291908290030181865afa1580156105bc573d6000803e3d6000fd5b61ffff811681146106a757600080fd5b50565b6000602082840312156106bc57600080fd5b81356106c781610697565b9392505050565b7f4e487b7100000000000000000000000000000000000000000000000000000000600052604160045260246000fd5b604051601f8201601f1916810167ffffffffffffffff81118282101715610726576107266106ce565b604052919050565b600067ffffffffffffffff821115610748576107486106ce565b50601f01601f191660200190565b60006020828403121561076857600080fd5b813567ffffffffffffffff81111561077f57600080fd5b8201601f8101841361079057600080fd5b80356107a361079e8261072e565b6106fd565b8181528560208385010111156107b857600080fd5b81602084016020830137600091810160200191909152949350505050565b60005b838110156107f15781810151838201526020016107d9565b838111156103ec5750506000910152565b6000815180845261081a8160208601602086016107d6565b601f01601f19169290920160200192915050565b6060815260006108416060830186610802565b61ffff94909416602083015250901515604090910152919050565b600060208083018184528085518083526040860191506040848202870101925083870160005b828110156108b057603f1988860301845261089e858351610802565b94509285019290850190600101610882565b5092979650505050505050565b6020815260006106c76020830184610802565b600082601f8301126108e157600080fd5b81516108ef61079e8261072e565b81815284602083860101111561090457600080fd5b6109158260208301602087016107d6565b949350505050565b60008060006060848603121561093257600080fd5b835167ffffffffffffffff81111561094957600080fd5b610955868287016108d0565b935050602084015161096681610697565b6040850151909250801515811461097c57600080fd5b809150509250925092565b60006020828403121561099957600080fd5b5051919050565b6040815260006109b36040830185610802565b9050600160a060020a03831660208301529392505050565b600060208083850312156109de57600080fd5b825167ffffffffffffffff808211156109f657600080fd5b818501915085601f830112610a0a57600080fd5b815181811115610a1c57610a1c6106ce565b838102610a2a8582016106fd565b9182528381018501918581019089841115610a4457600080fd5b86860192505b83831015610a8057825185811115610a625760008081fd5b610a708b89838a01016108d0565b8352509186019190860190610a4a565b999850505050505050505056fea264697066735822122032f16ede13cfbcf0f36deb099e359b90fed56c1a6b91d1d4a8bacc1e7b7dd2a264736f6c634300080e0033",
  "immutableReferences": {},
  "source": "// SPDX-License-Identifier: MIT\npragma solidity >=0.7.0 < 0.9.0;\nimport \"./InsuranceRocketCompany.sol\";\n\ncontract Client{\n    address public owner;\n    address public addressContract;\n    address public addressPrincipalContract;\n    InsuranceRocketCompany private IPrincipalContract;\n\n    constructor(address _addr , address _addressContract ) {\n        owner = _addr;\n        addressContract = address(this);\n        addressPrincipalContract= _addressContract;\n        IPrincipalContract =InsuranceRocketCompany(payable(addressPrincipalContract));\n    }\n\n    //---------------------------------------Funciones contrato clientes---------------------------------------\n    //Funcion para comprar tokens\n    function buyTokens(uint16 _quantity) public payable {\n        IPrincipalContract.buyTokens{value: msg.value}(_quantity, owner);\n    }\n\n    //Funcion para devolver ether cuando un Cliente se da de baja\n    function balanceUser() public  view returns(uint){\n        return  IPrincipalContract.balanceContractUser(addressContract);\n    }\n\n    //Funcion para ver servicios disponibles\n    function listServices() public view returns(string[] memory){\n        return IPrincipalContract.showActivedServices();\n    }\n\n    //Funcion ver detalles de un servicio\n    function detailsService(string memory _name) public  view returns(string memory , uint16 , bool){\n       return IPrincipalContract.showServiceDetails(_name);\n    }\n\n    //Funcion para cancelar mi contrato\n    function cancelContract() public payable {\n        IPrincipalContract.changeStatusContract(owner);\n    }\n\n    //Funcion usar un servicio\n    function useService(string memory _nameService) public {\n        IPrincipalContract.asignServiceClient(_nameService, owner);\n    }\n\n    //Funcion usar un servicio\n    function useSpecialService(string memory _nameService) public {\n        IPrincipalContract.asignSpecialServiceClient(_nameService, owner);\n    }\n\n    //Funcion para ver mi historial de servicios\n    // function historyServices()public view returns(string [] memory) {\n    //     return IPrincipalContract.showServicesClient(owner);\n    // }\n\n    //Funcion para ver servicios especiales disponibles\n    function listSpecialServices() public view returns(string[] memory){\n        return IPrincipalContract.showActivedSpecialServices();\n    }\n\n    //Funcion ver detalles de un servicios especiales\n    function detailsSpecialService(string memory _name) public  view returns(string memory , uint16 , bool){\n       return IPrincipalContract.showSpecialServiceDetails(_name);\n    }\n}",
  "sourcePath": "/home/xdx/Escritorio/Solidity proyects/sistema_salud_full/contracts/System/Company/InsuranceClientRocketCompany.sol",
  "compiler": {
    "name": "solc",
    "version": "0.8.14+commit.80d49f37.Emscripten.clang"
  },
  "schemaVersion": "3.4.7",
  "updatedAt": "2022-07-15T06:09:39.986Z",
  "devdoc": {
    "kind": "dev",
    "methods": {},
    "version": 1
  },
  "userdoc": {
    "kind": "user",
    "methods": {},
    "version": 1
  }
}