{
  "contractName": "Client",
  "abi": [
    {
      "inputs": [
        {
          "internalType": "address",
          "name": "_addr",
          "type": "address"
        },
        {
          "internalType": "address",
          "name": "_addressContract",
          "type": "address"
        }
      ],
      "stateMutability": "nonpayable",
      "type": "constructor"
    },
    {
      "inputs": [],
      "name": "addressPrincipalContract",
      "outputs": [
        {
          "internalType": "address",
          "name": "",
          "type": "address"
        }
      ],
      "stateMutability": "view",
      "type": "function"
    },
    {
      "inputs": [],
      "name": "owner",
      "outputs": [
        {
          "internalType": "address",
          "name": "",
          "type": "address"
        }
      ],
      "stateMutability": "view",
      "type": "function"
    },
    {
      "inputs": [],
      "name": "statusContract",
      "outputs": [
        {
          "internalType": "bool",
          "name": "",
          "type": "bool"
        }
      ],
      "stateMutability": "view",
      "type": "function"
    },
    {
      "inputs": [],
      "name": "changeStatus",
      "outputs": [],
      "stateMutability": "nonpayable",
      "type": "function"
    },
    {
      "inputs": [
        {
          "internalType": "uint16",
          "name": "_quantity",
          "type": "uint16"
        }
      ],
      "name": "buyTokens",
      "outputs": [],
      "stateMutability": "payable",
      "type": "function"
    },
    {
      "inputs": [],
      "name": "balanceUser",
      "outputs": [
        {
          "internalType": "uint256",
          "name": "",
          "type": "uint256"
        }
      ],
      "stateMutability": "view",
      "type": "function"
    },
    {
      "inputs": [],
      "name": "listServices",
      "outputs": [
        {
          "internalType": "string[]",
          "name": "",
          "type": "string[]"
        }
      ],
      "stateMutability": "view",
      "type": "function"
    },
    {
      "inputs": [
        {
          "internalType": "string",
          "name": "_name",
          "type": "string"
        }
      ],
      "name": "detailsService",
      "outputs": [
        {
          "internalType": "string",
          "name": "",
          "type": "string"
        },
        {
          "internalType": "uint16",
          "name": "",
          "type": "uint16"
        },
        {
          "internalType": "bool",
          "name": "",
          "type": "bool"
        }
      ],
      "stateMutability": "view",
      "type": "function"
    },
    {
      "inputs": [],
      "name": "cancelContract",
      "outputs": [
        {
          "internalType": "string",
          "name": "",
          "type": "string"
        }
      ],
      "stateMutability": "payable",
      "type": "function"
    },
    {
      "inputs": [
        {
          "internalType": "string",
          "name": "_nameService",
          "type": "string"
        }
      ],
      "name": "useService",
      "outputs": [],
      "stateMutability": "nonpayable",
      "type": "function"
    },
    {
      "inputs": [
        {
          "internalType": "string",
          "name": "_nameService",
          "type": "string"
        }
      ],
      "name": "useSpecialService",
      "outputs": [],
      "stateMutability": "nonpayable",
      "type": "function"
    },
    {
      "inputs": [],
      "name": "historyServices",
      "outputs": [
        {
          "internalType": "string[]",
          "name": "",
          "type": "string[]"
        }
      ],
      "stateMutability": "view",
      "type": "function"
    },
    {
      "inputs": [],
      "name": "listSpecialServices",
      "outputs": [
        {
          "internalType": "string[]",
          "name": "",
          "type": "string[]"
        }
      ],
      "stateMutability": "view",
      "type": "function"
    },
    {
      "inputs": [
        {
          "internalType": "string",
          "name": "_name",
          "type": "string"
        }
      ],
      "name": "detailsSpecialService",
      "outputs": [
        {
          "internalType": "string",
          "name": "",
          "type": "string"
        },
        {
          "internalType": "uint16",
          "name": "",
          "type": "uint16"
        },
        {
          "internalType": "bool",
          "name": "",
          "type": "bool"
        }
      ],
      "stateMutability": "view",
      "type": "function"
    }
  ],
  "bytecode": "0x608060405234801561001057600080fd5b50604051610eaa380380610eaa83398101604081905261002f916100b4565b60008054600160a060020a03938416600160a060020a03199182161790915560018054821630179055600280546003805490931693909416928317909155600160a860020a031990921617740100000000000000000000000000000000000000001790556100e7565b8051600160a060020a03811681146100af57600080fd5b919050565b600080604083850312156100c757600080fd5b6100d083610098565b91506100de60208401610098565b90509250929050565b610db4806100f66000396000f3fe6080604052600436106100e15760003560e060020a90048063c73e271011610083578063db8366eb1161005d578063db8366eb14610262578063de1c548814610282578063e4f05b7614610297578063ea54d212146102b757600080fd5b8063c73e2710146101ec578063d25120ce1461020e578063d5808c751461023157600080fd5b806314f52f3a116100bf57806314f52f3a146101685780632b68bb2d146101975780638da5cb5b146101ac578063a5487a03146101cc57600080fd5b8063072ec0bb146100e6578063085634ec146101235780630e662cf014610155575b600080fd5b3480156100f257600080fd5b5060025461010690600160a060020a031681565b604051600160a060020a0390911681526020015b60405180910390f35b34801561012f57600080fd5b506101536002805474ff000000000000000000000000000000000000000019169055565b005b61015361016336600461092b565b6102cc565b34801561017457600080fd5b506101886101833660046109d7565b61038a565b60405161011a93929190610ab3565b61019f610459565b60405161011a9190610ae1565b3480156101b857600080fd5b5060005461010690600160a060020a031681565b3480156101d857600080fd5b506101886101e73660046109d7565b610572565b3480156101f857600080fd5b506102016105ef565b60405161011a9190610af4565b34801561021a57600080fd5b50610223610681565b60405190815260200161011a565b34801561023d57600080fd5b506002546102529060a060020a900460ff1681565b604051901515815260200161011a565b34801561026e57600080fd5b5061015361027d3660046109d7565b610739565b34801561028e57600080fd5b506102016107be565b3480156102a357600080fd5b506101536102b23660046109d7565b610843565b3480156102c357600080fd5b50610201610893565b60025460a060020a900460ff166103015760405160e560020a62461bcd0281526004016102f890610b55565b60405180910390fd5b6003546000546040517fc625e9b100000000000000000000000000000000000000000000000000000000815261ffff84166004820152600160a060020a03918216602482015291169063c625e9b19034906044016000604051808303818588803b15801561036e57600080fd5b505af1158015610382573d6000803e3d6000fd5b505050505050565b6060600080600260149054906101000a900460ff166103be5760405160e560020a62461bcd0281526004016102f890610b55565b6003546040517f6b073db6000000000000000000000000000000000000000000000000000000008152600160a060020a0390911690636b073db690610407908790600401610ae1565b600060405180830381865afa158015610424573d6000803e3d6000fd5b505050506040513d6000823e601f3d908101601f1916820160405261044c9190810190610bd9565b9250925092509193909250565b60025460609060a060020a900460ff166104de5760405160e560020a62461bcd02815260206004820152602760248201527f4e6f20706f73656520756e20636f6e74726163746f2061637469766f2061206360448201527f616e63656c61720000000000000000000000000000000000000000000000000060648201526084016102f8565b6003546000546040517f62909f93000000000000000000000000000000000000000000000000000000008152600160a060020a0391821660048201529116906362909f93906024016000604051808303816000875af1158015610545573d6000803e3d6000fd5b505050506040513d6000823e601f3d908101601f1916820160405261056d9190810190610c43565b905090565b6060600080600260149054906101000a900460ff166105a65760405160e560020a62461bcd0281526004016102f890610b55565b6003546040517f37cf7793000000000000000000000000000000000000000000000000000000008152600160a060020a03909116906337cf779390610407908790600401610ae1565b6003546000546040517f05c713c6000000000000000000000000000000000000000000000000000000008152600160a060020a03918216600482015260609291909116906305c713c690602401600060405180830381865afa158015610659573d6000803e3d6000fd5b505050506040513d6000823e601f3d908101601f1916820160405261056d9190810190610c78565b60025460009060a060020a900460ff166106b05760405160e560020a62461bcd0281526004016102f890610b55565b6003546001546040517f26c8fb70000000000000000000000000000000000000000000000000000000008152600160a060020a0391821660048201529116906326c8fb7090602401602060405180830381865afa158015610715573d6000803e3d6000fd5b505050506040513d601f19601f8201168201806040525081019061056d9190610d3a565b6003546000546040517f161e9e23000000000000000000000000000000000000000000000000000000008152600160a060020a039283169263161e9e239261078992869290911690600401610d53565b600060405180830381600087803b1580156107a357600080fd5b505af11580156107b7573d6000803e3d6000fd5b5050505050565b60025460609060a060020a900460ff166107ed5760405160e560020a62461bcd0281526004016102f890610b55565b600360009054906101000a9004600160a060020a0316600160a060020a0316639da1ec6b6040518163ffffffff1660e060020a028152600401600060405180830381865afa158015610659573d6000803e3d6000fd5b6003546000546040517f7748d3c4000000000000000000000000000000000000000000000000000000008152600160a060020a0392831692637748d3c49261078992869290911690600401610d53565b60025460609060a060020a900460ff166108c25760405160e560020a62461bcd0281526004016102f890610b55565b600360009054906101000a9004600160a060020a0316600160a060020a0316635b14ce066040518163ffffffff1660e060020a028152600401600060405180830381865afa158015610659573d6000803e3d6000fd5b61ffff8116811461092857600080fd5b50565b60006020828403121561093d57600080fd5b813561094881610918565b9392505050565b7f4e487b7100000000000000000000000000000000000000000000000000000000600052604160045260246000fd5b604051601f8201601f1916810167ffffffffffffffff811182821017156109a7576109a761094f565b604052919050565b600067ffffffffffffffff8211156109c9576109c961094f565b50601f01601f191660200190565b6000602082840312156109e957600080fd5b813567ffffffffffffffff811115610a0057600080fd5b8201601f81018413610a1157600080fd5b8035610a24610a1f826109af565b61097e565b818152856020838501011115610a3957600080fd5b81602084016020830137600091810160200191909152949350505050565b60005b83811015610a72578181015183820152602001610a5a565b83811115610a81576000848401525b50505050565b60008151808452610a9f816020860160208601610a57565b601f01601f19169290920160200192915050565b606081526000610ac66060830186610a87565b61ffff94909416602083015250901515604090910152919050565b6020815260006109486020830184610a87565b600060208083018184528085518083526040860191506040848202870101925083870160005b82811015610b4857603f19888603018452610b36858351610a87565b94509285019290850190600101610b1a565b5092979650505050505050565b6020808252601c908201527f4e6f20706f73656520756e20636f6e74726163746f2061637469766f00000000604082015260600190565b600082601f830112610b9d57600080fd5b8151610bab610a1f826109af565b818152846020838601011115610bc057600080fd5b610bd1826020830160208701610a57565b949350505050565b600080600060608486031215610bee57600080fd5b835167ffffffffffffffff811115610c0557600080fd5b610c1186828701610b8c565b9350506020840151610c2281610918565b60408501519092508015158114610c3857600080fd5b809150509250925092565b600060208284031215610c5557600080fd5b815167ffffffffffffffff811115610c6c57600080fd5b610bd184828501610b8c565b60006020808385031215610c8b57600080fd5b825167ffffffffffffffff80821115610ca357600080fd5b818501915085601f830112610cb757600080fd5b815181811115610cc957610cc961094f565b838102610cd785820161097e565b9182528381018501918581019089841115610cf157600080fd5b86860192505b83831015610d2d57825185811115610d0f5760008081fd5b610d1d8b89838a0101610b8c565b8352509186019190860190610cf7565b9998505050505050505050565b600060208284031215610d4c57600080fd5b5051919050565b604081526000610d666040830185610a87565b9050600160a060020a0383166020830152939250505056fea2646970667358221220148921eb33f009340a56d106a71f1bcb9cb1c9138dc6b2cacdd13f9e776d6db664736f6c634300080e0033",
  "immutableReferences": {},
  "source": "// SPDX-License-Identifier: MIT\npragma solidity >=0.7.0 < 0.9.0;\nimport \"./InsuranceRocketCompany.sol\";\n\ncontract Client{\n    address public owner;\n    address private addressContract;\n    address public addressPrincipalContract;\n    bool public statusContract;\n    InsuranceRocketCompany private IPrincipalContract;\n\n    constructor(address _addr , address _addressContract ) {\n        owner = _addr;\n        addressContract = address(this);\n        addressPrincipalContract= _addressContract;\n        IPrincipalContract =InsuranceRocketCompany(payable(addressPrincipalContract));\n        statusContract = true;\n    }\n    \n    //Funcion cancelar contrato\n    function changeStatus() external {\n        statusContract = false;\n    }\n\n    //---------------------------------------Funciones contrato clientes---------------------------------------\n    //Funcion para comprar tokens\n    function buyTokens(uint16 _quantity) public payable {\n        require(statusContract , \"No posee un contracto activo\");\n        IPrincipalContract.buyTokens{value: msg.value}(_quantity, owner);\n\n    }\n\n    //Funcion para devolver ether cuando un Cliente se da de baja\n    function balanceUser() public  view returns(uint){\n        require(statusContract , \"No posee un contracto activo\");\n        return  IPrincipalContract.balanceContractUser(addressContract);\n    }\n\n    //Funcion para ver servicios disponibles\n    function listServices() public view returns(string[] memory){\n        require(statusContract , \"No posee un contracto activo\");\n        return IPrincipalContract.showActivedServices();\n    }\n\n    //Funcion ver detalles de un servicio\n    function detailsService(string memory _name) public  view returns(string memory , uint16 , bool){\n       require(statusContract , \"No posee un contracto activo\");\n       return IPrincipalContract.showServiceDetails(_name);\n    }\n\n    //Funcion para cancelar mi contrato\n    function cancelContract() public payable returns(string memory){\n       require(statusContract , \"No posee un contracto activo a cancelar\");\n       return(IPrincipalContract.cancelContractClient(owner));\n    }\n\n    //Funcion usar un servicio\n    function useService(string memory _nameService) public {\n        IPrincipalContract.asignServiceClient(_nameService, owner);\n    }\n\n    //Funcion usar un servicio\n    function useSpecialService(string memory _nameService) public {\n        IPrincipalContract.asignSpecialServiceClient(_nameService, owner);\n    }\n\n    //Funcion para ver mi historial de servicios\n    function historyServices()public view returns(string [] memory) {\n        return IPrincipalContract.showServicesClient(owner);\n    }\n\n    //Funcion para ver servicios especiales disponibles\n    function listSpecialServices() public view returns(string[] memory){\n        require(statusContract , \"No posee un contracto activo\");\n        return IPrincipalContract.showActivedSpecialServices();\n    }\n\n    //Funcion ver detalles de un servicios especiales\n    function detailsSpecialService(string memory _name) public  view returns(string memory , uint16 , bool){\n       require(statusContract , \"No posee un contracto activo\");\n       return IPrincipalContract.showSpecialServiceDetails(_name);\n    }\n}",
  "sourcePath": "/home/andres/Escritorio/sistema_salud_full/contracts/System/Company/InsuranceClientRocketCompany.sol",
  "compiler": {
    "name": "solc",
    "version": "0.8.14+commit.80d49f37.Emscripten.clang"
  },
  "schemaVersion": "3.4.6",
  "updatedAt": "2022-06-26T15:16:20.123Z",
  "devdoc": {
    "kind": "dev",
    "methods": {},
    "version": 1
  },
  "userdoc": {
    "kind": "user",
    "methods": {},
    "version": 1
  }
}