{
  "contractName": "Client",
  "abi": [
    {
      "inputs": [
        {
          "internalType": "address",
          "name": "_addr",
          "type": "address"
        },
        {
          "internalType": "address",
          "name": "_addressContract",
          "type": "address"
        }
      ],
      "stateMutability": "nonpayable",
      "type": "constructor"
    },
    {
      "anonymous": false,
      "inputs": [
        {
          "indexed": false,
          "internalType": "string",
          "name": "",
          "type": "string"
        }
      ],
      "name": "buyTokensEvent",
      "type": "event"
    },
    {
      "anonymous": false,
      "inputs": [
        {
          "indexed": false,
          "internalType": "string",
          "name": "",
          "type": "string"
        }
      ],
      "name": "cancelContractEvent",
      "type": "event"
    },
    {
      "anonymous": false,
      "inputs": [
        {
          "indexed": false,
          "internalType": "string",
          "name": "",
          "type": "string"
        }
      ],
      "name": "useServiceEvent",
      "type": "event"
    },
    {
      "inputs": [],
      "name": "addressPrincipalContract",
      "outputs": [
        {
          "internalType": "address",
          "name": "",
          "type": "address"
        }
      ],
      "stateMutability": "view",
      "type": "function"
    },
    {
      "inputs": [],
      "name": "owner",
      "outputs": [
        {
          "internalType": "address",
          "name": "",
          "type": "address"
        }
      ],
      "stateMutability": "view",
      "type": "function"
    },
    {
      "inputs": [],
      "name": "statusContract",
      "outputs": [
        {
          "internalType": "bool",
          "name": "",
          "type": "bool"
        }
      ],
      "stateMutability": "view",
      "type": "function"
    },
    {
      "inputs": [],
      "name": "changeStatus",
      "outputs": [],
      "stateMutability": "nonpayable",
      "type": "function"
    },
    {
      "inputs": [
        {
          "internalType": "uint16",
          "name": "_quantity",
          "type": "uint16"
        }
      ],
      "name": "buyTokens",
      "outputs": [],
      "stateMutability": "payable",
      "type": "function"
    },
    {
      "inputs": [],
      "name": "balanceUser",
      "outputs": [
        {
          "internalType": "uint256",
          "name": "",
          "type": "uint256"
        }
      ],
      "stateMutability": "view",
      "type": "function"
    },
    {
      "inputs": [],
      "name": "listServices",
      "outputs": [
        {
          "internalType": "string[]",
          "name": "",
          "type": "string[]"
        }
      ],
      "stateMutability": "view",
      "type": "function"
    },
    {
      "inputs": [
        {
          "internalType": "string",
          "name": "_name",
          "type": "string"
        }
      ],
      "name": "detailsService",
      "outputs": [
        {
          "internalType": "string",
          "name": "",
          "type": "string"
        },
        {
          "internalType": "uint16",
          "name": "",
          "type": "uint16"
        },
        {
          "internalType": "bool",
          "name": "",
          "type": "bool"
        }
      ],
      "stateMutability": "view",
      "type": "function"
    },
    {
      "inputs": [],
      "name": "cancelContract",
      "outputs": [],
      "stateMutability": "payable",
      "type": "function"
    },
    {
      "inputs": [
        {
          "internalType": "string",
          "name": "_nameService",
          "type": "string"
        }
      ],
      "name": "useSpecialService",
      "outputs": [],
      "stateMutability": "nonpayable",
      "type": "function"
    },
    {
      "inputs": [],
      "name": "historyServices",
      "outputs": [
        {
          "internalType": "string[]",
          "name": "",
          "type": "string[]"
        }
      ],
      "stateMutability": "view",
      "type": "function"
    },
    {
      "inputs": [],
      "name": "listSpecialServices",
      "outputs": [
        {
          "internalType": "string[]",
          "name": "",
          "type": "string[]"
        }
      ],
      "stateMutability": "view",
      "type": "function"
    },
    {
      "inputs": [
        {
          "internalType": "string",
          "name": "_name",
          "type": "string"
        }
      ],
      "name": "detailsSpecialService",
      "outputs": [
        {
          "internalType": "string",
          "name": "",
          "type": "string"
        },
        {
          "internalType": "uint16",
          "name": "",
          "type": "uint16"
        },
        {
          "internalType": "bool",
          "name": "",
          "type": "bool"
        }
      ],
      "stateMutability": "view",
      "type": "function"
    }
  ],
  "bytecode": "0x608060405234801561001057600080fd5b50604051610eba380380610eba83398101604081905261002f916100b4565b60008054600160a060020a03938416600160a060020a03199182161790915560018054821630179055600280546003805490931693909416928317909155600160a860020a031990921617740100000000000000000000000000000000000000001790556100e7565b8051600160a060020a03811681146100af57600080fd5b919050565b600080604083850312156100c757600080fd5b6100d083610098565b91506100de60208401610098565b90509250929050565b610dc4806100f66000396000f3fe6080604052600436106100c65760003560e060020a90048063a5487a0311610083578063d5808c751161005d578063d5808c7514610209578063de1c54881461023a578063e4f05b761461024f578063ea54d2121461026f57600080fd5b8063a5487a03146101a4578063c73e2710146101c4578063d25120ce146101e657600080fd5b8063072ec0bb146100cb578063085634ec146101085780630e662cf01461013a57806314f52f3a1461014d5780632b68bb2d1461017c5780638da5cb5b14610184575b600080fd5b3480156100d757600080fd5b506002546100eb90600160a060020a031681565b604051600160a060020a0390911681526020015b60405180910390f35b34801561011457600080fd5b506101386002805474ff000000000000000000000000000000000000000019169055565b005b61013861014836600461093b565b610284565b34801561015957600080fd5b5061016d6101683660046109e7565b6103a9565b6040516100ff93929190610ac3565b610138610478565b34801561019057600080fd5b506000546100eb90600160a060020a031681565b3480156101b057600080fd5b5061016d6101bf3660046109e7565b6105cd565b3480156101d057600080fd5b506101d961064a565b6040516100ff9190610af1565b3480156101f257600080fd5b506101fb6106e1565b6040519081526020016100ff565b34801561021557600080fd5b5060025461022a9060a060020a900460ff1681565b60405190151581526020016100ff565b34801561024657600080fd5b506101d9610799565b34801561025b57600080fd5b5061013861026a3660046109e7565b61081e565b34801561027b57600080fd5b506101d96108a3565b60025460a060020a900460ff166102b95760405160e560020a62461bcd0281526004016102b090610b52565b60405180910390fd5b6003546000546040517fc625e9b100000000000000000000000000000000000000000000000000000000815261ffff84166004820152600160a060020a03918216602482015291169063c625e9b19034906044016000604051808303818588803b15801561032657600080fd5b505af115801561033a573d6000803e3d6000fd5b50505050507f1b7f028d5ab83158f4f607bb5762c7cba19282431e7f398ff27da3788e3c6b3760405161039e9060208082526010908201527f70757263686173656420746f6b656e7300000000000000000000000000000000604082015260600190565b60405180910390a150565b6060600080600260149054906101000a900460ff166103dd5760405160e560020a62461bcd0281526004016102b090610b52565b6003546040517f6b073db6000000000000000000000000000000000000000000000000000000008152600160a060020a0390911690636b073db690610426908790600401610b89565b600060405180830381865afa158015610443573d6000803e3d6000fd5b505050506040513d6000823e601f3d908101601f1916820160405261046b9190810190610be9565b9250925092509193909250565b60025460a060020a900460ff166104d45760405160e560020a62461bcd02815260206004820152601d60248201527f4e6f2061637469766520636f6e747261637420612063616e63656c617200000060448201526064016102b0565b6003546000546040517f62909f93000000000000000000000000000000000000000000000000000000008152600160a060020a0391821660048201529116906362909f93906024016000604051808303816000875af115801561053b573d6000803e3d6000fd5b505050506040513d6000823e601f3d908101601f191682016040526105639190810190610c53565b507fb012d3f9fdd8921a4928184939f418cb424d911318f2efac796ed07add6485996040516105c39060208082526012908201527f636f6e74726163742063616e63656c6c65640000000000000000000000000000604082015260600190565b60405180910390a1565b6060600080600260149054906101000a900460ff166106015760405160e560020a62461bcd0281526004016102b090610b52565b6003546040517f37cf7793000000000000000000000000000000000000000000000000000000008152600160a060020a03909116906337cf779390610426908790600401610b89565b6003546000546040517f05c713c6000000000000000000000000000000000000000000000000000000008152600160a060020a03918216600482015260609291909116906305c713c690602401600060405180830381865afa1580156106b4573d6000803e3d6000fd5b505050506040513d6000823e601f3d908101601f191682016040526106dc9190810190610c88565b905090565b60025460009060a060020a900460ff166107105760405160e560020a62461bcd0281526004016102b090610b52565b6003546001546040517f26c8fb70000000000000000000000000000000000000000000000000000000008152600160a060020a0391821660048201529116906326c8fb7090602401602060405180830381865afa158015610775573d6000803e3d6000fd5b505050506040513d601f19601f820116820180604052508101906106dc9190610d4a565b60025460609060a060020a900460ff166107c85760405160e560020a62461bcd0281526004016102b090610b52565b600360009054906101000a9004600160a060020a0316600160a060020a0316639da1ec6b6040518163ffffffff1660e060020a028152600401600060405180830381865afa1580156106b4573d6000803e3d6000fd5b6003546000546040517f7748d3c4000000000000000000000000000000000000000000000000000000008152600160a060020a0392831692637748d3c49261086e92869290911690600401610d63565b600060405180830381600087803b15801561088857600080fd5b505af115801561089c573d6000803e3d6000fd5b5050505050565b60025460609060a060020a900460ff166108d25760405160e560020a62461bcd0281526004016102b090610b52565b600360009054906101000a9004600160a060020a0316600160a060020a0316635b14ce066040518163ffffffff1660e060020a028152600401600060405180830381865afa1580156106b4573d6000803e3d6000fd5b61ffff8116811461093857600080fd5b50565b60006020828403121561094d57600080fd5b813561095881610928565b9392505050565b7f4e487b7100000000000000000000000000000000000000000000000000000000600052604160045260246000fd5b604051601f8201601f1916810167ffffffffffffffff811182821017156109b7576109b761095f565b604052919050565b600067ffffffffffffffff8211156109d9576109d961095f565b50601f01601f191660200190565b6000602082840312156109f957600080fd5b813567ffffffffffffffff811115610a1057600080fd5b8201601f81018413610a2157600080fd5b8035610a34610a2f826109bf565b61098e565b818152856020838501011115610a4957600080fd5b81602084016020830137600091810160200191909152949350505050565b60005b83811015610a82578181015183820152602001610a6a565b83811115610a91576000848401525b50505050565b60008151808452610aaf816020860160208601610a67565b601f01601f19169290920160200192915050565b606081526000610ad66060830186610a97565b61ffff94909416602083015250901515604090910152919050565b600060208083018184528085518083526040860191506040848202870101925083870160005b82811015610b4557603f19888603018452610b33858351610a97565b94509285019290850190600101610b17565b5092979650505050505050565b60208082526012908201527f4e6f2061637469766520636f6e74726163740000000000000000000000000000604082015260600190565b6020815260006109586020830184610a97565b600082601f830112610bad57600080fd5b8151610bbb610a2f826109bf565b818152846020838601011115610bd057600080fd5b610be1826020830160208701610a67565b949350505050565b600080600060608486031215610bfe57600080fd5b835167ffffffffffffffff811115610c1557600080fd5b610c2186828701610b9c565b9350506020840151610c3281610928565b60408501519092508015158114610c4857600080fd5b809150509250925092565b600060208284031215610c6557600080fd5b815167ffffffffffffffff811115610c7c57600080fd5b610be184828501610b9c565b60006020808385031215610c9b57600080fd5b825167ffffffffffffffff80821115610cb357600080fd5b818501915085601f830112610cc757600080fd5b815181811115610cd957610cd961095f565b838102610ce785820161098e565b9182528381018501918581019089841115610d0157600080fd5b86860192505b83831015610d3d57825185811115610d1f5760008081fd5b610d2d8b89838a0101610b9c565b8352509186019190860190610d07565b9998505050505050505050565b600060208284031215610d5c57600080fd5b5051919050565b604081526000610d766040830185610a97565b9050600160a060020a0383166020830152939250505056fea264697066735822122093abb870a83421b8d27313e0cf760439fc179beb2da5cd4ea24a2516600c9fc064736f6c634300080e0033",
  "immutableReferences": {},
  "source": "// SPDX-License-Identifier: MIT\npragma solidity >=0.7.0 < 0.9.0;\nimport \"./InsuranceRocketCompany.sol\";\n\ncontract Client{\n    address public owner;\n    address private addressContract;\n    address public addressPrincipalContract;\n    bool public statusContract;\n    InsuranceRocketCompany private IPrincipalContract;\n\n    constructor(address _addr , address _addressContract ) {\n        owner = _addr;\n        addressContract = address(this);\n        addressPrincipalContract= _addressContract;\n        IPrincipalContract =InsuranceRocketCompany(payable(addressPrincipalContract));\n        statusContract = true;\n    }\n\n    //-----------------------------------------events--------------------------------------------------\n    //Evento para cancelar un contrato\n    event cancelContractEvent(string);\n\n    //Evento para cuando se utiliza un servicio\n    event useServiceEvent(string);\n\n    //Evento para cuando se compran tokens\n    event buyTokensEvent(string);\n\n    //Funcion cancelar contrato\n    function changeStatus() external {\n        statusContract = false;\n    }\n\n    //---------------------------------------Funciones contrato clientes---------------------------------------\n    //Funcion para comprar tokens\n    function buyTokens(uint16 _quantity) public payable {\n        require(statusContract , \"No active contract\");\n        IPrincipalContract.buyTokens{value: msg.value}(_quantity, owner);\n        emit buyTokensEvent(\"purchased tokens\");   \n    }\n\n    //Funcion para devolver ether cuando un Cliente se da de baja\n    function balanceUser() public  view returns(uint){\n        require(statusContract , \"No active contract\");\n        return  IPrincipalContract.balanceContractUser(addressContract);\n    }\n\n    //Funcion para ver servicios disponibles\n    function listServices() public view returns(string[] memory){\n        require(statusContract , \"No active contract\");\n        return IPrincipalContract.showActivedServices();\n    }\n\n    //Funcion ver detalles de un servicio\n    function detailsService(string memory _name) public  view returns(string memory , uint16 , bool){\n       require(statusContract , \"No active contract\");\n       return IPrincipalContract.showServiceDetails(_name);\n    }\n\n    //Funcion para cancelar mi contrato\n    function cancelContract() public payable {\n       require(statusContract , \"No active contract a cancelar\");\n       IPrincipalContract.cancelContractClient(owner);\n       emit cancelContractEvent(\"contract cancelled\");\n    }\n\n    //Funcion usar un servicio\n    // function useService(string memory _nameService) public {\n    //     // IPrincipalContract.asignServiceClient(_nameService, owner);\n    //     IPrincipalContract.asignServiceClient(_nameService, addressContract);\n    //     // emit useServiceEvent(\"assigned service\");\n    // }\n\n    //Funcion usar un servicio\n    // function useService(string memory _nameService) public {\n    //     // IPrincipalContract.asignServiceClient(_nameService, owner);\n    //     IPrincipalContract.asignServiceClient(_nameService);\n    //     // emit useServiceEvent(\"assigned service\");\n    // }\n\n    //Funcion usar un servicio\n    function useSpecialService(string memory _nameService) public {\n        IPrincipalContract.asignSpecialServiceClient(_nameService, owner);\n    }\n\n    //Funcion para ver mi historial de servicios\n    function historyServices()public view returns(string [] memory) {\n        return IPrincipalContract.showServicesClient(owner);\n    }\n\n    //Funcion para ver servicios especiales disponibles\n    function listSpecialServices() public view returns(string[] memory){\n        require(statusContract , \"No active contract\");\n        return IPrincipalContract.showActivedSpecialServices();\n    }\n\n    //Funcion ver detalles de un servicios especiales\n    function detailsSpecialService(string memory _name) public  view returns(string memory , uint16 , bool){\n       require(statusContract , \"No active contract\");\n       return IPrincipalContract.showSpecialServiceDetails(_name);\n    }\n}",
  "sourcePath": "/home/xdx/Escritorio/Solidity proyects/sistema_salud_full/contracts/System/Company/InsuranceClientRocketCompany.sol",
  "compiler": {
    "name": "solc",
    "version": "0.8.14+commit.80d49f37.Emscripten.clang"
  },
  "schemaVersion": "3.4.7",
  "updatedAt": "2022-07-10T15:26:25.780Z",
  "devdoc": {
    "kind": "dev",
    "methods": {},
    "version": 1
  },
  "userdoc": {
    "kind": "user",
    "methods": {},
    "version": 1
  }
}