{
  "contractName": "Client",
  "abi": [
    {
      "inputs": [
        {
          "internalType": "address",
          "name": "_addr",
          "type": "address"
        },
        {
          "internalType": "address",
          "name": "_addressContract",
          "type": "address"
        }
      ],
      "stateMutability": "nonpayable",
      "type": "constructor"
    },
    {
      "anonymous": false,
      "inputs": [
        {
          "indexed": false,
          "internalType": "string",
          "name": "",
          "type": "string"
        }
      ],
      "name": "buyTokensEvent",
      "type": "event"
    },
    {
      "anonymous": false,
      "inputs": [
        {
          "indexed": false,
          "internalType": "string",
          "name": "",
          "type": "string"
        }
      ],
      "name": "cancelContractEvent",
      "type": "event"
    },
    {
      "anonymous": false,
      "inputs": [
        {
          "indexed": false,
          "internalType": "string",
          "name": "",
          "type": "string"
        }
      ],
      "name": "useServiceEvent",
      "type": "event"
    },
    {
      "inputs": [],
      "name": "addressContract",
      "outputs": [
        {
          "internalType": "address",
          "name": "",
          "type": "address"
        }
      ],
      "stateMutability": "view",
      "type": "function"
    },
    {
      "inputs": [],
      "name": "addressPrincipalContract",
      "outputs": [
        {
          "internalType": "address",
          "name": "",
          "type": "address"
        }
      ],
      "stateMutability": "view",
      "type": "function"
    },
    {
      "inputs": [],
      "name": "owner",
      "outputs": [
        {
          "internalType": "address",
          "name": "",
          "type": "address"
        }
      ],
      "stateMutability": "view",
      "type": "function"
    },
    {
      "inputs": [],
      "name": "statusContract",
      "outputs": [
        {
          "internalType": "bool",
          "name": "",
          "type": "bool"
        }
      ],
      "stateMutability": "view",
      "type": "function"
    },
    {
      "inputs": [
        {
          "internalType": "uint16",
          "name": "_quantity",
          "type": "uint16"
        }
      ],
      "name": "buyTokens",
      "outputs": [],
      "stateMutability": "payable",
      "type": "function"
    },
    {
      "inputs": [],
      "name": "balanceUser",
      "outputs": [
        {
          "internalType": "uint256",
          "name": "",
          "type": "uint256"
        }
      ],
      "stateMutability": "view",
      "type": "function"
    },
    {
      "inputs": [],
      "name": "listServices",
      "outputs": [
        {
          "internalType": "string[]",
          "name": "",
          "type": "string[]"
        }
      ],
      "stateMutability": "view",
      "type": "function"
    },
    {
      "inputs": [
        {
          "internalType": "string",
          "name": "_name",
          "type": "string"
        }
      ],
      "name": "detailsService",
      "outputs": [
        {
          "internalType": "string",
          "name": "",
          "type": "string"
        },
        {
          "internalType": "uint16",
          "name": "",
          "type": "uint16"
        },
        {
          "internalType": "bool",
          "name": "",
          "type": "bool"
        }
      ],
      "stateMutability": "view",
      "type": "function"
    },
    {
      "inputs": [],
      "name": "cancelContract",
      "outputs": [],
      "stateMutability": "payable",
      "type": "function"
    },
    {
      "inputs": [
        {
          "internalType": "string",
          "name": "_nameService",
          "type": "string"
        }
      ],
      "name": "useService",
      "outputs": [],
      "stateMutability": "nonpayable",
      "type": "function"
    },
    {
      "inputs": [
        {
          "internalType": "string",
          "name": "_nameService",
          "type": "string"
        }
      ],
      "name": "useSpecialService",
      "outputs": [],
      "stateMutability": "nonpayable",
      "type": "function"
    },
    {
      "inputs": [],
      "name": "historyServices",
      "outputs": [
        {
          "internalType": "string[]",
          "name": "",
          "type": "string[]"
        }
      ],
      "stateMutability": "view",
      "type": "function"
    },
    {
      "inputs": [],
      "name": "listSpecialServices",
      "outputs": [
        {
          "internalType": "string[]",
          "name": "",
          "type": "string[]"
        }
      ],
      "stateMutability": "view",
      "type": "function"
    },
    {
      "inputs": [
        {
          "internalType": "string",
          "name": "_name",
          "type": "string"
        }
      ],
      "name": "detailsSpecialService",
      "outputs": [
        {
          "internalType": "string",
          "name": "",
          "type": "string"
        },
        {
          "internalType": "uint16",
          "name": "",
          "type": "uint16"
        },
        {
          "internalType": "bool",
          "name": "",
          "type": "bool"
        }
      ],
      "stateMutability": "view",
      "type": "function"
    }
  ],
  "bytecode": "0x608060405234801561001057600080fd5b50604051610e18380380610e1883398101604081905261002f916100b4565b60008054600160a060020a03938416600160a060020a03199182161790915560018054821630179055600280546003805490931693909416928317909155600160a860020a031990921617740100000000000000000000000000000000000000001790556100e7565b8051600160a060020a03811681146100af57600080fd5b919050565b600080604083850312156100c757600080fd5b6100d083610098565b91506100de60208401610098565b90509250929050565b610d22806100f66000396000f3fe6080604052600436106100e15760003560e060020a90048063c73e271011610083578063db8366eb1161005d578063db8366eb14610245578063de1c548814610265578063e4f05b761461027a578063ea54d2121461029a57600080fd5b8063c73e2710146101cf578063d25120ce146101f1578063d5808c751461021457600080fd5b80632b68bb2d116100bf5780632b68bb2d146101675780638609b2fc1461016f5780638da5cb5b1461018f578063a5487a03146101af57600080fd5b8063072ec0bb146100e65780630e662cf01461012357806314f52f3a14610138575b600080fd5b3480156100f257600080fd5b5060025461010690600160a060020a031681565b604051600160a060020a0390911681526020015b60405180910390f35b6101366101313660046108d2565b6102af565b005b34801561014457600080fd5b5061015861015336600461097e565b61036d565b60405161011a93929190610a56565b61013661043c565b34801561017b57600080fd5b5060015461010690600160a060020a031681565b34801561019b57600080fd5b5060005461010690600160a060020a031681565b3480156101bb57600080fd5b506101586101ca36600461097e565b610514565b3480156101db57600080fd5b506101e4610591565b60405161011a9190610a84565b3480156101fd57600080fd5b50610206610628565b60405190815260200161011a565b34801561022057600080fd5b506002546102359060a060020a900460ff1681565b604051901515815260200161011a565b34801561025157600080fd5b5061013661026036600461097e565b6106e0565b34801561027157600080fd5b506101e4610765565b34801561028657600080fd5b5061013661029536600461097e565b6107ea565b3480156102a657600080fd5b506101e461083a565b60025460a060020a900460ff166102e45760405160e560020a62461bcd0281526004016102db90610ae5565b60405180910390fd5b6003546000546040517fc625e9b100000000000000000000000000000000000000000000000000000000815261ffff84166004820152600160a060020a03918216602482015291169063c625e9b19034906044016000604051808303818588803b15801561035157600080fd5b505af1158015610365573d6000803e3d6000fd5b505050505050565b6060600080600260149054906101000a900460ff166103a15760405160e560020a62461bcd0281526004016102db90610ae5565b6003546040517f6b073db6000000000000000000000000000000000000000000000000000000008152600160a060020a0390911690636b073db6906103ea908790600401610b1c565b600060405180830381865afa158015610407573d6000803e3d6000fd5b505050506040513d6000823e601f3d908101601f1916820160405261042f9190810190610b7c565b9250925092509193909250565b60025460a060020a900460ff166104985760405160e560020a62461bcd02815260206004820152601d60248201527f4e6f2061637469766520636f6e747261637420612063616e63656c617200000060448201526064016102db565b6003546000546040517faef5beb7000000000000000000000000000000000000000000000000000000008152600160a060020a03918216600482015291169063aef5beb790602401600060405180830381600087803b1580156104fa57600080fd5b505af115801561050e573d6000803e3d6000fd5b50505050565b6060600080600260149054906101000a900460ff166105485760405160e560020a62461bcd0281526004016102db90610ae5565b6003546040517f37cf7793000000000000000000000000000000000000000000000000000000008152600160a060020a03909116906337cf7793906103ea908790600401610b1c565b6003546000546040517f05c713c6000000000000000000000000000000000000000000000000000000008152600160a060020a03918216600482015260609291909116906305c713c690602401600060405180830381865afa1580156105fb573d6000803e3d6000fd5b505050506040513d6000823e601f3d908101601f191682016040526106239190810190610be6565b905090565b60025460009060a060020a900460ff166106575760405160e560020a62461bcd0281526004016102db90610ae5565b6003546001546040517f26c8fb70000000000000000000000000000000000000000000000000000000008152600160a060020a0391821660048201529116906326c8fb7090602401602060405180830381865afa1580156106bc573d6000803e3d6000fd5b505050506040513d601f19601f820116820180604052508101906106239190610ca8565b6003546000546040517f161e9e23000000000000000000000000000000000000000000000000000000008152600160a060020a039283169263161e9e239261073092869290911690600401610cc1565b600060405180830381600087803b15801561074a57600080fd5b505af115801561075e573d6000803e3d6000fd5b5050505050565b60025460609060a060020a900460ff166107945760405160e560020a62461bcd0281526004016102db90610ae5565b600360009054906101000a9004600160a060020a0316600160a060020a0316639da1ec6b6040518163ffffffff1660e060020a028152600401600060405180830381865afa1580156105fb573d6000803e3d6000fd5b6003546000546040517f7748d3c4000000000000000000000000000000000000000000000000000000008152600160a060020a0392831692637748d3c49261073092869290911690600401610cc1565b60025460609060a060020a900460ff166108695760405160e560020a62461bcd0281526004016102db90610ae5565b600360009054906101000a9004600160a060020a0316600160a060020a0316635b14ce066040518163ffffffff1660e060020a028152600401600060405180830381865afa1580156105fb573d6000803e3d6000fd5b61ffff811681146108cf57600080fd5b50565b6000602082840312156108e457600080fd5b81356108ef816108bf565b9392505050565b7f4e487b7100000000000000000000000000000000000000000000000000000000600052604160045260246000fd5b604051601f8201601f1916810167ffffffffffffffff8111828210171561094e5761094e6108f6565b604052919050565b600067ffffffffffffffff821115610970576109706108f6565b50601f01601f191660200190565b60006020828403121561099057600080fd5b813567ffffffffffffffff8111156109a757600080fd5b8201601f810184136109b857600080fd5b80356109cb6109c682610956565b610925565b8181528560208385010111156109e057600080fd5b81602084016020830137600091810160200191909152949350505050565b60005b83811015610a19578181015183820152602001610a01565b8381111561050e5750506000910152565b60008151808452610a428160208601602086016109fe565b601f01601f19169290920160200192915050565b606081526000610a696060830186610a2a565b61ffff94909416602083015250901515604090910152919050565b600060208083018184528085518083526040860191506040848202870101925083870160005b82811015610ad857603f19888603018452610ac6858351610a2a565b94509285019290850190600101610aaa565b5092979650505050505050565b60208082526012908201527f4e6f2061637469766520636f6e74726163740000000000000000000000000000604082015260600190565b6020815260006108ef6020830184610a2a565b600082601f830112610b4057600080fd5b8151610b4e6109c682610956565b818152846020838601011115610b6357600080fd5b610b748260208301602087016109fe565b949350505050565b600080600060608486031215610b9157600080fd5b835167ffffffffffffffff811115610ba857600080fd5b610bb486828701610b2f565b9350506020840151610bc5816108bf565b60408501519092508015158114610bdb57600080fd5b809150509250925092565b60006020808385031215610bf957600080fd5b825167ffffffffffffffff80821115610c1157600080fd5b818501915085601f830112610c2557600080fd5b815181811115610c3757610c376108f6565b838102610c45858201610925565b9182528381018501918581019089841115610c5f57600080fd5b86860192505b83831015610c9b57825185811115610c7d5760008081fd5b610c8b8b89838a0101610b2f565b8352509186019190860190610c65565b9998505050505050505050565b600060208284031215610cba57600080fd5b5051919050565b604081526000610cd46040830185610a2a565b9050600160a060020a0383166020830152939250505056fea2646970667358221220d574cf859949281934111f6936d629d7072d94cda7e7295c5b04db5f892b5dca64736f6c634300080e0033",
  "immutableReferences": {},
  "source": "// SPDX-License-Identifier: MIT\npragma solidity >=0.7.0 < 0.9.0;\nimport \"./InsuranceRocketCompany.sol\";\n\ncontract Client{\n    address public owner;\n    address public addressContract;\n    address public addressPrincipalContract;\n    bool public statusContract;\n    InsuranceRocketCompany private IPrincipalContract;\n\n    constructor(address _addr , address _addressContract ) {\n        owner = _addr;\n        addressContract = address(this);\n        addressPrincipalContract= _addressContract;\n        IPrincipalContract =InsuranceRocketCompany(payable(addressPrincipalContract));\n        statusContract = true;\n    }\n\n    //-----------------------------------------events--------------------------------------------------\n    //Evento para cancelar un contrato\n    event cancelContractEvent(string);\n\n    //Evento para cuando se utiliza un servicio\n    event useServiceEvent(string);\n\n    //Evento para cuando se compran tokens\n    event buyTokensEvent(string);\n\n    //Funcion cancelar contrato\n    function changeStatus() private {\n        statusContract = !statusContract;\n    }\n\n    //---------------------------------------Funciones contrato clientes---------------------------------------\n    //Funcion para comprar tokens\n    function buyTokens(uint16 _quantity) public payable {\n        require(statusContract , \"No active contract\");\n        IPrincipalContract.buyTokens{value: msg.value}(_quantity, owner);\n        // emit buyTokensEvent(\"purchased tokens\");   \n    }\n\n    //Funcion para devolver ether cuando un Cliente se da de baja\n    function balanceUser() public  view returns(uint){\n        require(statusContract , \"No active contract\");\n        return  IPrincipalContract.balanceContractUser(addressContract);\n    }\n\n    //Funcion para ver servicios disponibles\n    function listServices() public view returns(string[] memory){\n        require(statusContract , \"No active contract\");\n        return IPrincipalContract.showActivedServices();\n    }\n\n    //Funcion ver detalles de un servicio\n    function detailsService(string memory _name) public  view returns(string memory , uint16 , bool){\n       require(statusContract , \"No active contract\");\n       return IPrincipalContract.showServiceDetails(_name);\n    }\n\n    //Funcion para cancelar mi contrato\n    function cancelContract() public payable {\n       require(statusContract , \"No active contract a cancelar\");\n    //    IPrincipalContract.cancelContractClient(owner);\n        IPrincipalContract.changeStatusContract(owner);\n        // changeStatus();\n    //    emit cancelContractEvent(\"contract cancelled\");\n    }\n\n    //Funcion usar un servicio\n    function useService(string memory _nameService) public {\n        IPrincipalContract.asignServiceClient(_nameService, owner);\n        // emit useServiceEvent(\"assigned service\");\n    }\n\n    //Funcion usar un servicio\n    function useSpecialService(string memory _nameService) public {\n        IPrincipalContract.asignSpecialServiceClient(_nameService, owner);\n    }\n\n    //Funcion para ver mi historial de servicios\n    function historyServices()public view returns(string [] memory) {\n        return IPrincipalContract.showServicesClient(owner);\n    }\n\n    //Funcion para ver servicios especiales disponibles\n    function listSpecialServices() public view returns(string[] memory){\n        require(statusContract , \"No active contract\");\n        return IPrincipalContract.showActivedSpecialServices();\n    }\n\n    //Funcion ver detalles de un servicios especiales\n    function detailsSpecialService(string memory _name) public  view returns(string memory , uint16 , bool){\n       require(statusContract , \"No active contract\");\n       return IPrincipalContract.showSpecialServiceDetails(_name);\n    }\n}",
  "sourcePath": "/home/xdx/Escritorio/Solidity proyects/sistema_salud_full/contracts/System/Company/InsuranceClientRocketCompany.sol",
  "compiler": {
    "name": "solc",
    "version": "0.8.14+commit.80d49f37.Emscripten.clang"
  },
  "schemaVersion": "3.4.7",
  "updatedAt": "2022-07-13T06:10:34.919Z",
  "devdoc": {
    "kind": "dev",
    "methods": {},
    "version": 1
  },
  "userdoc": {
    "kind": "user",
    "methods": {},
    "version": 1
  }
}