{
  "contractName": "ERC20Rocket",
  "abi": [
    {
      "inputs": [
        {
          "internalType": "string",
          "name": "name_",
          "type": "string"
        },
        {
          "internalType": "string",
          "name": "symbol_",
          "type": "string"
        }
      ],
      "stateMutability": "nonpayable",
      "type": "constructor"
    },
    {
      "anonymous": false,
      "inputs": [
        {
          "indexed": true,
          "internalType": "address",
          "name": "from",
          "type": "address"
        },
        {
          "indexed": true,
          "internalType": "address",
          "name": "to",
          "type": "address"
        },
        {
          "indexed": false,
          "internalType": "uint256",
          "name": "value",
          "type": "uint256"
        }
      ],
      "name": "Transfer",
      "type": "event"
    },
    {
      "inputs": [],
      "name": "name",
      "outputs": [
        {
          "internalType": "string",
          "name": "",
          "type": "string"
        }
      ],
      "stateMutability": "view",
      "type": "function"
    },
    {
      "inputs": [],
      "name": "symbol",
      "outputs": [
        {
          "internalType": "string",
          "name": "",
          "type": "string"
        }
      ],
      "stateMutability": "view",
      "type": "function"
    },
    {
      "inputs": [],
      "name": "totalSupply",
      "outputs": [
        {
          "internalType": "uint256",
          "name": "",
          "type": "uint256"
        }
      ],
      "stateMutability": "view",
      "type": "function"
    },
    {
      "inputs": [
        {
          "internalType": "address",
          "name": "account",
          "type": "address"
        }
      ],
      "name": "balanceOf",
      "outputs": [
        {
          "internalType": "uint256",
          "name": "",
          "type": "uint256"
        }
      ],
      "stateMutability": "view",
      "type": "function"
    },
    {
      "inputs": [
        {
          "internalType": "address",
          "name": "to",
          "type": "address"
        },
        {
          "internalType": "uint256",
          "name": "amount",
          "type": "uint256"
        }
      ],
      "name": "transfer",
      "outputs": [
        {
          "internalType": "bool",
          "name": "",
          "type": "bool"
        }
      ],
      "stateMutability": "nonpayable",
      "type": "function"
    },
    {
      "inputs": [
        {
          "internalType": "address",
          "name": "from",
          "type": "address"
        },
        {
          "internalType": "address",
          "name": "to",
          "type": "address"
        },
        {
          "internalType": "uint256",
          "name": "amount",
          "type": "uint256"
        }
      ],
      "name": "transferTokenRocket",
      "outputs": [],
      "stateMutability": "nonpayable",
      "type": "function"
    },
    {
      "inputs": [
        {
          "internalType": "uint256",
          "name": "amount",
          "type": "uint256"
        }
      ],
      "name": "mint",
      "outputs": [],
      "stateMutability": "nonpayable",
      "type": "function"
    }
  ],
  "bytecode": "0x60806040523480156200001157600080fd5b5060405162000a3438038062000a348339810160408190526200003491620001f4565b81516200004990600290602085019062000068565b5080516200005f90600390602084019062000068565b505050620002b3565b82805462000076906200025e565b90600052602060002090601f0160209004810192826200009a5760008555620000e5565b82601f10620000b557805160ff1916838001178555620000e5565b82800160010185558215620000e5579182015b82811115620000e5578251825591602001919060010190620000c8565b50620000f3929150620000f7565b5090565b5b80821115620000f35760008155600101620000f8565b7f4e487b7100000000000000000000000000000000000000000000000000000000600052604160045260246000fd5b600082601f8301126200014f57600080fd5b81516001604060020a03808211156200016c576200016c6200010e565b604051601f8301601f19908116603f011681019082821181831017156200019757620001976200010e565b81604052838152602092508683858801011115620001b457600080fd5b600091505b83821015620001d85785820183015181830184015290820190620001b9565b83821115620001ea5760008385830101525b9695505050505050565b600080604083850312156200020857600080fd5b82516001604060020a03808211156200022057600080fd5b6200022e868387016200013d565b935060208501519150808211156200024557600080fd5b5062000254858286016200013d565b9150509250929050565b6002810460018216806200027357607f821691505b602082108103620002ad577f4e487b7100000000000000000000000000000000000000000000000000000000600052602260045260246000fd5b50919050565b61077180620002c36000396000f3fe608060405234801561001057600080fd5b506004361061009a576000357c01000000000000000000000000000000000000000000000000000000009004806370a082311161007857806370a08231146100e457806395d89b411461010d578063a0712d6814610115578063a9059cbb1461012857600080fd5b806306fdde031461009f57806318160ddd146100bd57806351ce139a146100cf575b600080fd5b6100a761014b565b6040516100b49190610578565b60405180910390f35b6001545b6040519081526020016100b4565b6100e26100dd3660046105e9565b6101dd565b005b6100c16100f2366004610625565b600160a060020a031660009081526020819052604090205490565b6100a761023c565b6100e2610123366004610647565b61024b565b61013b610136366004610660565b610258565b60405190151581526020016100b4565b60606002805461015a9061068a565b80601f01602080910402602001604051908101604052809291908181526020018280546101869061068a565b80156101d35780601f106101a8576101008083540402835291602001916101d3565b820191906000526020600020905b8154815290600101906020018083116101b657829003601f168201915b5050505050905090565b600160a060020a0383166000908152602081905260408120805483929061020590849061070c565b9091555050600160a060020a03821660009081526020819052604081208054839290610232908490610723565b9091555050505050565b60606003805461015a9061068a565b6102553382610270565b50565b600033610266818585610357565b5060019392505050565b600160a060020a0382166102ce5760405160e560020a62461bcd02815260206004820152601f60248201527f45524332303a206d696e7420746f20746865207a65726f20616464726573730060448201526064015b60405180910390fd5b80600160008282546102e09190610723565b9091555050600160a060020a0382166000908152602081905260408120805483929061030d908490610723565b9091555050604051818152600160a060020a038316906000907fddf252ad1be2c89b69c2b068fc378daa952ba7f163c4a11628f55a4df523b3ef9060200160405180910390a35050565b600160a060020a0383166103d65760405160e560020a62461bcd02815260206004820152602560248201527f45524332303a207472616e736665722066726f6d20746865207a65726f20616460448201527f647265737300000000000000000000000000000000000000000000000000000060648201526084016102c5565b600160a060020a0382166104555760405160e560020a62461bcd02815260206004820152602360248201527f45524332303a207472616e7366657220746f20746865207a65726f206164647260448201527f657373000000000000000000000000000000000000000000000000000000000060648201526084016102c5565b600160a060020a038316600090815260208190526040902054818110156104e75760405160e560020a62461bcd02815260206004820152602660248201527f45524332303a207472616e7366657220616d6f756e742065786365656473206260448201527f616c616e6365000000000000000000000000000000000000000000000000000060648201526084016102c5565b600160a060020a0380851660009081526020819052604080822085850390559185168152908120805484929061051e908490610723565b9250508190555082600160a060020a031684600160a060020a03167fddf252ad1be2c89b69c2b068fc378daa952ba7f163c4a11628f55a4df523b3ef8460405161056a91815260200190565b60405180910390a350505050565b600060208083528351808285015260005b818110156105a557858101830151858201604001528201610589565b818111156105b7576000604083870101525b50601f01601f1916929092016040019392505050565b8035600160a060020a03811681146105e457600080fd5b919050565b6000806000606084860312156105fe57600080fd5b610607846105cd565b9250610615602085016105cd565b9150604084013590509250925092565b60006020828403121561063757600080fd5b610640826105cd565b9392505050565b60006020828403121561065957600080fd5b5035919050565b6000806040838503121561067357600080fd5b61067c836105cd565b946020939093013593505050565b60028104600182168061069e57607f821691505b6020821081036106d7577f4e487b7100000000000000000000000000000000000000000000000000000000600052602260045260246000fd5b50919050565b7f4e487b7100000000000000000000000000000000000000000000000000000000600052601160045260246000fd5b60008282101561071e5761071e6106dd565b500390565b60008219821115610736576107366106dd565b50019056fea2646970667358221220ece6a1c0d07c7c3fc4fe4397433f7220fdc263e36317139682a78afcefca1ff664736f6c634300080e0033",
  "immutableReferences": {},
  "source": "// SPDX-License-Identifier: MIT\npragma solidity >=0.7.0 < 0.9.0;\n\nimport \"./IERC20.sol\";\nimport \"@openzeppelin/contracts/utils/math/SafeMath.sol\";\n/* import \"hardhat/console.sol\"; */\n\ncontract ERC20Rocket is Interfaces{\n    mapping(address => uint256) private _balances;\n\n    uint256 private _totalSupply;\n\n    string private _name;\n    string private _symbol;\n\n    constructor(string memory name_, string memory symbol_) {\n        _name = name_;\n        _symbol = symbol_;\n    }\n\n    function name() public view virtual override returns (string memory) {\n        return _name;\n    }\n\n    function symbol() public view virtual override returns (string memory) {\n        return _symbol;\n    }\n\n    function totalSupply() public view virtual override returns (uint256) {\n        return _totalSupply;\n    }\n\n    function balanceOf(address account) public view virtual override returns (uint256) {\n        return _balances[account];\n    }\n\n    function transfer(address to, uint256 amount) public virtual override returns (bool) {\n        address owner = _msgSender();\n        _transfer(owner, to, amount);\n        return true;\n    }\n\n    function transferTokenRocket(address from, address to, uint amount) public {\n        _balances[from] -= amount;\n        _balances[to] += amount;\n    }\n\n    function _transfer(\n        address from,\n        address to,\n        uint256 amount\n    ) internal virtual {\n        require(from != address(0), \"ERC20: transfer from the zero address\");\n        require(to != address(0), \"ERC20: transfer to the zero address\");\n\n        _beforeTokenTransfer(from, to, amount);\n\n        uint256 fromBalance = _balances[from];\n        require(fromBalance >= amount, \"ERC20: transfer amount exceeds balance\");\n        unchecked {\n            _balances[from] = fromBalance - amount;\n        }\n        _balances[to] += amount;\n\n        emit Transfer(from, to, amount);\n\n        _afterTokenTransfer(from, to, amount);\n    }\n\n    function mint(uint amount) public {\n        _mint(msg.sender, amount);\n    }\n\n    function _mint(address account, uint256 amount) internal virtual {\n        require(account != address(0), \"ERC20: mint to the zero address\");\n\n        _beforeTokenTransfer(address(0), account, amount);\n\n        _totalSupply += amount;\n        _balances[account] += amount;\n        emit Transfer(address(0), account, amount);\n\n        _afterTokenTransfer(address(0), account, amount);\n    }\n\n    function _beforeTokenTransfer(\n        address from,\n        address to,\n        uint256 amount\n    ) internal virtual {}\n\n    function _afterTokenTransfer(\n        address from,\n        address to,\n        uint256 amount\n    ) internal virtual {}\n\n    function _msgSender() internal view virtual returns (address) {\n        return msg.sender;\n    }\n\n    function _msgData() internal view virtual returns (bytes calldata) {\n        return msg.data;\n    }\n}",
  "sourcePath": "/home/andres/Escritorio/sistema_salud_full/contracts/System/Token/ERC20.sol",
  "compiler": {
    "name": "solc",
    "version": "0.8.14+commit.80d49f37.Emscripten.clang"
  },
  "schemaVersion": "3.4.6",
  "updatedAt": "2022-06-26T15:16:20.245Z",
  "devdoc": {
    "kind": "dev",
    "methods": {},
    "version": 1
  },
  "userdoc": {
    "kind": "user",
    "methods": {},
    "version": 1
  }
}