{
  "contractName": "InsuranceRocketCompany",
  "abi": [
    {
      "inputs": [],
      "stateMutability": "nonpayable",
      "type": "constructor"
    },
    {
      "anonymous": false,
      "inputs": [
        {
          "indexed": false,
          "internalType": "string",
          "name": "",
          "type": "string"
        },
        {
          "indexed": false,
          "internalType": "address",
          "name": "",
          "type": "address"
        }
      ],
      "name": "createFactoryEvent",
      "type": "event"
    },
    {
      "anonymous": false,
      "inputs": [
        {
          "indexed": false,
          "internalType": "string",
          "name": "",
          "type": "string"
        }
      ],
      "name": "messageEvent",
      "type": "event"
    },
    {
      "anonymous": false,
      "inputs": [
        {
          "indexed": false,
          "internalType": "uint16",
          "name": "",
          "type": "uint16"
        }
      ],
      "name": "rechargeTokensEvent",
      "type": "event"
    },
    {
      "stateMutability": "payable",
      "type": "fallback",
      "payable": true
    },
    {
      "inputs": [
        {
          "internalType": "address",
          "name": "",
          "type": "address"
        }
      ],
      "name": "RequestStatus",
      "outputs": [
        {
          "internalType": "uint16",
          "name": "requestType",
          "type": "uint16"
        },
        {
          "internalType": "bool",
          "name": "statusRequest",
          "type": "bool"
        },
        {
          "internalType": "address",
          "name": "addressContract",
          "type": "address"
        },
        {
          "internalType": "bool",
          "name": "isRequest",
          "type": "bool"
        },
        {
          "internalType": "string",
          "name": "statusContract",
          "type": "string"
        }
      ],
      "stateMutability": "view",
      "type": "function",
      "constant": true
    },
    {
      "inputs": [
        {
          "internalType": "string",
          "name": "",
          "type": "string"
        }
      ],
      "name": "Services",
      "outputs": [
        {
          "internalType": "string",
          "name": "name",
          "type": "string"
        },
        {
          "internalType": "uint16",
          "name": "priceService",
          "type": "uint16"
        },
        {
          "internalType": "bool",
          "name": "statusService",
          "type": "bool"
        }
      ],
      "stateMutability": "view",
      "type": "function",
      "constant": true
    },
    {
      "inputs": [
        {
          "internalType": "uint256",
          "name": "",
          "type": "uint256"
        }
      ],
      "name": "ServicesUsedClient",
      "outputs": [
        {
          "internalType": "address",
          "name": "onwer",
          "type": "address"
        },
        {
          "internalType": "address",
          "name": "client",
          "type": "address"
        },
        {
          "internalType": "string",
          "name": "typeService",
          "type": "string"
        },
        {
          "internalType": "uint256",
          "name": "price",
          "type": "uint256"
        },
        {
          "internalType": "string",
          "name": "name",
          "type": "string"
        }
      ],
      "stateMutability": "view",
      "type": "function",
      "constant": true
    },
    {
      "inputs": [
        {
          "internalType": "string",
          "name": "",
          "type": "string"
        }
      ],
      "name": "SpecialServices",
      "outputs": [
        {
          "internalType": "uint16",
          "name": "priceService",
          "type": "uint16"
        },
        {
          "internalType": "bool",
          "name": "statusService",
          "type": "bool"
        },
        {
          "internalType": "address",
          "name": "laboratory",
          "type": "address"
        }
      ],
      "stateMutability": "view",
      "type": "function",
      "constant": true
    },
    {
      "inputs": [],
      "name": "addressContract",
      "outputs": [
        {
          "internalType": "address",
          "name": "",
          "type": "address"
        }
      ],
      "stateMutability": "view",
      "type": "function",
      "constant": true
    },
    {
      "inputs": [],
      "name": "counterServices",
      "outputs": [
        {
          "internalType": "uint256",
          "name": "",
          "type": "uint256"
        }
      ],
      "stateMutability": "view",
      "type": "function",
      "constant": true
    },
    {
      "inputs": [
        {
          "internalType": "uint256",
          "name": "",
          "type": "uint256"
        }
      ],
      "name": "listServices",
      "outputs": [
        {
          "internalType": "string",
          "name": "",
          "type": "string"
        }
      ],
      "stateMutability": "view",
      "type": "function",
      "constant": true
    },
    {
      "inputs": [
        {
          "internalType": "uint256",
          "name": "",
          "type": "uint256"
        }
      ],
      "name": "listSpecialServices",
      "outputs": [
        {
          "internalType": "string",
          "name": "",
          "type": "string"
        }
      ],
      "stateMutability": "view",
      "type": "function",
      "constant": true
    },
    {
      "inputs": [],
      "name": "owner",
      "outputs": [
        {
          "internalType": "address",
          "name": "",
          "type": "address"
        }
      ],
      "stateMutability": "view",
      "type": "function",
      "constant": true
    },
    {
      "inputs": [
        {
          "internalType": "address",
          "name": "",
          "type": "address"
        },
        {
          "internalType": "uint256",
          "name": "",
          "type": "uint256"
        }
      ],
      "name": "servicesClientHistory",
      "outputs": [
        {
          "internalType": "string",
          "name": "",
          "type": "string"
        }
      ],
      "stateMutability": "view",
      "type": "function",
      "constant": true
    },
    {
      "stateMutability": "payable",
      "type": "receive",
      "payable": true
    },
    {
      "inputs": [],
      "name": "BalanceContractEthers",
      "outputs": [
        {
          "internalType": "uint256",
          "name": "",
          "type": "uint256"
        }
      ],
      "stateMutability": "view",
      "type": "function",
      "constant": true
    },
    {
      "inputs": [
        {
          "internalType": "uint16",
          "name": "_amount",
          "type": "uint16"
        }
      ],
      "name": "rechargeTokens",
      "outputs": [],
      "stateMutability": "nonpayable",
      "type": "function"
    },
    {
      "inputs": [],
      "name": "balanceContractTokens",
      "outputs": [
        {
          "internalType": "uint256",
          "name": "",
          "type": "uint256"
        }
      ],
      "stateMutability": "view",
      "type": "function",
      "constant": true
    },
    {
      "inputs": [
        {
          "internalType": "uint256",
          "name": "_quantity",
          "type": "uint256"
        },
        {
          "internalType": "address",
          "name": "ownerClient",
          "type": "address"
        }
      ],
      "name": "buyTokens",
      "outputs": [],
      "stateMutability": "payable",
      "type": "function",
      "payable": true
    },
    {
      "inputs": [],
      "name": "showActivedServices",
      "outputs": [
        {
          "internalType": "string[]",
          "name": "",
          "type": "string[]"
        }
      ],
      "stateMutability": "view",
      "type": "function",
      "constant": true
    },
    {
      "inputs": [],
      "name": "showActivedSpecialServices",
      "outputs": [
        {
          "internalType": "string[]",
          "name": "",
          "type": "string[]"
        }
      ],
      "stateMutability": "view",
      "type": "function",
      "constant": true
    },
    {
      "inputs": [
        {
          "internalType": "string",
          "name": "_name",
          "type": "string"
        }
      ],
      "name": "showServiceDetails",
      "outputs": [
        {
          "internalType": "string",
          "name": "",
          "type": "string"
        },
        {
          "internalType": "uint16",
          "name": "",
          "type": "uint16"
        },
        {
          "internalType": "bool",
          "name": "",
          "type": "bool"
        }
      ],
      "stateMutability": "view",
      "type": "function",
      "constant": true
    },
    {
      "inputs": [
        {
          "internalType": "string",
          "name": "_name",
          "type": "string"
        }
      ],
      "name": "showSpecialServiceDetails",
      "outputs": [
        {
          "internalType": "string",
          "name": "",
          "type": "string"
        },
        {
          "internalType": "uint16",
          "name": "",
          "type": "uint16"
        },
        {
          "internalType": "bool",
          "name": "",
          "type": "bool"
        },
        {
          "internalType": "address",
          "name": "",
          "type": "address"
        }
      ],
      "stateMutability": "view",
      "type": "function",
      "constant": true
    },
    {
      "inputs": [],
      "name": "checkNumberContract",
      "outputs": [
        {
          "internalType": "address",
          "name": "",
          "type": "address"
        }
      ],
      "stateMutability": "view",
      "type": "function",
      "constant": true
    },
    {
      "inputs": [
        {
          "internalType": "address",
          "name": "_addr",
          "type": "address"
        }
      ],
      "name": "balanceContractUser",
      "outputs": [
        {
          "internalType": "uint256",
          "name": "",
          "type": "uint256"
        }
      ],
      "stateMutability": "view",
      "type": "function",
      "constant": true
    },
    {
      "inputs": [],
      "name": "showStatusAndRole",
      "outputs": [
        {
          "internalType": "uint16",
          "name": "",
          "type": "uint16"
        },
        {
          "internalType": "bool",
          "name": "",
          "type": "bool"
        },
        {
          "internalType": "bool",
          "name": "",
          "type": "bool"
        },
        {
          "internalType": "string",
          "name": "",
          "type": "string"
        }
      ],
      "stateMutability": "view",
      "type": "function",
      "constant": true
    },
    {
      "inputs": [
        {
          "internalType": "address",
          "name": "_userWallet",
          "type": "address"
        }
      ],
      "name": "changeStatusContract",
      "outputs": [],
      "stateMutability": "payable",
      "type": "function",
      "payable": true
    },
    {
      "inputs": [
        {
          "internalType": "string",
          "name": "_type",
          "type": "string"
        }
      ],
      "name": "showPendingRequest",
      "outputs": [
        {
          "internalType": "address[]",
          "name": "",
          "type": "address[]"
        }
      ],
      "stateMutability": "view",
      "type": "function",
      "constant": true
    },
    {
      "inputs": [
        {
          "internalType": "address",
          "name": "_addr",
          "type": "address"
        }
      ],
      "name": "enableSubscription",
      "outputs": [],
      "stateMutability": "nonpayable",
      "type": "function"
    },
    {
      "inputs": [
        {
          "internalType": "string",
          "name": "_name",
          "type": "string"
        }
      ],
      "name": "changeStatusService",
      "outputs": [],
      "stateMutability": "nonpayable",
      "type": "function"
    },
    {
      "inputs": [
        {
          "internalType": "string",
          "name": "_name",
          "type": "string"
        },
        {
          "internalType": "uint16",
          "name": "_price",
          "type": "uint16"
        }
      ],
      "name": "createService",
      "outputs": [],
      "stateMutability": "nonpayable",
      "type": "function"
    },
    {
      "inputs": [],
      "name": "showListServices",
      "outputs": [
        {
          "internalType": "string[]",
          "name": "",
          "type": "string[]"
        }
      ],
      "stateMutability": "view",
      "type": "function",
      "constant": true
    },
    {
      "inputs": [],
      "name": "showListUsers",
      "outputs": [
        {
          "internalType": "address[]",
          "name": "",
          "type": "address[]"
        }
      ],
      "stateMutability": "view",
      "type": "function",
      "constant": true
    },
    {
      "inputs": [
        {
          "internalType": "address",
          "name": "_addr",
          "type": "address"
        }
      ],
      "name": "showDetailsUser",
      "outputs": [
        {
          "internalType": "uint16",
          "name": "",
          "type": "uint16"
        },
        {
          "internalType": "bool",
          "name": "",
          "type": "bool"
        },
        {
          "internalType": "address",
          "name": "",
          "type": "address"
        },
        {
          "internalType": "string",
          "name": "",
          "type": "string"
        }
      ],
      "stateMutability": "view",
      "type": "function",
      "constant": true
    },
    {
      "inputs": [
        {
          "internalType": "address",
          "name": "_addr",
          "type": "address"
        }
      ],
      "name": "bannedUser",
      "outputs": [],
      "stateMutability": "nonpayable",
      "type": "function"
    },
    {
      "inputs": [
        {
          "internalType": "address",
          "name": "_addr",
          "type": "address"
        }
      ],
      "name": "unBannedUser",
      "outputs": [],
      "stateMutability": "nonpayable",
      "type": "function"
    },
    {
      "inputs": [],
      "name": "requestSubscriptionClient",
      "outputs": [],
      "stateMutability": "nonpayable",
      "type": "function"
    },
    {
      "inputs": [],
      "name": "createClientFactory",
      "outputs": [],
      "stateMutability": "nonpayable",
      "type": "function"
    },
    {
      "inputs": [
        {
          "internalType": "string",
          "name": "_nameService",
          "type": "string"
        },
        {
          "internalType": "address",
          "name": "_owner",
          "type": "address"
        }
      ],
      "name": "asignServiceClient",
      "outputs": [],
      "stateMutability": "nonpayable",
      "type": "function"
    },
    {
      "inputs": [
        {
          "internalType": "string",
          "name": "_nameService",
          "type": "string"
        },
        {
          "internalType": "address",
          "name": "_userWallet",
          "type": "address"
        }
      ],
      "name": "asignSpecialServiceClient",
      "outputs": [],
      "stateMutability": "nonpayable",
      "type": "function"
    },
    {
      "inputs": [
        {
          "internalType": "uint256",
          "name": "_position",
          "type": "uint256"
        }
      ],
      "name": "showDetailServiceUsed",
      "outputs": [
        {
          "internalType": "address",
          "name": "",
          "type": "address"
        },
        {
          "internalType": "address",
          "name": "",
          "type": "address"
        },
        {
          "internalType": "string",
          "name": "",
          "type": "string"
        },
        {
          "internalType": "uint256",
          "name": "",
          "type": "uint256"
        },
        {
          "internalType": "string",
          "name": "",
          "type": "string"
        }
      ],
      "stateMutability": "view",
      "type": "function",
      "constant": true
    },
    {
      "inputs": [],
      "name": "requestSubscriptionLaboratory",
      "outputs": [],
      "stateMutability": "nonpayable",
      "type": "function"
    },
    {
      "inputs": [],
      "name": "createLaboratoryFactory",
      "outputs": [],
      "stateMutability": "nonpayable",
      "type": "function"
    },
    {
      "inputs": [
        {
          "internalType": "string",
          "name": "_name",
          "type": "string"
        },
        {
          "internalType": "uint16",
          "name": "_price",
          "type": "uint16"
        },
        {
          "internalType": "address",
          "name": "ownerLaboratory",
          "type": "address"
        }
      ],
      "name": "createSpecialService",
      "outputs": [],
      "stateMutability": "nonpayable",
      "type": "function"
    },
    {
      "inputs": [
        {
          "internalType": "string",
          "name": "_name",
          "type": "string"
        },
        {
          "internalType": "address",
          "name": "ownerLaboratory",
          "type": "address"
        }
      ],
      "name": "changeStatusServiceLaboratory",
      "outputs": [],
      "stateMutability": "nonpayable",
      "type": "function"
    },
    {
      "inputs": [],
      "name": "showListServiceSpecial",
      "outputs": [
        {
          "internalType": "string[]",
          "name": "",
          "type": "string[]"
        }
      ],
      "stateMutability": "view",
      "type": "function",
      "constant": true
    },
    {
      "inputs": [
        {
          "internalType": "address",
          "name": "_laboratoryWallet",
          "type": "address"
        },
        {
          "internalType": "uint16",
          "name": "_quantityTokens",
          "type": "uint16"
        }
      ],
      "name": "withdrawBalanceLaboratory",
      "outputs": [],
      "stateMutability": "payable",
      "type": "function",
      "payable": true
    },
    {
      "inputs": [],
      "name": "showSpecialServicesByLaboratory",
      "outputs": [
        {
          "internalType": "string[]",
          "name": "",
          "type": "string[]"
        }
      ],
      "stateMutability": "view",
      "type": "function",
      "constant": true
    }
  ],
  "bytecode": "0x60806040523480156200001157600080fd5b5060405162000020906200015c565b6040808252600e908201527f4d65646963696e65526f636b657400000000000000000000000000000000000060608201526080602082018190526002908201527f4d5200000000000000000000000000000000000000000000000000000000000060a082015260c001604051809103906000f080158015620000a6573d6000803e3d6000fd5b5060008054600160a060020a031916600160a060020a039290921691821790556040517fa0712d68000000000000000000000000000000000000000000000000000000008152612710600482015263a0712d6890602401600060405180830381600087803b1580156200011857600080fd5b505af11580156200012d573d6000803e3d6000fd5b50506000600355505060018054600160a060020a0319908116331790915560028054909116301790556200016a565b610a34806200612a83390190565b615fb0806200017a6000396000f3fe6080604052600436106200027e5760003560e060020a900480636b073db61162000157578063b53f2fa911620000c3578063c625e9b11162000085578063c625e9b1146200083c578063d7d842781462000853578063e43ae2cd146200088a578063e5030a4514620008af578063e6cbd05814620008d4578063ee1e2d3d14620008f957005b8063b53f2fa914620007c4578063b5e6e37114620007dc578063b60c704f14620007f4578063b78e56b5146200080c578063c47fe02a146200082457005b80638de218fc11620001195780638de218fc146200071b5780638f8751971462000740578063909311e114620007655780639da1ec6b146200077d578063a8352a7b1462000795578063aef5beb714620007ad57005b80636b073db614620006575780636fbb8422146200068d5780637748d3c414620006b25780638609b2fc14620006d75780638da5cb5b14620006f957005b806342924ca811620001f757806354ba5d7811620001b957806354ba5d78146200051057806354c844fa14620005285780635b14ce06146200054d5780635d9ad71a14620005745780635ef31a2e14620005ac5780636894ebce146200063257005b806342924ca81462000450578063441548ee14620004755780634634852714620004ad57806347f2b7c014620004ce57806349a62abe14620004f857005b806332dc5286116200024157806332dc5286146200036957806336c9aed6146200038e57806337776a2f14620003a657806337cf779314620003f45780633ceb906d146200042b57005b80624cef2514620002885780631275497214620002c5578063161e9e2314620002dc57806326c8fb7014620003015780632c38c787146200033557005b366200028657005b005b3480156200029557600080fd5b50620002ad620002a736600462003f51565b6200091e565b604051620002bc919062003f92565b60405180910390f35b62000286620002d63660046200400c565b62000df5565b348015620002e957600080fd5b5062000286620002fb36600462004044565b62001112565b3480156200030e57600080fd5b5062000326620003203660046200408f565b6200157f565b604051908152602001620002bc565b3480156200034257600080fd5b506200035a62000354366004620040b4565b620015fb565b604051620002bc91906200413e565b3480156200037657600080fd5b5062000286620003883660046200408f565b620016bd565b3480156200039b57600080fd5b506200032662001751565b348015620003b357600080fd5b50620003db3360009081526006602052604090205463010000009004600160a060020a031690565b604051600160a060020a039091168152602001620002bc565b3480156200040157600080fd5b50620004196200041336600462003f51565b6200178e565b604051620002bc949392919062004153565b3480156200043857600080fd5b50620002866200044a3660046200408f565b6200182a565b3480156200045d57600080fd5b50620002866200046f36600462004191565b620018fb565b3480156200048257600080fd5b506200049a620004943660046200408f565b62001b38565b604051620002bc959493929190620041dc565b348015620004ba57600080fd5b50600254600160a060020a03163162000326565b348015620004db57600080fd5b50620004e662001c24565b604051620002bc949392919062004225565b3480156200050557600080fd5b506200032660035481565b3480156200051d57600080fd5b506200028662001d13565b3480156200053557600080fd5b5062000286620005473660046200425e565b62001f47565b3480156200055a57600080fd5b506200056562002222565b604051620002bc9190620042c4565b3480156200058157600080fd5b50620005996200059336600462004329565b620023f1565b604051620002bc95949392919062004343565b348015620005b957600080fd5b5062000608620005cb36600462003f51565b805160208183018101805160058252928201919093012091525461ffff81169062010000810460ff169063010000009004600160a060020a031683565b6040805161ffff90941684529115156020840152600160a060020a031690820152606001620002bc565b3480156200063f57600080fd5b506200035a6200065136600462004329565b620024c4565b3480156200066457600080fd5b506200067c6200067636600462003f51565b620024f2565b604051620002bc9392919062004397565b3480156200069a57600080fd5b506200067c620006ac36600462003f51565b6200255d565b348015620006bf57600080fd5b5062000286620006d136600462004044565b62002624565b348015620006e457600080fd5b50600254620003db90600160a060020a031681565b3480156200070657600080fd5b50600154620003db90600160a060020a031681565b3480156200072857600080fd5b50620002866200073a3660046200408f565b62002aa5565b3480156200074d57600080fd5b506200035a6200075f36600462004329565b62002b35565b3480156200077257600080fd5b506200056562002b46565b3480156200078a57600080fd5b506200056562002c29565b348015620007a257600080fd5b506200056562002df4565b62000286620007be3660046200408f565b62002ece565b348015620007d157600080fd5b506200028662003133565b348015620007e957600080fd5b50620002ad620032de565b3480156200080157600080fd5b506200028662003342565b3480156200081957600080fd5b50620005656200343d565b3480156200083157600080fd5b506200028662003611565b620002866200084d366004620043c7565b62003651565b3480156200086057600080fd5b5062000878620008723660046200408f565b620037fb565b604051620002bc9493929190620043ed565b3480156200089757600080fd5b5062000286620008a936600462004423565b620038e2565b348015620008bc57600080fd5b5062000599620008ce36600462004329565b6200398a565b348015620008e157600080fd5b5062000286620008f336600462004044565b62003b04565b3480156200090657600080fd5b50620002866200091836600462003f51565b62003c28565b600154606090600160a060020a031633146200095a5760405160e560020a62461bcd028152600401620009519062004441565b60405180910390fd5b6040517f436c69656e74000000000000000000000000000000000000000000000000000060208201526026016040516020818303038152906040528051906020012082604051602001620009af91906200449e565b60405160208183030381529060405280519060200120148062000a3a57506040517f4c61626f7261746f7279000000000000000000000000000000000000000000006020820152602a01604051602081830303815290604052805190602001208260405160200162000a2291906200449e565b60405160208183030381529060405280519060200120145b62000a8b5760405160e560020a62461bcd02815260206004820181905260248201527f456c207469706f20696e6772657361646f206e6f20657320636f72726563746f604482015260640162000951565b600b54600090819067ffffffffffffffff81111562000aae5762000aae62003ea3565b60405190808252806020026020018201604052801562000ad8578160200160208202803683370190505b506040517f436c69656e7400000000000000000000000000000000000000000000000000006020820152909150602601604051602081830303815290604052805190602001208460405160200162000b3191906200449e565b604051602081830303815290604052805190602001200362000c9f5760005b600b5461ffff8216101562000c985760066000600b8361ffff168154811062000b7d5762000b7d620044bc565b6000918252602080832090910154600160a060020a0316835282019290925260400190205460ff620100009091041615801562000c045750600061ffff1660066000600b8461ffff168154811062000bd95762000bd9620044bc565b6000918252602080832090910154600160a060020a0316835282019290925260400190205461ffff16145b1562000c8357600b8161ffff168154811062000c245762000c24620044bc565b9060005260206000200160009054906101000a9004600160a060020a0316828461ffff168151811062000c5b5762000c5b620044bc565b600160a060020a03909216602092830291909101909101528262000c7f81620044ee565b9350505b8062000c8f81620044ee565b91505062000b50565b5062000dec565b60005b600b5461ffff8216101562000dea5760066000600b8361ffff168154811062000ccf5762000ccf620044bc565b6000918252602080832090910154600160a060020a0316835282019290925260400190205460ff620100009091041615801562000d565750600161ffff1660066000600b8461ffff168154811062000d2b5762000d2b620044bc565b6000918252602080832090910154600160a060020a0316835282019290925260400190205461ffff16145b1562000dd557600b8161ffff168154811062000d765762000d76620044bc565b9060005260206000200160009054906101000a9004600160a060020a0316828461ffff168151811062000dad5762000dad620044bc565b600160a060020a03909216602092830291909101909101528262000dd181620044ee565b9350505b8062000de181620044ee565b91505062000ca2565b505b9150505b919050565b600160a060020a038216600090815260066020526040902054829061ffff16600114801562000e475750600160a060020a03811660009081526006602052604090205462010000900460ff1615156001145b62000e695760405160e560020a62461bcd028152600401620009519062004512565b6000805460405160e060020a6370a08231028152336004820152600160a060020a03909116906370a0823190602401602060405180830381865afa15801562000eb6573d6000803e3d6000fd5b505050506040513d601f19601f8201168201806040525081019062000edc919062004549565b1162000f2e5760405160e560020a62461bcd02815260206004820152601460248201527f496e73756666696369656e742062616c616e6365000000000000000000000000604482015260640162000951565b6000805460405160e060020a6370a08231028152336004820152600160a060020a03909116906370a0823190602401602060405180830381865afa15801562000f7b573d6000803e3d6000fd5b505050506040513d601f19601f8201168201806040525081019062000fa1919062004549565b90508261ffff1681106200110c576000546002546040517f51ce139a000000000000000000000000000000000000000000000000000000008152600160a060020a03928316926351ce139a926200100392339290911690889060040162004563565b600060405180830381600087803b1580156200101e57600080fd5b505af115801562001033573d6000803e3d6000fd5b5050505083600160a060020a03166108fc620010538561ffff1662003cc6565b6040518115909202916000818181858888f193505050501580156200107c573d6000803e3d6000fd5b507f9fd40b777a67006201b62c0025adca7fed13f4f97a8c97e859b02a025adad78f604051620011039060208082526023908201527f796f7572207265746972656d656e7420686173206265656e207375636365737360408201527f66756c0000000000000000000000000000000000000000000000000000000000606082015260800190565b60405180910390a15b50505050565b600160a060020a038116600090815260066020526040902054819061ffff16158015620011625750600160a060020a03811660009081526006602052604090205462010000900460ff1615156001145b620011b35760405160e560020a62461bcd02815260206004820152601560248201527f4e6f20636c69656e74207065726d697373696f6e730000000000000000000000604482015260640162000951565b600160a060020a0382811660009081526006602052604090205463010000009004163314620011f95760405160e560020a62461bcd02815260040162000951906200458a565b6004836040516200120b91906200449e565b90815260405190819003602001902060019081015460ff62010000909104161515146200127e5760405160e560020a62461bcd02815260206004820152601560248201527f53657276696365206e6f7420617661696c61626c650000000000000000000000604482015260640162000951565b60005460405160e060020a6370a08231028152336004820152600160a060020a03909116906370a0823190602401602060405180830381865afa158015620012ca573d6000803e3d6000fd5b505050506040513d601f19601f82011682018060405250810190620012f0919062004549565b6004846040516200130291906200449e565b9081526040519081900360200190206001015461ffff1611156200136c5760405160e560020a62461bcd02815260206004820152601e60248201527f446f6573206e6f7420686176652073756666696369656e742066756e64730000604482015260640162000951565b600054600254604051600160a060020a03928316926351ce139a9233929116906004906200139c9089906200449e565b9081526040519081900360200181206001015460e060020a63ffffffff8616028252620013d593929161ffff9091169060040162004563565b600060405180830381600087803b158015620013f057600080fd5b505af115801562001405573d6000803e3d6000fd5b5050336000908152600760209081526040822080546001810182559083529181902087516200143c95509201925086019062003de5565b506040805160a081018252600254600160a060020a031681523360208083019190915282518084018452600581527f6261736963000000000000000000000000000000000000000000000000000000918101919091528183015290516060820190600490620014ad9087906200449e565b908152604080516020928190038301902060019081015461ffff1684529282018790526003546000908152600883528190208451815473ffffffffffffffffffffffffffffffffffffffff19908116600160a060020a039283161783558685015195830180549091169590911694909417909355830151805162001538926002850192019062003de5565b5060608201516003820155608082015180516200156091600484019160209091019062003de5565b505060038054915060006200157583620045e7565b9190505550505050565b6000805460405160e060020a6370a08231028152600160a060020a038481166004830152909116906370a08231906024015b602060405180830381865afa158015620015cf573d6000803e3d6000fd5b505050506040513d601f19601f82011682018060405250810190620015f5919062004549565b92915050565b600760205281600052604060002081815481106200161857600080fd5b90600052602060002001600091509150508054620016369062004603565b80601f0160208091040260200160405190810160405280929190818152602001828054620016649062004603565b8015620016b55780601f106200168957610100808354040283529160200191620016b5565b820191906000526020600020905b8154815290600101906020018083116200169757829003601f168201915b505050505081565b600154600160a060020a03163314620016ed5760405160e560020a62461bcd028152600401620009519062004441565b60408051808201825260068082527f62616e6e656400000000000000000000000000000000000000000000000000006020808401918252600160a060020a038616600090815292905292902090516200174d926001909201919062003de5565b5050565b6000805460025460405160e060020a6370a08231028152600160a060020a039182166004820152839291909116906370a0823190602401620015b1565b6060600080600084600586604051620017a891906200449e565b9081526040519081900360200181205461ffff1690600590620017cd9089906200449e565b9081526040519081900360200181205460ff620100009091041690600590620017f8908a906200449e565b908152604051908190036020019020549296509094509250600160a060020a0363010000009091041690509193509193565b600154600160a060020a031633146200185a5760405160e560020a62461bcd028152600401620009519062004441565b600160a060020a0381166000818152600660208181526040808420805477ff0000000000000000000000000000000000000000ff00001916770100000000000000000000000000000000000000000100001781558151808301909252600782527f616365707465640000000000000000000000000000000000000000000000000082840190815295909452919052516200174d926001909201919062003de5565b600154600160a060020a031633146200192b5760405160e560020a62461bcd028152600401620009519062004441565b62001a126009805480602002602001604051908101604052809291908181526020016000905b8282101562001a07578382906000526020600020018054620019739062004603565b80601f0160208091040260200160405190810160405280929190818152602001828054620019a19062004603565b8015620019f25780601f10620019c657610100808354040283529160200191620019f2565b820191906000526020600020905b815481529060010190602001808311620019d457829003601f168201915b50505050508152602001906001019062001951565b505050508362003cd8565b62001a635760405160e560020a62461bcd02815260206004820152601c60248201527f53657276696365206e616d6520616c7265616479206578697374732e00000000604482015260640162000951565b6040805160608101825283815261ffff83166020820152600181830152905160049062001a929085906200449e565b9081526020016040518091039020600082015181600001908051906020019062001abe92919062003de5565b50602082810151600192830180546040909501511515620100000262ffffff1990951661ffff9092169190911793909317909255600980549182018155600052835162001b33927f6e1540171b6c0c960b71a7020d9f60077f6af931a8bbf590da0223dacf75c7af9092019185019062003de5565b505050565b6006602052600090815260409020805460018201805461ffff83169360ff620100008504811694600160a060020a03630100000082041694770100000000000000000000000000000000000000000000009091049091169262001b9b9062004603565b80601f016020809104026020016040519081016040528092919081815260200182805462001bc99062004603565b801562001c1a5780601f1062001bee5761010080835404028352916020019162001c1a565b820191906000526020600020905b81548152906001019060200180831162001bfc57829003601f168201915b5050505050905085565b3360009081526006602052604081208054600190910180548392839260609261ffff83169260ff620100008204811693770100000000000000000000000000000000000000000000009092041691819062001c7f9062004603565b80601f016020809104026020016040519081016040528092919081815260200182805462001cad9062004603565b801562001cfe5780601f1062001cd25761010080835404028352916020019162001cfe565b820191906000526020600020905b81548152906001019060200180831162001ce057829003601f168201915b50505050509050935093509350935090919293565b3360009081526006602052604090205462010000900460ff161515600114801562001d5157503360009081526006602052604090205461ffff166001145b62001dee5760405160e560020a62461bcd02815260206004820152605260248201527f596f7520617265206e6f7420656e61626c656420746f2063726561746520796f60448201527f757220636f6e7472616374206f7220796f757220636f6e74726163742074797060648201527f6520646f6573206e6f74206d617463682e2e0000000000000000000000000000608482015260a40162000951565b6002546040516000913391600160a060020a039091169062001e109062003e70565b600160a060020a03928316815291166020820152604001604051809103906000f08015801562001e44573d6000803e3d6000fd5b50336000818152600660208181526040808420805476ffffffffffffffffffffffffffffffffffffffff00000019166301000000600160a060020a0389160217815581518083019092528382527f6163746976650000000000000000000000000000000000000000000000000000828401908152959094529190525192935062001ed5926001909101919062003de5565b50604080518181526010818301527f436f6e74726163742063726561746564000000000000000000000000000000006060820152600160a060020a038316602082015290517f9ca50741aa35660fc78a732a8556916f45f5e93abc509a86d03a6aaaa7a222809181900360800190a150565b600160a060020a038116600090815260066020526040902054819061ffff16600114801562001f995750600160a060020a03811660009081526006602052604090205462010000900460ff1615156001145b62001fbb5760405160e560020a62461bcd028152600401620009519062004512565b620020a2600a805480602002602001604051908101604052809291908181526020016000905b8282101562002097578382906000526020600020018054620020039062004603565b80601f0160208091040260200160405190810160405280929190818152602001828054620020319062004603565b8015620020825780601f10620020565761010080835404028352916020019162002082565b820191906000526020600020905b8154815290600101906020018083116200206457829003601f168201915b50505050508152602001906001019062001fe1565b505050508562003cd8565b620020f35760405160e560020a62461bcd02815260206004820152601c60248201527f53657276696365206e616d6520616c7265616479206578697374732e00000000604482015260640162000951565b600160a060020a0382811660009081526006602052604090205463010000009004163314620021395760405160e560020a62461bcd02815260040162000951906200458a565b6040805160608101825261ffff851681526001602082015233818301529051600590620021689087906200449e565b9081526040805191829003602090810190922083518154858501519590930151600160a060020a031663010000000276ffffffffffffffffffffffffffffffffffffffff00000019951515620100000262ffffff1990941661ffff90921691909117929092179390931617909155600a805460018101825560009190915285516200221b927fc65a7bb8d6351c1cf70c95a316cc6a92839c986682d98bc35f958f4883f9d2a89092019187019062003de5565b5050505050565b600a5460609060009067ffffffffffffffff81111562002246576200224662003ea3565b6040519080825280602002602001820160405280156200227b57816020015b6060815260200190600190039081620022655790505b5090506000805b600a5461ffff82161015620023e9576005600a8261ffff1681548110620022ad57620022ad620044bc565b90600052602060002001604051620022c6919062004642565b9081526040519081900360200190205460ff62010000909104161515600103620023d457600a8161ffff1681548110620023045762002304620044bc565b9060005260206000200180546200231b9062004603565b80601f0160208091040260200160405190810160405280929190818152602001828054620023499062004603565b80156200239a5780601f106200236e576101008083540402835291602001916200239a565b820191906000526020600020905b8154815290600101906020018083116200237c57829003601f168201915b5050505050838361ffff1681518110620023b857620023b8620044bc565b60200260200101819052508180620023d090620044ee565b9250505b80620023e081620044ee565b91505062002282565b509092915050565b600860205260009081526040902080546001820154600283018054600160a060020a03938416949290931692620024289062004603565b80601f0160208091040260200160405190810160405280929190818152602001828054620024569062004603565b8015620024a75780601f106200247b57610100808354040283529160200191620024a7565b820191906000526020600020905b8154815290600101906020018083116200248957829003601f168201915b50505050509080600301549080600401805462001b9b9062004603565b600a8181548110620024d557600080fd5b906000526020600020016000915090508054620016369062004603565b6060600080836004856040516200250a91906200449e565b9081526040519081900360200181206001015461ffff1690600490620025329088906200449e565b90815260405190819003602001902060010154919450925060ff620100009091041690509193909250565b8051602081830181018051600482529282019190930120915280548190620025859062004603565b80601f0160208091040260200160405190810160405280929190818152602001828054620025b39062004603565b8015620026045780601f10620025d85761010080835404028352916020019162002604565b820191906000526020600020905b815481529060010190602001808311620025e657829003601f168201915b5050506001909301549192505061ffff81169060ff620100009091041683565b600160a060020a038116600090815260066020526040902054819061ffff16158015620026745750600160a060020a03811660009081526006602052604090205462010000900460ff1615156001145b620026c55760405160e560020a62461bcd02815260206004820152601560248201527f4e6f20636c69656e74207065726d697373696f6e730000000000000000000000604482015260640162000951565b600160a060020a03828116600090815260066020526040902054630100000090041633146200270b5760405160e560020a62461bcd02815260040162000951906200458a565b6005836040516200271d91906200449e565b9081526040516020918190039190910190205462010000900460ff1615156001146200278f5760405160e560020a62461bcd02815260206004820152601560248201527f53657276696365206e6f7420617661696c61626c650000000000000000000000604482015260640162000951565b60005460405160e060020a6370a08231028152336004820152600160a060020a03909116906370a0823190602401602060405180830381865afa158015620027db573d6000803e3d6000fd5b505050506040513d601f19601f8201168201806040525081019062002801919062004549565b6005846040516200281391906200449e565b9081526040519081900360200190205461ffff1611156200287a5760405160e560020a62461bcd02815260206004820152601260248201527f496e73756666696369656e742066756e64730000000000000000000000000000604482015260640162000951565b600054604051600160a060020a03909116906351ce139a903390600590620028a49088906200449e565b90815260405190819003602001812054600160a060020a0363010000009091041690600590620028d69089906200449e565b9081526040519081900360200181205460e060020a63ffffffff86160282526200290c93929161ffff9091169060040162004563565b600060405180830381600087803b1580156200292757600080fd5b505af11580156200293c573d6000803e3d6000fd5b5050336000908152600760209081526040822080546001810182559083529181902087516200297395509201925086019062003de5565b506040518060a001604052806005856040516200299191906200449e565b908152602001604051809103902060000160039054906101000a9004600160a060020a0316600160a060020a0316815260200133600160a060020a031681526020016040518060400160405280600781526020017f7370656369616c00000000000000000000000000000000000000000000000000815250815260200160058560405162002a2091906200449e565b908152604080519182900360209081019092205461ffff16835291810186905260035460009081526008825282902083518154600160a060020a0391821673ffffffffffffffffffffffffffffffffffffffff199182161783558584015160018401805491909316911617905591830151805162001538926002850192019062003de5565b600154600160a060020a0316331462002ad55760405160e560020a62461bcd028152600401620009519062004441565b60408051808201825260068082527f61637469766500000000000000000000000000000000000000000000000000006020808401918252600160a060020a038616600090815292905292902090516200174d926001909201919062003de5565b60098181548110620024d557600080fd5b60606009805480602002602001604051908101604052809291908181526020016000905b8282101562002c2057838290600052602060002001805462002b8c9062004603565b80601f016020809104026020016040519081016040528092919081815260200182805462002bba9062004603565b801562002c0b5780601f1062002bdf5761010080835404028352916020019162002c0b565b820191906000526020600020905b81548152906001019060200180831162002bed57829003601f168201915b50505050508152602001906001019062002b6a565b50505050905090565b60095460609060009067ffffffffffffffff81111562002c4d5762002c4d62003ea3565b60405190808252806020026020018201604052801562002c8257816020015b606081526020019060019003908162002c6c5790505b5090506000805b60095461ffff82161015620023e957600460098261ffff168154811062002cb45762002cb4620044bc565b9060005260206000200160405162002ccd919062004642565b90815260405190819003602001902060019081015460ff62010000909104161515900362002ddf5760098161ffff168154811062002d0f5762002d0f620044bc565b90600052602060002001805462002d269062004603565b80601f016020809104026020016040519081016040528092919081815260200182805462002d549062004603565b801562002da55780601f1062002d795761010080835404028352916020019162002da5565b820191906000526020600020905b81548152906001019060200180831162002d8757829003601f168201915b5050505050838361ffff168151811062002dc35762002dc3620044bc565b6020026020010181905250818062002ddb90620044ee565b9250505b8062002deb81620044ee565b91505062002c89565b6060600a805480602002602001604051908101604052809291908181526020016000905b8282101562002c2057838290600052602060002001805462002e3a9062004603565b80601f016020809104026020016040519081016040528092919081815260200182805462002e689062004603565b801562002eb95780601f1062002e8d5761010080835404028352916020019162002eb9565b820191906000526020600020905b81548152906001019060200180831162002e9b57829003601f168201915b50505050508152602001906001019062002e18565b600160a060020a038181166000908152600660205260409020546301000000900416331462002f145760405160e560020a62461bcd02815260040162000951906200458a565b604080518082018252600881527f696e6163746976650000000000000000000000000000000000000000000000006020808301918252600160a060020a0385166000908152600690915292909220905162002f76926001909201919062003de5565b506000805460405160e060020a6370a08231028152336004820152600160a060020a03909116906370a0823190602401602060405180830381865afa15801562002fc4573d6000803e3d6000fd5b505050506040513d601f19601f8201168201806040525081019062002fea919062004549565b111562003130576000805460405160e060020a6370a08231028152336004820152600160a060020a03909116906370a0823190602401602060405180830381865afa1580156200303e573d6000803e3d6000fd5b505050506040513d601f19601f8201168201806040525081019062003064919062004549565b6000546002546040517f51ce139a000000000000000000000000000000000000000000000000000000008152336004820152600160a060020a0391821660248201526044810184905292935016906351ce139a90606401600060405180830381600087803b158015620030d657600080fd5b505af1158015620030eb573d6000803e3d6000fd5b5050505081600160a060020a03166108fc620031078362003cc6565b6040518115909202916000818181858888f1935050505015801562001b33573d6000803e3d6000fd5b50565b6200313d62003d7c565b6200315f5760405160e560020a62461bcd0281526004016200095190620046e8565b6040805160a081019091528060005b61ffff9081168252600060208084018290526040808501839052606080860184905281518083018352600781527f696e697469616c00000000000000000000000000000000000000000000000000818501526080968701523384526006835292819020865181548885015193890151958901511515770100000000000000000000000000000000000000000000000277ff000000000000000000000000000000000000000000000019600160a060020a03979097166301000000029690961677ffffffffffffffffffffffffffffffffffffffffff00000019941515620100000262ffffff19909216929097169190911717919091169390931791909117825591830151805191926200328a9260018501929091019062003de5565b5050600b80546001810182556000919091527f0175b7a638427703f0dbe7bb9bbf987a2551717b34e79f33b5b1008d1fa01db901805473ffffffffffffffffffffffffffffffffffffffff19163317905550565b6060600b8054806020026020016040519081016040528092919081815260200182805480156200333857602002820191906000526020600020905b8154600160a060020a0316815260019091019060200180831162003319575b5050505050905090565b3360009081526006602052604090205462010000900460ff16151560011480156200337e57503360009081526006602052604090205461ffff16155b6200341b5760405160e560020a62461bcd02815260206004820152605160248201527f596f7520617265206e6f7420656e61626c656420746f2063726561746520796f60448201527f757220636f6e7472616374206f7220796f757220636f6e74726163742074797060648201527f6520646f6573206e6f74206d617463682e000000000000000000000000000000608482015260a40162000951565b6002546040516000913391600160a060020a039091169062001e109062003e7e565b600a5460609060009067ffffffffffffffff81111562003461576200346162003ea3565b6040519080825280602002602001820160405280156200349657816020015b6060815260200190600190039081620034805790505b5090506000805b600a5461ffff82161015620023e95733600160a060020a03166005600a8361ffff1681548110620034d257620034d2620044bc565b90600052602060002001604051620034eb919062004642565b90815260405190819003602001902054600160a060020a0363010000009091041603620035fc57600a8161ffff16815481106200352c576200352c620044bc565b906000526020600020018054620035439062004603565b80601f0160208091040260200160405190810160405280929190818152602001828054620035719062004603565b8015620035c25780601f106200359657610100808354040283529160200191620035c2565b820191906000526020600020905b815481529060010190602001808311620035a457829003601f168201915b5050505050838361ffff1681518110620035e057620035e0620044bc565b60200260200101819052508180620035f890620044ee565b9250505b806200360881620044ee565b9150506200349d565b6200361b62003d7c565b6200363d5760405160e560020a62461bcd0281526004016200095190620046e8565b6040805160a081019091528060016200316e565b600160a060020a0381811660009081526006602052604090205463010000009004163314620036975760405160e560020a62461bcd02815260040162000951906200458a565b6000620036a48362003cc6565b905080341015620037215760405160e560020a62461bcd02815260206004820152603260248201527f596f75206e656564206d6f72652065746865727320746f20627579207468697360448201527f20616d6f756e74206f6620746f6b656e732e0000000000000000000000000000606482015260840162000951565b60006200372f823462004745565b604051909150600160a060020a0384169082156108fc029083906000818181858888f1935050505015801562003769573d6000803e3d6000fd5b506000546040517fa9059cbb00000000000000000000000000000000000000000000000000000000815233600482015260248101869052600160a060020a039091169063a9059cbb906044016020604051808303816000875af1158015620037d5573d6000803e3d6000fd5b505050506040513d601f19601f820116820180604052508101906200221b91906200475f565b600160a060020a03808216600090815260066020526040812080546001909101805492938493849360609361ffff82169360ff62010000840416936301000000909304169181906200384d9062004603565b80601f01602080910402602001604051908101604052809291908181526020018280546200387b9062004603565b8015620038cc5780601f10620038a057610100808354040283529160200191620038cc565b820191906000526020600020905b815481529060010190602001808311620038ae57829003601f168201915b5050505050905093509350935093509193509193565b600154600160a060020a03163314620039125760405160e560020a62461bcd028152600401620009519062004441565b6000546040517fa0712d6800000000000000000000000000000000000000000000000000000000815261ffff83166004820152600160a060020a039091169063a0712d6890602401600060405180830381600087803b1580156200397557600080fd5b505af11580156200221b573d6000803e3d6000fd5b6000818152600860205260408120805460018201546003830154600284018054869560609587958795600160a060020a039283169591909216939092600401908390620039d79062004603565b80601f016020809104026020016040519081016040528092919081815260200182805462003a059062004603565b801562003a565780601f1062003a2a5761010080835404028352916020019162003a56565b820191906000526020600020905b81548152906001019060200180831162003a3857829003601f168201915b5050505050925080805462003a6b9062004603565b80601f016020809104026020016040519081016040528092919081815260200182805462003a999062004603565b801562003aea5780601f1062003abe5761010080835404028352916020019162003aea565b820191906000526020600020905b81548152906001019060200180831162003acc57829003601f168201915b505050505090509450945094509450945091939590929450565b600160a060020a038116600090815260066020526040902054819061ffff16600114801562003b565750600160a060020a03811660009081526006602052604090205462010000900460ff1615156001145b62003b785760405160e560020a62461bcd028152600401620009519062004512565b600160a060020a038281166000908152600660205260409020546301000000900416331462003bbe5760405160e560020a62461bcd02815260040162000951906200458a565b60058360405162003bd091906200449e565b9081526040519081900360200181205460ff6201000090910416159060059062003bfc9086906200449e565b9081526040519081900360200190208054911515620100000262ff000019909216919091179055505050565b600154600160a060020a0316331462003c585760405160e560020a62461bcd028152600401620009519062004441565b60048160405162003c6a91906200449e565b9081526040519081900360200181206001015460ff6201000090910416159060049062003c999084906200449e565b9081526040519081900360200190206001018054911515620100000262ff00001990921691909117905550565b6000620015f582633b9aca0062004783565b600160005b835181101562003d75578260405160200162003cfa91906200449e565b6040516020818303038152906040528051906020012084828151811062003d255762003d25620044bc565b602002602001015160405160200162003d3f91906200449e565b604051602081830303815290604052805190602001200362003d6057600091505b8062003d6c81620045e7565b91505062003cdd565b5092915050565b600160005b600b5481101562003de15733600160a060020a0316600b828154811062003dac5762003dac620044bc565b600091825260209091200154600160a060020a03160362003dcc57600091505b8062003dd881620045e7565b91505062003d81565b5090565b82805462003df39062004603565b90600052602060002090601f01602090048101928262003e17576000855562003e62565b82601f1062003e3257805160ff191683800117855562003e62565b8280016001018555821562003e62579182015b8281111562003e6257825182559160200191906001019062003e45565b5062003de192915062003e8c565b610b0f80620047a683390190565b610cc680620052b583390190565b5b8082111562003de1576000815560010162003e8d565b60e060020a634e487b7102600052604160045260246000fd5b600082601f83011262003ece57600080fd5b813567ffffffffffffffff8082111562003eec5762003eec62003ea3565b604051601f8301601f19908116603f0116810190828211818310171562003f175762003f1762003ea3565b8160405283815286602085880101111562003f3157600080fd5b836020870160208301376000602085830101528094505050505092915050565b60006020828403121562003f6457600080fd5b813567ffffffffffffffff81111562003f7c57600080fd5b62003f8a8482850162003ebc565b949350505050565b6020808252825182820181905260009190848201906040850190845b8181101562003fd5578351600160a060020a03168352928401929184019160010162003fae565b50909695505050505050565b8035600160a060020a038116811462000df057600080fd5b803561ffff8116811462000df057600080fd5b600080604083850312156200402057600080fd5b6200402b8362003fe1565b91506200403b6020840162003ff9565b90509250929050565b600080604083850312156200405857600080fd5b823567ffffffffffffffff8111156200407057600080fd5b6200407e8582860162003ebc565b9250506200403b6020840162003fe1565b600060208284031215620040a257600080fd5b620040ad8262003fe1565b9392505050565b60008060408385031215620040c857600080fd5b620040d38362003fe1565b946020939093013593505050565b60005b83811015620040fe578181015183820152602001620040e4565b838111156200110c5750506000910152565b600081518084526200412a816020860160208601620040e1565b601f01601f19169290920160200192915050565b602081526000620040ad602083018462004110565b60808152600062004168608083018762004110565b61ffff959095166020830152509115156040830152600160a060020a0316606090910152919050565b60008060408385031215620041a557600080fd5b823567ffffffffffffffff811115620041bd57600080fd5b620041cb8582860162003ebc565b9250506200403b6020840162003ff9565b61ffff861681528415156020820152600160a060020a0384166040820152821515606082015260a0608082015260006200421a60a083018462004110565b979650505050505050565b61ffff851681528315156020820152821515604082015260806060820152600062004254608083018462004110565b9695505050505050565b6000806000606084860312156200427457600080fd5b833567ffffffffffffffff8111156200428c57600080fd5b6200429a8682870162003ebc565b935050620042ab6020850162003ff9565b9150620042bb6040850162003fe1565b90509250925092565b600060208083018184528085518083526040860191506040848202870101925083870160005b828110156200431c57603f198886030184526200430985835162004110565b94509285019290850190600101620042ea565b5092979650505050505050565b6000602082840312156200433c57600080fd5b5035919050565b6000600160a060020a03808816835280871660208401525060a060408301526200437160a083018662004110565b84606084015282810360808401526200438b818562004110565b98975050505050505050565b606081526000620043ac606083018662004110565b61ffff94909416602083015250901515604090910152919050565b60008060408385031215620043db57600080fd5b823591506200403b6020840162003fe1565b61ffff851681528315156020820152600160a060020a038316604082015260806060820152600062004254608083018462004110565b6000602082840312156200443657600080fd5b620040ad8262003ff9565b6020808252603e908201527f596f7520646f206e6f74206861766520746865206e656365737361727920706560408201527f726d697373696f6e7320746f2072756e20746869732066756e6374696f6e0000606082015260800190565b60008251620044b2818460208701620040e1565b9190910192915050565b60e060020a634e487b7102600052603260045260246000fd5b60e060020a634e487b7102600052601160045260246000fd5b600061ffff808316818103620045085762004508620044d5565b6001019392505050565b60208082526015908201527f4e6f206c61626f7261746f7279207065726d6974730000000000000000000000604082015260600190565b6000602082840312156200455c57600080fd5b5051919050565b600160a060020a03938416815291909216602082015261ffff909116604082015260600190565b60208082526031908201527f596f7520646f206e6f742068617665207065726d697373696f6e7320746f207260408201527f756e2074686973206f7065726174696f6e000000000000000000000000000000606082015260800190565b600060018201620045fc57620045fc620044d5565b5060010190565b6002810460018216806200461857607f821691505b6020821081036200463c5760e060020a634e487b7102600052602260045260246000fd5b50919050565b81546000908190600281046001808316806200465f57607f831692505b60208084108203620046825760e060020a634e487b710286526022600452602486fd5b818015620046995760018114620046ab57620046da565b60ff19861689528489019650620046da565b60008a81526020902060005b86811015620046d25781548b820152908501908301620046b7565b505084890196505b509498975050505050505050565b6020808252602b908201527f596f7520616c726561647920686176652061207265717565737420746f20796f60408201527f757220616464726573732e000000000000000000000000000000000000000000606082015260800190565b6000828210156200475a576200475a620044d5565b500390565b6000602082840312156200477257600080fd5b81518015158114620040ad57600080fd5b6000816000190483118215151615620047a057620047a0620044d5565b50029056fe608060405234801561001057600080fd5b50604051610b0f380380610b0f83398101604081905261002f91610086565b60008054600160a060020a03938416600160a060020a03199182161790915560018054821630179055600280549290931691161790556100b9565b8051600160a060020a038116811461008157600080fd5b919050565b6000806040838503121561009957600080fd5b6100a28361006a565b91506100b06020840161006a565b90509250929050565b610a47806100c86000396000f3fe608060405260043610610098576000357c010000000000000000000000000000000000000000000000000000000090048063c98c64b71161006b578063c98c64b714610141578063cc805c2014610161578063e3e97a9a14610174578063ea54d2121461019757600080fd5b806312494d161461009d5780638da5cb5b146100b457806396b0e90d146100f1578063a5487a0314610111575b600080fd5b3480156100a957600080fd5b506100b26101b9565b005b3480156100c057600080fd5b506000546100d490600160a060020a031681565b604051600160a060020a0390911681526020015b60405180910390f35b3480156100fd57600080fd5b506100b261010c36600461063a565b610235565b34801561011d57600080fd5b5061013161012c36600461063a565b6102ba565b6040516100e894939291906106cf565b34801561014d57600080fd5b506100b261015c36600461071e565b610361565b6100b261016f366004610770565b6103e7565b34801561018057600080fd5b5061018961043e565b6040519081526020016100e8565b3480156101a357600080fd5b506101ac6104d1565b6040516100e89190610794565b6002546000546040517faef5beb7000000000000000000000000000000000000000000000000000000008152600160a060020a03918216600482015291169063aef5beb790602401600060405180830381600087803b15801561021b57600080fd5b505af115801561022f573d6000803e3d6000fd5b50505050565b6002546000546040517fe6cbd058000000000000000000000000000000000000000000000000000000008152600160a060020a039283169263e6cbd05892610285928692909116906004016107f5565b600060405180830381600087803b15801561029f57600080fd5b505af11580156102b3573d6000803e3d6000fd5b5050505050565b6002546040517f37cf779300000000000000000000000000000000000000000000000000000000815260609160009182918291600160a060020a03909116906337cf77939061030d908890600401610820565b600060405180830381865afa15801561032a573d6000803e3d6000fd5b505050506040513d6000823e601f3d908101601f191682016040526103529190810190610878565b93509350935093509193509193565b6002546000546040517f54c844fa000000000000000000000000000000000000000000000000000000008152600160a060020a03928316926354c844fa926103b192879287921690600401610900565b600060405180830381600087803b1580156103cb57600080fd5b505af11580156103df573d6000803e3d6000fd5b505050505050565b6002546000546040517f12754972000000000000000000000000000000000000000000000000000000008152600160a060020a03918216600482015261ffff84166024820152911690631275497290604401610285565b6002546001546040517f26c8fb70000000000000000000000000000000000000000000000000000000008152600160a060020a03918216600482015260009291909116906326c8fb7090602401602060405180830381865afa1580156104a8573d6000803e3d6000fd5b505050506040513d601f19601f820116820180604052508101906104cc9190610936565b905090565b600254604080517fb78e56b50000000000000000000000000000000000000000000000000000000081529051606092600160a060020a03169163b78e56b59160048083019260009291908290030181865afa158015610534573d6000803e3d6000fd5b505050506040513d6000823e601f3d908101601f191682016040526104cc919081019061094f565b7f4e487b7100000000000000000000000000000000000000000000000000000000600052604160045260246000fd5b604051601f8201601f1916810167ffffffffffffffff811182821017156105b4576105b461055c565b604052919050565b600067ffffffffffffffff8211156105d6576105d661055c565b50601f01601f191660200190565b600082601f8301126105f557600080fd5b8135610608610603826105bc565b61058b565b81815284602083860101111561061d57600080fd5b816020850160208301376000918101602001919091529392505050565b60006020828403121561064c57600080fd5b813567ffffffffffffffff81111561066357600080fd5b61066f848285016105e4565b949350505050565b60005b8381101561069257818101518382015260200161067a565b8381111561022f5750506000910152565b600081518084526106bb816020860160208601610677565b601f01601f19169290920160200192915050565b6080815260006106e260808301876106a3565b61ffff959095166020830152509115156040830152600160a060020a0316606090910152919050565b61ffff8116811461071b57600080fd5b50565b6000806040838503121561073157600080fd5b823567ffffffffffffffff81111561074857600080fd5b610754858286016105e4565b92505060208301356107658161070b565b809150509250929050565b60006020828403121561078257600080fd5b813561078d8161070b565b9392505050565b600060208083018184528085518083526040860191506040848202870101925083870160005b828110156107e857603f198886030184526107d68583516106a3565b945092850192908501906001016107ba565b5092979650505050505050565b60408152600061080860408301856106a3565b9050600160a060020a03831660208301529392505050565b60208152600061078d60208301846106a3565b600082601f83011261084457600080fd5b8151610852610603826105bc565b81815284602083860101111561086757600080fd5b61066f826020830160208701610677565b6000806000806080858703121561088e57600080fd5b845167ffffffffffffffff8111156108a557600080fd5b6108b187828801610833565b94505060208501516108c28161070b565b604086015190935080151581146108d857600080fd5b6060860151909250600160a060020a03811681146108f557600080fd5b939692955090935050565b60608152600061091360608301866106a3565b905061ffff84166020830152600160a060020a0383166040830152949350505050565b60006020828403121561094857600080fd5b5051919050565b6000602080838503121561096257600080fd5b825167ffffffffffffffff8082111561097a57600080fd5b818501915085601f83011261098e57600080fd5b8151818111156109a0576109a061055c565b8381026109ae85820161058b565b91825283810185019185810190898411156109c857600080fd5b86860192505b83831015610a04578251858111156109e65760008081fd5b6109f48b89838a0101610833565b83525091860191908601906109ce565b999850505050505050505056fea264697066735822122053a7a3461839b7a47254b5d427ca547553bd5e5688b1ed0ab9a9b9325368009e64736f6c634300080e0033608060405234801561001057600080fd5b50604051610cc6380380610cc683398101604081905261002f91610093565b60008054600160a060020a03938416600160a060020a0319918216179091556001805482163017905560028054929093169181168217909255600380549092161790556100c6565b8051600160a060020a038116811461008e57600080fd5b919050565b600080604083850312156100a657600080fd5b6100af83610077565b91506100bd60208401610077565b90509250929050565b610bf1806100d56000396000f3fe6080604052600436106100c4576000357c010000000000000000000000000000000000000000000000000000000090048063a5487a0311610081578063a5487a0314610192578063d25120ce146101c2578063db8366eb146101e5578063de1c548814610205578063e4f05b7614610227578063ea54d2121461024757600080fd5b8063072ec0bb146100c95780630e662cf01461010657806314f52f3a1461011b5780632b68bb2d1461014a5780638609b2fc146101525780638da5cb5b14610172575b600080fd5b3480156100d557600080fd5b506002546100e990600160a060020a031681565b604051600160a060020a0390911681526020015b60405180910390f35b610119610114366004610712565b61025c565b005b34801561012757600080fd5b5061013b6101363660046107be565b6102e5565b6040516100fd93929190610896565b610119610386565b34801561015e57600080fd5b506001546100e990600160a060020a031681565b34801561017e57600080fd5b506000546100e990600160a060020a031681565b34801561019e57600080fd5b506101b26101ad3660046107be565b610402565b6040516100fd94939291906108c4565b3480156101ce57600080fd5b506101d76104a9565b6040519081526020016100fd565b3480156101f157600080fd5b506101196102003660046107be565b61053c565b34801561021157600080fd5b5061021a6105c1565b6040516100fd9190610900565b34801561023357600080fd5b506101196102423660046107be565b61064c565b34801561025357600080fd5b5061021a61069c565b6003546000546040517fc625e9b100000000000000000000000000000000000000000000000000000000815261ffff84166004820152600160a060020a03918216602482015291169063c625e9b19034906044016000604051808303818588803b1580156102c957600080fd5b505af11580156102dd573d6000803e3d6000fd5b505050505050565b6003546040517f6b073db60000000000000000000000000000000000000000000000000000000081526060916000918291600160a060020a031690636b073db690610334908790600401610961565b600060405180830381865afa158015610351573d6000803e3d6000fd5b505050506040513d6000823e601f3d908101601f1916820160405261037991908101906109d6565b9250925092509193909250565b6003546000546040517faef5beb7000000000000000000000000000000000000000000000000000000008152600160a060020a03918216600482015291169063aef5beb790602401600060405180830381600087803b1580156103e857600080fd5b505af11580156103fc573d6000803e3d6000fd5b50505050565b6003546040517f37cf779300000000000000000000000000000000000000000000000000000000815260609160009182918291600160a060020a03909116906337cf779390610455908890600401610961565b600060405180830381865afa158015610472573d6000803e3d6000fd5b505050506040513d6000823e601f3d908101601f1916820160405261049a9190810190610a36565b93509350935093509193509193565b6003546001546040517f26c8fb70000000000000000000000000000000000000000000000000000000008152600160a060020a03918216600482015260009291909116906326c8fb7090602401602060405180830381865afa158015610513573d6000803e3d6000fd5b505050506040513d601f19601f820116820180604052508101906105379190610ab5565b905090565b6003546000546040517f161e9e23000000000000000000000000000000000000000000000000000000008152600160a060020a039283169263161e9e239261058c92869290911690600401610ace565b600060405180830381600087803b1580156105a657600080fd5b505af11580156105ba573d6000803e3d6000fd5b5050505050565b600354604080517f9da1ec6b0000000000000000000000000000000000000000000000000000000081529051606092600160a060020a031691639da1ec6b9160048083019260009291908290030181865afa158015610624573d6000803e3d6000fd5b505050506040513d6000823e601f3d908101601f191682016040526105379190810190610af9565b6003546000546040517f7748d3c4000000000000000000000000000000000000000000000000000000008152600160a060020a0392831692637748d3c49261058c92869290911690600401610ace565b600354604080517f5b14ce060000000000000000000000000000000000000000000000000000000081529051606092600160a060020a031691635b14ce069160048083019260009291908290030181865afa158015610624573d6000803e3d6000fd5b61ffff8116811461070f57600080fd5b50565b60006020828403121561072457600080fd5b813561072f816106ff565b9392505050565b7f4e487b7100000000000000000000000000000000000000000000000000000000600052604160045260246000fd5b604051601f8201601f1916810167ffffffffffffffff8111828210171561078e5761078e610736565b604052919050565b600067ffffffffffffffff8211156107b0576107b0610736565b50601f01601f191660200190565b6000602082840312156107d057600080fd5b813567ffffffffffffffff8111156107e757600080fd5b8201601f810184136107f857600080fd5b803561080b61080682610796565b610765565b81815285602083850101111561082057600080fd5b81602084016020830137600091810160200191909152949350505050565b60005b83811015610859578181015183820152602001610841565b838111156103fc5750506000910152565b6000815180845261088281602086016020860161083e565b601f01601f19169290920160200192915050565b6060815260006108a9606083018661086a565b61ffff94909416602083015250901515604090910152919050565b6080815260006108d7608083018761086a565b61ffff959095166020830152509115156040830152600160a060020a0316606090910152919050565b600060208083018184528085518083526040860191506040848202870101925083870160005b8281101561095457603f1988860301845261094285835161086a565b94509285019290850190600101610926565b5092979650505050505050565b60208152600061072f602083018461086a565b600082601f83011261098557600080fd5b815161099361080682610796565b8181528460208386010111156109a857600080fd5b6109b982602083016020870161083e565b949350505050565b805180151581146109d157600080fd5b919050565b6000806000606084860312156109eb57600080fd5b835167ffffffffffffffff811115610a0257600080fd5b610a0e86828701610974565b9350506020840151610a1f816106ff565b9150610a2d604085016109c1565b90509250925092565b60008060008060808587031215610a4c57600080fd5b845167ffffffffffffffff811115610a6357600080fd5b610a6f87828801610974565b9450506020850151610a80816106ff565b9250610a8e604086016109c1565b91506060850151600160a060020a0381168114610aaa57600080fd5b939692955090935050565b600060208284031215610ac757600080fd5b5051919050565b604081526000610ae1604083018561086a565b9050600160a060020a03831660208301529392505050565b60006020808385031215610b0c57600080fd5b825167ffffffffffffffff80821115610b2457600080fd5b818501915085601f830112610b3857600080fd5b815181811115610b4a57610b4a610736565b838102610b58858201610765565b9182528381018501918581019089841115610b7257600080fd5b86860192505b83831015610bae57825185811115610b905760008081fd5b610b9e8b89838a0101610974565b8352509186019190860190610b78565b999850505050505050505056fea2646970667358221220fa309a2e2cffb1b65bdc72cdc7dde09c94b4ed17325f5e6baf40dde00c73cebc64736f6c634300080e0033a264697066735822122026628d8a541e538406de228f3eb83e845755b8f890932a2909250874759a42ce64736f6c634300080e003360806040523480156200001157600080fd5b5060405162000a3438038062000a348339810160408190526200003491620001f4565b81516200004990600290602085019062000068565b5080516200005f90600390602084019062000068565b505050620002b3565b82805462000076906200025e565b90600052602060002090601f0160209004810192826200009a5760008555620000e5565b82601f10620000b557805160ff1916838001178555620000e5565b82800160010185558215620000e5579182015b82811115620000e5578251825591602001919060010190620000c8565b50620000f3929150620000f7565b5090565b5b80821115620000f35760008155600101620000f8565b7f4e487b7100000000000000000000000000000000000000000000000000000000600052604160045260246000fd5b600082601f8301126200014f57600080fd5b81516001604060020a03808211156200016c576200016c6200010e565b604051601f8301601f19908116603f011681019082821181831017156200019757620001976200010e565b81604052838152602092508683858801011115620001b457600080fd5b600091505b83821015620001d85785820183015181830184015290820190620001b9565b83821115620001ea5760008385830101525b9695505050505050565b600080604083850312156200020857600080fd5b82516001604060020a03808211156200022057600080fd5b6200022e868387016200013d565b935060208501519150808211156200024557600080fd5b5062000254858286016200013d565b9150509250929050565b6002810460018216806200027357607f821691505b602082108103620002ad577f4e487b7100000000000000000000000000000000000000000000000000000000600052602260045260246000fd5b50919050565b61077180620002c36000396000f3fe608060405234801561001057600080fd5b506004361061009a576000357c01000000000000000000000000000000000000000000000000000000009004806370a082311161007857806370a08231146100e457806395d89b411461010d578063a0712d6814610115578063a9059cbb1461012857600080fd5b806306fdde031461009f57806318160ddd146100bd57806351ce139a146100cf575b600080fd5b6100a761014b565b6040516100b49190610578565b60405180910390f35b6001545b6040519081526020016100b4565b6100e26100dd3660046105e9565b6101dd565b005b6100c16100f2366004610625565b600160a060020a031660009081526020819052604090205490565b6100a761023c565b6100e2610123366004610647565b61024b565b61013b610136366004610660565b610258565b60405190151581526020016100b4565b60606002805461015a9061068a565b80601f01602080910402602001604051908101604052809291908181526020018280546101869061068a565b80156101d35780601f106101a8576101008083540402835291602001916101d3565b820191906000526020600020905b8154815290600101906020018083116101b657829003601f168201915b5050505050905090565b600160a060020a0383166000908152602081905260408120805483929061020590849061070c565b9091555050600160a060020a03821660009081526020819052604081208054839290610232908490610723565b9091555050505050565b60606003805461015a9061068a565b6102553382610270565b50565b600033610266818585610357565b5060019392505050565b600160a060020a0382166102ce5760405160e560020a62461bcd02815260206004820152601f60248201527f45524332303a206d696e7420746f20746865207a65726f20616464726573730060448201526064015b60405180910390fd5b80600160008282546102e09190610723565b9091555050600160a060020a0382166000908152602081905260408120805483929061030d908490610723565b9091555050604051818152600160a060020a038316906000907fddf252ad1be2c89b69c2b068fc378daa952ba7f163c4a11628f55a4df523b3ef9060200160405180910390a35050565b600160a060020a0383166103d65760405160e560020a62461bcd02815260206004820152602560248201527f45524332303a207472616e736665722066726f6d20746865207a65726f20616460448201527f647265737300000000000000000000000000000000000000000000000000000060648201526084016102c5565b600160a060020a0382166104555760405160e560020a62461bcd02815260206004820152602360248201527f45524332303a207472616e7366657220746f20746865207a65726f206164647260448201527f657373000000000000000000000000000000000000000000000000000000000060648201526084016102c5565b600160a060020a038316600090815260208190526040902054818110156104e75760405160e560020a62461bcd02815260206004820152602660248201527f45524332303a207472616e7366657220616d6f756e742065786365656473206260448201527f616c616e6365000000000000000000000000000000000000000000000000000060648201526084016102c5565b600160a060020a0380851660009081526020819052604080822085850390559185168152908120805484929061051e908490610723565b9250508190555082600160a060020a031684600160a060020a03167fddf252ad1be2c89b69c2b068fc378daa952ba7f163c4a11628f55a4df523b3ef8460405161056a91815260200190565b60405180910390a350505050565b600060208083528351808285015260005b818110156105a557858101830151858201604001528201610589565b818111156105b7576000604083870101525b50601f01601f1916929092016040019392505050565b8035600160a060020a03811681146105e457600080fd5b919050565b6000806000606084860312156105fe57600080fd5b610607846105cd565b9250610615602085016105cd565b9150604084013590509250925092565b60006020828403121561063757600080fd5b610640826105cd565b9392505050565b60006020828403121561065957600080fd5b5035919050565b6000806040838503121561067357600080fd5b61067c836105cd565b946020939093013593505050565b60028104600182168061069e57607f821691505b6020821081036106d7577f4e487b7100000000000000000000000000000000000000000000000000000000600052602260045260246000fd5b50919050565b7f4e487b7100000000000000000000000000000000000000000000000000000000600052601160045260246000fd5b60008282101561071e5761071e6106dd565b500390565b60008219821115610736576107366106dd565b50019056fea2646970667358221220ece6a1c0d07c7c3fc4fe4397433f7220fdc263e36317139682a78afcefca1ff664736f6c634300080e0033",
  "immutableReferences": {},
  "source": "// SPDX-License-Identifier: MIT\npragma solidity >=0.7.0 < 0.9.0;\nimport \"../Token/ERC20.sol\";\nimport \"./IInsuranceRocketCompany.sol\";\nimport \"./InsuranceClientRocketCompany.sol\";\nimport \"./InsuranceLaboratoryRocketCompany.sol\";\n\ncontract InsuranceRocketCompany is InterfaceRocket{\n    //Token\n    ERC20Rocket token;\n    address public owner;\n    address public addressContract;\n    uint public counterServices;\n\n    constructor() {\n        token = new ERC20Rocket(\"MedicineRocket\", \"MR\");\n        token.mint(10000);\n        counterServices = 0;\n        owner = msg.sender;\n        addressContract = address(this);\n    }\n\n    //Funcion Ether balance\n    function BalanceContractEthers ()public view returns(uint){\n        return addressContract.balance;\n    }\n\n    //---------------------------------------Modifiers---------------------------------------\n    modifier onlyOwner {\n        require(msg.sender == owner, \"You do not have the necessary permissions to run this function\");\n        _;\n    }\n\n    modifier onlyLaboratories(address ownerLaboratory) {\n        require (\n            RequestStatus[ownerLaboratory].requestType == uint16(1) && RequestStatus[ownerLaboratory].statusRequest == true,\n            \"No laboratory permits\"\n        );\n        _;\n    }\n\n    modifier onlyClient(address _userWallet){\n\n        require (\n            RequestStatus[_userWallet].requestType == uint16(0) && RequestStatus[_userWallet].statusRequest == true,\n            \"No client permissions\"\n        );\n        _;        \n    }\n\n    //---------------------------------------Mappings---------------------------------------\n    //Mapping para relacionar el nombre de un servicio con su estructura de datos\n    mapping(string => Service) public Services;\n\n    //Mapping para guardar los servicios especializados de laboratorios externos\n    mapping(string => SpecialService) public SpecialServices;\n\n    //Mapping que relaciona la address con la peticion\n    mapping(address => Request) public RequestStatus;\n\n    //Mapping que relacion un address de cada usuario con su historial de servicios\n    mapping(address => string []) public servicesClientHistory;\n\n    //Mapping que guarda todos los servicios usados y sus respetivos clientes y provedores\n    mapping(uint => ServicesUsed) public ServicesUsedClient;\n\n    //---------------------------------------Enums---------------------------------------\n    //Enum para clasificar el tipo de peticion de suscripcion\n    enum RequestType { CLIENT, LABORATORY }\n\n    //---------------------------------------Arrays---------------------------------------\n    //Array para almacenar el listado de los servicios\n    string[] public listServices;\n\n    //Array para almacenar el listado de los servicios especiales de los laboratorios\n    string[] public listSpecialServices;\n\n    //Array para almacenar las peticiones de suscripcion de clientes\n    address[] requestMixed;\n\n    //---------------------------------------Funciones validadoras---------------------------------------\n\n    //Funcion para validar que el nombre de servicio ya no exista\n    function checkRepeatService(string [] memory services, string memory _name) private pure returns(bool identifier){\n        identifier = true;\n\n        for(uint i = 0; i < services.length; i++){\n            if(keccak256(abi.encodePacked(services[i])) == keccak256(abi.encodePacked(_name))){\n                identifier = false;\n            }\n        }\n    }\n\n    //Funcion para saber si una address ya tiene una peticion\n    function checkRepeatRequest() private view returns(bool identifier){\n        identifier = true;\n\n        for(uint i = 0; i < requestMixed.length; i++){\n            if(requestMixed[i] == msg.sender){\n                identifier = false;\n            }\n        }\n    }\n\n    //---------------------------------------Funciones de tokens----------------------------------------------------\n\n    //Funcion para recargar tokens al contrato\n    function rechargeTokens(uint16 _amount) public override onlyOwner {\n        token.mint(_amount);\n    }\n\n    //Funcion ver tokens de contrato principal\n    function balanceContractTokens() public view returns(uint){\n        uint balance = token.balanceOf(addressContract);\n\n        return balance;\n    }\n\n    //Funcion para convertir el precio de tokens a ethers\n    function tokenToGwei(uint _quantity) private pure returns(uint){\n        return _quantity * (1 gwei);\n    } \n\n    //Funcion para comprar tokens\n    function buyTokens(uint _quantity, address ownerClient) public payable {\n        require(RequestStatus[ownerClient].addressContract == msg.sender, \"You do not have permissions to run this operation\");\n\n        uint cost = tokenToGwei(_quantity);\n        require(msg.value >= cost, \"You need more ethers to buy this amount of tokens.\");\n\n        uint returnValue = msg.value - cost;\n        payable(ownerClient).transfer(returnValue);\n        token.transfer(msg.sender, _quantity );\n    }\n\n    //Funcion para recibir pagos\n    receive() external payable{}\n    fallback ()external payable{}\n\n    //---------------------------------------Funciones para contrato principal---------------------------------------\n\n    //Funcion para ver el listado de servicios activos\n    function showActivedServices() public view override returns(string[] memory){\n        string[] memory activedServices = new string[] (listServices.length);\n        uint16 counter = 0;\n\n        for(uint16 i = 0; i < listServices.length; i++){\n            if(Services[listServices[i]].statusService == true){\n                activedServices[counter] = listServices[i];\n                counter++;\n            }\n        }\n\n        return activedServices;       \n    }\n\n    //Funcion para ver el listado de servicios especiales activos\n    function showActivedSpecialServices() public view returns(string[] memory){\n        string[] memory activedServices = new string[] (listSpecialServices.length);\n        uint16 counter = 0;\n\n        for(uint16 i = 0; i < listSpecialServices.length; i++){\n            if(SpecialServices[listSpecialServices[i]].statusService == true){\n                activedServices[counter] = listSpecialServices[i];\n                counter++;\n            }\n        }\n\n        return activedServices;       \n    }\n\n    //Funcion para mostrar un servicio por su nombre\n    function showServiceDetails(string memory _name) public view override returns(string memory, uint16, bool){\n        return (_name, Services[_name].priceService, Services[_name].statusService);\n    }\n\n    //Funcion para mostrar un servicio por su nombre\n    function showSpecialServiceDetails(string memory _name) public view  returns(string memory, uint16, bool, address){\n        return (_name, SpecialServices[_name].priceService, SpecialServices[_name].statusService, SpecialServices[_name].laboratory );\n    }\n\n    //Funcion para revisar el numero de contrato de cada cliente\n    function checkNumberContract() public view returns(address){\n        return RequestStatus[msg.sender].addressContract;\n    }\n\n    //Funcion para ver saldo de Cliente\n    function balanceContractUser(address _addr) public view returns (uint){\n        return token.balanceOf(_addr);\n    }\n\n    //Funcion para saber el role y el status de cada usuario o laboratorio\n    function showStatusAndRole() public view returns(uint16, bool, bool, string memory){\n        return (RequestStatus[msg.sender].requestType, RequestStatus[msg.sender].statusRequest, RequestStatus[msg.sender].isRequest, RequestStatus[msg.sender].statusContract );\n    }\n\n    //change status contract clients or laboratory\n    function changeStatusContract(address _userWallet) external payable {\n\n        require(RequestStatus[_userWallet].addressContract == msg.sender, \"You do not have permissions to run this operation\");\n\n        RequestStatus[_userWallet].statusContract = 'inactive';\n\n        if (token.balanceOf(msg.sender) > 0 ) {\n            uint balanceUserTokens = token.balanceOf(msg.sender);\n            token.transferTokenRocket(msg.sender,addressContract, balanceUserTokens );\n            payable (_userWallet).transfer(tokenToGwei(balanceUserTokens));\n        }\n    }\n\n    //---------------------------------------Funciones para el admin ---------------------------------------\n\n    //Funcion para ver las solicitudes pendientes\n    function showPendingRequest(string memory _type) public view override onlyOwner returns(address[] memory) {\n        require(keccak256(abi.encodePacked(_type)) == keccak256(abi.encodePacked(\"Client\")) || keccak256(abi.encodePacked(_type)) == keccak256(abi.encodePacked(\"Laboratory\")), \"El tipo ingresado no es correcto\");\n        \n        uint16 counter;\n        address[] memory pendingRequests = new address[] (requestMixed.length);\n\n        if(keccak256(abi.encodePacked(_type)) == keccak256(abi.encodePacked(\"Client\"))){\n            for(uint16 i = 0; i < requestMixed.length; i++){\n                if(RequestStatus[requestMixed[i]].statusRequest == false && RequestStatus[requestMixed[i]].requestType == uint16(0)){\n                    pendingRequests[counter] = requestMixed[i];\n                    counter++;\n                }\n            }\n        }else{\n            for(uint16 i = 0; i < requestMixed.length; i++){\n                if(RequestStatus[requestMixed[i]].statusRequest == false  && RequestStatus[requestMixed[i]].requestType == uint16(1)){\n                    pendingRequests[counter] = requestMixed[i];\n                    counter++;\n                }\n            }\n        }\n        return pendingRequests;\n    }\n\n    //Funcion para habilitar un cliente o laboratorio\n    function enableSubscription(address _addr) public override onlyOwner{\n        RequestStatus[_addr].statusRequest = true;\n        RequestStatus[_addr].isRequest = true;\n        RequestStatus[_addr].statusContract = 'acepted';\n    }\n\n    //Funcion para cambiar el estado de los servicios\n    function changeStatusService(string memory _name) public override onlyOwner{\n        Services[_name].statusService = !Services[_name].statusService;\n    }\n\n    //Funcion para crear servicios\n    function createService(string memory _name, uint16 _price) public override onlyOwner{\n        require(checkRepeatService(listServices, _name), \"Service name already exists.\");\n\n        Services[_name] = Service(_name, _price, true);\n\n        listServices.push(_name);\n    }\n\n    //Funcion para mostrar los servicios basicos disponibles\n    function showListServices() public view returns(string [] memory ){\n        return listServices;\n    }\n\n    //Funcion para mostrar los servicios basicos disponibles\n    function showListUsers() public view returns(address [] memory ){\n        return requestMixed;\n    }\n\n    //Funcion para ver detalles de cada usuario sean clientes o laboratorios\n    function showDetailsUser (address _addr) public view returns (uint16, bool, address, string memory ){\n        return (RequestStatus[_addr].requestType, RequestStatus[_addr].statusRequest, RequestStatus[_addr].addressContract, RequestStatus[_addr].statusContract);\n    }\n\n    //Funcion para banear un cliente o laboratorio\n    function bannedUser(address _addr) public onlyOwner{\n        RequestStatus[_addr].statusContract = 'banned';\n    }\n\n    //Funcion para desbanear un cliente o laboratorio\n    function unBannedUser(address _addr ) public onlyOwner{\n        RequestStatus[_addr].statusContract = 'active';\n    }\n\n    //---------------------------------------Contrato clientes---------------------------------------\n\n    //Funcion para solicitar una suscripcion para un cliente\n    function requestSubscriptionClient() public override {\n        require(checkRepeatRequest(), \"You already have a request to your address.\");\n        RequestStatus[msg.sender] = Request(uint16(RequestType.CLIENT), false, address(0), false, 'initial');\n        requestMixed.push(msg.sender);\n    }\n\n    //Funcion para creacion de contrato de Cliente\n    function createClientFactory() public {\n        require(RequestStatus[msg.sender].statusRequest == true && RequestStatus[msg.sender].requestType == 0, \"You are not enabled to create your contract or your contract type does not match.\");\n\n        address clientAddressContract = address(new Client(msg.sender, addressContract));\n        RequestStatus[msg.sender].addressContract = clientAddressContract;\n        RequestStatus[msg.sender].statusContract = 'active';\n        emit createFactoryEvent(\"Contract created\", clientAddressContract);\n    }\n\n    // Funcion para asginar un servicio a un cliente\n    function asignServiceClient(string memory _nameService, address _owner) external onlyClient(_owner) {\n        require(RequestStatus[_owner].addressContract == msg.sender, \"You do not have permissions to run this operation\");\n        require (Services[_nameService].statusService == true, \"Service not available\");\n        require (Services[_nameService].priceService <= token.balanceOf(msg.sender), \"Does not have sufficient funds\");\n\n        token.transferTokenRocket(msg.sender, addressContract, Services[_nameService].priceService);\n        servicesClientHistory[msg.sender].push(_nameService);\n\n        ServicesUsedClient[counterServices] = ServicesUsed(addressContract, msg.sender, 'basic', Services[_nameService].priceService, _nameService );\n        counterServices++;\n    }\n\n    //Funcion para asginar un servicio especial a un cliente\n    function asignSpecialServiceClient(string memory _nameService, address _userWallet) external onlyClient(_userWallet) {\n        require(RequestStatus[_userWallet].addressContract == msg.sender, \"You do not have permissions to run this operation\");\n        require (SpecialServices[_nameService].statusService == true, \"Service not available\");\n        require (SpecialServices[_nameService].priceService <= token.balanceOf(msg.sender), \"Insufficient funds\");\n\n        token.transferTokenRocket(msg.sender,SpecialServices[_nameService].laboratory, SpecialServices[_nameService].priceService);\n        servicesClientHistory[msg.sender].push(_nameService);\n\n        ServicesUsedClient[counterServices] = ServicesUsed(SpecialServices[_nameService].laboratory, msg.sender, 'special', SpecialServices[_nameService].priceService, _nameService );\n        counterServices++;\n    }\n\n    function showDetailServiceUsed(uint _position) public view returns(address, address, string memory, uint, string memory){\n        return (ServicesUsedClient[_position].onwer, ServicesUsedClient[_position].client, ServicesUsedClient[_position].typeService, ServicesUsedClient[_position].price, ServicesUsedClient[_position].name);\n    }\n\n    //---------------------------------------Contratos laboratorios---------------------------------------\n\n    //Funcion para solicitar una suscripcion para un laboratorio\n    function requestSubscriptionLaboratory() public override {\n        require(checkRepeatRequest(), \"You already have a request to your address.\");\n        \n        RequestStatus[msg.sender] = Request(uint16(RequestType.LABORATORY), false, address(0), false, 'initial');\n        requestMixed.push(msg.sender);\n    }\n\n    //Funcion para crear el contrato de un laboratorio cuando ya est habilitado\n    function createLaboratoryFactory() public {\n        require(RequestStatus[msg.sender].statusRequest == true && RequestStatus[msg.sender].requestType == 1, \"You are not enabled to create your contract or your contract type does not match..\");\n\n        address laboratoryAddressContract = address(new Laboratory(msg.sender, addressContract ));\n        RequestStatus[msg.sender].addressContract = laboratoryAddressContract;\n        RequestStatus[msg.sender].statusContract = 'active';\n\n        emit createFactoryEvent(\"Contract created\", laboratoryAddressContract);\n    }\n\n    //Funcion para crear servicios especiales\n    function createSpecialService(string memory _name, uint16 _price, address ownerLaboratory) external onlyLaboratories(ownerLaboratory) {\n        require(checkRepeatService(listSpecialServices, _name), \"Service name already exists.\");\n        require(RequestStatus[ownerLaboratory].addressContract == msg.sender, \"You do not have permissions to run this operation\");\n\n        SpecialServices[_name] = SpecialService(_price, true, msg.sender);\n        listSpecialServices.push(_name);\n    }\n\n    //Funcion para cambiar el estado de los servicios especiales\n    function changeStatusServiceLaboratory(string memory _name, address ownerLaboratory) external onlyLaboratories(ownerLaboratory){\n        require(RequestStatus[ownerLaboratory].addressContract == msg.sender, \"You do not have permissions to run this operation\");\n\n        SpecialServices[_name].statusService = !SpecialServices[_name].statusService;\n    }\n\n    //Funcion para mostrar lista de servicios especiales\n    function showListServiceSpecial () public view returns (string [] memory){\n        return listSpecialServices;\n    }\n\n    //Funcion para canjear sus tokens por dinero\n    function withdrawBalanceLaboratory(address _laboratoryWallet, uint16 _quantityTokens) external payable onlyLaboratories(_laboratoryWallet) {\n        require (token.balanceOf(msg.sender) > 0, \"Insufficient balance\");\n \n        uint balanceLaboratyTokens = token.balanceOf(msg.sender);\n        if(balanceLaboratyTokens >= _quantityTokens){\n            token.transferTokenRocket(msg.sender, addressContract, _quantityTokens);\n            payable(_laboratoryWallet).transfer(tokenToGwei(_quantityTokens));\n\n            emit messageEvent (\"your retirement has been successful\");\n        }else{\n            // emit messageEvent (\"It does not have sufficient funds.\");\n        }\n    }\n\n    //Funcion para que cada laboratorio pueda ver sus servicios\n    function showSpecialServicesByLaboratory() external view returns(string[] memory){\n        string[] memory activedSpecialServices = new string[] (listSpecialServices.length);\n        uint16 counter = 0;\n\n        for(uint16 i = 0; i < listSpecialServices.length; i++){\n            if(SpecialServices[listSpecialServices[i]].laboratory == msg.sender){\n                activedSpecialServices[counter] = listSpecialServices[i];\n                counter++;\n            }\n        }\n        return activedSpecialServices;\n    }\n}",
  "sourcePath": "/home/xdx/Escritorio/Solidity proyects/sistema_salud_full/contracts/System/Company/InsuranceRocketCompany.sol",
  "compiler": {
    "name": "solc",
    "version": "0.8.14+commit.80d49f37.Emscripten.clang"
  },
  "schemaVersion": "3.4.7",
  "updatedAt": "2022-07-27T03:02:30.286Z",
  "networkType": "ethereum",
  "devdoc": {
    "kind": "dev",
    "methods": {},
    "version": 1
  },
  "userdoc": {
    "kind": "user",
    "methods": {},
    "version": 1
  }
}