{
  "contractName": "InsuranceRocketCompany",
  "abi": [
    {
      "inputs": [],
      "stateMutability": "nonpayable",
      "type": "constructor"
    },
    {
      "anonymous": false,
      "inputs": [
        {
          "indexed": false,
          "internalType": "string",
          "name": "",
          "type": "string"
        },
        {
          "indexed": false,
          "internalType": "address",
          "name": "",
          "type": "address"
        }
      ],
      "name": "asignServiceClientEvent",
      "type": "event"
    },
    {
      "anonymous": false,
      "inputs": [
        {
          "indexed": false,
          "internalType": "string",
          "name": "",
          "type": "string"
        }
      ],
      "name": "changeStatusServiceEvent",
      "type": "event"
    },
    {
      "anonymous": false,
      "inputs": [
        {
          "indexed": false,
          "internalType": "string",
          "name": "",
          "type": "string"
        },
        {
          "indexed": false,
          "internalType": "address",
          "name": "",
          "type": "address"
        }
      ],
      "name": "createFactoryEvent",
      "type": "event"
    },
    {
      "anonymous": false,
      "inputs": [
        {
          "indexed": false,
          "internalType": "string",
          "name": "",
          "type": "string"
        }
      ],
      "name": "createServiceEvent",
      "type": "event"
    },
    {
      "anonymous": false,
      "inputs": [
        {
          "indexed": false,
          "internalType": "string",
          "name": "",
          "type": "string"
        }
      ],
      "name": "enableSubscriptionEvent",
      "type": "event"
    },
    {
      "anonymous": false,
      "inputs": [
        {
          "indexed": false,
          "internalType": "uint16",
          "name": "",
          "type": "uint16"
        }
      ],
      "name": "rechargeTokensEvent",
      "type": "event"
    },
    {
      "stateMutability": "payable",
      "type": "fallback",
      "payable": true
    },
    {
      "inputs": [
        {
          "internalType": "address",
          "name": "",
          "type": "address"
        }
      ],
      "name": "RequestStatus",
      "outputs": [
        {
          "internalType": "uint16",
          "name": "requestType",
          "type": "uint16"
        },
        {
          "internalType": "bool",
          "name": "statusRequest",
          "type": "bool"
        },
        {
          "internalType": "address",
          "name": "addressContract",
          "type": "address"
        }
      ],
      "stateMutability": "view",
      "type": "function",
      "constant": true
    },
    {
      "inputs": [
        {
          "internalType": "string",
          "name": "",
          "type": "string"
        }
      ],
      "name": "Services",
      "outputs": [
        {
          "internalType": "uint16",
          "name": "priceService",
          "type": "uint16"
        },
        {
          "internalType": "bool",
          "name": "statusService",
          "type": "bool"
        }
      ],
      "stateMutability": "view",
      "type": "function",
      "constant": true
    },
    {
      "inputs": [
        {
          "internalType": "string",
          "name": "",
          "type": "string"
        }
      ],
      "name": "SpecialServices",
      "outputs": [
        {
          "internalType": "uint16",
          "name": "priceService",
          "type": "uint16"
        },
        {
          "internalType": "bool",
          "name": "statusService",
          "type": "bool"
        },
        {
          "internalType": "address",
          "name": "laboratory",
          "type": "address"
        }
      ],
      "stateMutability": "view",
      "type": "function",
      "constant": true
    },
    {
      "inputs": [],
      "name": "addressContract",
      "outputs": [
        {
          "internalType": "address",
          "name": "",
          "type": "address"
        }
      ],
      "stateMutability": "view",
      "type": "function",
      "constant": true
    },
    {
      "inputs": [
        {
          "internalType": "uint256",
          "name": "",
          "type": "uint256"
        }
      ],
      "name": "listServices",
      "outputs": [
        {
          "internalType": "string",
          "name": "",
          "type": "string"
        }
      ],
      "stateMutability": "view",
      "type": "function",
      "constant": true
    },
    {
      "inputs": [
        {
          "internalType": "uint256",
          "name": "",
          "type": "uint256"
        }
      ],
      "name": "listSpecialServices",
      "outputs": [
        {
          "internalType": "string",
          "name": "",
          "type": "string"
        }
      ],
      "stateMutability": "view",
      "type": "function",
      "constant": true
    },
    {
      "inputs": [],
      "name": "owner",
      "outputs": [
        {
          "internalType": "address",
          "name": "",
          "type": "address"
        }
      ],
      "stateMutability": "view",
      "type": "function",
      "constant": true
    },
    {
      "inputs": [
        {
          "internalType": "address",
          "name": "",
          "type": "address"
        },
        {
          "internalType": "uint256",
          "name": "",
          "type": "uint256"
        }
      ],
      "name": "servicesClientHistory",
      "outputs": [
        {
          "internalType": "string",
          "name": "",
          "type": "string"
        }
      ],
      "stateMutability": "view",
      "type": "function",
      "constant": true
    },
    {
      "stateMutability": "payable",
      "type": "receive",
      "payable": true
    },
    {
      "inputs": [],
      "name": "BalanceContractEthers",
      "outputs": [
        {
          "internalType": "uint256",
          "name": "",
          "type": "uint256"
        }
      ],
      "stateMutability": "view",
      "type": "function",
      "constant": true
    },
    {
      "inputs": [
        {
          "internalType": "uint16",
          "name": "_amount",
          "type": "uint16"
        }
      ],
      "name": "rechargeTokens",
      "outputs": [],
      "stateMutability": "nonpayable",
      "type": "function"
    },
    {
      "inputs": [],
      "name": "balanceContractTokens",
      "outputs": [
        {
          "internalType": "uint256",
          "name": "",
          "type": "uint256"
        }
      ],
      "stateMutability": "view",
      "type": "function",
      "constant": true
    },
    {
      "inputs": [
        {
          "internalType": "uint256",
          "name": "_quantity",
          "type": "uint256"
        },
        {
          "internalType": "address",
          "name": "ownerClient",
          "type": "address"
        }
      ],
      "name": "buyTokens",
      "outputs": [],
      "stateMutability": "payable",
      "type": "function",
      "payable": true
    },
    {
      "inputs": [],
      "name": "showActivedServices",
      "outputs": [
        {
          "internalType": "string[]",
          "name": "",
          "type": "string[]"
        }
      ],
      "stateMutability": "view",
      "type": "function",
      "constant": true
    },
    {
      "inputs": [],
      "name": "showActivedSpecialServices",
      "outputs": [
        {
          "internalType": "string[]",
          "name": "",
          "type": "string[]"
        }
      ],
      "stateMutability": "view",
      "type": "function",
      "constant": true
    },
    {
      "inputs": [
        {
          "internalType": "string",
          "name": "_name",
          "type": "string"
        }
      ],
      "name": "showServiceDetails",
      "outputs": [
        {
          "internalType": "string",
          "name": "",
          "type": "string"
        },
        {
          "internalType": "uint16",
          "name": "",
          "type": "uint16"
        },
        {
          "internalType": "bool",
          "name": "",
          "type": "bool"
        }
      ],
      "stateMutability": "view",
      "type": "function",
      "constant": true
    },
    {
      "inputs": [
        {
          "internalType": "string",
          "name": "_name",
          "type": "string"
        }
      ],
      "name": "showSpecialServiceDetails",
      "outputs": [
        {
          "internalType": "string",
          "name": "",
          "type": "string"
        },
        {
          "internalType": "uint16",
          "name": "",
          "type": "uint16"
        },
        {
          "internalType": "bool",
          "name": "",
          "type": "bool"
        }
      ],
      "stateMutability": "view",
      "type": "function",
      "constant": true
    },
    {
      "inputs": [],
      "name": "checkNumberContract",
      "outputs": [
        {
          "internalType": "address",
          "name": "",
          "type": "address"
        }
      ],
      "stateMutability": "view",
      "type": "function",
      "constant": true
    },
    {
      "inputs": [
        {
          "internalType": "address",
          "name": "_addr",
          "type": "address"
        }
      ],
      "name": "balanceContractUser",
      "outputs": [
        {
          "internalType": "uint256",
          "name": "",
          "type": "uint256"
        }
      ],
      "stateMutability": "view",
      "type": "function",
      "constant": true
    },
    {
      "inputs": [],
      "name": "showStatusAndRole",
      "outputs": [
        {
          "internalType": "uint16",
          "name": "",
          "type": "uint16"
        },
        {
          "internalType": "bool",
          "name": "",
          "type": "bool"
        }
      ],
      "stateMutability": "view",
      "type": "function",
      "constant": true
    },
    {
      "inputs": [
        {
          "internalType": "string",
          "name": "_type",
          "type": "string"
        }
      ],
      "name": "showPendingRequest",
      "outputs": [
        {
          "internalType": "address[]",
          "name": "",
          "type": "address[]"
        }
      ],
      "stateMutability": "view",
      "type": "function",
      "constant": true
    },
    {
      "inputs": [
        {
          "internalType": "address",
          "name": "_addr",
          "type": "address"
        }
      ],
      "name": "enableSubscription",
      "outputs": [],
      "stateMutability": "nonpayable",
      "type": "function"
    },
    {
      "inputs": [
        {
          "internalType": "string",
          "name": "_name",
          "type": "string"
        }
      ],
      "name": "changeStatusService",
      "outputs": [],
      "stateMutability": "nonpayable",
      "type": "function"
    },
    {
      "inputs": [
        {
          "internalType": "string",
          "name": "_name",
          "type": "string"
        },
        {
          "internalType": "uint16",
          "name": "_price",
          "type": "uint16"
        }
      ],
      "name": "createService",
      "outputs": [],
      "stateMutability": "nonpayable",
      "type": "function"
    },
    {
      "inputs": [],
      "name": "requestSubscriptionClient",
      "outputs": [],
      "stateMutability": "nonpayable",
      "type": "function"
    },
    {
      "inputs": [],
      "name": "createClientFactory",
      "outputs": [],
      "stateMutability": "nonpayable",
      "type": "function"
    },
    {
      "inputs": [
        {
          "internalType": "address",
          "name": "_userWallet",
          "type": "address"
        }
      ],
      "name": "cancelContractClient",
      "outputs": [
        {
          "internalType": "string",
          "name": "",
          "type": "string"
        }
      ],
      "stateMutability": "payable",
      "type": "function",
      "payable": true
    },
    {
      "inputs": [
        {
          "internalType": "string",
          "name": "_nameService",
          "type": "string"
        },
        {
          "internalType": "address",
          "name": "_userWallet",
          "type": "address"
        }
      ],
      "name": "asignServiceClient",
      "outputs": [],
      "stateMutability": "nonpayable",
      "type": "function"
    },
    {
      "inputs": [
        {
          "internalType": "address",
          "name": "_userWallet",
          "type": "address"
        }
      ],
      "name": "showServicesClient",
      "outputs": [
        {
          "internalType": "string[]",
          "name": "",
          "type": "string[]"
        }
      ],
      "stateMutability": "view",
      "type": "function",
      "constant": true
    },
    {
      "inputs": [
        {
          "internalType": "string",
          "name": "_nameService",
          "type": "string"
        },
        {
          "internalType": "address",
          "name": "_userWallet",
          "type": "address"
        }
      ],
      "name": "asignSpecialServiceClient",
      "outputs": [],
      "stateMutability": "nonpayable",
      "type": "function"
    },
    {
      "inputs": [],
      "name": "requestSubscriptionLaboratory",
      "outputs": [],
      "stateMutability": "nonpayable",
      "type": "function"
    },
    {
      "inputs": [],
      "name": "createLaboratoryFactory",
      "outputs": [],
      "stateMutability": "nonpayable",
      "type": "function"
    },
    {
      "inputs": [
        {
          "internalType": "string",
          "name": "_name",
          "type": "string"
        },
        {
          "internalType": "uint16",
          "name": "_price",
          "type": "uint16"
        },
        {
          "internalType": "address",
          "name": "ownerLaboratory",
          "type": "address"
        }
      ],
      "name": "createSpecialService",
      "outputs": [],
      "stateMutability": "nonpayable",
      "type": "function"
    },
    {
      "inputs": [
        {
          "internalType": "string",
          "name": "_name",
          "type": "string"
        },
        {
          "internalType": "address",
          "name": "ownerLaboratory",
          "type": "address"
        }
      ],
      "name": "changeStatusServiceLaboratory",
      "outputs": [],
      "stateMutability": "nonpayable",
      "type": "function"
    },
    {
      "inputs": [
        {
          "internalType": "address",
          "name": "_laboratory",
          "type": "address"
        }
      ],
      "name": "cancelContractLaboratory",
      "outputs": [
        {
          "internalType": "string",
          "name": "",
          "type": "string"
        }
      ],
      "stateMutability": "payable",
      "type": "function",
      "payable": true
    },
    {
      "inputs": [
        {
          "internalType": "address",
          "name": "_laboratoryWallet",
          "type": "address"
        },
        {
          "internalType": "uint16",
          "name": "_quantityTokens",
          "type": "uint16"
        }
      ],
      "name": "withdrawBalanceLaboratory",
      "outputs": [
        {
          "internalType": "string",
          "name": "",
          "type": "string"
        }
      ],
      "stateMutability": "payable",
      "type": "function",
      "payable": true
    },
    {
      "inputs": [],
      "name": "showMyActivedSpecialServices",
      "outputs": [
        {
          "internalType": "string[]",
          "name": "",
          "type": "string[]"
        }
      ],
      "stateMutability": "view",
      "type": "function",
      "constant": true
    }
  ],
  "bytecode": "0x60806040523480156200001157600080fd5b50604051620000209062000158565b6040808252600e908201527f4d65646963696e65526f636b657400000000000000000000000000000000000060608201526080602082018190526002908201527f4d5200000000000000000000000000000000000000000000000000000000000060a082015260c001604051809103906000f080158015620000a6573d6000803e3d6000fd5b5060008054600160a060020a031916600160a060020a039290921691821790556040517fa0712d68000000000000000000000000000000000000000000000000000000008152612710600482015263a0712d6890602401600060405180830381600087803b1580156200011857600080fd5b505af11580156200012d573d6000803e3d6000fd5b505060018054600160a060020a03199081163317909155600280549091163017905550620001669050565b610a3480620058ae83390190565b61573880620001766000396000f3fe6080604052600436106200022a5760003560e060020a9004806362909f9311620001275780639da1ec6b11620000ab578063c47fe02a1162000079578063c47fe02a1462000776578063c625e9b1146200078e578063e43ae2cd14620007a5578063e6cbd05814620007ca578063ee1e2d3d14620007ef57005b80639da1ec6b1462000717578063b53f2fa9146200072f578063b60c704f1462000747578063bc224fb6146200075f57005b80637748d3c411620000f55780637748d3c4146200067157806382a6f77c14620006965780638609b2fc14620006ae5780638da5cb5b14620006d05780638f87519714620006f257005b806362909f9314620005c55780636894ebce14620005dc5780636b073db614620006015780636fbb8422146200062657005b80633ceb906d11620001af57806347f2b7c0116200017d57806347f2b7c014620004cb57806354ba5d78146200051457806354c844fa146200052c5780635b14ce0614620005515780635ef31a2e146200056957005b80633ceb906d14620003e557806342924ca8146200040a578063441548ee146200042f5780634634852714620004aa57005b806326c8fb7011620001f957806326c8fb7014620002f05780632c38c787146200032457806336c9aed6146200034957806337776a2f146200036157806337cf779314620003af57005b80624cef25146200023457806305c713c614620002715780631275497214620002a5578063161e9e2314620002cb57005b366200023257005b005b3480156200024157600080fd5b5062000259620002533660046200349a565b62000814565b604051620002689190620034db565b60405180910390f35b3480156200027e57600080fd5b50620002966200029036600462003542565b62000ceb565b604051620002689190620035c8565b620002bc620002b636600462003640565b62000e4d565b60405162000268919062003678565b348015620002d857600080fd5b5062000232620002ea3660046200368d565b6200115c565b348015620002fd57600080fd5b50620003156200030f36600462003542565b620014ce565b60405190815260200162000268565b3480156200033157600080fd5b50620002bc62000343366004620036d8565b6200154a565b3480156200035657600080fd5b50620003156200160c565b3480156200036e57600080fd5b50620003963360009081526005602052604090205463010000009004600160a060020a031690565b604051600160a060020a03909116815260200162000268565b348015620003bc57600080fd5b50620003d4620003ce3660046200349a565b62001649565b604051620002689392919062003705565b348015620003f257600080fd5b50620002326200040436600462003542565b620016ae565b3480156200041757600080fd5b50620002326200042936600462003735565b62001797565b3480156200043c57600080fd5b50620004806200044e36600462003542565b60056020526000908152604090205461ffff81169062010000810460ff169063010000009004600160a060020a031683565b6040805161ffff90941684529115156020840152600160a060020a03169082015260600162000268565b348015620004b757600080fd5b50600254600160a060020a03163162000315565b348015620004d857600080fd5b503360009081526005602052604090205461ffff81169062010000900460ff165b6040805161ffff909316835290151560208301520162000268565b3480156200052157600080fd5b506200023262001a11565b3480156200053957600080fd5b50620002326200054b36600462003780565b62001b7d565b3480156200055e57600080fd5b506200029662001ee6565b3480156200057657600080fd5b5062000480620005883660046200349a565b805160208183018101805160048252928201919093012091525461ffff81169062010000810460ff169063010000009004600160a060020a031683565b620002bc620005d636600462003542565b620020b5565b348015620005e957600080fd5b50620002bc620005fb366004620037e6565b620023ea565b3480156200060e57600080fd5b50620003d4620006203660046200349a565b62002418565b3480156200063357600080fd5b50620004f9620006453660046200349a565b805160208183018101805160038252928201919093012091525461ffff81169062010000900460ff1682565b3480156200067e57600080fd5b5062000232620006903660046200368d565b62002455565b348015620006a357600080fd5b5062000296620026d8565b348015620006bb57600080fd5b506002546200039690600160a060020a031681565b348015620006dd57600080fd5b506001546200039690600160a060020a031681565b348015620006ff57600080fd5b50620002bc62000711366004620037e6565b620028ac565b3480156200072457600080fd5b5062000296620028bd565b3480156200073c57600080fd5b506200023262002a84565b3480156200075457600080fd5b506200023262002b8e565b620002bc6200077036600462003542565b62002c0e565b3480156200078357600080fd5b506200023262002c85565b620002326200079f36600462003800565b62002cc5565b348015620007b257600080fd5b5062000232620007c436600462003826565b62002e76565b348015620007d757600080fd5b5062000232620007e93660046200368d565b62002f58565b348015620007fc57600080fd5b50620002326200080e3660046200349a565b620030fc565b600154606090600160a060020a03163314620008505760405160e560020a62461bcd028152600401620008479062003844565b60405180910390fd5b6040517f436c69656e74000000000000000000000000000000000000000000000000000060208201526026016040516020818303038152906040528051906020012082604051602001620008a59190620038a1565b6040516020818303038152906040528051906020012014806200093057506040517f4c61626f7261746f7279000000000000000000000000000000000000000000006020820152602a016040516020818303038152906040528051906020012082604051602001620009189190620038a1565b60405160208183030381529060405280519060200120145b620009815760405160e560020a62461bcd02815260206004820181905260248201527f456c207469706f20696e6772657361646f206e6f20657320636f72726563746f604482015260640162000847565b600954600090819067ffffffffffffffff811115620009a457620009a4620033ec565b604051908082528060200260200182016040528015620009ce578160200160208202803683370190505b506040517f436c69656e7400000000000000000000000000000000000000000000000000006020820152909150602601604051602081830303815290604052805190602001208460405160200162000a279190620038a1565b604051602081830303815290604052805190602001200362000b955760005b60095461ffff8216101562000b8e576005600060098361ffff168154811062000a735762000a73620038bf565b6000918252602080832090910154600160a060020a0316835282019290925260400190205460ff620100009091041615801562000afa5750600061ffff166005600060098461ffff168154811062000acf5762000acf620038bf565b6000918252602080832090910154600160a060020a0316835282019290925260400190205461ffff16145b1562000b795760098161ffff168154811062000b1a5762000b1a620038bf565b9060005260206000200160009054906101000a9004600160a060020a0316828461ffff168151811062000b515762000b51620038bf565b600160a060020a03909216602092830291909101909101528262000b7581620038f1565b9350505b8062000b8581620038f1565b91505062000a46565b5062000ce2565b60005b60095461ffff8216101562000ce0576005600060098361ffff168154811062000bc55762000bc5620038bf565b6000918252602080832090910154600160a060020a0316835282019290925260400190205460ff620100009091041615801562000c4c5750600161ffff166005600060098461ffff168154811062000c215762000c21620038bf565b6000918252602080832090910154600160a060020a0316835282019290925260400190205461ffff16145b1562000ccb5760098161ffff168154811062000c6c5762000c6c620038bf565b9060005260206000200160009054906101000a9004600160a060020a0316828461ffff168151811062000ca35762000ca3620038bf565b600160a060020a03909216602092830291909101909101528262000cc781620038f1565b9350505b8062000cd781620038f1565b91505062000b98565b505b9150505b919050565b600160a060020a038116600090815260056020526040902054606090829061ffff1615801562000d3e5750600160a060020a03811660009081526005602052604090205462010000900460ff1615156001145b62000d605760405160e560020a62461bcd028152600401620008479062003915565b33600090815260066020908152604080832080548251818502810185019093528083529193909284015b8282101562000e4057838290600052602060002001805462000dac906200394c565b80601f016020809104026020016040519081016040528092919081815260200182805462000dda906200394c565b801562000e2b5780601f1062000dff5761010080835404028352916020019162000e2b565b820191906000526020600020905b81548152906001019060200180831162000e0d57829003601f168201915b50505050508152602001906001019062000d8a565b5050505091505b50919050565b600160a060020a038216600090815260056020526040902054606090839061ffff16600114801562000ea25750600160a060020a03811660009081526005602052604090205462010000900460ff1615156001145b62000ec45760405160e560020a62461bcd028152600401620008479062003985565b6000805460405160e060020a6370a08231028152336004820152600160a060020a03909116906370a0823190602401602060405180830381865afa15801562000f11573d6000803e3d6000fd5b505050506040513d601f19601f8201168201806040525081019062000f379190620039ba565b1162000f895760405160e560020a62461bcd02815260206004820152601b60248201527f4e6f20706f7365652062616c616e636520737566696369656e74650000000000604482015260640162000847565b6000805460405160e060020a6370a08231028152336004820152600160a060020a03909116906370a0823190602401602060405180830381865afa15801562000fd6573d6000803e3d6000fd5b505050506040513d601f19601f8201168201806040525081019062000ffc9190620039ba565b90508361ffff1681106200111b576000546002546040517f51ce139a000000000000000000000000000000000000000000000000000000008152336004820152600160a060020a03918216602482015261ffff871660448201529116906351ce139a90606401600060405180830381600087803b1580156200107d57600080fd5b505af115801562001092573d6000803e3d6000fd5b5050505084600160a060020a03166108fc620010b28661ffff1662003216565b6040518115909202916000818181858888f19350505050158015620010db573d6000803e3d6000fd5b506040518060400160405280601981526020017f74752072657469726f206861207369646f20657869746f736f0000000000000081525092505062001155565b6040518060400160405280601c81526020017f4e6f207469656e6520666f6e646f7320737566696369656e7465732e000000008152509250505b5092915050565b600160a060020a038116600090815260056020526040902054819061ffff16158015620011ac5750600160a060020a03811660009081526005602052604090205462010000900460ff1615156001145b620011ce5760405160e560020a62461bcd028152600401620008479062003915565b600160a060020a0382811660009081526005602052604090205463010000009004163314620012145760405160e560020a62461bcd0281526004016200084790620039d4565b600383604051620012269190620038a1565b9081526040516020918190039190910190205462010000900460ff161515600114620012985760405160e560020a62461bcd02815260206004820152601660248201527f536572766963696f206e6f20646973706f6e69626c6500000000000000000000604482015260640162000847565b60005460405160e060020a6370a08231028152336004820152600160a060020a03909116906370a0823190602401602060405180830381865afa158015620012e4573d6000803e3d6000fd5b505050506040513d601f19601f820116820180604052508101906200130a9190620039ba565b6003846040516200131c9190620038a1565b9081526040519081900360200190205461ffff161115620013835760405160e560020a62461bcd02815260206004820152601c60248201527f4e6f20706f73656520666f6e646f732073756669656369656e74657300000000604482015260640162000847565b600054600254604051600160a060020a03928316926351ce139a923392911690600390620013b3908990620038a1565b9081526040519081900360200181205460e060020a63ffffffff8616028252600160a060020a03938416600483015291909216602483015261ffff166044820152606401600060405180830381600087803b1580156200141257600080fd5b505af115801562001427573d6000803e3d6000fd5b5050336000908152600660209081526040822080546001810182559083529181902087516200145e9550920192508601906200332e565b5060408051818152601f918101919091527f536572766963696f20617367696e61646f20636f7272656374616d656e74650060608201523360208201527faeec4cc17945dc276cca5dfcea87d02aea4287ddf3d60038ed95a0c26e84e2fe906080015b60405180910390a1505050565b6000805460405160e060020a6370a08231028152600160a060020a038481166004830152909116906370a08231906024015b602060405180830381865afa1580156200151e573d6000803e3d6000fd5b505050506040513d601f19601f82011682018060405250810190620015449190620039ba565b92915050565b600660205281600052604060002081815481106200156757600080fd5b9060005260206000200160009150915050805462001585906200394c565b80601f0160208091040260200160405190810160405280929190818152602001828054620015b3906200394c565b8015620016045780601f10620015d85761010080835404028352916020019162001604565b820191906000526020600020905b815481529060010190602001808311620015e657829003601f168201915b505050505081565b6000805460025460405160e060020a6370a08231028152600160a060020a039182166004820152839291909116906370a082319060240162001500565b606060008083600485604051620016619190620038a1565b9081526040519081900360200181205461ffff169060049062001686908890620038a1565b90815260405190819003602001902054919450925060ff620100009091041690509193909250565b600154600160a060020a03163314620016de5760405160e560020a62461bcd028152600401620008479062003844565b600160a060020a03811660009081526005602052604090819020805462ff0000191662010000179055517f354c6a72b329f685c38dfa60613c835b26904be271112de710efa2e2c44eb3b4906200178c9060208082526029908201527f536520686120686162696c697461646f20756e20636c69656e7465206f20737560408201527f736372697063696f6e0000000000000000000000000000000000000000000000606082015260800190565b60405180910390a150565b600154600160a060020a03163314620017c75760405160e560020a62461bcd028152600401620008479062003844565b620018ae6007805480602002602001604051908101604052809291908181526020016000905b82821015620018a35783829060005260206000200180546200180f906200394c565b80601f01602080910402602001604051908101604052809291908181526020018280546200183d906200394c565b80156200188e5780601f1062001862576101008083540402835291602001916200188e565b820191906000526020600020905b8154815290600101906020018083116200187057829003601f168201915b505050505081526020019060010190620017ed565b505050508362003228565b620018ff5760405160e560020a62461bcd02815260206004820152601e60248201527f4e6f6d62726520646520736572766963696f73207961206578697374652e0000604482015260640162000847565b60408051808201825261ffff8316815260016020820152905160039062001928908590620038a1565b90815260405190819003602090810190912082518154938301511515620100000262ffffff1990941661ffff9091161792909217909155600780546001810182556000919091528351620019a4927fa66cc928b5edb82af9bd49922954155ab7b0942694bea4ce44661d9a8736c688909201918501906200332e565b507f8e57bf275bc9d4afbccb31ba764024cab254f99c0a08044738ca22f06756a30860405162001a05906020808252601f908201527f53652068612063726561646f20756e206e7565766f20736572766963696f2e00604082015260600190565b60405180910390a15050565b3360009081526005602052604090205462010000900460ff161515600114801562001a4f57503360009081526005602052604090205461ffff166001145b62001a715760405160e560020a62461bcd028152600401620008479062003a31565b6002546040516000913391600160a060020a039091169062001a9390620033b9565b600160a060020a03928316815291166020820152604001604051809103906000f08015801562001ac7573d6000803e3d6000fd5b503360009081526005602052604090819020805476ffffffffffffffffffffffffffffffffffffffff00000019166301000000600160a060020a03851602179055519091507f9ca50741aa35660fc78a732a8556916f45f5e93abc509a86d03a6aaaa7a22280906200178c9083906040808252600f908201527f436f6e747261746f2063726561646f00000000000000000000000000000000006060820152600160a060020a0391909116602082015260800190565b600160a060020a038116600090815260056020526040902054819061ffff16600114801562001bcf5750600160a060020a03811660009081526005602052604090205462010000900460ff1615156001145b62001bf15760405160e560020a62461bcd028152600401620008479062003985565b62001cd86008805480602002602001604051908101604052809291908181526020016000905b8282101562001ccd57838290600052602060002001805462001c39906200394c565b80601f016020809104026020016040519081016040528092919081815260200182805462001c67906200394c565b801562001cb85780601f1062001c8c5761010080835404028352916020019162001cb8565b820191906000526020600020905b81548152906001019060200180831162001c9a57829003601f168201915b50505050508152602001906001019062001c17565b505050508562003228565b62001d295760405160e560020a62461bcd02815260206004820152601e60248201527f4e6f6d62726520646520736572766963696f73207961206578697374652e0000604482015260640162000847565b600160a060020a038281166000908152600560205260409020546301000000900416331462001d6f5760405160e560020a62461bcd0281526004016200084790620039d4565b6040805160608101825261ffff85168152600160208201523381830152905160049062001d9e908790620038a1565b9081526040805191829003602090810190922083518154858501519590930151600160a060020a031663010000000276ffffffffffffffffffffffffffffffffffffffff00000019951515620100000262ffffff1990941661ffff9092169190911792909217939093161790915560088054600181018255600091909152855162001e51927ff3f7a9fe364faab93b216da50a3214154f22a0a2b415b23a84c8169e8b636ee3909201918701906200332e565b507f8e57bf275bc9d4afbccb31ba764024cab254f99c0a08044738ca22f06756a30860405162001ed89060208082526028908201527f53652068612063726561646f20756e206e7565766f20736572766963696f206560408201527f7370656369616c2e000000000000000000000000000000000000000000000000606082015260800190565b60405180910390a150505050565b60085460609060009067ffffffffffffffff81111562001f0a5762001f0a620033ec565b60405190808252806020026020018201604052801562001f3f57816020015b606081526020019060019003908162001f295790505b5090506000805b60085461ffff82161015620020ad57600460088261ffff168154811062001f715762001f71620038bf565b9060005260206000200160405162001f8a919062003ab4565b9081526040519081900360200190205460ff62010000909104161515600103620020985760088161ffff168154811062001fc85762001fc8620038bf565b90600052602060002001805462001fdf906200394c565b80601f01602080910402602001604051908101604052809291908181526020018280546200200d906200394c565b80156200205e5780601f1062002032576101008083540402835291602001916200205e565b820191906000526020600020905b8154815290600101906020018083116200204057829003601f168201915b5050505050838361ffff16815181106200207c576200207c620038bf565b602002602001018190525081806200209490620038f1565b9250505b80620020a481620038f1565b91505062001f46565b509092915050565b600160a060020a038116600090815260056020526040902054606090829061ffff16158015620021085750600160a060020a03811660009081526005602052604090205462010000900460ff1615156001145b6200212a5760405160e560020a62461bcd028152600401620008479062003915565b600160a060020a0383811660009081526005602052604090205463010000009004163314620021705760405160e560020a62461bcd0281526004016200084790620039d4565b600033905080600160a060020a031663085634ec6040518163ffffffff1660e060020a028152600401600060405180830381600087803b158015620021b457600080fd5b505af1158015620021c9573d6000803e3d6000fd5b50506000805460405160e060020a6370a08231028152336004820152919350600160a060020a031691506370a0823190602401602060405180830381865afa1580156200221a573d6000803e3d6000fd5b505050506040513d601f19601f82011682018060405250810190620022409190620039ba565b1115620023ab576000805460405160e060020a6370a08231028152336004820152600160a060020a03909116906370a0823190602401602060405180830381865afa15801562002294573d6000803e3d6000fd5b505050506040513d601f19601f82011682018060405250810190620022ba9190620039ba565b6000546002546040517f51ce139a000000000000000000000000000000000000000000000000000000008152336004820152600160a060020a0391821660248201526044810184905292935016906351ce139a90606401600060405180830381600087803b1580156200232c57600080fd5b505af115801562002341573d6000803e3d6000fd5b5050505084600160a060020a03166108fc6200235d8362003216565b6040518115909202916000818181858888f1935050505015801562002386573d6000803e3d6000fd5b506040518060600160405280603e8152602001620056c5603e91399350505062000e47565b6040518060400160405280601d81526020017f547520636f6e747261746f206861207369646f2063616e63656c61646f00000081525092505062000e47565b60088181548110620023fb57600080fd5b90600052602060002001600091509050805462001585906200394c565b606060008083600385604051620024309190620038a1565b9081526040519081900360200181205461ffff169060039062001686908890620038a1565b600160a060020a038116600090815260056020526040902054819061ffff16158015620024a55750600160a060020a03811660009081526005602052604090205462010000900460ff1615156001145b620024c75760405160e560020a62461bcd028152600401620008479062003915565b600160a060020a03828116600090815260056020526040902054630100000090041633146200250d5760405160e560020a62461bcd0281526004016200084790620039d4565b6004836040516200251f9190620038a1565b9081526040516020918190039190910190205462010000900460ff161515600114620025915760405160e560020a62461bcd02815260206004820152601660248201527f536572766963696f206e6f20646973706f6e69626c6500000000000000000000604482015260640162000847565b60005460405160e060020a6370a08231028152336004820152600160a060020a03909116906370a0823190602401602060405180830381865afa158015620025dd573d6000803e3d6000fd5b505050506040513d601f19601f82011682018060405250810190620026039190620039ba565b600484604051620026159190620038a1565b9081526040519081900360200190205461ffff1611156200267c5760405160e560020a62461bcd02815260206004820152601b60248201527f4e6f20706f73656520666f6e646f7320737566696369656e7465730000000000604482015260640162000847565b600054604051600160a060020a03909116906351ce139a903390600490620026a6908890620038a1565b90815260405190819003602001812054600160a060020a0363010000009091041690600490620013b3908990620038a1565b60085460609060009067ffffffffffffffff811115620026fc57620026fc620033ec565b6040519080825280602002602001820160405280156200273157816020015b60608152602001906001900390816200271b5790505b5090506000805b60085461ffff82161015620020ad5733600160a060020a0316600460088361ffff16815481106200276d576200276d620038bf565b9060005260206000200160405162002786919062003ab4565b90815260405190819003602001902054600160a060020a0363010000009091041603620028975760088161ffff1681548110620027c757620027c7620038bf565b906000526020600020018054620027de906200394c565b80601f01602080910402602001604051908101604052809291908181526020018280546200280c906200394c565b80156200285d5780601f1062002831576101008083540402835291602001916200285d565b820191906000526020600020905b8154815290600101906020018083116200283f57829003601f168201915b5050505050838361ffff16815181106200287b576200287b620038bf565b602002602001018190525081806200289390620038f1565b9250505b80620028a381620038f1565b91505062002738565b60078181548110620023fb57600080fd5b60075460609060009067ffffffffffffffff811115620028e157620028e1620033ec565b6040519080825280602002602001820160405280156200291657816020015b6060815260200190600190039081620029005790505b5090506000805b60075461ffff82161015620020ad57600360078261ffff1681548110620029485762002948620038bf565b9060005260206000200160405162002961919062003ab4565b9081526040519081900360200190205460ff6201000090910416151560010362002a6f5760078161ffff16815481106200299f576200299f620038bf565b906000526020600020018054620029b6906200394c565b80601f0160208091040260200160405190810160405280929190818152602001828054620029e4906200394c565b801562002a355780601f1062002a095761010080835404028352916020019162002a35565b820191906000526020600020905b81548152906001019060200180831162002a1757829003601f168201915b5050505050838361ffff168151811062002a535762002a53620038bf565b6020026020010181905250818062002a6b90620038f1565b9250505b8062002a7b81620038f1565b9150506200291d565b62002a8e620032c5565b62002ab05760405160e560020a62461bcd028152600401620008479062003b5a565b60408051606081019091528060005b61ffff9081168252600060208084018290526040938401829052338083526005825284832086518154938801519790960151600160a060020a031663010000000276ffffffffffffffffffffffffffffffffffffffff00000019971515620100000262ffffff1990941696909516959095179190911794909416919091179091556009805460018101825591527f6e1540171b6c0c960b71a7020d9f60077f6af931a8bbf590da0223dacf75c7af01805473ffffffffffffffffffffffffffffffffffffffff19169091179055565b3360009081526005602052604090205462010000900460ff161515600114801562002bca57503360009081526005602052604090205461ffff16155b62002bec5760405160e560020a62461bcd028152600401620008479062003a31565b6002546040516000913391600160a060020a039091169062001a9390620033c7565b600160a060020a038116600090815260056020526040902054606090829061ffff16600114801562002c635750600160a060020a03811660009081526005602052604090205462010000900460ff1615156001145b6200212a5760405160e560020a62461bcd028152600401620008479062003985565b62002c8f620032c5565b62002cb15760405160e560020a62461bcd028152600401620008479062003b5a565b604080516060810190915280600162002abf565b600160a060020a038181166000908152600560205260409020546301000000900416331462002d0b5760405160e560020a62461bcd0281526004016200084790620039d4565b600062002d188362003216565b90508034101562002d955760405160e560020a62461bcd02815260206004820152603a60248201527f4e6563657369746173206d617320657468657273207061726120636f6d70726160448201527f7220657374612063616e746964616420646520746f6b656e732e000000000000606482015260840162000847565b600062002da3823462003bb7565b604051909150600160a060020a0384169082156108fc029083906000818181858888f1935050505015801562002ddd573d6000803e3d6000fd5b506000546040517fa9059cbb00000000000000000000000000000000000000000000000000000000815233600482015260248101869052600160a060020a039091169063a9059cbb906044016020604051808303816000875af115801562002e49573d6000803e3d6000fd5b505050506040513d601f19601f8201168201806040525081019062002e6f919062003bd1565b5050505050565b600154600160a060020a0316331462002ea65760405160e560020a62461bcd028152600401620008479062003844565b6000546040517fa0712d6800000000000000000000000000000000000000000000000000000000815261ffff83166004820152600160a060020a039091169063a0712d6890602401600060405180830381600087803b15801562002f0957600080fd5b505af115801562002f1e573d6000803e3d6000fd5b505060405161ffff841681527fa3fcbf85d2ee7bc02b55f15a3259f856a2b3489f50d6a91e302b612e43df01cb925060200190506200178c565b600160a060020a038116600090815260056020526040902054819061ffff16600114801562002faa5750600160a060020a03811660009081526005602052604090205462010000900460ff1615156001145b62002fcc5760405160e560020a62461bcd028152600401620008479062003985565b600160a060020a0382811660009081526005602052604090205463010000009004163314620030125760405160e560020a62461bcd0281526004016200084790620039d4565b600483604051620030249190620038a1565b9081526040519081900360200181205460ff6201000090910416159060049062003050908690620038a1565b9081526040519081900360200181208054921515620100000262ff000019909316929092179091557f7ea7da48cf18f9bc204a2781adfa6f4f7a2c3eb23101b97cf76fd373f029036f90620014c1906020808252603d908201527f53652068612063616d626961646f20656c2065737461646f2064656c2073657260408201527f766963696f20657370656369616c20636f7272656374616d656e74652e000000606082015260800190565b600154600160a060020a031633146200312c5760405160e560020a62461bcd028152600401620008479062003844565b6003816040516200313e9190620038a1565b9081526040519081900360200181205460ff620100009091041615906003906200316a908490620038a1565b9081526040519081900360200181208054921515620100000262ff000019909316929092179091557f7ea7da48cf18f9bc204a2781adfa6f4f7a2c3eb23101b97cf76fd373f029036f906200178c9060208082526034908201527f53652068612063616d626961646f20656c2065737461646f2064656c2073657260408201527f766963696f20636f7272656374616d656e74652e000000000000000000000000606082015260800190565b60006200154482633b9aca0062003bf5565b600160005b83518110156200115557826040516020016200324a9190620038a1565b60405160208183030381529060405280519060200120848281518110620032755762003275620038bf565b60200260200101516040516020016200328f9190620038a1565b6040516020818303038152906040528051906020012003620032b057600091505b80620032bc8162003c17565b9150506200322d565b600160005b6009548110156200332a5733600160a060020a031660098281548110620032f557620032f5620038bf565b600091825260209091200154600160a060020a0316036200331557600091505b80620033218162003c17565b915050620032ca565b5090565b8280546200333c906200394c565b90600052602060002090601f016020900481019282620033605760008555620033ab565b82601f106200337b57805160ff1916838001178555620033ab565b82800160010185558215620033ab579182015b82811115620033ab5782518255916020019190600101906200338e565b506200332a929150620033d5565b610be78062003c3483390190565b610eaa806200481b83390190565b5b808211156200332a5760008155600101620033d6565b60e060020a634e487b7102600052604160045260246000fd5b600082601f8301126200341757600080fd5b813567ffffffffffffffff80821115620034355762003435620033ec565b604051601f8301601f19908116603f01168101908282118183101715620034605762003460620033ec565b816040528381528660208588010111156200347a57600080fd5b836020870160208301376000602085830101528094505050505092915050565b600060208284031215620034ad57600080fd5b813567ffffffffffffffff811115620034c557600080fd5b620034d38482850162003405565b949350505050565b6020808252825182820181905260009190848201906040850190845b818110156200351e578351600160a060020a031683529284019291840191600101620034f7565b50909695505050505050565b8035600160a060020a038116811462000ce657600080fd5b6000602082840312156200355557600080fd5b62003560826200352a565b9392505050565b60005b83811015620035845781810151838201526020016200356a565b8381111562003594576000848401525b50505050565b60008151808452620035b481602086016020860162003567565b601f01601f19169290920160200192915050565b600060208083018184528085518083526040860191506040848202870101925083870160005b828110156200362057603f198886030184526200360d8583516200359a565b94509285019290850190600101620035ee565b5092979650505050505050565b803561ffff8116811462000ce657600080fd5b600080604083850312156200365457600080fd5b6200365f836200352a565b91506200366f602084016200362d565b90509250929050565b6020815260006200356060208301846200359a565b60008060408385031215620036a157600080fd5b823567ffffffffffffffff811115620036b957600080fd5b620036c78582860162003405565b9250506200366f602084016200352a565b60008060408385031215620036ec57600080fd5b620036f7836200352a565b946020939093013593505050565b6060815260006200371a60608301866200359a565b61ffff94909416602083015250901515604090910152919050565b600080604083850312156200374957600080fd5b823567ffffffffffffffff8111156200376157600080fd5b6200376f8582860162003405565b9250506200366f602084016200362d565b6000806000606084860312156200379657600080fd5b833567ffffffffffffffff811115620037ae57600080fd5b620037bc8682870162003405565b935050620037cd602085016200362d565b9150620037dd604085016200352a565b90509250925092565b600060208284031215620037f957600080fd5b5035919050565b600080604083850312156200381457600080fd5b823591506200366f602084016200352a565b6000602082840312156200383957600080fd5b62003560826200362d565b6020808252603c908201527f4e6f207469656e6573206c6f73207065726d69736f73206e656365736172696f60408201527f73207061726120656a65637574617220657374612066756e63696f6e00000000606082015260800190565b60008251620038b581846020870162003567565b9190910192915050565b60e060020a634e487b7102600052603260045260246000fd5b60e060020a634e487b7102600052601160045260246000fd5b600061ffff8083168181036200390b576200390b620038d8565b6001019392505050565b6020808252601c908201527f4e6f20706f736565207065726d69736f7320646520636c69656e746500000000604082015260600190565b6002810460018216806200396157607f821691505b60208210810362000e475760e060020a634e487b7102600052602260045260246000fd5b6020808252818101527f4e6f20706f736565207065726d69736f73206465206c61626f7261746f72696f604082015260600190565b600060208284031215620039cd57600080fd5b5051919050565b6020808252602f908201527f4e6f207469656e6573207065726d69736f73207061726120656a65637574617260408201527f2065737461206f7065726163696f6e0000000000000000000000000000000000606082015260800190565b6020808252604b908201527f4e6f207469656e657320686162696c697461646f20706172612063726561722060408201527f747520636f6e747261746f206f207469706f20646520636f6e747261746f206e60608201527f6f20636f696e636964652e000000000000000000000000000000000000000000608082015260a00190565b815460009081906002810460018083168062003ad157607f831692505b6020808410820362003af45760e060020a634e487b710286526022600452602486fd5b81801562003b0b576001811462003b1d5762003b4c565b60ff1986168952848901965062003b4c565b60008a81526020902060005b8681101562003b445781548b82015290850190830162003b29565b505084890196505b509498975050505050505050565b60208082526026908201527f5961207469656e657320756e61207065746963696f6e2061207475206469726560408201527f6363696f6e2e0000000000000000000000000000000000000000000000000000606082015260800190565b60008282101562003bcc5762003bcc620038d8565b500390565b60006020828403121562003be457600080fd5b815180151581146200356057600080fd5b600081600019048311821515161562003c125762003c12620038d8565b500290565b60006001820162003c2c5762003c2c620038d8565b506001019056fe608060405234801561001057600080fd5b50604051610be7380380610be783398101604081905261002f916100b8565b60008054600160a060020a0319908116600160a060020a039485161790915560018054600280549093169390941692909217905574010000000000000000000000000000000000000000600160a860020a03199092163060a060020a60ff021916179190911790556100eb565b8051600160a060020a03811681146100b357600080fd5b919050565b600080604083850312156100cb57600080fd5b6100d48361009c565b91506100e26020840161009c565b90509250929050565b610aed806100fa6000396000f3fe6080604052600436106100a3576000357c010000000000000000000000000000000000000000000000000000000090048063c98c64b711610076578063c98c64b71461014c578063cc805c201461016c578063d5808c751461017f578063e3e97a9a146101b0578063ea54d212146101d357600080fd5b8063085634ec146100a857806312494d16146100da5780638da5cb5b146100ef57806396b0e90d1461012c575b600080fd5b3480156100b457600080fd5b506100d86001805474ff000000000000000000000000000000000000000019169055565b005b3480156100e657600080fd5b506100d86101f5565b3480156100fb57600080fd5b5060005461010f90600160a060020a031681565b604051600160a060020a0390911681526020015b60405180910390f35b34801561013857600080fd5b506100d8610147366004610749565b6102bc565b34801561015857600080fd5b506100d861016736600461079d565b61036d565b6100d861017a3660046107eb565b61041f565b34801561018b57600080fd5b506001546101a09060a060020a900460ff1681565b6040519015158152602001610123565b3480156101bc57600080fd5b506101c56104e8565b604051908152602001610123565b3480156101df57600080fd5b506101e86105a5565b6040516101239190610869565b60015460a060020a900460ff1661022a5760405160e560020a62461bcd028152600401610221906108ca565b60405180910390fd5b6002546000546040517fbc224fb6000000000000000000000000000000000000000000000000000000008152600160a060020a03918216600482015291169063bc224fb6906024016000604051808303816000875af1158015610291573d6000803e3d6000fd5b505050506040513d6000823e601f3d908101601f191682016040526102b99190810190610946565b50565b60015460a060020a900460ff166102e85760405160e560020a62461bcd028152600401610221906108ca565b6002546000546040517fe6cbd058000000000000000000000000000000000000000000000000000000008152600160a060020a039283169263e6cbd058926103389286929091169060040161097b565b600060405180830381600087803b15801561035257600080fd5b505af1158015610366573d6000803e3d6000fd5b5050505050565b60015460a060020a900460ff166103995760405160e560020a62461bcd028152600401610221906108ca565b6002546000546040517f54c844fa000000000000000000000000000000000000000000000000000000008152600160a060020a03928316926354c844fa926103e9928792879216906004016109a6565b600060405180830381600087803b15801561040357600080fd5b505af1158015610417573d6000803e3d6000fd5b505050505050565b60015460a060020a900460ff1661044b5760405160e560020a62461bcd028152600401610221906108ca565b6002546000546040517f12754972000000000000000000000000000000000000000000000000000000008152600160a060020a03918216600482015261ffff841660248201529116906312754972906044016000604051808303816000875af11580156104bc573d6000803e3d6000fd5b505050506040513d6000823e601f3d908101601f191682016040526104e49190810190610946565b5050565b60015460009060a060020a900460ff166105175760405160e560020a62461bcd028152600401610221906108ca565b6002546001546040517f26c8fb70000000000000000000000000000000000000000000000000000000008152600160a060020a0391821660048201529116906326c8fb7090602401602060405180830381865afa15801561057c573d6000803e3d6000fd5b505050506040513d601f19601f820116820180604052508101906105a091906109dc565b905090565b60015460609060a060020a900460ff166105d45760405160e560020a62461bcd028152600401610221906108ca565b600260009054906101000a9004600160a060020a0316600160a060020a03166382a6f77c6040518163ffffffff167c0100000000000000000000000000000000000000000000000000000000028152600401600060405180830381865afa158015610643573d6000803e3d6000fd5b505050506040513d6000823e601f3d908101601f191682016040526105a091908101906109f5565b7f4e487b7100000000000000000000000000000000000000000000000000000000600052604160045260246000fd5b604051601f8201601f1916810167ffffffffffffffff811182821017156106c3576106c361066b565b604052919050565b600067ffffffffffffffff8211156106e5576106e561066b565b50601f01601f191660200190565b600082601f83011261070457600080fd5b8135610717610712826106cb565b61069a565b81815284602083860101111561072c57600080fd5b816020850160208301376000918101602001919091529392505050565b60006020828403121561075b57600080fd5b813567ffffffffffffffff81111561077257600080fd5b61077e848285016106f3565b949350505050565b803561ffff8116811461079857600080fd5b919050565b600080604083850312156107b057600080fd5b823567ffffffffffffffff8111156107c757600080fd5b6107d3858286016106f3565b9250506107e260208401610786565b90509250929050565b6000602082840312156107fd57600080fd5b61080682610786565b9392505050565b60005b83811015610828578181015183820152602001610810565b83811115610837576000848401525b50505050565b6000815180845261085581602086016020860161080d565b601f01601f19169290920160200192915050565b600060208083018184528085518083526040860191506040848202870101925083870160005b828110156108bd57603f198886030184526108ab85835161083d565b9450928501929085019060010161088f565b5092979650505050505050565b6020808252601c908201527f4e6f20706f73656520756e20636f6e74726163746f2061637469766f00000000604082015260600190565b600082601f83011261091257600080fd5b8151610920610712826106cb565b81815284602083860101111561093557600080fd5b61077e82602083016020870161080d565b60006020828403121561095857600080fd5b815167ffffffffffffffff81111561096f57600080fd5b61077e84828501610901565b60408152600061098e604083018561083d565b9050600160a060020a03831660208301529392505050565b6060815260006109b9606083018661083d565b905061ffff84166020830152600160a060020a0383166040830152949350505050565b6000602082840312156109ee57600080fd5b5051919050565b60006020808385031215610a0857600080fd5b825167ffffffffffffffff80821115610a2057600080fd5b818501915085601f830112610a3457600080fd5b815181811115610a4657610a4661066b565b838102610a5485820161069a565b9182528381018501918581019089841115610a6e57600080fd5b86860192505b83831015610aaa57825185811115610a8c5760008081fd5b610a9a8b89838a0101610901565b8352509186019190860190610a74565b999850505050505050505056fea26469706673582212209b42946b80374a402fc666d1563eb36d5317c948c9e26d59108e351b9421633c64736f6c634300080e0033608060405234801561001057600080fd5b50604051610eaa380380610eaa83398101604081905261002f916100b4565b60008054600160a060020a03938416600160a060020a03199182161790915560018054821630179055600280546003805490931693909416928317909155600160a860020a031990921617740100000000000000000000000000000000000000001790556100e7565b8051600160a060020a03811681146100af57600080fd5b919050565b600080604083850312156100c757600080fd5b6100d083610098565b91506100de60208401610098565b90509250929050565b610db4806100f66000396000f3fe6080604052600436106100e15760003560e060020a90048063c73e271011610083578063db8366eb1161005d578063db8366eb14610262578063de1c548814610282578063e4f05b7614610297578063ea54d212146102b757600080fd5b8063c73e2710146101ec578063d25120ce1461020e578063d5808c751461023157600080fd5b806314f52f3a116100bf57806314f52f3a146101685780632b68bb2d146101975780638da5cb5b146101ac578063a5487a03146101cc57600080fd5b8063072ec0bb146100e6578063085634ec146101235780630e662cf014610155575b600080fd5b3480156100f257600080fd5b5060025461010690600160a060020a031681565b604051600160a060020a0390911681526020015b60405180910390f35b34801561012f57600080fd5b506101536002805474ff000000000000000000000000000000000000000019169055565b005b61015361016336600461092b565b6102cc565b34801561017457600080fd5b506101886101833660046109d7565b61038a565b60405161011a93929190610ab3565b61019f610459565b60405161011a9190610ae1565b3480156101b857600080fd5b5060005461010690600160a060020a031681565b3480156101d857600080fd5b506101886101e73660046109d7565b610572565b3480156101f857600080fd5b506102016105ef565b60405161011a9190610af4565b34801561021a57600080fd5b50610223610681565b60405190815260200161011a565b34801561023d57600080fd5b506002546102529060a060020a900460ff1681565b604051901515815260200161011a565b34801561026e57600080fd5b5061015361027d3660046109d7565b610739565b34801561028e57600080fd5b506102016107be565b3480156102a357600080fd5b506101536102b23660046109d7565b610843565b3480156102c357600080fd5b50610201610893565b60025460a060020a900460ff166103015760405160e560020a62461bcd0281526004016102f890610b55565b60405180910390fd5b6003546000546040517fc625e9b100000000000000000000000000000000000000000000000000000000815261ffff84166004820152600160a060020a03918216602482015291169063c625e9b19034906044016000604051808303818588803b15801561036e57600080fd5b505af1158015610382573d6000803e3d6000fd5b505050505050565b6060600080600260149054906101000a900460ff166103be5760405160e560020a62461bcd0281526004016102f890610b55565b6003546040517f6b073db6000000000000000000000000000000000000000000000000000000008152600160a060020a0390911690636b073db690610407908790600401610ae1565b600060405180830381865afa158015610424573d6000803e3d6000fd5b505050506040513d6000823e601f3d908101601f1916820160405261044c9190810190610bd9565b9250925092509193909250565b60025460609060a060020a900460ff166104de5760405160e560020a62461bcd02815260206004820152602760248201527f4e6f20706f73656520756e20636f6e74726163746f2061637469766f2061206360448201527f616e63656c61720000000000000000000000000000000000000000000000000060648201526084016102f8565b6003546000546040517f62909f93000000000000000000000000000000000000000000000000000000008152600160a060020a0391821660048201529116906362909f93906024016000604051808303816000875af1158015610545573d6000803e3d6000fd5b505050506040513d6000823e601f3d908101601f1916820160405261056d9190810190610c43565b905090565b6060600080600260149054906101000a900460ff166105a65760405160e560020a62461bcd0281526004016102f890610b55565b6003546040517f37cf7793000000000000000000000000000000000000000000000000000000008152600160a060020a03909116906337cf779390610407908790600401610ae1565b6003546000546040517f05c713c6000000000000000000000000000000000000000000000000000000008152600160a060020a03918216600482015260609291909116906305c713c690602401600060405180830381865afa158015610659573d6000803e3d6000fd5b505050506040513d6000823e601f3d908101601f1916820160405261056d9190810190610c78565b60025460009060a060020a900460ff166106b05760405160e560020a62461bcd0281526004016102f890610b55565b6003546001546040517f26c8fb70000000000000000000000000000000000000000000000000000000008152600160a060020a0391821660048201529116906326c8fb7090602401602060405180830381865afa158015610715573d6000803e3d6000fd5b505050506040513d601f19601f8201168201806040525081019061056d9190610d3a565b6003546000546040517f161e9e23000000000000000000000000000000000000000000000000000000008152600160a060020a039283169263161e9e239261078992869290911690600401610d53565b600060405180830381600087803b1580156107a357600080fd5b505af11580156107b7573d6000803e3d6000fd5b5050505050565b60025460609060a060020a900460ff166107ed5760405160e560020a62461bcd0281526004016102f890610b55565b600360009054906101000a9004600160a060020a0316600160a060020a0316639da1ec6b6040518163ffffffff1660e060020a028152600401600060405180830381865afa158015610659573d6000803e3d6000fd5b6003546000546040517f7748d3c4000000000000000000000000000000000000000000000000000000008152600160a060020a0392831692637748d3c49261078992869290911690600401610d53565b60025460609060a060020a900460ff166108c25760405160e560020a62461bcd0281526004016102f890610b55565b600360009054906101000a9004600160a060020a0316600160a060020a0316635b14ce066040518163ffffffff1660e060020a028152600401600060405180830381865afa158015610659573d6000803e3d6000fd5b61ffff8116811461092857600080fd5b50565b60006020828403121561093d57600080fd5b813561094881610918565b9392505050565b7f4e487b7100000000000000000000000000000000000000000000000000000000600052604160045260246000fd5b604051601f8201601f1916810167ffffffffffffffff811182821017156109a7576109a761094f565b604052919050565b600067ffffffffffffffff8211156109c9576109c961094f565b50601f01601f191660200190565b6000602082840312156109e957600080fd5b813567ffffffffffffffff811115610a0057600080fd5b8201601f81018413610a1157600080fd5b8035610a24610a1f826109af565b61097e565b818152856020838501011115610a3957600080fd5b81602084016020830137600091810160200191909152949350505050565b60005b83811015610a72578181015183820152602001610a5a565b83811115610a81576000848401525b50505050565b60008151808452610a9f816020860160208601610a57565b601f01601f19169290920160200192915050565b606081526000610ac66060830186610a87565b61ffff94909416602083015250901515604090910152919050565b6020815260006109486020830184610a87565b600060208083018184528085518083526040860191506040848202870101925083870160005b82811015610b4857603f19888603018452610b36858351610a87565b94509285019290850190600101610b1a565b5092979650505050505050565b6020808252601c908201527f4e6f20706f73656520756e20636f6e74726163746f2061637469766f00000000604082015260600190565b600082601f830112610b9d57600080fd5b8151610bab610a1f826109af565b818152846020838601011115610bc057600080fd5b610bd1826020830160208701610a57565b949350505050565b600080600060608486031215610bee57600080fd5b835167ffffffffffffffff811115610c0557600080fd5b610c1186828701610b8c565b9350506020840151610c2281610918565b60408501519092508015158114610c3857600080fd5b809150509250925092565b600060208284031215610c5557600080fd5b815167ffffffffffffffff811115610c6c57600080fd5b610bd184828501610b8c565b60006020808385031215610c8b57600080fd5b825167ffffffffffffffff80821115610ca357600080fd5b818501915085601f830112610cb757600080fd5b815181811115610cc957610cc961094f565b838102610cd785820161097e565b9182528381018501918581019089841115610cf157600080fd5b86860192505b83831015610d2d57825185811115610d0f5760008081fd5b610d1d8b89838a0101610b8c565b8352509186019190860190610cf7565b9998505050505050505050565b600060208284031215610d4c57600080fd5b5051919050565b604081526000610d666040830185610a87565b9050600160a060020a0383166020830152939250505056fea2646970667358221220148921eb33f009340a56d106a71f1bcb9cb1c9138dc6b2cacdd13f9e776d6db664736f6c634300080e0033547520636f6e747261746f206861207369646f2063616e63656c61646f20792074752064696e65726f2064657675656c746f20612074752077616c6c6574a26469706673582212202d88e7850ee57a8a779dcfd050f08b27f88146ab12dc89c7d39decc0677b6bc164736f6c634300080e003360806040523480156200001157600080fd5b5060405162000a3438038062000a348339810160408190526200003491620001f4565b81516200004990600290602085019062000068565b5080516200005f90600390602084019062000068565b505050620002b3565b82805462000076906200025e565b90600052602060002090601f0160209004810192826200009a5760008555620000e5565b82601f10620000b557805160ff1916838001178555620000e5565b82800160010185558215620000e5579182015b82811115620000e5578251825591602001919060010190620000c8565b50620000f3929150620000f7565b5090565b5b80821115620000f35760008155600101620000f8565b7f4e487b7100000000000000000000000000000000000000000000000000000000600052604160045260246000fd5b600082601f8301126200014f57600080fd5b81516001604060020a03808211156200016c576200016c6200010e565b604051601f8301601f19908116603f011681019082821181831017156200019757620001976200010e565b81604052838152602092508683858801011115620001b457600080fd5b600091505b83821015620001d85785820183015181830184015290820190620001b9565b83821115620001ea5760008385830101525b9695505050505050565b600080604083850312156200020857600080fd5b82516001604060020a03808211156200022057600080fd5b6200022e868387016200013d565b935060208501519150808211156200024557600080fd5b5062000254858286016200013d565b9150509250929050565b6002810460018216806200027357607f821691505b602082108103620002ad577f4e487b7100000000000000000000000000000000000000000000000000000000600052602260045260246000fd5b50919050565b61077180620002c36000396000f3fe608060405234801561001057600080fd5b506004361061009a576000357c01000000000000000000000000000000000000000000000000000000009004806370a082311161007857806370a08231146100e457806395d89b411461010d578063a0712d6814610115578063a9059cbb1461012857600080fd5b806306fdde031461009f57806318160ddd146100bd57806351ce139a146100cf575b600080fd5b6100a761014b565b6040516100b49190610578565b60405180910390f35b6001545b6040519081526020016100b4565b6100e26100dd3660046105e9565b6101dd565b005b6100c16100f2366004610625565b600160a060020a031660009081526020819052604090205490565b6100a761023c565b6100e2610123366004610647565b61024b565b61013b610136366004610660565b610258565b60405190151581526020016100b4565b60606002805461015a9061068a565b80601f01602080910402602001604051908101604052809291908181526020018280546101869061068a565b80156101d35780601f106101a8576101008083540402835291602001916101d3565b820191906000526020600020905b8154815290600101906020018083116101b657829003601f168201915b5050505050905090565b600160a060020a0383166000908152602081905260408120805483929061020590849061070c565b9091555050600160a060020a03821660009081526020819052604081208054839290610232908490610723565b9091555050505050565b60606003805461015a9061068a565b6102553382610270565b50565b600033610266818585610357565b5060019392505050565b600160a060020a0382166102ce5760405160e560020a62461bcd02815260206004820152601f60248201527f45524332303a206d696e7420746f20746865207a65726f20616464726573730060448201526064015b60405180910390fd5b80600160008282546102e09190610723565b9091555050600160a060020a0382166000908152602081905260408120805483929061030d908490610723565b9091555050604051818152600160a060020a038316906000907fddf252ad1be2c89b69c2b068fc378daa952ba7f163c4a11628f55a4df523b3ef9060200160405180910390a35050565b600160a060020a0383166103d65760405160e560020a62461bcd02815260206004820152602560248201527f45524332303a207472616e736665722066726f6d20746865207a65726f20616460448201527f647265737300000000000000000000000000000000000000000000000000000060648201526084016102c5565b600160a060020a0382166104555760405160e560020a62461bcd02815260206004820152602360248201527f45524332303a207472616e7366657220746f20746865207a65726f206164647260448201527f657373000000000000000000000000000000000000000000000000000000000060648201526084016102c5565b600160a060020a038316600090815260208190526040902054818110156104e75760405160e560020a62461bcd02815260206004820152602660248201527f45524332303a207472616e7366657220616d6f756e742065786365656473206260448201527f616c616e6365000000000000000000000000000000000000000000000000000060648201526084016102c5565b600160a060020a0380851660009081526020819052604080822085850390559185168152908120805484929061051e908490610723565b9250508190555082600160a060020a031684600160a060020a03167fddf252ad1be2c89b69c2b068fc378daa952ba7f163c4a11628f55a4df523b3ef8460405161056a91815260200190565b60405180910390a350505050565b600060208083528351808285015260005b818110156105a557858101830151858201604001528201610589565b818111156105b7576000604083870101525b50601f01601f1916929092016040019392505050565b8035600160a060020a03811681146105e457600080fd5b919050565b6000806000606084860312156105fe57600080fd5b610607846105cd565b9250610615602085016105cd565b9150604084013590509250925092565b60006020828403121561063757600080fd5b610640826105cd565b9392505050565b60006020828403121561065957600080fd5b5035919050565b6000806040838503121561067357600080fd5b61067c836105cd565b946020939093013593505050565b60028104600182168061069e57607f821691505b6020821081036106d7577f4e487b7100000000000000000000000000000000000000000000000000000000600052602260045260246000fd5b50919050565b7f4e487b7100000000000000000000000000000000000000000000000000000000600052601160045260246000fd5b60008282101561071e5761071e6106dd565b500390565b60008219821115610736576107366106dd565b50019056fea2646970667358221220ece6a1c0d07c7c3fc4fe4397433f7220fdc263e36317139682a78afcefca1ff664736f6c634300080e0033",
  "immutableReferences": {},
  "source": "// SPDX-License-Identifier: MIT\npragma solidity >=0.7.0 < 0.9.0;\nimport \"../Token/ERC20.sol\";\nimport \"./IInsuranceRocketCompany.sol\";\nimport \"./InsuranceClientRocketCompany.sol\";\nimport \"./InsuranceLaboratoryRocketCompany.sol\";\n\ncontract InsuranceRocketCompany is InterfaceRocket{\n    //Token\n    ERC20Rocket token;\n    address public owner;\n    address public addressContract;\n\n    constructor() {\n        token = new ERC20Rocket(\"MedicineRocket\", \"MR\");\n        token.mint(10000);\n\n        owner = msg.sender;\n        addressContract = address(this);\n    }\n\n    //Funcion Ether balance\n    function BalanceContractEthers ()public view returns(uint){\n        return addressContract.balance;\n    }\n\n    //---------------------------------------Modifiers---------------------------------------\n    modifier onlyOwner {\n        require(msg.sender == owner, \"No tienes los permisos necesarios para ejecutar esta funcion\");\n        _;\n    }\n\n    modifier onlyLaboratories(address ownerLaboratory) {\n        require (\n            RequestStatus[ownerLaboratory].requestType == uint16(1) && RequestStatus[ownerLaboratory].statusRequest == true,\n            \"No posee permisos de laboratorio\"\n        );\n        _;\n    }\n\n    modifier onlyClient(address _userWallet){\n        require (\n            RequestStatus[_userWallet].requestType == uint16(0) && RequestStatus[_userWallet].statusRequest == true,\n            \"No posee permisos de cliente\"\n        );\n        _;        \n    }\n\n    //---------------------------------------Funciones validadoras---------------------------------------\n\n    //Funcion para validar que el nombre de servicio ya no exista\n    function checkRepeatService(string [] memory services, string memory _name) private pure returns(bool identifier){\n        identifier = true;\n\n        for(uint i = 0; i < services.length; i++){\n            if(keccak256(abi.encodePacked(services[i])) == keccak256(abi.encodePacked(_name))){\n                identifier = false;\n            }\n        }\n    }\n\n    //---------------------------------------Mappings---------------------------------------\n    //Mapping para relacionar el nombre de un servicio con su estructura de datos\n    mapping(string => Service) public Services;\n\n    //Mapping para guardar los servicios especializados de laboratorios externos\n    mapping(string => SpecialService) public SpecialServices;\n\n    //Mapping que relaciona la address con la peticion\n    mapping(address => Request) public RequestStatus;\n\n    //Mapping que relacion un address de cada usuario con su historial de servicios\n    mapping(address => string []) public servicesClientHistory;\n\n    //---------------------------------------Enums---------------------------------------\n    //Enum para clasificar el tipo de peticion de suscripcion\n    enum RequestType { CLIENT, LABORATORY }\n\n    //---------------------------------------Arrays---------------------------------------\n    //Array para almacenar el listado de los servicios\n    string[] public listServices;\n\n    //Array para almacenar el listado de los servicios especiales de los laboratorios\n    string[] public listSpecialServices;\n\n    //Array para almacenar las peticiones de suscripcion de clientes\n    address[] requestMixed;\n\n    //---------------------------------------Funciones de tokens----------------------------------------------------\n\n    //Funcion para recargar tokens al contrato\n    function rechargeTokens(uint16 _amount) public override onlyOwner {\n        token.mint(_amount);\n\n        emit rechargeTokensEvent(_amount);\n    }\n\n    //Funcion ver tokens de contrato principal\n    function balanceContractTokens() public view returns(uint){\n        uint balance = token.balanceOf(addressContract);\n\n        return balance;\n    }\n\n    //Funcion para convertir el precio de tokens a ethers\n    function tokenToGwei(uint _quantity) private pure returns(uint){\n        return _quantity * (1 gwei);\n    } \n\n    //Funcion para comprar tokens\n    function buyTokens(uint _quantity, address ownerClient) public payable {\n        require(RequestStatus[ownerClient].addressContract == msg.sender, \"No tienes permisos para ejecutar esta operacion\");\n\n        uint cost = tokenToGwei(_quantity);\n        require(msg.value >= cost, \"Necesitas mas ethers para comprar esta cantidad de tokens.\");\n\n        uint returnValue = msg.value - cost;\n        payable(ownerClient).transfer(returnValue);\n        token.transfer(msg.sender, _quantity );\n    }\n\n    //Funcion para recibir pagos\n    receive() external payable{}\n    fallback ()external payable{}\n\n    //---------------------------------------Funciones para contrato principal---------------------------------------\n\n    //Funcion para ver el listado de servicios activos\n    function showActivedServices() public view override returns(string[] memory){\n        string[] memory activedServices = new string[] (listServices.length);\n        uint16 counter = 0;\n\n        for(uint16 i = 0; i < listServices.length; i++){\n            if(Services[listServices[i]].statusService == true){\n                activedServices[counter] = listServices[i];\n                counter++;\n            }\n        }\n\n        return activedServices;       \n    }\n\n    //Funcion para ver el listado de servicios especiales activos\n    function showActivedSpecialServices() public view returns(string[] memory){\n        string[] memory activedServices = new string[] (listSpecialServices.length);\n        uint16 counter = 0;\n\n        for(uint16 i = 0; i < listSpecialServices.length; i++){\n            if(SpecialServices[listSpecialServices[i]].statusService == true){\n                activedServices[counter] = listSpecialServices[i];\n                counter++;\n            }\n        }\n\n        return activedServices;       \n    }\n\n    //Funcion para mostrar un servicio por su nombre\n    //function showService(string memory _name) public view override returns(Service memory){return Services[_name];} \n    function showServiceDetails(string memory _name) public view override returns(string memory, uint16, bool){\n        return (_name, Services[_name].priceService, Services[_name].statusService);\n    }\n\n    //Funcion para mostrar un servicio por su nombre\n    function showSpecialServiceDetails(string memory _name) public view  returns(string memory, uint16, bool){\n        return (_name, SpecialServices[_name].priceService, SpecialServices[_name].statusService);\n    }\n\n    //? para que lo uso\n    //Funcion para revisar el numero de contrato de cada cliente\n    function checkNumberContract() public view returns(address){\n        return RequestStatus[msg.sender].addressContract;\n    }\n\n    //Funcion para ver saldo de Cliente\n    function balanceContractUser(address _addr) public view returns (uint){\n        return token.balanceOf(_addr);\n    }\n\n\n    //Funcion para saber el role y el status de cada usuario o laboratorio\n    function showStatusAndRole() public view returns(uint16, bool){\n        //Agragar require que pregunte si existe o no y validar\n        return (RequestStatus[msg.sender].requestType, RequestStatus[msg.sender].statusRequest);\n    }\n\n\n    //---------------------------------------Funciones para el admin ---------------------------------------\n\n    //Funcion para ver las solicitudes pendientes\n    function showPendingRequest(string memory _type) public view override onlyOwner returns(address[] memory) {\n        require(keccak256(abi.encodePacked(_type)) == keccak256(abi.encodePacked(\"Client\")) || keccak256(abi.encodePacked(_type)) == keccak256(abi.encodePacked(\"Laboratory\")), \"El tipo ingresado no es correcto\");\n        \n        uint16 counter;\n        address[] memory pendingRequests = new address[] (requestMixed.length);\n\n        if(keccak256(abi.encodePacked(_type)) == keccak256(abi.encodePacked(\"Client\"))){\n            for(uint16 i = 0; i < requestMixed.length; i++){\n                if(RequestStatus[requestMixed[i]].statusRequest == false && RequestStatus[requestMixed[i]].requestType == uint16(0)){\n                    pendingRequests[counter] = requestMixed[i];\n                    counter++;\n                }\n            }\n        }else{\n            for(uint16 i = 0; i < requestMixed.length; i++){\n                if(RequestStatus[requestMixed[i]].statusRequest == false  && RequestStatus[requestMixed[i]].requestType == uint16(1)){\n                    pendingRequests[counter] = requestMixed[i];\n                    counter++;\n                }\n            }\n        }\n        \n        return pendingRequests;\n    }\n\n    //Funcion para habilitar un cliente o laboratorio\n    function enableSubscription(address _addr) public override onlyOwner{\n        RequestStatus[_addr].statusRequest = true;\n\n        emit enableSubscriptionEvent(\"Se ha habilitado un cliente o suscripcion\");\n    }\n\n    //Funcion para cambiar el estado de los servicios\n    function changeStatusService(string memory _name) public override onlyOwner{\n        Services[_name].statusService = !Services[_name].statusService;\n\n        emit changeStatusServiceEvent(\"Se ha cambiado el estado del servicio correctamente.\");\n    }\n\n    //Funcion para crear servicios\n    function createService(string memory _name, uint16 _price) public override onlyOwner{\n        require(checkRepeatService(listServices, _name), \"Nombre de servicios ya existe.\");\n\n        Services[_name] = Service(_price, true);\n        listServices.push(_name);\n\n        emit createServiceEvent(\"Se ha creado un nuevo servicio.\");\n    }\n\n    // ? el admin no se si la use\n    //Funcion para saber si una cuenta tiene ya una peticion\n    function checkRepeatRequest() private view returns(bool identifier){\n        identifier = true;\n\n        for(uint i = 0; i < requestMixed.length; i++){\n            if(requestMixed[i] == msg.sender){\n                identifier = false;\n            }\n        }\n    }\n\n    //---------------------------------------Contrato clientes---------------------------------------\n\n    //Funcion para solicitar una suscripcion para un cliente\n    function requestSubscriptionClient() public override {\n        require(checkRepeatRequest(), \"Ya tienes una peticion a tu direccion.\");\n        RequestStatus[msg.sender] = Request(uint16(RequestType.CLIENT), false, address(0));\n        requestMixed.push(msg.sender);\n    }\n\n    //Funcion para creacion de contrato de Cliente\n    function createClientFactory() public {\n        require(RequestStatus[msg.sender].statusRequest == true && RequestStatus[msg.sender].requestType == 0, \"No tienes habilitado para crear tu contrato o tipo de contrato no coincide.\");\n\n        address clientAddressContract = address(new Client(msg.sender, addressContract));\n        RequestStatus[msg.sender].addressContract = clientAddressContract;\n\n        emit createFactoryEvent(\"Contrato creado\", clientAddressContract);\n    }\n\n    //Funcion cancelar contrato de un Client\n    function cancelContractClient(address _userWallet) external payable onlyClient(_userWallet) returns(string memory){\n        require(RequestStatus[_userWallet].addressContract == msg.sender, \"No tienes permisos para ejecutar esta operacion\");\n\n        Client ClientContract = Client(msg.sender);\n        ClientContract.changeStatus ();\n\n        if (token.balanceOf(msg.sender) > 0 ) {\n            uint balanceUserTokens = token.balanceOf(msg.sender);\n            token.transferTokenRocket(msg.sender,addressContract, balanceUserTokens );\n            payable (_userWallet).transfer(tokenToGwei(balanceUserTokens));\n\n            return \"Tu contrato ha sido cancelado y tu dinero devuelto a tu wallet\";\n        }else{\n            return \"Tu contrato ha sido cancelado\";\n        }\n    }\n\n    //Funcion para asginar un servicio a un cliente\n    function asignServiceClient(string memory _nameService, address _userWallet) external onlyClient(_userWallet) {\n        require(RequestStatus[_userWallet].addressContract == msg.sender, \"No tienes permisos para ejecutar esta operacion\");\n        require (Services[_nameService].statusService == true, \"Servicio no disponible\");\n        require (Services[_nameService].priceService <= token.balanceOf(msg.sender), \"No posee fondos sufiecientes\");\n\n        token.transferTokenRocket(msg.sender,addressContract, Services[_nameService].priceService);\n        servicesClientHistory[msg.sender].push(_nameService);\n\n        emit asignServiceClientEvent (\"Servicio asginado correctamente\", msg.sender);\n    }\n\n    //Funcion para mostrar los servicios de un Cliente\n    function showServicesClient(address _userWallet) external view onlyClient(_userWallet) returns(string [] memory){\n        return servicesClientHistory[msg.sender];\n    }\n\n    //Funcion para asginar un servicio especial a un cliente\n    function asignSpecialServiceClient(string memory _nameService, address _userWallet) external onlyClient(_userWallet) {\n        require(RequestStatus[_userWallet].addressContract == msg.sender, \"No tienes permisos para ejecutar esta operacion\");\n        require (SpecialServices[_nameService].statusService == true, \"Servicio no disponible\");\n        require (SpecialServices[_nameService].priceService <= token.balanceOf(msg.sender), \"No posee fondos suficientes\");\n\n        token.transferTokenRocket(msg.sender,SpecialServices[_nameService].laboratory, SpecialServices[_nameService].priceService);\n        servicesClientHistory[msg.sender].push(_nameService);\n\n        emit asignServiceClientEvent (\"Servicio asginado correctamente\", msg.sender);\n    }\n\n    //---------------------------------------Contratos laboratorios---------------------------------------\n\n    //Funcion para solicitar una suscripcion para un laboratorio\n    function requestSubscriptionLaboratory() public override {\n        require(checkRepeatRequest(), \"Ya tienes una peticion a tu direccion.\");\n        \n        RequestStatus[msg.sender] = Request(uint16(RequestType.LABORATORY), false, address(0));\n        requestMixed.push(msg.sender);\n    }\n\n    //Funcion para crear el contrato de un laboratorio cuando ya est habilitado\n    function createLaboratoryFactory() public {\n        require(RequestStatus[msg.sender].statusRequest == true && RequestStatus[msg.sender].requestType == 1, \"No tienes habilitado para crear tu contrato o tipo de contrato no coincide.\");\n\n        address laboratoryAddressContract = address(new Laboratory(msg.sender, addressContract ));\n        RequestStatus[msg.sender].addressContract = laboratoryAddressContract;\n\n        emit createFactoryEvent(\"Contrato creado\", laboratoryAddressContract);\n    }\n\n    //Funcion para crear servicios especiales\n    function createSpecialService(string memory _name, uint16 _price, address ownerLaboratory) external onlyLaboratories(ownerLaboratory) {\n        require(checkRepeatService(listSpecialServices, _name), \"Nombre de servicios ya existe.\");\n        require(RequestStatus[ownerLaboratory].addressContract == msg.sender, \"No tienes permisos para ejecutar esta operacion\");\n\n        SpecialServices[_name] = SpecialService(_price, true, msg.sender);\n        listSpecialServices.push(_name);\n\n        emit createServiceEvent(\"Se ha creado un nuevo servicio especial.\");\n    }\n\n    //Funcion para cambiar el estado de los servicios especiales\n    function changeStatusServiceLaboratory(string memory _name, address ownerLaboratory) external onlyLaboratories(ownerLaboratory){\n        require(RequestStatus[ownerLaboratory].addressContract == msg.sender, \"No tienes permisos para ejecutar esta operacion\");\n\n        SpecialServices[_name].statusService = !SpecialServices[_name].statusService;\n\n        emit changeStatusServiceEvent(\"Se ha cambiado el estado del servicio especial correctamente.\");\n    } \n\n    //Funcion cancelar contrato de laborario\n    function cancelContractLaboratory(address _laboratory) external payable onlyLaboratories(_laboratory) returns(string memory){\n        require(RequestStatus[_laboratory].addressContract == msg.sender, \"No tienes permisos para ejecutar esta operacion\");\n\n        Laboratory LaboratoryContract = Laboratory(msg.sender);\n        LaboratoryContract.changeStatus ();\n\n        if (token.balanceOf(msg.sender) > 0 ) {\n            uint balanceLaboratyTokens = token.balanceOf(msg.sender);\n            token.transferTokenRocket(msg.sender, addressContract, balanceLaboratyTokens );\n            payable (_laboratory).transfer(tokenToGwei(balanceLaboratyTokens));\n\n            return \"Tu contrato ha sido cancelado y tu dinero devuelto a tu wallet\";\n        }else{\n            return \"Tu contrato ha sido cancelado\";\n        }\n    }\n\n    //Funcion para canjear sus tokens por dinero\n    function withdrawBalanceLaboratory(address _laboratoryWallet, uint16 _quantityTokens) external payable onlyLaboratories(_laboratoryWallet) returns(string memory){\n        require (token.balanceOf(msg.sender) > 0, \"No posee balance suficiente\");\n \n        uint balanceLaboratyTokens = token.balanceOf(msg.sender);\n        if(balanceLaboratyTokens >= _quantityTokens){\n            token.transferTokenRocket(msg.sender, addressContract, _quantityTokens);\n            payable(_laboratoryWallet).transfer(tokenToGwei(_quantityTokens));\n\n            return \"tu retiro ha sido exitoso\";\n        }\n\n        return \"No tiene fondos suficientes.\";\n    }\n\n    //Funcion para que cada laboratorio pueda ver sus servicios\n    function showMyActivedSpecialServices() external view returns(string[] memory){\n        string[] memory activedSpecialServices = new string[] (listSpecialServices.length);\n        uint16 counter = 0;\n\n        for(uint16 i = 0; i < listSpecialServices.length; i++){\n            if(SpecialServices[listSpecialServices[i]].laboratory == msg.sender){\n                activedSpecialServices[counter] = listSpecialServices[i];\n                counter++;\n            }\n        }\n\n        return activedSpecialServices;\n    }\n}",
  "sourcePath": "/home/xdx/Escritorio/Solidity proyects/sistema_salud_full/contracts/System/Company/InsuranceRocketCompany.sol",
  "compiler": {
    "name": "solc",
    "version": "0.8.14+commit.80d49f37.Emscripten.clang"
  },
  "schemaVersion": "3.4.7",
  "updatedAt": "2022-07-05T03:52:04.289Z",
  "networkType": "ethereum",
  "devdoc": {
    "kind": "dev",
    "methods": {},
    "version": 1
  },
  "userdoc": {
    "kind": "user",
    "methods": {},
    "version": 1
  }
}