{
  "contractName": "InsuranceRocketCompany",
  "abi": [
    {
      "inputs": [],
      "stateMutability": "nonpayable",
      "type": "constructor"
    },
    {
      "anonymous": false,
      "inputs": [
        {
          "indexed": false,
          "internalType": "string",
          "name": "",
          "type": "string"
        }
      ],
      "name": "asignServiceClientEvent",
      "type": "event"
    },
    {
      "anonymous": false,
      "inputs": [
        {
          "indexed": false,
          "internalType": "string",
          "name": "",
          "type": "string"
        }
      ],
      "name": "changeStatusServiceEvent",
      "type": "event"
    },
    {
      "anonymous": false,
      "inputs": [
        {
          "indexed": false,
          "internalType": "string",
          "name": "",
          "type": "string"
        },
        {
          "indexed": false,
          "internalType": "address",
          "name": "",
          "type": "address"
        }
      ],
      "name": "createFactoryEvent",
      "type": "event"
    },
    {
      "anonymous": false,
      "inputs": [
        {
          "indexed": false,
          "internalType": "string",
          "name": "",
          "type": "string"
        }
      ],
      "name": "createFactoryEvent",
      "type": "event"
    },
    {
      "anonymous": false,
      "inputs": [
        {
          "indexed": false,
          "internalType": "string",
          "name": "",
          "type": "string"
        }
      ],
      "name": "createServiceEvent",
      "type": "event"
    },
    {
      "anonymous": false,
      "inputs": [
        {
          "indexed": false,
          "internalType": "string",
          "name": "",
          "type": "string"
        }
      ],
      "name": "enableSubscriptionEvent",
      "type": "event"
    },
    {
      "anonymous": false,
      "inputs": [
        {
          "indexed": false,
          "internalType": "uint16",
          "name": "",
          "type": "uint16"
        }
      ],
      "name": "rechargeTokensEvent",
      "type": "event"
    },
    {
      "stateMutability": "payable",
      "type": "fallback",
      "payable": true
    },
    {
      "inputs": [
        {
          "internalType": "address",
          "name": "",
          "type": "address"
        }
      ],
      "name": "RequestStatus",
      "outputs": [
        {
          "internalType": "uint16",
          "name": "requestType",
          "type": "uint16"
        },
        {
          "internalType": "bool",
          "name": "statusRequest",
          "type": "bool"
        },
        {
          "internalType": "address",
          "name": "addressContract",
          "type": "address"
        },
        {
          "internalType": "bool",
          "name": "isRequest",
          "type": "bool"
        }
      ],
      "stateMutability": "view",
      "type": "function",
      "constant": true
    },
    {
      "inputs": [
        {
          "internalType": "string",
          "name": "",
          "type": "string"
        }
      ],
      "name": "Services",
      "outputs": [
        {
          "internalType": "string",
          "name": "name",
          "type": "string"
        },
        {
          "internalType": "uint16",
          "name": "priceService",
          "type": "uint16"
        },
        {
          "internalType": "bool",
          "name": "statusService",
          "type": "bool"
        }
      ],
      "stateMutability": "view",
      "type": "function",
      "constant": true
    },
    {
      "inputs": [
        {
          "internalType": "string",
          "name": "",
          "type": "string"
        }
      ],
      "name": "SpecialServices",
      "outputs": [
        {
          "internalType": "uint16",
          "name": "priceService",
          "type": "uint16"
        },
        {
          "internalType": "bool",
          "name": "statusService",
          "type": "bool"
        },
        {
          "internalType": "address",
          "name": "laboratory",
          "type": "address"
        }
      ],
      "stateMutability": "view",
      "type": "function",
      "constant": true
    },
    {
      "inputs": [],
      "name": "addressContract",
      "outputs": [
        {
          "internalType": "address",
          "name": "",
          "type": "address"
        }
      ],
      "stateMutability": "view",
      "type": "function",
      "constant": true
    },
    {
      "inputs": [
        {
          "internalType": "uint256",
          "name": "",
          "type": "uint256"
        }
      ],
      "name": "listServices",
      "outputs": [
        {
          "internalType": "string",
          "name": "",
          "type": "string"
        }
      ],
      "stateMutability": "view",
      "type": "function",
      "constant": true
    },
    {
      "inputs": [
        {
          "internalType": "uint256",
          "name": "",
          "type": "uint256"
        }
      ],
      "name": "listSpecialServices",
      "outputs": [
        {
          "internalType": "string",
          "name": "",
          "type": "string"
        }
      ],
      "stateMutability": "view",
      "type": "function",
      "constant": true
    },
    {
      "inputs": [],
      "name": "owner",
      "outputs": [
        {
          "internalType": "address",
          "name": "",
          "type": "address"
        }
      ],
      "stateMutability": "view",
      "type": "function",
      "constant": true
    },
    {
      "inputs": [
        {
          "internalType": "address",
          "name": "",
          "type": "address"
        },
        {
          "internalType": "uint256",
          "name": "",
          "type": "uint256"
        }
      ],
      "name": "servicesClientHistory",
      "outputs": [
        {
          "internalType": "string",
          "name": "",
          "type": "string"
        }
      ],
      "stateMutability": "view",
      "type": "function",
      "constant": true
    },
    {
      "stateMutability": "payable",
      "type": "receive",
      "payable": true
    },
    {
      "inputs": [],
      "name": "BalanceContractEthers",
      "outputs": [
        {
          "internalType": "uint256",
          "name": "",
          "type": "uint256"
        }
      ],
      "stateMutability": "view",
      "type": "function",
      "constant": true
    },
    {
      "inputs": [
        {
          "internalType": "uint16",
          "name": "_amount",
          "type": "uint16"
        }
      ],
      "name": "rechargeTokens",
      "outputs": [],
      "stateMutability": "nonpayable",
      "type": "function"
    },
    {
      "inputs": [],
      "name": "balanceContractTokens",
      "outputs": [
        {
          "internalType": "uint256",
          "name": "",
          "type": "uint256"
        }
      ],
      "stateMutability": "view",
      "type": "function",
      "constant": true
    },
    {
      "inputs": [
        {
          "internalType": "uint256",
          "name": "_quantity",
          "type": "uint256"
        },
        {
          "internalType": "address",
          "name": "ownerClient",
          "type": "address"
        }
      ],
      "name": "buyTokens",
      "outputs": [],
      "stateMutability": "payable",
      "type": "function",
      "payable": true
    },
    {
      "inputs": [],
      "name": "showActivedServices",
      "outputs": [
        {
          "internalType": "string[]",
          "name": "",
          "type": "string[]"
        }
      ],
      "stateMutability": "view",
      "type": "function",
      "constant": true
    },
    {
      "inputs": [],
      "name": "showActivedSpecialServices",
      "outputs": [
        {
          "internalType": "string[]",
          "name": "",
          "type": "string[]"
        }
      ],
      "stateMutability": "view",
      "type": "function",
      "constant": true
    },
    {
      "inputs": [
        {
          "internalType": "string",
          "name": "_name",
          "type": "string"
        }
      ],
      "name": "showServiceDetails",
      "outputs": [
        {
          "internalType": "string",
          "name": "",
          "type": "string"
        },
        {
          "internalType": "uint16",
          "name": "",
          "type": "uint16"
        },
        {
          "internalType": "bool",
          "name": "",
          "type": "bool"
        }
      ],
      "stateMutability": "view",
      "type": "function",
      "constant": true
    },
    {
      "inputs": [
        {
          "internalType": "string",
          "name": "_name",
          "type": "string"
        }
      ],
      "name": "showSpecialServiceDetails",
      "outputs": [
        {
          "internalType": "string",
          "name": "",
          "type": "string"
        },
        {
          "internalType": "uint16",
          "name": "",
          "type": "uint16"
        },
        {
          "internalType": "bool",
          "name": "",
          "type": "bool"
        }
      ],
      "stateMutability": "view",
      "type": "function",
      "constant": true
    },
    {
      "inputs": [],
      "name": "checkNumberContract",
      "outputs": [
        {
          "internalType": "address",
          "name": "",
          "type": "address"
        }
      ],
      "stateMutability": "view",
      "type": "function",
      "constant": true
    },
    {
      "inputs": [
        {
          "internalType": "address",
          "name": "_addr",
          "type": "address"
        }
      ],
      "name": "balanceContractUser",
      "outputs": [
        {
          "internalType": "uint256",
          "name": "",
          "type": "uint256"
        }
      ],
      "stateMutability": "view",
      "type": "function",
      "constant": true
    },
    {
      "inputs": [],
      "name": "showStatusAndRole",
      "outputs": [
        {
          "internalType": "uint16",
          "name": "",
          "type": "uint16"
        },
        {
          "internalType": "bool",
          "name": "",
          "type": "bool"
        },
        {
          "internalType": "bool",
          "name": "",
          "type": "bool"
        }
      ],
      "stateMutability": "view",
      "type": "function",
      "constant": true
    },
    {
      "inputs": [
        {
          "internalType": "string",
          "name": "_type",
          "type": "string"
        }
      ],
      "name": "showPendingRequest",
      "outputs": [
        {
          "internalType": "address[]",
          "name": "",
          "type": "address[]"
        }
      ],
      "stateMutability": "view",
      "type": "function",
      "constant": true
    },
    {
      "inputs": [
        {
          "internalType": "address",
          "name": "_addr",
          "type": "address"
        }
      ],
      "name": "enableSubscription",
      "outputs": [],
      "stateMutability": "nonpayable",
      "type": "function"
    },
    {
      "inputs": [
        {
          "internalType": "string",
          "name": "_name",
          "type": "string"
        }
      ],
      "name": "changeStatusService",
      "outputs": [],
      "stateMutability": "nonpayable",
      "type": "function"
    },
    {
      "inputs": [
        {
          "internalType": "string",
          "name": "_name",
          "type": "string"
        },
        {
          "internalType": "uint16",
          "name": "_price",
          "type": "uint16"
        }
      ],
      "name": "createService",
      "outputs": [],
      "stateMutability": "nonpayable",
      "type": "function"
    },
    {
      "inputs": [],
      "name": "showListServices",
      "outputs": [
        {
          "internalType": "string[]",
          "name": "",
          "type": "string[]"
        }
      ],
      "stateMutability": "view",
      "type": "function",
      "constant": true
    },
    {
      "inputs": [],
      "name": "showListUsers",
      "outputs": [
        {
          "internalType": "address[]",
          "name": "",
          "type": "address[]"
        }
      ],
      "stateMutability": "view",
      "type": "function",
      "constant": true
    },
    {
      "inputs": [
        {
          "internalType": "address",
          "name": "_addr",
          "type": "address"
        }
      ],
      "name": "showDetailsUser",
      "outputs": [
        {
          "internalType": "uint16",
          "name": "",
          "type": "uint16"
        },
        {
          "internalType": "bool",
          "name": "",
          "type": "bool"
        },
        {
          "internalType": "address",
          "name": "",
          "type": "address"
        }
      ],
      "stateMutability": "view",
      "type": "function",
      "constant": true
    },
    {
      "inputs": [],
      "name": "requestSubscriptionClient",
      "outputs": [],
      "stateMutability": "nonpayable",
      "type": "function"
    },
    {
      "inputs": [],
      "name": "createClientFactory",
      "outputs": [],
      "stateMutability": "nonpayable",
      "type": "function"
    },
    {
      "inputs": [
        {
          "internalType": "address",
          "name": "_userWallet",
          "type": "address"
        }
      ],
      "name": "cancelContractClient",
      "outputs": [
        {
          "internalType": "string",
          "name": "",
          "type": "string"
        }
      ],
      "stateMutability": "payable",
      "type": "function",
      "payable": true
    },
    {
      "inputs": [
        {
          "internalType": "string",
          "name": "_nameService",
          "type": "string"
        }
      ],
      "name": "asignServiceClient",
      "outputs": [],
      "stateMutability": "nonpayable",
      "type": "function"
    },
    {
      "inputs": [
        {
          "internalType": "address",
          "name": "_userWallet",
          "type": "address"
        }
      ],
      "name": "showServicesClient",
      "outputs": [
        {
          "internalType": "string[]",
          "name": "",
          "type": "string[]"
        }
      ],
      "stateMutability": "view",
      "type": "function",
      "constant": true
    },
    {
      "inputs": [
        {
          "internalType": "string",
          "name": "_nameService",
          "type": "string"
        },
        {
          "internalType": "address",
          "name": "_userWallet",
          "type": "address"
        }
      ],
      "name": "asignSpecialServiceClient",
      "outputs": [],
      "stateMutability": "nonpayable",
      "type": "function"
    },
    {
      "inputs": [],
      "name": "requestSubscriptionLaboratory",
      "outputs": [],
      "stateMutability": "nonpayable",
      "type": "function"
    },
    {
      "inputs": [],
      "name": "createLaboratoryFactory",
      "outputs": [],
      "stateMutability": "nonpayable",
      "type": "function"
    },
    {
      "inputs": [
        {
          "internalType": "string",
          "name": "_name",
          "type": "string"
        },
        {
          "internalType": "uint16",
          "name": "_price",
          "type": "uint16"
        },
        {
          "internalType": "address",
          "name": "ownerLaboratory",
          "type": "address"
        }
      ],
      "name": "createSpecialService",
      "outputs": [],
      "stateMutability": "nonpayable",
      "type": "function"
    },
    {
      "inputs": [
        {
          "internalType": "string",
          "name": "_name",
          "type": "string"
        },
        {
          "internalType": "address",
          "name": "ownerLaboratory",
          "type": "address"
        }
      ],
      "name": "changeStatusServiceLaboratory",
      "outputs": [],
      "stateMutability": "nonpayable",
      "type": "function"
    },
    {
      "inputs": [],
      "name": "showListServiceSpecial",
      "outputs": [
        {
          "internalType": "string[]",
          "name": "",
          "type": "string[]"
        }
      ],
      "stateMutability": "view",
      "type": "function",
      "constant": true
    },
    {
      "inputs": [
        {
          "internalType": "address",
          "name": "_laboratory",
          "type": "address"
        }
      ],
      "name": "cancelContractLaboratory",
      "outputs": [
        {
          "internalType": "string",
          "name": "",
          "type": "string"
        }
      ],
      "stateMutability": "payable",
      "type": "function",
      "payable": true
    },
    {
      "inputs": [
        {
          "internalType": "address",
          "name": "_laboratoryWallet",
          "type": "address"
        },
        {
          "internalType": "uint16",
          "name": "_quantityTokens",
          "type": "uint16"
        }
      ],
      "name": "withdrawBalanceLaboratory",
      "outputs": [
        {
          "internalType": "string",
          "name": "",
          "type": "string"
        }
      ],
      "stateMutability": "payable",
      "type": "function",
      "payable": true
    },
    {
      "inputs": [],
      "name": "showMyActivedSpecialServices",
      "outputs": [
        {
          "internalType": "string[]",
          "name": "",
          "type": "string[]"
        }
      ],
      "stateMutability": "view",
      "type": "function",
      "constant": true
    }
  ],
  "bytecode": "0x60806040523480156200001157600080fd5b50604051620000209062000158565b6040808252600e908201527f4d65646963696e65526f636b657400000000000000000000000000000000000060608201526080602082018190526002908201527f4d5200000000000000000000000000000000000000000000000000000000000060a082015260c001604051809103906000f080158015620000a6573d6000803e3d6000fd5b5060008054600160a060020a031916600160a060020a039290921691821790556040517fa0712d68000000000000000000000000000000000000000000000000000000008152612710600482015263a0712d6890602401600060405180830381600087803b1580156200011857600080fd5b505af11580156200012d573d6000803e3d6000fd5b505060018054600160a060020a03199081163317909155600280549091163017905550620001669050565b610a34806200601983390190565b615ea380620001766000396000f3fe6080604052600436106200025a5760003560e060020a900480636b073db6116200013f578063b53f2fa911620000b7578063c625e9b11162000079578063c625e9b11462000861578063d7d842781462000878578063e43ae2cd14620008cf578063e6cbd05814620008f4578063ee1e2d3d146200091957005b8063b53f2fa914620007ea578063b5e6e3711462000802578063b60c704f146200081a578063bc224fb61462000832578063c47fe02a146200084957005b80638da5cb5b11620001015780638da5cb5b146200075b5780638f875197146200077d578063909311e114620007a25780639da1ec6b14620007ba578063a8352a7b14620007d257005b80636b073db614620006b25780636fbb842214620006d75780637748d3c414620006fc57806382a6f77c14620007215780638609b2fc146200073957005b806342924ca811620001d357806354c844fa116200019557806354c844fa14620005b35780635b14ce0614620005d85780635ef31a2e14620005f057806362909f9314620006765780636894ebce146200068d57005b806342924ca8146200043a578063441548ee146200045f57806346348527146200050557806347f2b7c0146200052657806354ba5d78146200059b57005b80632c38c787116200021d5780632c38c787146200035457806336c9aed6146200037957806337776a2f146200039157806337cf779314620003df5780633ceb906d146200041557005b80624cef25146200026457806305c713c614620002a15780631275497214620002d557806326c8fb7014620002fb5780632703683e146200032f57005b366200026257005b005b3480156200027157600080fd5b50620002896200028336600462003acb565b6200093e565b60405162000298919062003b0c565b60405180910390f35b348015620002ae57600080fd5b50620002c6620002c036600462003b73565b62000e15565b60405162000298919062003bf9565b620002ec620002e636600462003c71565b62000f77565b60405162000298919062003ca9565b3480156200030857600080fd5b50620003206200031a36600462003b73565b6200124a565b60405190815260200162000298565b3480156200033c57600080fd5b50620002626200034e36600462003acb565b620012c6565b3480156200036157600080fd5b50620002ec6200037336600462003cbe565b62001575565b3480156200038657600080fd5b506200032062001637565b3480156200039e57600080fd5b50620003c63360009081526005602052604090205463010000009004600160a060020a031690565b604051600160a060020a03909116815260200162000298565b348015620003ec57600080fd5b5062000404620003fe36600462003acb565b62001674565b604051620002989392919062003ceb565b3480156200042257600080fd5b50620002626200043436600462003b73565b620016d9565b3480156200044757600080fd5b50620002626200045936600462003d1b565b620017c8565b3480156200046c57600080fd5b50620004cf6200047e36600462003b73565b60056020526000908152604090205461ffff81169060ff620100008204811691600160a060020a03630100000082041691770100000000000000000000000000000000000000000000009091041684565b6040805161ffff90951685529215156020850152600160a060020a03909116918301919091521515606082015260800162000298565b3480156200051257600080fd5b50600254600160a060020a03163162000320565b3480156200053357600080fd5b50620005783360009081526005602052604090205461ffff81169160ff6201000083048116927701000000000000000000000000000000000000000000000090041690565b6040805161ffff9094168452911515602084015215159082015260600162000298565b348015620005a857600080fd5b506200026262001a6d565b348015620005c057600080fd5b5062000262620005d236600462003d66565b62001c54565b348015620005e557600080fd5b50620002c662001fbd565b348015620005fd57600080fd5b506200064c6200060f36600462003acb565b805160208183018101805160048252928201919093012091525461ffff81169062010000810460ff169063010000009004600160a060020a031683565b6040805161ffff90941684529115156020840152600160a060020a03169082015260600162000298565b620002ec6200068736600462003b73565b6200218c565b3480156200069a57600080fd5b50620002ec620006ac36600462003dcc565b620024c1565b348015620006bf57600080fd5b5062000404620006d136600462003acb565b620024ef565b348015620006e457600080fd5b5062000404620006f636600462003acb565b6200255a565b3480156200070957600080fd5b50620002626200071b36600462003de6565b62002621565b3480156200072e57600080fd5b50620002c6620029af565b3480156200074657600080fd5b50600254620003c690600160a060020a031681565b3480156200076857600080fd5b50600154620003c690600160a060020a031681565b3480156200078a57600080fd5b50620002ec6200079c36600462003dcc565b62002b83565b348015620007af57600080fd5b50620002c662002b94565b348015620007c757600080fd5b50620002c662002c77565b348015620007df57600080fd5b50620002c662002e42565b348015620007f757600080fd5b506200026262002f1c565b3480156200080f57600080fd5b5062000289620030da565b3480156200082757600080fd5b50620002626200313e565b620002ec6200084336600462003b73565b62003239565b3480156200085657600080fd5b5062000262620032b0565b620002626200087236600462003e31565b620032f0565b3480156200088557600080fd5b506200064c6200089736600462003b73565b600160a060020a0390811660009081526005602052604090205461ffff81169262010000820460ff1692630100000090920490911690565b348015620008dc57600080fd5b5062000262620008ee36600462003e57565b620034a1565b3480156200090157600080fd5b50620002626200091336600462003de6565b62003583565b3480156200092657600080fd5b50620002626200093836600462003acb565b62003727565b600154606090600160a060020a031633146200097a5760405160e560020a62461bcd028152600401620009719062003e75565b60405180910390fd5b6040517f436c69656e74000000000000000000000000000000000000000000000000000060208201526026016040516020818303038152906040528051906020012082604051602001620009cf919062003ed2565b60405160208183030381529060405280519060200120148062000a5a57506040517f4c61626f7261746f7279000000000000000000000000000000000000000000006020820152602a01604051602081830303815290604052805190602001208260405160200162000a42919062003ed2565b60405160208183030381529060405280519060200120145b62000aab5760405160e560020a62461bcd02815260206004820181905260248201527f456c207469706f20696e6772657361646f206e6f20657320636f72726563746f604482015260640162000971565b600954600090819067ffffffffffffffff81111562000ace5762000ace62003a1d565b60405190808252806020026020018201604052801562000af8578160200160208202803683370190505b506040517f436c69656e7400000000000000000000000000000000000000000000000000006020820152909150602601604051602081830303815290604052805190602001208460405160200162000b51919062003ed2565b604051602081830303815290604052805190602001200362000cbf5760005b60095461ffff8216101562000cb8576005600060098361ffff168154811062000b9d5762000b9d62003ef0565b6000918252602080832090910154600160a060020a0316835282019290925260400190205460ff620100009091041615801562000c245750600061ffff166005600060098461ffff168154811062000bf95762000bf962003ef0565b6000918252602080832090910154600160a060020a0316835282019290925260400190205461ffff16145b1562000ca35760098161ffff168154811062000c445762000c4462003ef0565b9060005260206000200160009054906101000a9004600160a060020a0316828461ffff168151811062000c7b5762000c7b62003ef0565b600160a060020a03909216602092830291909101909101528262000c9f8162003f22565b9350505b8062000caf8162003f22565b91505062000b70565b5062000e0c565b60005b60095461ffff8216101562000e0a576005600060098361ffff168154811062000cef5762000cef62003ef0565b6000918252602080832090910154600160a060020a0316835282019290925260400190205460ff620100009091041615801562000d765750600161ffff166005600060098461ffff168154811062000d4b5762000d4b62003ef0565b6000918252602080832090910154600160a060020a0316835282019290925260400190205461ffff16145b1562000df55760098161ffff168154811062000d965762000d9662003ef0565b9060005260206000200160009054906101000a9004600160a060020a0316828461ffff168151811062000dcd5762000dcd62003ef0565b600160a060020a03909216602092830291909101909101528262000df18162003f22565b9350505b8062000e018162003f22565b91505062000cc2565b505b9150505b919050565b600160a060020a038116600090815260056020526040902054606090829061ffff1615801562000e685750600160a060020a03811660009081526005602052604090205462010000900460ff1615156001145b62000e8a5760405160e560020a62461bcd028152600401620009719062003f46565b33600090815260066020908152604080832080548251818502810185019093528083529193909284015b8282101562000f6a57838290600052602060002001805462000ed69062003f7d565b80601f016020809104026020016040519081016040528092919081815260200182805462000f049062003f7d565b801562000f555780601f1062000f295761010080835404028352916020019162000f55565b820191906000526020600020905b81548152906001019060200180831162000f3757829003601f168201915b50505050508152602001906001019062000eb4565b5050505091505b50919050565b600160a060020a038216600090815260056020526040902054606090839061ffff16600114801562000fcc5750600160a060020a03811660009081526005602052604090205462010000900460ff1615156001145b62000fee5760405160e560020a62461bcd028152600401620009719062003fb6565b6000805460405160e060020a6370a08231028152336004820152600160a060020a03909116906370a0823190602401602060405180830381865afa1580156200103b573d6000803e3d6000fd5b505050506040513d601f19601f8201168201806040525081019062001061919062003fed565b11620010b35760405160e560020a62461bcd02815260206004820152601460248201527f496e73756666696369656e742062616c616e6365000000000000000000000000604482015260640162000971565b6000805460405160e060020a6370a08231028152336004820152600160a060020a03909116906370a0823190602401602060405180830381865afa15801562001100573d6000803e3d6000fd5b505050506040513d601f19601f8201168201806040525081019062001126919062003fed565b90508361ffff16811062001225576000546002546040517f51ce139a000000000000000000000000000000000000000000000000000000008152600160a060020a03928316926351ce139a926200118892339290911690899060040162004007565b600060405180830381600087803b158015620011a357600080fd5b505af1158015620011b8573d6000803e3d6000fd5b5050505084600160a060020a03166108fc620011d88661ffff1662003847565b6040518115909202916000818181858888f1935050505015801562001201573d6000803e3d6000fd5b5060405180606001604052806023815260200162005e4b6023913992505062001243565b60405180606001604052806022815260200162005e29602291399250505b5092915050565b6000805460405160e060020a6370a08231028152600160a060020a038481166004830152909116906370a08231906024015b602060405180830381865afa1580156200129a573d6000803e3d6000fd5b505050506040513d601f19601f82011682018060405250810190620012c0919062003fed565b92915050565b3360008181526005602052604090205461ffff161580156200130b5750600160a060020a03811660009081526005602052604090205462010000900460ff1615156001145b6200132d5760405160e560020a62461bcd028152600401620009719062003f46565b6003826040516200133f919062003ed2565b90815260405190819003602001902060019081015460ff6201000090910416151514620013b25760405160e560020a62461bcd02815260206004820152601560248201527f53657276696365206e6f7420617661696c61626c650000000000000000000000604482015260640162000971565b60005460405160e060020a6370a08231028152336004820152600160a060020a03909116906370a0823190602401602060405180830381865afa158015620013fe573d6000803e3d6000fd5b505050506040513d601f19601f8201168201806040525081019062001424919062003fed565b60038360405162001436919062003ed2565b9081526040519081900360200190206001015461ffff161115620014a05760405160e560020a62461bcd02815260206004820152601e60248201527f446f6573206e6f7420686176652073756666696369656e742066756e64730000604482015260640162000971565b600054600254604051600160a060020a03928316926351ce139a923392911690600390620014d090889062003ed2565b9081526040519081900360200181206001015460e060020a63ffffffff86160282526200150993929161ffff9091169060040162004007565b600060405180830381600087803b1580156200152457600080fd5b505af115801562001539573d6000803e3d6000fd5b505033600090815260066020908152604082208054600181018255908352918190208651620015709550920192508501906200395f565b505050565b600660205281600052604060002081815481106200159257600080fd5b90600052602060002001600091509150508054620015b09062003f7d565b80601f0160208091040260200160405190810160405280929190818152602001828054620015de9062003f7d565b80156200162f5780601f1062001603576101008083540402835291602001916200162f565b820191906000526020600020905b8154815290600101906020018083116200161157829003601f168201915b505050505081565b6000805460025460405160e060020a6370a08231028152600160a060020a039182166004820152839291909116906370a08231906024016200127c565b6060600080836004856040516200168c919062003ed2565b9081526040519081900360200181205461ffff1690600490620016b190889062003ed2565b90815260405190819003602001902054919450925060ff620100009091041690509193909250565b600154600160a060020a03163314620017095760405160e560020a62461bcd028152600401620009719062003e75565b600160a060020a0381166000908152600560205260409081902080547701000000000000000000000000000000000000000001000077ff0000000000000000000000000000000000000000ff000019909116179055517f354c6a72b329f685c38dfa60613c835b26904be271112de710efa2e2c44eb3b490620017bd906020808252601f908201527f4120737562736372697074696f6e20686173206265656e20656e61626c656400604082015260600190565b60405180910390a150565b600154600160a060020a03163314620017f85760405160e560020a62461bcd028152600401620009719062003e75565b620018df6007805480602002602001604051908101604052809291908181526020016000905b82821015620018d4578382906000526020600020018054620018409062003f7d565b80601f01602080910402602001604051908101604052809291908181526020018280546200186e9062003f7d565b8015620018bf5780601f106200189357610100808354040283529160200191620018bf565b820191906000526020600020905b815481529060010190602001808311620018a157829003601f168201915b5050505050815260200190600101906200181e565b505050508362003859565b620019305760405160e560020a62461bcd02815260206004820152601c60248201527f53657276696365206e616d6520616c7265616479206578697374732e00000000604482015260640162000971565b6040805160608101825283815261ffff8316602082015260018183015290516003906200195f90859062003ed2565b908152602001604051809103902060008201518160000190805190602001906200198b9291906200395f565b50602082810151600192830180546040909501511515620100000262ffffff1990951661ffff9092169190911793909317909255600780549182018155600052835162001a00927fa66cc928b5edb82af9bd49922954155ab7b0942694bea4ce44661d9a8736c688909201918501906200395f565b507f8e57bf275bc9d4afbccb31ba764024cab254f99c0a08044738ca22f06756a30860405162001a61906020808252601f908201527f41206e6577207365727669636520686173206265656e20637265617465642e00604082015260600190565b60405180910390a15050565b3360009081526005602052604090205462010000900460ff161515600114801562001aab57503360009081526005602052604090205461ffff166001145b62001b485760405160e560020a62461bcd02815260206004820152605260248201527f596f7520617265206e6f7420656e61626c656420746f2063726561746520796f60448201527f757220636f6e7472616374206f7220796f757220636f6e74726163742074797060648201527f6520646f6573206e6f74206d617463682e2e0000000000000000000000000000608482015260a40162000971565b6002546040516000913391600160a060020a039091169062001b6a90620039ea565b600160a060020a03928316815291166020820152604001604051809103906000f08015801562001b9e573d6000803e3d6000fd5b503360009081526005602052604090819020805476ffffffffffffffffffffffffffffffffffffffff00000019166301000000600160a060020a03851602179055519091507f9ca50741aa35660fc78a732a8556916f45f5e93abc509a86d03a6aaaa7a2228090620017bd90839060408082526010908201527f436f6e74726163742063726561746564000000000000000000000000000000006060820152600160a060020a0391909116602082015260800190565b600160a060020a038116600090815260056020526040902054819061ffff16600114801562001ca65750600160a060020a03811660009081526005602052604090205462010000900460ff1615156001145b62001cc85760405160e560020a62461bcd028152600401620009719062003fb6565b62001daf6008805480602002602001604051908101604052809291908181526020016000905b8282101562001da457838290600052602060002001805462001d109062003f7d565b80601f016020809104026020016040519081016040528092919081815260200182805462001d3e9062003f7d565b801562001d8f5780601f1062001d635761010080835404028352916020019162001d8f565b820191906000526020600020905b81548152906001019060200180831162001d7157829003601f168201915b50505050508152602001906001019062001cee565b505050508562003859565b62001e005760405160e560020a62461bcd02815260206004820152601c60248201527f53657276696365206e616d6520616c7265616479206578697374732e00000000604482015260640162000971565b600160a060020a038281166000908152600560205260409020546301000000900416331462001e465760405160e560020a62461bcd02815260040162000971906200402e565b6040805160608101825261ffff85168152600160208201523381830152905160049062001e7590879062003ed2565b9081526040805191829003602090810190922083518154858501519590930151600160a060020a031663010000000276ffffffffffffffffffffffffffffffffffffffff00000019951515620100000262ffffff1990941661ffff9092169190911792909217939093161790915560088054600181018255600091909152855162001f28927ff3f7a9fe364faab93b216da50a3214154f22a0a2b415b23a84c8169e8b636ee3909201918701906200395f565b507f8e57bf275bc9d4afbccb31ba764024cab254f99c0a08044738ca22f06756a30860405162001faf9060208082526027908201527f41206e6577207370656369616c207365727669636520686173206265656e206360408201527f7265617465642e00000000000000000000000000000000000000000000000000606082015260800190565b60405180910390a150505050565b60085460609060009067ffffffffffffffff81111562001fe15762001fe162003a1d565b6040519080825280602002602001820160405280156200201657816020015b6060815260200190600190039081620020005790505b5090506000805b60085461ffff821610156200218457600460088261ffff168154811062002048576200204862003ef0565b906000526020600020016040516200206191906200408b565b9081526040519081900360200190205460ff620100009091041615156001036200216f5760088161ffff16815481106200209f576200209f62003ef0565b906000526020600020018054620020b69062003f7d565b80601f0160208091040260200160405190810160405280929190818152602001828054620020e49062003f7d565b8015620021355780601f10620021095761010080835404028352916020019162002135565b820191906000526020600020905b8154815290600101906020018083116200211757829003601f168201915b5050505050838361ffff168151811062002153576200215362003ef0565b602002602001018190525081806200216b9062003f22565b9250505b806200217b8162003f22565b9150506200201d565b509092915050565b600160a060020a038116600090815260056020526040902054606090829061ffff16158015620021df5750600160a060020a03811660009081526005602052604090205462010000900460ff1615156001145b620022015760405160e560020a62461bcd028152600401620009719062003f46565b600160a060020a0383811660009081526005602052604090205463010000009004163314620022475760405160e560020a62461bcd02815260040162000971906200402e565b600033905080600160a060020a031663085634ec6040518163ffffffff1660e060020a028152600401600060405180830381600087803b1580156200228b57600080fd5b505af1158015620022a0573d6000803e3d6000fd5b50506000805460405160e060020a6370a08231028152336004820152919350600160a060020a031691506370a0823190602401602060405180830381865afa158015620022f1573d6000803e3d6000fd5b505050506040513d601f19601f8201168201806040525081019062002317919062003fed565b111562002482576000805460405160e060020a6370a08231028152336004820152600160a060020a03909116906370a0823190602401602060405180830381865afa1580156200236b573d6000803e3d6000fd5b505050506040513d601f19601f8201168201806040525081019062002391919062003fed565b6000546002546040517f51ce139a000000000000000000000000000000000000000000000000000000008152336004820152600160a060020a0391821660248201526044810184905292935016906351ce139a90606401600060405180830381600087803b1580156200240357600080fd5b505af115801562002418573d6000803e3d6000fd5b5050505084600160a060020a03166108fc620024348362003847565b6040518115909202916000818181858888f193505050501580156200245d573d6000803e3d6000fd5b5060405180608001604052806048815260200162005de1604891399350505062000f71565b6040518060400160405280602081526020017f596f757220636f6e747261637420686173206265656e2063616e63656c6c656481525092505062000f71565b60088181548110620024d257600080fd5b906000526020600020016000915090508054620015b09062003f7d565b60606000808360038560405162002507919062003ed2565b9081526040519081900360200181206001015461ffff16906003906200252f90889062003ed2565b90815260405190819003602001902060010154919450925060ff620100009091041690509193909250565b8051602081830181018051600382529282019190930120915280548190620025829062003f7d565b80601f0160208091040260200160405190810160405280929190818152602001828054620025b09062003f7d565b8015620026015780601f10620025d55761010080835404028352916020019162002601565b820191906000526020600020905b815481529060010190602001808311620025e357829003601f168201915b5050506001909301549192505061ffff81169060ff620100009091041683565b600160a060020a038116600090815260056020526040902054819061ffff16158015620026715750600160a060020a03811660009081526005602052604090205462010000900460ff1615156001145b620026935760405160e560020a62461bcd028152600401620009719062003f46565b600160a060020a0382811660009081526005602052604090205463010000009004163314620026d95760405160e560020a62461bcd02815260040162000971906200402e565b600483604051620026eb919062003ed2565b9081526040516020918190039190910190205462010000900460ff1615156001146200275d5760405160e560020a62461bcd02815260206004820152601560248201527f53657276696365206e6f7420617661696c61626c650000000000000000000000604482015260640162000971565b60005460405160e060020a6370a08231028152336004820152600160a060020a03909116906370a0823190602401602060405180830381865afa158015620027a9573d6000803e3d6000fd5b505050506040513d601f19601f82011682018060405250810190620027cf919062003fed565b600484604051620027e1919062003ed2565b9081526040519081900360200190205461ffff161115620028485760405160e560020a62461bcd02815260206004820152601260248201527f496e73756666696369656e742066756e64730000000000000000000000000000604482015260640162000971565b600054604051600160a060020a03909116906351ce139a9033906004906200287290889062003ed2565b90815260405190819003602001812054600160a060020a0363010000009091041690600490620028a490899062003ed2565b9081526040519081900360200181205460e060020a63ffffffff8616028252620028da93929161ffff9091169060040162004007565b600060405180830381600087803b158015620028f557600080fd5b505af11580156200290a573d6000803e3d6000fd5b505033600090815260066020908152604082208054600181018255908352918190208751620029419550920192508601906200395f565b507f9d55b3776917a23d4919fb1ba4fe96c5466459f43468f5016f970a34d1a8e8c4604051620029a2906020808252601a908201527f436f72726563746c792061737369676e65642073657276696365000000000000604082015260600190565b60405180910390a1505050565b60085460609060009067ffffffffffffffff811115620029d357620029d362003a1d565b60405190808252806020026020018201604052801562002a0857816020015b6060815260200190600190039081620029f25790505b5090506000805b60085461ffff82161015620021845733600160a060020a0316600460088361ffff168154811062002a445762002a4462003ef0565b9060005260206000200160405162002a5d91906200408b565b90815260405190819003602001902054600160a060020a036301000000909104160362002b6e5760088161ffff168154811062002a9e5762002a9e62003ef0565b90600052602060002001805462002ab59062003f7d565b80601f016020809104026020016040519081016040528092919081815260200182805462002ae39062003f7d565b801562002b345780601f1062002b085761010080835404028352916020019162002b34565b820191906000526020600020905b81548152906001019060200180831162002b1657829003601f168201915b5050505050838361ffff168151811062002b525762002b5262003ef0565b6020026020010181905250818062002b6a9062003f22565b9250505b8062002b7a8162003f22565b91505062002a0f565b60078181548110620024d257600080fd5b60606007805480602002602001604051908101604052809291908181526020016000905b8282101562002c6e57838290600052602060002001805462002bda9062003f7d565b80601f016020809104026020016040519081016040528092919081815260200182805462002c089062003f7d565b801562002c595780601f1062002c2d5761010080835404028352916020019162002c59565b820191906000526020600020905b81548152906001019060200180831162002c3b57829003601f168201915b50505050508152602001906001019062002bb8565b50505050905090565b60075460609060009067ffffffffffffffff81111562002c9b5762002c9b62003a1d565b60405190808252806020026020018201604052801562002cd057816020015b606081526020019060019003908162002cba5790505b5090506000805b60075461ffff821610156200218457600360078261ffff168154811062002d025762002d0262003ef0565b9060005260206000200160405162002d1b91906200408b565b90815260405190819003602001902060019081015460ff62010000909104161515900362002e2d5760078161ffff168154811062002d5d5762002d5d62003ef0565b90600052602060002001805462002d749062003f7d565b80601f016020809104026020016040519081016040528092919081815260200182805462002da29062003f7d565b801562002df35780601f1062002dc75761010080835404028352916020019162002df3565b820191906000526020600020905b81548152906001019060200180831162002dd557829003601f168201915b5050505050838361ffff168151811062002e115762002e1162003ef0565b6020026020010181905250818062002e299062003f22565b9250505b8062002e398162003f22565b91505062002cd7565b60606008805480602002602001604051908101604052809291908181526020016000905b8282101562002c6e57838290600052602060002001805462002e889062003f7d565b80601f016020809104026020016040519081016040528092919081815260200182805462002eb69062003f7d565b801562002f075780601f1062002edb5761010080835404028352916020019162002f07565b820191906000526020600020905b81548152906001019060200180831162002ee957829003601f168201915b50505050508152602001906001019062002e66565b62002f26620038f6565b62002f485760405160e560020a62461bcd028152600401620009719062004131565b60408051608081019091528060005b61ffff90811682526000602080840182905260408085018390526060948501839052338084526005835281842087518154948901518985015199909801511515770100000000000000000000000000000000000000000000000277ff000000000000000000000000000000000000000000000019600160a060020a039a909a166301000000029990991677ffffffffffffffffffffffffffffffffffffffffff00000019981515620100000262ffffff199096169190971617939093179590951693909317949094179093556009805460018101825593527f6e1540171b6c0c960b71a7020d9f60077f6af931a8bbf590da0223dacf75c7af909201805473ffffffffffffffffffffffffffffffffffffffff19169091179055517f2305f90702aba97ce0a3067a3cf48c024b3ae31e719aec5072941b900fce262390620030d09060208082526012908201527f5375636365737366756c20726571756573740000000000000000000000000000604082015260600190565b60405180910390a1565b606060098054806020026020016040519081016040528092919081815260200182805480156200313457602002820191906000526020600020905b8154600160a060020a0316815260019091019060200180831162003115575b5050505050905090565b3360009081526005602052604090205462010000900460ff16151560011480156200317a57503360009081526005602052604090205461ffff16155b620032175760405160e560020a62461bcd02815260206004820152605160248201527f596f7520617265206e6f7420656e61626c656420746f2063726561746520796f60448201527f757220636f6e7472616374206f7220796f757220636f6e74726163742074797060648201527f6520646f6573206e6f74206d617463682e000000000000000000000000000000608482015260a40162000971565b6002546040516000913391600160a060020a039091169062001b6a90620039f8565b600160a060020a038116600090815260056020526040902054606090829061ffff1660011480156200328e5750600160a060020a03811660009081526005602052604090205462010000900460ff1615156001145b620022015760405160e560020a62461bcd028152600401620009719062003fb6565b620032ba620038f6565b620032dc5760405160e560020a62461bcd028152600401620009719062004131565b604080516080810190915280600162002f57565b600160a060020a0381811660009081526005602052604090205463010000009004163314620033365760405160e560020a62461bcd02815260040162000971906200402e565b6000620033438362003847565b905080341015620033c05760405160e560020a62461bcd02815260206004820152603260248201527f596f75206e656564206d6f72652065746865727320746f20627579207468697360448201527f20616d6f756e74206f6620746f6b656e732e0000000000000000000000000000606482015260840162000971565b6000620033ce82346200418e565b604051909150600160a060020a0384169082156108fc029083906000818181858888f1935050505015801562003408573d6000803e3d6000fd5b506000546040517fa9059cbb00000000000000000000000000000000000000000000000000000000815233600482015260248101869052600160a060020a039091169063a9059cbb906044016020604051808303816000875af115801562003474573d6000803e3d6000fd5b505050506040513d601f19601f820116820180604052508101906200349a9190620041a8565b5050505050565b600154600160a060020a03163314620034d15760405160e560020a62461bcd028152600401620009719062003e75565b6000546040517fa0712d6800000000000000000000000000000000000000000000000000000000815261ffff83166004820152600160a060020a039091169063a0712d6890602401600060405180830381600087803b1580156200353457600080fd5b505af115801562003549573d6000803e3d6000fd5b505060405161ffff841681527fa3fcbf85d2ee7bc02b55f15a3259f856a2b3489f50d6a91e302b612e43df01cb92506020019050620017bd565b600160a060020a038116600090815260056020526040902054819061ffff166001148015620035d55750600160a060020a03811660009081526005602052604090205462010000900460ff1615156001145b620035f75760405160e560020a62461bcd028152600401620009719062003fb6565b600160a060020a03828116600090815260056020526040902054630100000090041633146200363d5760405160e560020a62461bcd02815260040162000971906200402e565b6004836040516200364f919062003ed2565b9081526040519081900360200181205460ff620100009091041615906004906200367b90869062003ed2565b9081526040519081900360200181208054921515620100000262ff000019909316929092179091557f7ea7da48cf18f9bc204a2781adfa6f4f7a2c3eb23101b97cf76fd373f029036f90620029a29060208082526035908201527f5370656369616c20736572766963652073746174757320686173206265656e2060408201527f7375636365737366756c6c79206368616e6765642e0000000000000000000000606082015260800190565b600154600160a060020a03163314620037575760405160e560020a62461bcd028152600401620009719062003e75565b60038160405162003769919062003ed2565b9081526040519081900360200181206001015460ff620100009091041615906003906200379890849062003ed2565b9081526040519081900360200181206001018054921515620100000262ff000019909316929092179091557f7ea7da48cf18f9bc204a2781adfa6f4f7a2c3eb23101b97cf76fd373f029036f90620017bd9060208082526031908201527f54686520736572766963652073746174757320686173206265656e207375636360408201527f65737366756c6c79206368616e6765642e000000000000000000000000000000606082015260800190565b6000620012c082633b9aca00620041cc565b600160005b83518110156200124357826040516020016200387b919062003ed2565b60405160208183030381529060405280519060200120848281518110620038a657620038a662003ef0565b6020026020010151604051602001620038c0919062003ed2565b6040516020818303038152906040528051906020012003620038e157600091505b80620038ed81620041ee565b9150506200385e565b600160005b6009548110156200395b5733600160a060020a03166009828154811062003926576200392662003ef0565b600091825260209091200154600160a060020a0316036200394657600091505b806200395281620041ee565b915050620038fb565b5090565b8280546200396d9062003f7d565b90600052602060002090601f016020900481019282620039915760008555620039dc565b82601f10620039ac57805160ff1916838001178555620039dc565b82800160010185558215620039dc579182015b82811115620039dc578251825591602001919060010190620039bf565b506200395b92915062003a06565b610d1c806200420b83390190565b610eba8062004f2783390190565b5b808211156200395b576000815560010162003a07565b60e060020a634e487b7102600052604160045260246000fd5b600082601f83011262003a4857600080fd5b813567ffffffffffffffff8082111562003a665762003a6662003a1d565b604051601f8301601f19908116603f0116810190828211818310171562003a915762003a9162003a1d565b8160405283815286602085880101111562003aab57600080fd5b836020870160208301376000602085830101528094505050505092915050565b60006020828403121562003ade57600080fd5b813567ffffffffffffffff81111562003af657600080fd5b62003b048482850162003a36565b949350505050565b6020808252825182820181905260009190848201906040850190845b8181101562003b4f578351600160a060020a03168352928401929184019160010162003b28565b50909695505050505050565b8035600160a060020a038116811462000e1057600080fd5b60006020828403121562003b8657600080fd5b62003b918262003b5b565b9392505050565b60005b8381101562003bb557818101518382015260200162003b9b565b8381111562003bc5576000848401525b50505050565b6000815180845262003be581602086016020860162003b98565b601f01601f19169290920160200192915050565b600060208083018184528085518083526040860191506040848202870101925083870160005b8281101562003c5157603f1988860301845262003c3e85835162003bcb565b9450928501929085019060010162003c1f565b5092979650505050505050565b803561ffff8116811462000e1057600080fd5b6000806040838503121562003c8557600080fd5b62003c908362003b5b565b915062003ca06020840162003c5e565b90509250929050565b60208152600062003b91602083018462003bcb565b6000806040838503121562003cd257600080fd5b62003cdd8362003b5b565b946020939093013593505050565b60608152600062003d00606083018662003bcb565b61ffff94909416602083015250901515604090910152919050565b6000806040838503121562003d2f57600080fd5b823567ffffffffffffffff81111562003d4757600080fd5b62003d558582860162003a36565b92505062003ca06020840162003c5e565b60008060006060848603121562003d7c57600080fd5b833567ffffffffffffffff81111562003d9457600080fd5b62003da28682870162003a36565b93505062003db36020850162003c5e565b915062003dc36040850162003b5b565b90509250925092565b60006020828403121562003ddf57600080fd5b5035919050565b6000806040838503121562003dfa57600080fd5b823567ffffffffffffffff81111562003e1257600080fd5b62003e208582860162003a36565b92505062003ca06020840162003b5b565b6000806040838503121562003e4557600080fd5b8235915062003ca06020840162003b5b565b60006020828403121562003e6a57600080fd5b62003b918262003c5e565b6020808252603e908201527f596f7520646f206e6f74206861766520746865206e656365737361727920706560408201527f726d697373696f6e7320746f2072756e20746869732066756e6374696f6e0000606082015260800190565b6000825162003ee681846020870162003b98565b9190910192915050565b60e060020a634e487b7102600052603260045260246000fd5b60e060020a634e487b7102600052601160045260246000fd5b600061ffff80831681810362003f3c5762003f3c62003f09565b6001019392505050565b60208082526015908201527f4e6f20636c69656e74207065726d697373696f6e730000000000000000000000604082015260600190565b60028104600182168062003f9257607f821691505b60208210810362000f715760e060020a634e487b7102600052602260045260246000fd5b60208082526015908201527f4e6f206c61626f7261746f7279207065726d6974730000000000000000000000604082015260600190565b6000602082840312156200400057600080fd5b5051919050565b600160a060020a03938416815291909216602082015261ffff909116604082015260600190565b60208082526031908201527f596f7520646f206e6f742068617665207065726d697373696f6e7320746f207260408201527f756e2074686973206f7065726174696f6e000000000000000000000000000000606082015260800190565b8154600090819060028104600180831680620040a857607f831692505b60208084108203620040cb5760e060020a634e487b710286526022600452602486fd5b818015620040e25760018114620040f45762004123565b60ff1986168952848901965062004123565b60008a81526020902060005b868110156200411b5781548b82015290850190830162004100565b505084890196505b509498975050505050505050565b6020808252602b908201527f596f7520616c726561647920686176652061207265717565737420746f20796f60408201527f757220616464726573732e000000000000000000000000000000000000000000606082015260800190565b600082821015620041a357620041a362003f09565b500390565b600060208284031215620041bb57600080fd5b8151801515811462003b9157600080fd5b6000816000190483118215151615620041e957620041e962003f09565b500290565b60006001820162004203576200420362003f09565b506001019056fe608060405234801561001057600080fd5b50604051610d1c380380610d1c83398101604081905261002f916100b8565b60008054600160a060020a0319908116600160a060020a039485161790915560018054600280549093169390941692909217905574010000000000000000000000000000000000000000600160a860020a03199092163060a060020a60ff021916179190911790556100eb565b8051600160a060020a03811681146100b357600080fd5b919050565b600080604083850312156100cb57600080fd5b6100d48361009c565b91506100e26020840161009c565b90509250929050565b610c22806100fa6000396000f3fe6080604052600436106100a3576000357c010000000000000000000000000000000000000000000000000000000090048063c98c64b711610076578063c98c64b71461014c578063cc805c201461016c578063d5808c751461017f578063e3e97a9a146101b0578063ea54d212146101d357600080fd5b8063085634ec146100a857806312494d16146100da5780638da5cb5b146100ef57806396b0e90d1461012c575b600080fd5b3480156100b457600080fd5b506100d86001805474ff000000000000000000000000000000000000000019169055565b005b3480156100e657600080fd5b506100d86101f5565b3480156100fb57600080fd5b5060005461010f90600160a060020a031681565b604051600160a060020a0390911681526020015b60405180910390f35b34801561013857600080fd5b506100d861014736600461087e565b610323565b34801561015857600080fd5b506100d86101673660046108d2565b61043b565b6100d861017a366004610920565b610554565b34801561018b57600080fd5b506001546101a09060a060020a900460ff1681565b6040519015158152602001610123565b3480156101bc57600080fd5b506101c561061d565b604051908152602001610123565b3480156101df57600080fd5b506101e86106da565b604051610123919061099e565b60015460a060020a900460ff1661022a5760405160e560020a62461bcd028152600401610221906109ff565b60405180910390fd5b6002546000546040517fbc224fb6000000000000000000000000000000000000000000000000000000008152600160a060020a03918216600482015291169063bc224fb6906024016000604051808303816000875af1158015610291573d6000803e3d6000fd5b505050506040513d6000823e601f3d908101601f191682016040526102b99190810190610a7b565b507f8fb8e77703b1fc88b5be52da1e07c7ea6c9758371ee19d107adcf70f24714e2d604051610319906020808252601d908201527f4c61626f7261746f727920636f6e74726163742063616e63656c6c6564000000604082015260600190565b60405180910390a1565b60015460a060020a900460ff1661034f5760405160e560020a62461bcd028152600401610221906109ff565b6002546000546040517fe6cbd058000000000000000000000000000000000000000000000000000000008152600160a060020a039283169263e6cbd0589261039f92869290911690600401610ab0565b600060405180830381600087803b1580156103b957600080fd5b505af11580156103cd573d6000803e3d6000fd5b505050507f52d2c476367a5c510d10dc00aa26840e839c8207ffb1fe1f851d383b1c3939e6604051610430906020808252600e908201527f537461747573206368616e676564000000000000000000000000000000000000604082015260600190565b60405180910390a150565b60015460a060020a900460ff166104675760405160e560020a62461bcd028152600401610221906109ff565b6002546000546040517f54c844fa000000000000000000000000000000000000000000000000000000008152600160a060020a03928316926354c844fa926104b792879287921690600401610adb565b600060405180830381600087803b1580156104d157600080fd5b505af11580156104e5573d6000803e3d6000fd5b505050507f208275776c16b77743a1409e20eff6a2abaaa054ce0042f8314e2b131353b0166040516105489060208082526017908201527f7370656369616c20736572766963652063726561746564000000000000000000604082015260600190565b60405180910390a15050565b60015460a060020a900460ff166105805760405160e560020a62461bcd028152600401610221906109ff565b6002546000546040517f12754972000000000000000000000000000000000000000000000000000000008152600160a060020a03918216600482015261ffff841660248201529116906312754972906044016000604051808303816000875af11580156105f1573d6000803e3d6000fd5b505050506040513d6000823e601f3d908101601f191682016040526106199190810190610a7b565b5050565b60015460009060a060020a900460ff1661064c5760405160e560020a62461bcd028152600401610221906109ff565b6002546001546040517f26c8fb70000000000000000000000000000000000000000000000000000000008152600160a060020a0391821660048201529116906326c8fb7090602401602060405180830381865afa1580156106b1573d6000803e3d6000fd5b505050506040513d601f19601f820116820180604052508101906106d59190610b11565b905090565b60015460609060a060020a900460ff166107095760405160e560020a62461bcd028152600401610221906109ff565b600260009054906101000a9004600160a060020a0316600160a060020a03166382a6f77c6040518163ffffffff167c0100000000000000000000000000000000000000000000000000000000028152600401600060405180830381865afa158015610778573d6000803e3d6000fd5b505050506040513d6000823e601f3d908101601f191682016040526106d59190810190610b2a565b7f4e487b7100000000000000000000000000000000000000000000000000000000600052604160045260246000fd5b604051601f8201601f1916810167ffffffffffffffff811182821017156107f8576107f86107a0565b604052919050565b600067ffffffffffffffff82111561081a5761081a6107a0565b50601f01601f191660200190565b600082601f83011261083957600080fd5b813561084c61084782610800565b6107cf565b81815284602083860101111561086157600080fd5b816020850160208301376000918101602001919091529392505050565b60006020828403121561089057600080fd5b813567ffffffffffffffff8111156108a757600080fd5b6108b384828501610828565b949350505050565b803561ffff811681146108cd57600080fd5b919050565b600080604083850312156108e557600080fd5b823567ffffffffffffffff8111156108fc57600080fd5b61090885828601610828565b925050610917602084016108bb565b90509250929050565b60006020828403121561093257600080fd5b61093b826108bb565b9392505050565b60005b8381101561095d578181015183820152602001610945565b8381111561096c576000848401525b50505050565b6000815180845261098a816020860160208601610942565b601f01601f19169290920160200192915050565b600060208083018184528085518083526040860191506040848202870101925083870160005b828110156109f257603f198886030184526109e0858351610972565b945092850192908501906001016109c4565b5092979650505050505050565b60208082526012908201527f4e6f2061637469766520636f6e74726163740000000000000000000000000000604082015260600190565b600082601f830112610a4757600080fd5b8151610a5561084782610800565b818152846020838601011115610a6a57600080fd5b6108b3826020830160208701610942565b600060208284031215610a8d57600080fd5b815167ffffffffffffffff811115610aa457600080fd5b6108b384828501610a36565b604081526000610ac36040830185610972565b9050600160a060020a03831660208301529392505050565b606081526000610aee6060830186610972565b905061ffff84166020830152600160a060020a0383166040830152949350505050565b600060208284031215610b2357600080fd5b5051919050565b60006020808385031215610b3d57600080fd5b825167ffffffffffffffff80821115610b5557600080fd5b818501915085601f830112610b6957600080fd5b815181811115610b7b57610b7b6107a0565b838102610b898582016107cf565b9182528381018501918581019089841115610ba357600080fd5b86860192505b83831015610bdf57825185811115610bc15760008081fd5b610bcf8b89838a0101610a36565b8352509186019190860190610ba9565b999850505050505050505056fea2646970667358221220e68ccdbe76c5829913ad923b57649b29c0f50737839c24f9a11135c5a23f50bc64736f6c634300080e0033608060405234801561001057600080fd5b50604051610eba380380610eba83398101604081905261002f916100b4565b60008054600160a060020a03938416600160a060020a03199182161790915560018054821630179055600280546003805490931693909416928317909155600160a860020a031990921617740100000000000000000000000000000000000000001790556100e7565b8051600160a060020a03811681146100af57600080fd5b919050565b600080604083850312156100c757600080fd5b6100d083610098565b91506100de60208401610098565b90509250929050565b610dc4806100f66000396000f3fe6080604052600436106100c65760003560e060020a90048063a5487a0311610083578063d5808c751161005d578063d5808c7514610209578063de1c54881461023a578063e4f05b761461024f578063ea54d2121461026f57600080fd5b8063a5487a03146101a4578063c73e2710146101c4578063d25120ce146101e657600080fd5b8063072ec0bb146100cb578063085634ec146101085780630e662cf01461013a57806314f52f3a1461014d5780632b68bb2d1461017c5780638da5cb5b14610184575b600080fd5b3480156100d757600080fd5b506002546100eb90600160a060020a031681565b604051600160a060020a0390911681526020015b60405180910390f35b34801561011457600080fd5b506101386002805474ff000000000000000000000000000000000000000019169055565b005b61013861014836600461093b565b610284565b34801561015957600080fd5b5061016d6101683660046109e7565b6103a9565b6040516100ff93929190610ac3565b610138610478565b34801561019057600080fd5b506000546100eb90600160a060020a031681565b3480156101b057600080fd5b5061016d6101bf3660046109e7565b6105cd565b3480156101d057600080fd5b506101d961064a565b6040516100ff9190610af1565b3480156101f257600080fd5b506101fb6106e1565b6040519081526020016100ff565b34801561021557600080fd5b5060025461022a9060a060020a900460ff1681565b60405190151581526020016100ff565b34801561024657600080fd5b506101d9610799565b34801561025b57600080fd5b5061013861026a3660046109e7565b61081e565b34801561027b57600080fd5b506101d96108a3565b60025460a060020a900460ff166102b95760405160e560020a62461bcd0281526004016102b090610b52565b60405180910390fd5b6003546000546040517fc625e9b100000000000000000000000000000000000000000000000000000000815261ffff84166004820152600160a060020a03918216602482015291169063c625e9b19034906044016000604051808303818588803b15801561032657600080fd5b505af115801561033a573d6000803e3d6000fd5b50505050507f1b7f028d5ab83158f4f607bb5762c7cba19282431e7f398ff27da3788e3c6b3760405161039e9060208082526010908201527f70757263686173656420746f6b656e7300000000000000000000000000000000604082015260600190565b60405180910390a150565b6060600080600260149054906101000a900460ff166103dd5760405160e560020a62461bcd0281526004016102b090610b52565b6003546040517f6b073db6000000000000000000000000000000000000000000000000000000008152600160a060020a0390911690636b073db690610426908790600401610b89565b600060405180830381865afa158015610443573d6000803e3d6000fd5b505050506040513d6000823e601f3d908101601f1916820160405261046b9190810190610be9565b9250925092509193909250565b60025460a060020a900460ff166104d45760405160e560020a62461bcd02815260206004820152601d60248201527f4e6f2061637469766520636f6e747261637420612063616e63656c617200000060448201526064016102b0565b6003546000546040517f62909f93000000000000000000000000000000000000000000000000000000008152600160a060020a0391821660048201529116906362909f93906024016000604051808303816000875af115801561053b573d6000803e3d6000fd5b505050506040513d6000823e601f3d908101601f191682016040526105639190810190610c53565b507fb012d3f9fdd8921a4928184939f418cb424d911318f2efac796ed07add6485996040516105c39060208082526012908201527f636f6e74726163742063616e63656c6c65640000000000000000000000000000604082015260600190565b60405180910390a1565b6060600080600260149054906101000a900460ff166106015760405160e560020a62461bcd0281526004016102b090610b52565b6003546040517f37cf7793000000000000000000000000000000000000000000000000000000008152600160a060020a03909116906337cf779390610426908790600401610b89565b6003546000546040517f05c713c6000000000000000000000000000000000000000000000000000000008152600160a060020a03918216600482015260609291909116906305c713c690602401600060405180830381865afa1580156106b4573d6000803e3d6000fd5b505050506040513d6000823e601f3d908101601f191682016040526106dc9190810190610c88565b905090565b60025460009060a060020a900460ff166107105760405160e560020a62461bcd0281526004016102b090610b52565b6003546001546040517f26c8fb70000000000000000000000000000000000000000000000000000000008152600160a060020a0391821660048201529116906326c8fb7090602401602060405180830381865afa158015610775573d6000803e3d6000fd5b505050506040513d601f19601f820116820180604052508101906106dc9190610d4a565b60025460609060a060020a900460ff166107c85760405160e560020a62461bcd0281526004016102b090610b52565b600360009054906101000a9004600160a060020a0316600160a060020a0316639da1ec6b6040518163ffffffff1660e060020a028152600401600060405180830381865afa1580156106b4573d6000803e3d6000fd5b6003546000546040517f7748d3c4000000000000000000000000000000000000000000000000000000008152600160a060020a0392831692637748d3c49261086e92869290911690600401610d63565b600060405180830381600087803b15801561088857600080fd5b505af115801561089c573d6000803e3d6000fd5b5050505050565b60025460609060a060020a900460ff166108d25760405160e560020a62461bcd0281526004016102b090610b52565b600360009054906101000a9004600160a060020a0316600160a060020a0316635b14ce066040518163ffffffff1660e060020a028152600401600060405180830381865afa1580156106b4573d6000803e3d6000fd5b61ffff8116811461093857600080fd5b50565b60006020828403121561094d57600080fd5b813561095881610928565b9392505050565b7f4e487b7100000000000000000000000000000000000000000000000000000000600052604160045260246000fd5b604051601f8201601f1916810167ffffffffffffffff811182821017156109b7576109b761095f565b604052919050565b600067ffffffffffffffff8211156109d9576109d961095f565b50601f01601f191660200190565b6000602082840312156109f957600080fd5b813567ffffffffffffffff811115610a1057600080fd5b8201601f81018413610a2157600080fd5b8035610a34610a2f826109bf565b61098e565b818152856020838501011115610a4957600080fd5b81602084016020830137600091810160200191909152949350505050565b60005b83811015610a82578181015183820152602001610a6a565b83811115610a91576000848401525b50505050565b60008151808452610aaf816020860160208601610a67565b601f01601f19169290920160200192915050565b606081526000610ad66060830186610a97565b61ffff94909416602083015250901515604090910152919050565b600060208083018184528085518083526040860191506040848202870101925083870160005b82811015610b4557603f19888603018452610b33858351610a97565b94509285019290850190600101610b17565b5092979650505050505050565b60208082526012908201527f4e6f2061637469766520636f6e74726163740000000000000000000000000000604082015260600190565b6020815260006109586020830184610a97565b600082601f830112610bad57600080fd5b8151610bbb610a2f826109bf565b818152846020838601011115610bd057600080fd5b610be1826020830160208701610a67565b949350505050565b600080600060608486031215610bfe57600080fd5b835167ffffffffffffffff811115610c1557600080fd5b610c2186828701610b9c565b9350506020840151610c3281610928565b60408501519092508015158114610c4857600080fd5b809150509250925092565b600060208284031215610c6557600080fd5b815167ffffffffffffffff811115610c7c57600080fd5b610be184828501610b9c565b60006020808385031215610c9b57600080fd5b825167ffffffffffffffff80821115610cb357600080fd5b818501915085601f830112610cc757600080fd5b815181811115610cd957610cd961095f565b838102610ce785820161098e565b9182528381018501918581019089841115610d0157600080fd5b86860192505b83831015610d3d57825185811115610d1f5760008081fd5b610d2d8b89838a0101610b9c565b8352509186019190860190610d07565b9998505050505050505050565b600060208284031215610d5c57600080fd5b5051919050565b604081526000610d766040830185610a97565b9050600160a060020a0383166020830152939250505056fea264697066735822122093abb870a83421b8d27313e0cf760439fc179beb2da5cd4ea24a2516600c9fc064736f6c634300080e0033596f757220636f6e747261637420686173206265656e2063616e63656c6c656420616e6420796f7572206d6f6e65792072657475726e656420746f20796f75722077616c6c65742e497420646f6573206e6f7420686176652073756666696369656e742066756e64732e796f7572207265746972656d656e7420686173206265656e207375636365737366756ca264697066735822122004f2d7881e3dc7060dcab124f897c8da47f0503a9a794deaea78dace8f9aa63a64736f6c634300080e003360806040523480156200001157600080fd5b5060405162000a3438038062000a348339810160408190526200003491620001f4565b81516200004990600290602085019062000068565b5080516200005f90600390602084019062000068565b505050620002b3565b82805462000076906200025e565b90600052602060002090601f0160209004810192826200009a5760008555620000e5565b82601f10620000b557805160ff1916838001178555620000e5565b82800160010185558215620000e5579182015b82811115620000e5578251825591602001919060010190620000c8565b50620000f3929150620000f7565b5090565b5b80821115620000f35760008155600101620000f8565b7f4e487b7100000000000000000000000000000000000000000000000000000000600052604160045260246000fd5b600082601f8301126200014f57600080fd5b81516001604060020a03808211156200016c576200016c6200010e565b604051601f8301601f19908116603f011681019082821181831017156200019757620001976200010e565b81604052838152602092508683858801011115620001b457600080fd5b600091505b83821015620001d85785820183015181830184015290820190620001b9565b83821115620001ea5760008385830101525b9695505050505050565b600080604083850312156200020857600080fd5b82516001604060020a03808211156200022057600080fd5b6200022e868387016200013d565b935060208501519150808211156200024557600080fd5b5062000254858286016200013d565b9150509250929050565b6002810460018216806200027357607f821691505b602082108103620002ad577f4e487b7100000000000000000000000000000000000000000000000000000000600052602260045260246000fd5b50919050565b61077180620002c36000396000f3fe608060405234801561001057600080fd5b506004361061009a576000357c01000000000000000000000000000000000000000000000000000000009004806370a082311161007857806370a08231146100e457806395d89b411461010d578063a0712d6814610115578063a9059cbb1461012857600080fd5b806306fdde031461009f57806318160ddd146100bd57806351ce139a146100cf575b600080fd5b6100a761014b565b6040516100b49190610578565b60405180910390f35b6001545b6040519081526020016100b4565b6100e26100dd3660046105e9565b6101dd565b005b6100c16100f2366004610625565b600160a060020a031660009081526020819052604090205490565b6100a761023c565b6100e2610123366004610647565b61024b565b61013b610136366004610660565b610258565b60405190151581526020016100b4565b60606002805461015a9061068a565b80601f01602080910402602001604051908101604052809291908181526020018280546101869061068a565b80156101d35780601f106101a8576101008083540402835291602001916101d3565b820191906000526020600020905b8154815290600101906020018083116101b657829003601f168201915b5050505050905090565b600160a060020a0383166000908152602081905260408120805483929061020590849061070c565b9091555050600160a060020a03821660009081526020819052604081208054839290610232908490610723565b9091555050505050565b60606003805461015a9061068a565b6102553382610270565b50565b600033610266818585610357565b5060019392505050565b600160a060020a0382166102ce5760405160e560020a62461bcd02815260206004820152601f60248201527f45524332303a206d696e7420746f20746865207a65726f20616464726573730060448201526064015b60405180910390fd5b80600160008282546102e09190610723565b9091555050600160a060020a0382166000908152602081905260408120805483929061030d908490610723565b9091555050604051818152600160a060020a038316906000907fddf252ad1be2c89b69c2b068fc378daa952ba7f163c4a11628f55a4df523b3ef9060200160405180910390a35050565b600160a060020a0383166103d65760405160e560020a62461bcd02815260206004820152602560248201527f45524332303a207472616e736665722066726f6d20746865207a65726f20616460448201527f647265737300000000000000000000000000000000000000000000000000000060648201526084016102c5565b600160a060020a0382166104555760405160e560020a62461bcd02815260206004820152602360248201527f45524332303a207472616e7366657220746f20746865207a65726f206164647260448201527f657373000000000000000000000000000000000000000000000000000000000060648201526084016102c5565b600160a060020a038316600090815260208190526040902054818110156104e75760405160e560020a62461bcd02815260206004820152602660248201527f45524332303a207472616e7366657220616d6f756e742065786365656473206260448201527f616c616e6365000000000000000000000000000000000000000000000000000060648201526084016102c5565b600160a060020a0380851660009081526020819052604080822085850390559185168152908120805484929061051e908490610723565b9250508190555082600160a060020a031684600160a060020a03167fddf252ad1be2c89b69c2b068fc378daa952ba7f163c4a11628f55a4df523b3ef8460405161056a91815260200190565b60405180910390a350505050565b600060208083528351808285015260005b818110156105a557858101830151858201604001528201610589565b818111156105b7576000604083870101525b50601f01601f1916929092016040019392505050565b8035600160a060020a03811681146105e457600080fd5b919050565b6000806000606084860312156105fe57600080fd5b610607846105cd565b9250610615602085016105cd565b9150604084013590509250925092565b60006020828403121561063757600080fd5b610640826105cd565b9392505050565b60006020828403121561065957600080fd5b5035919050565b6000806040838503121561067357600080fd5b61067c836105cd565b946020939093013593505050565b60028104600182168061069e57607f821691505b6020821081036106d7577f4e487b7100000000000000000000000000000000000000000000000000000000600052602260045260246000fd5b50919050565b7f4e487b7100000000000000000000000000000000000000000000000000000000600052601160045260246000fd5b60008282101561071e5761071e6106dd565b500390565b60008219821115610736576107366106dd565b50019056fea2646970667358221220ece6a1c0d07c7c3fc4fe4397433f7220fdc263e36317139682a78afcefca1ff664736f6c634300080e0033",
  "immutableReferences": {},
  "source": "// SPDX-License-Identifier: MIT\npragma solidity >=0.7.0 < 0.9.0;\nimport \"../Token/ERC20.sol\";\nimport \"./IInsuranceRocketCompany.sol\";\nimport \"./InsuranceClientRocketCompany.sol\";\nimport \"./InsuranceLaboratoryRocketCompany.sol\";\n\ncontract InsuranceRocketCompany is InterfaceRocket{\n    //Token\n    ERC20Rocket token;\n    address public owner;\n    address public addressContract;\n\n    constructor() {\n        token = new ERC20Rocket(\"MedicineRocket\", \"MR\");\n        token.mint(10000);\n\n        owner = msg.sender;\n        addressContract = address(this);\n    }\n\n    //Funcion Ether balance\n    function BalanceContractEthers ()public view returns(uint){\n        return addressContract.balance;\n    }\n\n    //---------------------------------------Modifiers---------------------------------------\n    modifier onlyOwner {\n        require(msg.sender == owner, \"You do not have the necessary permissions to run this function\");\n        _;\n    }\n\n    modifier onlyLaboratories(address ownerLaboratory) {\n        require (\n            RequestStatus[ownerLaboratory].requestType == uint16(1) && RequestStatus[ownerLaboratory].statusRequest == true,\n            \"No laboratory permits\"\n        );\n        _;\n    }\n\n    modifier onlyClient(address _userWallet){\n        require (\n            RequestStatus[_userWallet].requestType == uint16(0) && RequestStatus[_userWallet].statusRequest == true,\n            \"No client permissions\"\n        );\n        _;        \n    }\n\n    //---------------------------------------Mappings---------------------------------------\n    //Mapping para relacionar el nombre de un servicio con su estructura de datos\n    mapping(string => Service) public Services;\n\n    //Mapping para guardar los servicios especializados de laboratorios externos\n    mapping(string => SpecialService) public SpecialServices;\n\n    //Mapping que relaciona la address con la peticion\n    mapping(address => Request) public RequestStatus;\n\n    //Mapping que relacion un address de cada usuario con su historial de servicios\n    mapping(address => string []) public servicesClientHistory;\n\n    //---------------------------------------Enums---------------------------------------\n    //Enum para clasificar el tipo de peticion de suscripcion\n    enum RequestType { CLIENT, LABORATORY }\n\n    //---------------------------------------Arrays---------------------------------------\n    //Array para almacenar el listado de los servicios\n    string[] public listServices;\n\n    //Array para almacenar el listado de los servicios especiales de los laboratorios\n    string[] public listSpecialServices;\n\n    //Array para almacenar las peticiones de suscripcion de clientes\n    address[] requestMixed;\n\n    //---------------------------------------Funciones validadoras---------------------------------------\n\n    //Funcion para validar que el nombre de servicio ya no exista\n    function checkRepeatService(string [] memory services, string memory _name) private pure returns(bool identifier){\n        identifier = true;\n\n        for(uint i = 0; i < services.length; i++){\n            if(keccak256(abi.encodePacked(services[i])) == keccak256(abi.encodePacked(_name))){\n                identifier = false;\n            }\n        }\n    }\n\n    //Funcion para saber si una address ya tiene una peticion\n    function checkRepeatRequest() private view returns(bool identifier){\n        identifier = true;\n\n        for(uint i = 0; i < requestMixed.length; i++){\n            if(requestMixed[i] == msg.sender){\n                identifier = false;\n            }\n        }\n    }\n\n    //---------------------------------------Funciones de tokens----------------------------------------------------\n\n    //Funcion para recargar tokens al contrato\n    function rechargeTokens(uint16 _amount) public override onlyOwner {\n        token.mint(_amount);\n\n        emit rechargeTokensEvent(_amount);\n    }\n\n    //Funcion ver tokens de contrato principal\n    function balanceContractTokens() public view returns(uint){\n        uint balance = token.balanceOf(addressContract);\n\n        return balance;\n    }\n\n    //Funcion para convertir el precio de tokens a ethers\n    function tokenToGwei(uint _quantity) private pure returns(uint){\n        return _quantity * (1 gwei);\n    } \n\n    //Funcion para comprar tokens\n    function buyTokens(uint _quantity, address ownerClient) public payable {\n        require(RequestStatus[ownerClient].addressContract == msg.sender, \"You do not have permissions to run this operation\");\n\n        uint cost = tokenToGwei(_quantity);\n        require(msg.value >= cost, \"You need more ethers to buy this amount of tokens.\");\n\n        uint returnValue = msg.value - cost;\n        payable(ownerClient).transfer(returnValue);\n        token.transfer(msg.sender, _quantity );\n    }\n\n    //Funcion para recibir pagos\n    receive() external payable{}\n    fallback ()external payable{}\n\n    //---------------------------------------Funciones para contrato principal---------------------------------------\n\n    //Funcion para ver el listado de servicios activos\n    function showActivedServices() public view override returns(string[] memory){\n        string[] memory activedServices = new string[] (listServices.length);\n        uint16 counter = 0;\n\n        for(uint16 i = 0; i < listServices.length; i++){\n            if(Services[listServices[i]].statusService == true){\n                activedServices[counter] = listServices[i];\n                counter++;\n            }\n        }\n\n        return activedServices;       \n    }\n\n    //Funcion para ver el listado de servicios especiales activos\n    function showActivedSpecialServices() public view returns(string[] memory){\n        string[] memory activedServices = new string[] (listSpecialServices.length);\n        uint16 counter = 0;\n\n        for(uint16 i = 0; i < listSpecialServices.length; i++){\n            if(SpecialServices[listSpecialServices[i]].statusService == true){\n                activedServices[counter] = listSpecialServices[i];\n                counter++;\n            }\n        }\n\n        return activedServices;       \n    }\n\n    //Funcion para mostrar un servicio por su nombre\n    //function showService(string memory _name) public view override returns(Service memory){return Services[_name];} \n    function showServiceDetails(string memory _name) public view override returns(string memory, uint16, bool){\n        return (_name, Services[_name].priceService, Services[_name].statusService);\n    }\n\n    //Funcion para mostrar un servicio por su nombre\n    function showSpecialServiceDetails(string memory _name) public view  returns(string memory, uint16, bool){\n        return (_name, SpecialServices[_name].priceService, SpecialServices[_name].statusService);\n    }\n\n    //Funcion para revisar el numero de contrato de cada cliente\n    function checkNumberContract() public view returns(address){\n        return RequestStatus[msg.sender].addressContract;\n    }\n\n    //Funcion para ver saldo de Cliente\n    function balanceContractUser(address _addr) public view returns (uint){\n        return token.balanceOf(_addr);\n    }\n\n\n    //Funcion para saber el role y el status de cada usuario o laboratorio\n    function showStatusAndRole() public view returns(uint16, bool, bool){\n        //Agragar require que pregunte si existe o no y validar\n        return (RequestStatus[msg.sender].requestType, RequestStatus[msg.sender].statusRequest, RequestStatus[msg.sender].isRequest);\n    }\n\n\n    //---------------------------------------Funciones para el admin ---------------------------------------\n\n    //Funcion para ver las solicitudes pendientes\n    function showPendingRequest(string memory _type) public view override onlyOwner returns(address[] memory) {\n        require(keccak256(abi.encodePacked(_type)) == keccak256(abi.encodePacked(\"Client\")) || keccak256(abi.encodePacked(_type)) == keccak256(abi.encodePacked(\"Laboratory\")), \"El tipo ingresado no es correcto\");\n        \n        uint16 counter;\n        address[] memory pendingRequests = new address[] (requestMixed.length);\n\n        if(keccak256(abi.encodePacked(_type)) == keccak256(abi.encodePacked(\"Client\"))){\n            for(uint16 i = 0; i < requestMixed.length; i++){\n                if(RequestStatus[requestMixed[i]].statusRequest == false && RequestStatus[requestMixed[i]].requestType == uint16(0)){\n                    pendingRequests[counter] = requestMixed[i];\n                    counter++;\n                }\n            }\n        }else{\n            for(uint16 i = 0; i < requestMixed.length; i++){\n                if(RequestStatus[requestMixed[i]].statusRequest == false  && RequestStatus[requestMixed[i]].requestType == uint16(1)){\n                    pendingRequests[counter] = requestMixed[i];\n                    counter++;\n                }\n            }\n        }\n        return pendingRequests;\n    }\n\n    //Funcion para habilitar un cliente o laboratorio\n    function enableSubscription(address _addr) public override onlyOwner{\n        RequestStatus[_addr].statusRequest = true;\n        RequestStatus[_addr].isRequest = true;\n\n        emit enableSubscriptionEvent(\"A subscription has been enabled\");\n    }\n\n    //Funcion para cambiar el estado de los servicios\n    function changeStatusService(string memory _name) public override onlyOwner{\n        Services[_name].statusService = !Services[_name].statusService;\n\n        emit changeStatusServiceEvent(\"The service status has been successfully changed.\");\n    }\n\n    //Funcion para crear servicios\n    function createService(string memory _name, uint16 _price) public override onlyOwner{\n        require(checkRepeatService(listServices, _name), \"Service name already exists.\");\n\n        Services[_name] = Service(_name, _price, true);\n\n        listServices.push(_name);\n\n        emit createServiceEvent(\"A new service has been created.\");\n    }\n\n    //Funcion para mostrar los servicios basicos disponibles\n    function showListServices() public view returns(string [] memory ){\n        return listServices;\n    }\n\n    //Funcion para mostrar los servicios basicos disponibles\n    function showListUsers() public view returns(address [] memory ){\n        return requestMixed;\n    }\n\n    //Funcion para ver detalles de cada usuario sean clientes o laboratorios\n    function showDetailsUser (address _addr) public view returns (uint16, bool, address){\n        return (RequestStatus[_addr].requestType, RequestStatus[_addr].statusRequest, RequestStatus[_addr].addressContract);\n    }\n\n    //---------------------------------------Contrato clientes---------------------------------------\n\n    //Funcion para solicitar una suscripcion para un cliente\n    function requestSubscriptionClient() public override {\n        require(checkRepeatRequest(), \"You already have a request to your address.\");\n        RequestStatus[msg.sender] = Request(uint16(RequestType.CLIENT), false, address(0), false);\n        requestMixed.push(msg.sender);\n\n        emit createFactoryEvent('Successful request');\n    }\n\n    //Funcion para creacion de contrato de Cliente\n    function createClientFactory() public {\n        require(RequestStatus[msg.sender].statusRequest == true && RequestStatus[msg.sender].requestType == 0, \"You are not enabled to create your contract or your contract type does not match.\");\n\n        address clientAddressContract = address(new Client(msg.sender, addressContract));\n        RequestStatus[msg.sender].addressContract = clientAddressContract;\n\n        emit createFactoryEvent(\"Contract created\", clientAddressContract);\n    }\n\n    //Funcion cancelar contrato de un Client\n    function cancelContractClient(address _userWallet) external payable onlyClient(_userWallet) returns(string memory){\n        require(RequestStatus[_userWallet].addressContract == msg.sender, \"You do not have permissions to run this operation\");\n\n        Client ClientContract = Client(msg.sender);\n        ClientContract.changeStatus ();\n\n        if (token.balanceOf(msg.sender) > 0 ) {\n            uint balanceUserTokens = token.balanceOf(msg.sender);\n            token.transferTokenRocket(msg.sender,addressContract, balanceUserTokens );\n            payable (_userWallet).transfer(tokenToGwei(balanceUserTokens));\n\n            return \"Your contract has been cancelled and your money returned to your wallet.\";\n        }else{\n            return \"Your contract has been cancelled\";\n        }\n    }\n\n    //Funcion para asginar un servicio a un cliente\n    // function asignServiceClient(string memory _nameService, address _userWallet) external onlyClient(_userWallet) {\n    //     require(RequestStatus[_userWallet].addressContract == msg.sender, \"You do not have permissions to run this operation\");\n    //     require (Services[_nameService].statusService == true, \"Service not available\");\n    //     require (Services[_nameService].priceService <= token.balanceOf(msg.sender), \"Does not have sufficient funds\");\n\n    //     token.transferTokenRocket(msg.sender,addressContract, Services[_nameService].priceService);\n    //     servicesClientHistory[msg.sender].push(_nameService);\n\n    //     // emit asignServiceClientEvent (\"Correctly assigned service\", msg.sender);\n    // }\n\n    //Funcion para asginar un servicio a un cliente\n    function asignServiceClient(string memory _nameService) external onlyClient(msg.sender) {\n        // require(RequestStatus[msg.sender].addressContract != 0, \"You do not have permissions to run this operation\");\n        require (Services[_nameService].statusService == true, \"Service not available\");\n        require (Services[_nameService].priceService <= token.balanceOf(msg.sender), \"Does not have sufficient funds\");\n\n        token.transferTokenRocket(msg.sender,addressContract, Services[_nameService].priceService);\n        servicesClientHistory[msg.sender].push(_nameService);\n\n        // emit asignServiceClientEvent (\"Correctly assigned service\", msg.sender);\n    }\n\n    //Funcion para mostrar los servicios de un Cliente\n    function showServicesClient(address _userWallet) external view onlyClient(_userWallet) returns(string [] memory){\n        return servicesClientHistory[msg.sender];\n    }\n\n    //Funcion para asginar un servicio especial a un cliente\n    function asignSpecialServiceClient(string memory _nameService, address _userWallet) external onlyClient(_userWallet) {\n        require(RequestStatus[_userWallet].addressContract == msg.sender, \"You do not have permissions to run this operation\");\n        require (SpecialServices[_nameService].statusService == true, \"Service not available\");\n        require (SpecialServices[_nameService].priceService <= token.balanceOf(msg.sender), \"Insufficient funds\");\n\n        token.transferTokenRocket(msg.sender,SpecialServices[_nameService].laboratory, SpecialServices[_nameService].priceService);\n        servicesClientHistory[msg.sender].push(_nameService);\n\n        emit asignServiceClientEvent (\"Correctly assigned service\");\n    }\n\n    //---------------------------------------Contratos laboratorios---------------------------------------\n\n    //Funcion para solicitar una suscripcion para un laboratorio\n    function requestSubscriptionLaboratory() public override {\n        require(checkRepeatRequest(), \"You already have a request to your address.\");\n        \n        RequestStatus[msg.sender] = Request(uint16(RequestType.LABORATORY), false, address(0), false);\n        requestMixed.push(msg.sender);\n\n        emit createFactoryEvent('Successful request');\n    }\n\n    //Funcion para crear el contrato de un laboratorio cuando ya est habilitado\n    function createLaboratoryFactory() public {\n        require(RequestStatus[msg.sender].statusRequest == true && RequestStatus[msg.sender].requestType == 1, \"You are not enabled to create your contract or your contract type does not match..\");\n\n        address laboratoryAddressContract = address(new Laboratory(msg.sender, addressContract ));\n        RequestStatus[msg.sender].addressContract = laboratoryAddressContract;\n\n        emit createFactoryEvent(\"Contract created\", laboratoryAddressContract);\n    }\n\n    //Funcion para crear servicios especiales\n    function createSpecialService(string memory _name, uint16 _price, address ownerLaboratory) external onlyLaboratories(ownerLaboratory) {\n        require(checkRepeatService(listSpecialServices, _name), \"Service name already exists.\");\n        require(RequestStatus[ownerLaboratory].addressContract == msg.sender, \"You do not have permissions to run this operation\");\n\n        SpecialServices[_name] = SpecialService(_price, true, msg.sender);\n        listSpecialServices.push(_name);\n\n        emit createServiceEvent(\"A new special service has been created.\");\n    }\n\n    //Funcion para cambiar el estado de los servicios especiales\n    function changeStatusServiceLaboratory(string memory _name, address ownerLaboratory) external onlyLaboratories(ownerLaboratory){\n        require(RequestStatus[ownerLaboratory].addressContract == msg.sender, \"You do not have permissions to run this operation\");\n\n        SpecialServices[_name].statusService = !SpecialServices[_name].statusService;\n\n        emit changeStatusServiceEvent(\"Special service status has been successfully changed.\");\n    }\n\n    //Funcion para mostrar lista de servicios especiales\n    function showListServiceSpecial () public view returns (string [] memory){\n        return listSpecialServices;\n    }\n\n    //Funcion cancelar contrato de laborario\n    function cancelContractLaboratory(address _laboratory) external payable onlyLaboratories(_laboratory) returns(string memory){\n        require(RequestStatus[_laboratory].addressContract == msg.sender, \"You do not have permissions to run this operation\");\n\n        Laboratory LaboratoryContract = Laboratory(msg.sender);\n        LaboratoryContract.changeStatus ();\n\n        if (token.balanceOf(msg.sender) > 0 ) {\n            uint balanceLaboratyTokens = token.balanceOf(msg.sender);\n            token.transferTokenRocket(msg.sender, addressContract, balanceLaboratyTokens );\n            payable (_laboratory).transfer(tokenToGwei(balanceLaboratyTokens));\n\n            return \"Your contract has been cancelled and your money returned to your wallet.\";\n        }else{\n            return \"Your contract has been cancelled\";\n        }\n    }\n\n    //Funcion para canjear sus tokens por dinero\n    function withdrawBalanceLaboratory(address _laboratoryWallet, uint16 _quantityTokens) external payable onlyLaboratories(_laboratoryWallet) returns(string memory){\n        require (token.balanceOf(msg.sender) > 0, \"Insufficient balance\");\n \n        uint balanceLaboratyTokens = token.balanceOf(msg.sender);\n        if(balanceLaboratyTokens >= _quantityTokens){\n            token.transferTokenRocket(msg.sender, addressContract, _quantityTokens);\n            payable(_laboratoryWallet).transfer(tokenToGwei(_quantityTokens));\n\n            return \"your retirement has been successful\";\n        }\n\n        return \"It does not have sufficient funds.\";\n    }\n\n    //Funcion para que cada laboratorio pueda ver sus servicios\n    function showMyActivedSpecialServices() external view returns(string[] memory){\n        string[] memory activedSpecialServices = new string[] (listSpecialServices.length);\n        uint16 counter = 0;\n\n        for(uint16 i = 0; i < listSpecialServices.length; i++){\n            if(SpecialServices[listSpecialServices[i]].laboratory == msg.sender){\n                activedSpecialServices[counter] = listSpecialServices[i];\n                counter++;\n            }\n        }\n\n        return activedSpecialServices;\n    }\n}",
  "sourcePath": "/home/xdx/Escritorio/Solidity proyects/sistema_salud_full/contracts/System/Company/InsuranceRocketCompany.sol",
  "compiler": {
    "name": "solc",
    "version": "0.8.14+commit.80d49f37.Emscripten.clang"
  },
  "schemaVersion": "3.4.7",
  "updatedAt": "2022-07-10T15:26:28.061Z",
  "networkType": "ethereum",
  "devdoc": {
    "kind": "dev",
    "methods": {},
    "version": 1
  },
  "userdoc": {
    "kind": "user",
    "methods": {},
    "version": 1
  }
}