{
  "contractName": "InsuranceRocketCompany",
  "abi": [
    {
      "inputs": [],
      "stateMutability": "nonpayable",
      "type": "constructor"
    },
    {
      "anonymous": false,
      "inputs": [
        {
          "indexed": false,
          "internalType": "string",
          "name": "",
          "type": "string"
        },
        {
          "indexed": false,
          "internalType": "address",
          "name": "",
          "type": "address"
        }
      ],
      "name": "asignServiceClientEvent",
      "type": "event"
    },
    {
      "anonymous": false,
      "inputs": [
        {
          "indexed": false,
          "internalType": "string",
          "name": "",
          "type": "string"
        }
      ],
      "name": "changeStatusServiceEvent",
      "type": "event"
    },
    {
      "anonymous": false,
      "inputs": [
        {
          "indexed": false,
          "internalType": "string",
          "name": "",
          "type": "string"
        },
        {
          "indexed": false,
          "internalType": "address",
          "name": "",
          "type": "address"
        }
      ],
      "name": "createFactoryEvent",
      "type": "event"
    },
    {
      "anonymous": false,
      "inputs": [
        {
          "indexed": false,
          "internalType": "string",
          "name": "",
          "type": "string"
        }
      ],
      "name": "createServiceEvent",
      "type": "event"
    },
    {
      "anonymous": false,
      "inputs": [
        {
          "indexed": false,
          "internalType": "string",
          "name": "",
          "type": "string"
        }
      ],
      "name": "enableSubscriptionEvent",
      "type": "event"
    },
    {
      "anonymous": false,
      "inputs": [
        {
          "indexed": false,
          "internalType": "uint16",
          "name": "",
          "type": "uint16"
        }
      ],
      "name": "rechargeTokensEvent",
      "type": "event"
    },
    {
      "stateMutability": "payable",
      "type": "fallback",
      "payable": true
    },
    {
      "inputs": [
        {
          "internalType": "address",
          "name": "",
          "type": "address"
        }
      ],
      "name": "RequestStatus",
      "outputs": [
        {
          "internalType": "uint16",
          "name": "requestType",
          "type": "uint16"
        },
        {
          "internalType": "bool",
          "name": "statusRequest",
          "type": "bool"
        },
        {
          "internalType": "address",
          "name": "addressContract",
          "type": "address"
        },
        {
          "internalType": "bool",
          "name": "isRequest",
          "type": "bool"
        }
      ],
      "stateMutability": "view",
      "type": "function",
      "constant": true
    },
    {
      "inputs": [
        {
          "internalType": "string",
          "name": "",
          "type": "string"
        }
      ],
      "name": "Services",
      "outputs": [
        {
          "internalType": "string",
          "name": "name",
          "type": "string"
        },
        {
          "internalType": "uint16",
          "name": "priceService",
          "type": "uint16"
        },
        {
          "internalType": "bool",
          "name": "statusService",
          "type": "bool"
        }
      ],
      "stateMutability": "view",
      "type": "function",
      "constant": true
    },
    {
      "inputs": [
        {
          "internalType": "string",
          "name": "",
          "type": "string"
        }
      ],
      "name": "SpecialServices",
      "outputs": [
        {
          "internalType": "uint16",
          "name": "priceService",
          "type": "uint16"
        },
        {
          "internalType": "bool",
          "name": "statusService",
          "type": "bool"
        },
        {
          "internalType": "address",
          "name": "laboratory",
          "type": "address"
        }
      ],
      "stateMutability": "view",
      "type": "function",
      "constant": true
    },
    {
      "inputs": [],
      "name": "addressContract",
      "outputs": [
        {
          "internalType": "address",
          "name": "",
          "type": "address"
        }
      ],
      "stateMutability": "view",
      "type": "function",
      "constant": true
    },
    {
      "inputs": [
        {
          "internalType": "uint256",
          "name": "",
          "type": "uint256"
        }
      ],
      "name": "listServices",
      "outputs": [
        {
          "internalType": "string",
          "name": "",
          "type": "string"
        }
      ],
      "stateMutability": "view",
      "type": "function",
      "constant": true
    },
    {
      "inputs": [
        {
          "internalType": "uint256",
          "name": "",
          "type": "uint256"
        }
      ],
      "name": "listSpecialServices",
      "outputs": [
        {
          "internalType": "string",
          "name": "",
          "type": "string"
        }
      ],
      "stateMutability": "view",
      "type": "function",
      "constant": true
    },
    {
      "inputs": [],
      "name": "owner",
      "outputs": [
        {
          "internalType": "address",
          "name": "",
          "type": "address"
        }
      ],
      "stateMutability": "view",
      "type": "function",
      "constant": true
    },
    {
      "inputs": [
        {
          "internalType": "address",
          "name": "",
          "type": "address"
        },
        {
          "internalType": "uint256",
          "name": "",
          "type": "uint256"
        }
      ],
      "name": "servicesClientHistory",
      "outputs": [
        {
          "internalType": "string",
          "name": "",
          "type": "string"
        }
      ],
      "stateMutability": "view",
      "type": "function",
      "constant": true
    },
    {
      "stateMutability": "payable",
      "type": "receive",
      "payable": true
    },
    {
      "inputs": [],
      "name": "BalanceContractEthers",
      "outputs": [
        {
          "internalType": "uint256",
          "name": "",
          "type": "uint256"
        }
      ],
      "stateMutability": "view",
      "type": "function",
      "constant": true
    },
    {
      "inputs": [
        {
          "internalType": "uint16",
          "name": "_amount",
          "type": "uint16"
        }
      ],
      "name": "rechargeTokens",
      "outputs": [],
      "stateMutability": "nonpayable",
      "type": "function"
    },
    {
      "inputs": [],
      "name": "balanceContractTokens",
      "outputs": [
        {
          "internalType": "uint256",
          "name": "",
          "type": "uint256"
        }
      ],
      "stateMutability": "view",
      "type": "function",
      "constant": true
    },
    {
      "inputs": [
        {
          "internalType": "uint256",
          "name": "_quantity",
          "type": "uint256"
        },
        {
          "internalType": "address",
          "name": "ownerClient",
          "type": "address"
        }
      ],
      "name": "buyTokens",
      "outputs": [],
      "stateMutability": "payable",
      "type": "function",
      "payable": true
    },
    {
      "inputs": [],
      "name": "showActivedServices",
      "outputs": [
        {
          "internalType": "string[]",
          "name": "",
          "type": "string[]"
        }
      ],
      "stateMutability": "view",
      "type": "function",
      "constant": true
    },
    {
      "inputs": [],
      "name": "showActivedSpecialServices",
      "outputs": [
        {
          "internalType": "string[]",
          "name": "",
          "type": "string[]"
        }
      ],
      "stateMutability": "view",
      "type": "function",
      "constant": true
    },
    {
      "inputs": [
        {
          "internalType": "string",
          "name": "_name",
          "type": "string"
        }
      ],
      "name": "showServiceDetails",
      "outputs": [
        {
          "internalType": "string",
          "name": "",
          "type": "string"
        },
        {
          "internalType": "uint16",
          "name": "",
          "type": "uint16"
        },
        {
          "internalType": "bool",
          "name": "",
          "type": "bool"
        }
      ],
      "stateMutability": "view",
      "type": "function",
      "constant": true
    },
    {
      "inputs": [
        {
          "internalType": "string",
          "name": "_name",
          "type": "string"
        }
      ],
      "name": "showSpecialServiceDetails",
      "outputs": [
        {
          "internalType": "string",
          "name": "",
          "type": "string"
        },
        {
          "internalType": "uint16",
          "name": "",
          "type": "uint16"
        },
        {
          "internalType": "bool",
          "name": "",
          "type": "bool"
        }
      ],
      "stateMutability": "view",
      "type": "function",
      "constant": true
    },
    {
      "inputs": [],
      "name": "checkNumberContract",
      "outputs": [
        {
          "internalType": "address",
          "name": "",
          "type": "address"
        }
      ],
      "stateMutability": "view",
      "type": "function",
      "constant": true
    },
    {
      "inputs": [
        {
          "internalType": "address",
          "name": "_addr",
          "type": "address"
        }
      ],
      "name": "balanceContractUser",
      "outputs": [
        {
          "internalType": "uint256",
          "name": "",
          "type": "uint256"
        }
      ],
      "stateMutability": "view",
      "type": "function",
      "constant": true
    },
    {
      "inputs": [],
      "name": "showStatusAndRole",
      "outputs": [
        {
          "internalType": "uint16",
          "name": "",
          "type": "uint16"
        },
        {
          "internalType": "bool",
          "name": "",
          "type": "bool"
        }
      ],
      "stateMutability": "view",
      "type": "function",
      "constant": true
    },
    {
      "inputs": [
        {
          "internalType": "string",
          "name": "_type",
          "type": "string"
        }
      ],
      "name": "showPendingRequest",
      "outputs": [
        {
          "internalType": "address[]",
          "name": "",
          "type": "address[]"
        }
      ],
      "stateMutability": "view",
      "type": "function",
      "constant": true
    },
    {
      "inputs": [
        {
          "internalType": "address",
          "name": "_addr",
          "type": "address"
        }
      ],
      "name": "enableSubscription",
      "outputs": [],
      "stateMutability": "nonpayable",
      "type": "function"
    },
    {
      "inputs": [
        {
          "internalType": "string",
          "name": "_name",
          "type": "string"
        }
      ],
      "name": "changeStatusService",
      "outputs": [],
      "stateMutability": "nonpayable",
      "type": "function"
    },
    {
      "inputs": [
        {
          "internalType": "string",
          "name": "_name",
          "type": "string"
        },
        {
          "internalType": "uint16",
          "name": "_price",
          "type": "uint16"
        }
      ],
      "name": "createService",
      "outputs": [],
      "stateMutability": "nonpayable",
      "type": "function"
    },
    {
      "inputs": [],
      "name": "showListServices",
      "outputs": [
        {
          "internalType": "string[]",
          "name": "",
          "type": "string[]"
        }
      ],
      "stateMutability": "view",
      "type": "function",
      "constant": true
    },
    {
      "inputs": [],
      "name": "showListUsers",
      "outputs": [
        {
          "internalType": "address[]",
          "name": "",
          "type": "address[]"
        }
      ],
      "stateMutability": "view",
      "type": "function",
      "constant": true
    },
    {
      "inputs": [
        {
          "internalType": "address",
          "name": "_addr",
          "type": "address"
        }
      ],
      "name": "showDetailsUser",
      "outputs": [
        {
          "internalType": "uint16",
          "name": "",
          "type": "uint16"
        },
        {
          "internalType": "bool",
          "name": "",
          "type": "bool"
        },
        {
          "internalType": "address",
          "name": "",
          "type": "address"
        }
      ],
      "stateMutability": "view",
      "type": "function",
      "constant": true
    },
    {
      "inputs": [],
      "name": "requestSubscriptionClient",
      "outputs": [],
      "stateMutability": "nonpayable",
      "type": "function"
    },
    {
      "inputs": [],
      "name": "createClientFactory",
      "outputs": [],
      "stateMutability": "nonpayable",
      "type": "function"
    },
    {
      "inputs": [
        {
          "internalType": "address",
          "name": "_userWallet",
          "type": "address"
        }
      ],
      "name": "cancelContractClient",
      "outputs": [
        {
          "internalType": "string",
          "name": "",
          "type": "string"
        }
      ],
      "stateMutability": "payable",
      "type": "function",
      "payable": true
    },
    {
      "inputs": [
        {
          "internalType": "string",
          "name": "_nameService",
          "type": "string"
        },
        {
          "internalType": "address",
          "name": "_userWallet",
          "type": "address"
        }
      ],
      "name": "asignServiceClient",
      "outputs": [],
      "stateMutability": "nonpayable",
      "type": "function"
    },
    {
      "inputs": [
        {
          "internalType": "address",
          "name": "_userWallet",
          "type": "address"
        }
      ],
      "name": "showServicesClient",
      "outputs": [
        {
          "internalType": "string[]",
          "name": "",
          "type": "string[]"
        }
      ],
      "stateMutability": "view",
      "type": "function",
      "constant": true
    },
    {
      "inputs": [
        {
          "internalType": "string",
          "name": "_nameService",
          "type": "string"
        },
        {
          "internalType": "address",
          "name": "_userWallet",
          "type": "address"
        }
      ],
      "name": "asignSpecialServiceClient",
      "outputs": [],
      "stateMutability": "nonpayable",
      "type": "function"
    },
    {
      "inputs": [],
      "name": "requestSubscriptionLaboratory",
      "outputs": [],
      "stateMutability": "nonpayable",
      "type": "function"
    },
    {
      "inputs": [],
      "name": "createLaboratoryFactory",
      "outputs": [],
      "stateMutability": "nonpayable",
      "type": "function"
    },
    {
      "inputs": [
        {
          "internalType": "string",
          "name": "_name",
          "type": "string"
        },
        {
          "internalType": "uint16",
          "name": "_price",
          "type": "uint16"
        },
        {
          "internalType": "address",
          "name": "ownerLaboratory",
          "type": "address"
        }
      ],
      "name": "createSpecialService",
      "outputs": [],
      "stateMutability": "nonpayable",
      "type": "function"
    },
    {
      "inputs": [
        {
          "internalType": "string",
          "name": "_name",
          "type": "string"
        },
        {
          "internalType": "address",
          "name": "ownerLaboratory",
          "type": "address"
        }
      ],
      "name": "changeStatusServiceLaboratory",
      "outputs": [],
      "stateMutability": "nonpayable",
      "type": "function"
    },
    {
      "inputs": [],
      "name": "showListServiceSpecial",
      "outputs": [
        {
          "internalType": "string[]",
          "name": "",
          "type": "string[]"
        }
      ],
      "stateMutability": "view",
      "type": "function",
      "constant": true
    },
    {
      "inputs": [
        {
          "internalType": "address",
          "name": "_laboratory",
          "type": "address"
        }
      ],
      "name": "cancelContractLaboratory",
      "outputs": [
        {
          "internalType": "string",
          "name": "",
          "type": "string"
        }
      ],
      "stateMutability": "payable",
      "type": "function",
      "payable": true
    },
    {
      "inputs": [
        {
          "internalType": "address",
          "name": "_laboratoryWallet",
          "type": "address"
        },
        {
          "internalType": "uint16",
          "name": "_quantityTokens",
          "type": "uint16"
        }
      ],
      "name": "withdrawBalanceLaboratory",
      "outputs": [
        {
          "internalType": "string",
          "name": "",
          "type": "string"
        }
      ],
      "stateMutability": "payable",
      "type": "function",
      "payable": true
    },
    {
      "inputs": [],
      "name": "showMyActivedSpecialServices",
      "outputs": [
        {
          "internalType": "string[]",
          "name": "",
          "type": "string[]"
        }
      ],
      "stateMutability": "view",
      "type": "function",
      "constant": true
    }
  ],
  "bytecode": "0x60806040523480156200001157600080fd5b50604051620000209062000158565b6040808252600e908201527f4d65646963696e65526f636b657400000000000000000000000000000000000060608201526080602082018190526002908201527f4d5200000000000000000000000000000000000000000000000000000000000060a082015260c001604051809103906000f080158015620000a6573d6000803e3d6000fd5b5060008054600160a060020a031916600160a060020a039290921691821790556040517fa0712d68000000000000000000000000000000000000000000000000000000008152612710600482015263a0712d6890602401600060405180830381600087803b1580156200011857600080fd5b505af11580156200012d573d6000803e3d6000fd5b505060018054600160a060020a03199081163317909155600280549091163017905550620001669050565b610a348062005d9983390190565b615c2380620001766000396000f3fe6080604052600436106200025a5760003560e060020a900480636b073db6116200013f578063b53f2fa911620000b7578063c625e9b11162000079578063c625e9b11462000834578063d7d84278146200084b578063e43ae2cd14620008a2578063e6cbd05814620008c7578063ee1e2d3d14620008ec57005b8063b53f2fa914620007bd578063b5e6e37114620007d5578063b60c704f14620007ed578063bc224fb61462000805578063c47fe02a146200081c57005b80638da5cb5b11620001015780638da5cb5b146200072e5780638f8751971462000750578063909311e114620007755780639da1ec6b146200078d578063a8352a7b14620007a557005b80636b073db614620006855780636fbb842214620006aa5780637748d3c414620006cf57806382a6f77c14620006f45780638609b2fc146200070c57005b806342924ca811620001d357806354c844fa116200019557806354c844fa14620005865780635b14ce0614620005ab5780635ef31a2e14620005c357806362909f9314620006495780636894ebce146200066057005b806342924ca8146200043a578063441548ee146200045f57806346348527146200050557806347f2b7c0146200052657806354ba5d78146200056e57005b80632c38c787116200021d5780632c38c787146200035457806336c9aed6146200037957806337776a2f146200039157806337cf779314620003df5780633ceb906d146200041557005b80624cef25146200026457806305c713c614620002a15780631275497214620002d5578063161e9e2314620002fb57806326c8fb70146200032057005b366200026257005b005b3480156200027157600080fd5b5062000289620002833660046200395e565b62000911565b6040516200029891906200399f565b60405180910390f35b348015620002ae57600080fd5b50620002c6620002c036600462003a06565b62000de8565b60405162000298919062003a8c565b620002ec620002e636600462003b04565b62000f4a565b60405162000298919062003b3c565b3480156200030857600080fd5b50620002626200031a36600462003b51565b62001255565b3480156200032d57600080fd5b50620003456200033f36600462003a06565b620015c0565b60405190815260200162000298565b3480156200036157600080fd5b50620002ec6200037336600462003b9c565b6200163c565b3480156200038657600080fd5b5062000345620016fe565b3480156200039e57600080fd5b50620003c63360009081526005602052604090205463010000009004600160a060020a031690565b604051600160a060020a03909116815260200162000298565b348015620003ec57600080fd5b5062000404620003fe3660046200395e565b6200173b565b604051620002989392919062003bc9565b3480156200042257600080fd5b50620002626200043436600462003a06565b620017a0565b3480156200044757600080fd5b50620002626200045936600462003bf9565b6200188d565b3480156200046c57600080fd5b50620004cf6200047e36600462003a06565b60056020526000908152604090205461ffff81169060ff620100008204811691600160a060020a03630100000082041691770100000000000000000000000000000000000000000000009091041684565b6040805161ffff90951685529215156020850152600160a060020a03909116918301919091521515606082015260800162000298565b3480156200051257600080fd5b50600254600160a060020a03163162000345565b3480156200053357600080fd5b503360009081526005602052604090205461ffff81169062010000900460ff166040805161ffff909316835290151560208301520162000298565b3480156200057b57600080fd5b506200026262001b32565b3480156200059357600080fd5b5062000262620005a536600462003c44565b62001c9e565b348015620005b857600080fd5b50620002c662002007565b348015620005d057600080fd5b506200061f620005e23660046200395e565b805160208183018101805160048252928201919093012091525461ffff81169062010000810460ff169063010000009004600160a060020a031683565b6040805161ffff90941684529115156020840152600160a060020a03169082015260600162000298565b620002ec6200065a36600462003a06565b620021d6565b3480156200066d57600080fd5b50620002ec6200067f36600462003caa565b6200250b565b3480156200069257600080fd5b5062000404620006a43660046200395e565b62002539565b348015620006b757600080fd5b5062000404620006c93660046200395e565b620025a4565b348015620006dc57600080fd5b5062000262620006ee36600462003b51565b6200266b565b3480156200070157600080fd5b50620002c662002924565b3480156200071957600080fd5b50600254620003c690600160a060020a031681565b3480156200073b57600080fd5b50600154620003c690600160a060020a031681565b3480156200075d57600080fd5b50620002ec6200076f36600462003caa565b62002af8565b3480156200078257600080fd5b50620002c662002b09565b3480156200079a57600080fd5b50620002c662002bec565b348015620007b257600080fd5b50620002c662002db7565b348015620007ca57600080fd5b506200026262002e91565b348015620007e257600080fd5b506200028962002fe8565b348015620007fa57600080fd5b50620002626200304c565b620002ec6200081636600462003a06565b620030cc565b3480156200082957600080fd5b506200026262003143565b620002626200084536600462003cc4565b62003183565b3480156200085857600080fd5b506200061f6200086a36600462003a06565b600160a060020a0390811660009081526005602052604090205461ffff81169262010000820460ff1692630100000090920490911690565b348015620008af57600080fd5b5062000262620008c136600462003cea565b62003334565b348015620008d457600080fd5b5062000262620008e636600462003b51565b62003416565b348015620008f957600080fd5b50620002626200090b3660046200395e565b620035ba565b600154606090600160a060020a031633146200094d5760405160e560020a62461bcd028152600401620009449062003d08565b60405180910390fd5b6040517f436c69656e74000000000000000000000000000000000000000000000000000060208201526026016040516020818303038152906040528051906020012082604051602001620009a2919062003d65565b60405160208183030381529060405280519060200120148062000a2d57506040517f4c61626f7261746f7279000000000000000000000000000000000000000000006020820152602a01604051602081830303815290604052805190602001208260405160200162000a15919062003d65565b60405160208183030381529060405280519060200120145b62000a7e5760405160e560020a62461bcd02815260206004820181905260248201527f456c207469706f20696e6772657361646f206e6f20657320636f72726563746f604482015260640162000944565b600954600090819067ffffffffffffffff81111562000aa15762000aa1620038b0565b60405190808252806020026020018201604052801562000acb578160200160208202803683370190505b506040517f436c69656e7400000000000000000000000000000000000000000000000000006020820152909150602601604051602081830303815290604052805190602001208460405160200162000b24919062003d65565b604051602081830303815290604052805190602001200362000c925760005b60095461ffff8216101562000c8b576005600060098361ffff168154811062000b705762000b7062003d83565b6000918252602080832090910154600160a060020a0316835282019290925260400190205460ff620100009091041615801562000bf75750600061ffff166005600060098461ffff168154811062000bcc5762000bcc62003d83565b6000918252602080832090910154600160a060020a0316835282019290925260400190205461ffff16145b1562000c765760098161ffff168154811062000c175762000c1762003d83565b9060005260206000200160009054906101000a9004600160a060020a0316828461ffff168151811062000c4e5762000c4e62003d83565b600160a060020a03909216602092830291909101909101528262000c728162003db5565b9350505b8062000c828162003db5565b91505062000b43565b5062000ddf565b60005b60095461ffff8216101562000ddd576005600060098361ffff168154811062000cc25762000cc262003d83565b6000918252602080832090910154600160a060020a0316835282019290925260400190205460ff620100009091041615801562000d495750600161ffff166005600060098461ffff168154811062000d1e5762000d1e62003d83565b6000918252602080832090910154600160a060020a0316835282019290925260400190205461ffff16145b1562000dc85760098161ffff168154811062000d695762000d6962003d83565b9060005260206000200160009054906101000a9004600160a060020a0316828461ffff168151811062000da05762000da062003d83565b600160a060020a03909216602092830291909101909101528262000dc48162003db5565b9350505b8062000dd48162003db5565b91505062000c95565b505b9150505b919050565b600160a060020a038116600090815260056020526040902054606090829061ffff1615801562000e3b5750600160a060020a03811660009081526005602052604090205462010000900460ff1615156001145b62000e5d5760405160e560020a62461bcd028152600401620009449062003dd9565b33600090815260066020908152604080832080548251818502810185019093528083529193909284015b8282101562000f3d57838290600052602060002001805462000ea99062003e10565b80601f016020809104026020016040519081016040528092919081815260200182805462000ed79062003e10565b801562000f285780601f1062000efc5761010080835404028352916020019162000f28565b820191906000526020600020905b81548152906001019060200180831162000f0a57829003601f168201915b50505050508152602001906001019062000e87565b5050505091505b50919050565b600160a060020a038216600090815260056020526040902054606090839061ffff16600114801562000f9f5750600160a060020a03811660009081526005602052604090205462010000900460ff1615156001145b62000fc15760405160e560020a62461bcd028152600401620009449062003e49565b6000805460405160e060020a6370a08231028152336004820152600160a060020a03909116906370a0823190602401602060405180830381865afa1580156200100e573d6000803e3d6000fd5b505050506040513d601f19601f8201168201806040525081019062001034919062003e7e565b11620010865760405160e560020a62461bcd02815260206004820152601b60248201527f4e6f20706f7365652062616c616e636520737566696369656e74650000000000604482015260640162000944565b6000805460405160e060020a6370a08231028152336004820152600160a060020a03909116906370a0823190602401602060405180830381865afa158015620010d3573d6000803e3d6000fd5b505050506040513d601f19601f82011682018060405250810190620010f9919062003e7e565b90508361ffff16811062001214576000546002546040517f51ce139a000000000000000000000000000000000000000000000000000000008152600160a060020a03928316926351ce139a926200115b92339290911690899060040162003e98565b600060405180830381600087803b1580156200117657600080fd5b505af11580156200118b573d6000803e3d6000fd5b5050505084600160a060020a03166108fc620011ab8661ffff16620036da565b6040518115909202916000818181858888f19350505050158015620011d4573d6000803e3d6000fd5b506040518060400160405280601981526020017f74752072657469726f206861207369646f20657869746f736f000000000000008152509250506200124e565b6040518060400160405280601c81526020017f4e6f207469656e6520666f6e646f7320737566696369656e7465732e000000008152509250505b5092915050565b600160a060020a038116600090815260056020526040902054819061ffff16158015620012a55750600160a060020a03811660009081526005602052604090205462010000900460ff1615156001145b620012c75760405160e560020a62461bcd028152600401620009449062003dd9565b600160a060020a03828116600090815260056020526040902054630100000090041633146200130d5760405160e560020a62461bcd028152600401620009449062003ebf565b6003836040516200131f919062003d65565b90815260405190819003602001902060019081015460ff6201000090910416151514620013925760405160e560020a62461bcd02815260206004820152601660248201527f536572766963696f206e6f20646973706f6e69626c6500000000000000000000604482015260640162000944565b60005460405160e060020a6370a08231028152336004820152600160a060020a03909116906370a0823190602401602060405180830381865afa158015620013de573d6000803e3d6000fd5b505050506040513d601f19601f8201168201806040525081019062001404919062003e7e565b60038460405162001416919062003d65565b9081526040519081900360200190206001015461ffff161115620014805760405160e560020a62461bcd02815260206004820152601c60248201527f4e6f20706f73656520666f6e646f732073756669656369656e74657300000000604482015260640162000944565b600054600254604051600160a060020a03928316926351ce139a923392911690600390620014b090899062003d65565b9081526040519081900360200181206001015460e060020a63ffffffff8616028252620014e993929161ffff9091169060040162003e98565b600060405180830381600087803b1580156200150457600080fd5b505af115801562001519573d6000803e3d6000fd5b50503360009081526006602090815260408220805460018101825590835291819020875162001550955092019250860190620037f2565b5060408051818152601f918101919091527f536572766963696f20617367696e61646f20636f7272656374616d656e74650060608201523360208201527faeec4cc17945dc276cca5dfcea87d02aea4287ddf3d60038ed95a0c26e84e2fe906080015b60405180910390a1505050565b6000805460405160e060020a6370a08231028152600160a060020a038481166004830152909116906370a08231906024015b602060405180830381865afa15801562001610573d6000803e3d6000fd5b505050506040513d601f19601f8201168201806040525081019062001636919062003e7e565b92915050565b600660205281600052604060002081815481106200165957600080fd5b90600052602060002001600091509150508054620016779062003e10565b80601f0160208091040260200160405190810160405280929190818152602001828054620016a59062003e10565b8015620016f65780601f10620016ca57610100808354040283529160200191620016f6565b820191906000526020600020905b815481529060010190602001808311620016d857829003601f168201915b505050505081565b6000805460025460405160e060020a6370a08231028152600160a060020a039182166004820152839291909116906370a0823190602401620015f2565b60606000808360048560405162001753919062003d65565b9081526040519081900360200181205461ffff16906004906200177890889062003d65565b90815260405190819003602001902054919450925060ff620100009091041690509193909250565b600154600160a060020a03163314620017d05760405160e560020a62461bcd028152600401620009449062003d08565b600160a060020a0381166000908152600560205260409081902080547701000000000000000000000000000000000000000001000077ff0000000000000000000000000000000000000000ff000019909116179055517f354c6a72b329f685c38dfa60613c835b26904be271112de710efa2e2c44eb3b49062001882906020808252818101527f536520686120686162696c697461646f20756e61207375736372697063696f6e604082015260600190565b60405180910390a150565b600154600160a060020a03163314620018bd5760405160e560020a62461bcd028152600401620009449062003d08565b620019a46007805480602002602001604051908101604052809291908181526020016000905b8282101562001999578382906000526020600020018054620019059062003e10565b80601f0160208091040260200160405190810160405280929190818152602001828054620019339062003e10565b8015620019845780601f10620019585761010080835404028352916020019162001984565b820191906000526020600020905b8154815290600101906020018083116200196657829003601f168201915b505050505081526020019060010190620018e3565b5050505083620036ec565b620019f55760405160e560020a62461bcd02815260206004820152601e60248201527f4e6f6d62726520646520736572766963696f73207961206578697374652e0000604482015260640162000944565b6040805160608101825283815261ffff83166020820152600181830152905160039062001a2490859062003d65565b9081526020016040518091039020600082015181600001908051906020019062001a50929190620037f2565b50602082810151600192830180546040909501511515620100000262ffffff1990951661ffff9092169190911793909317909255600780549182018155600052835162001ac5927fa66cc928b5edb82af9bd49922954155ab7b0942694bea4ce44661d9a8736c68890920191850190620037f2565b507f8e57bf275bc9d4afbccb31ba764024cab254f99c0a08044738ca22f06756a30860405162001b26906020808252601f908201527f53652068612063726561646f20756e206e7565766f20736572766963696f2e00604082015260600190565b60405180910390a15050565b3360009081526005602052604090205462010000900460ff161515600114801562001b7057503360009081526005602052604090205461ffff166001145b62001b925760405160e560020a62461bcd028152600401620009449062003f1c565b6002546040516000913391600160a060020a039091169062001bb4906200387d565b600160a060020a03928316815291166020820152604001604051809103906000f08015801562001be8573d6000803e3d6000fd5b503360009081526005602052604090819020805476ffffffffffffffffffffffffffffffffffffffff00000019166301000000600160a060020a03851602179055519091507f9ca50741aa35660fc78a732a8556916f45f5e93abc509a86d03a6aaaa7a2228090620018829083906040808252600f908201527f436f6e747261746f2063726561646f00000000000000000000000000000000006060820152600160a060020a0391909116602082015260800190565b600160a060020a038116600090815260056020526040902054819061ffff16600114801562001cf05750600160a060020a03811660009081526005602052604090205462010000900460ff1615156001145b62001d125760405160e560020a62461bcd028152600401620009449062003e49565b62001df96008805480602002602001604051908101604052809291908181526020016000905b8282101562001dee57838290600052602060002001805462001d5a9062003e10565b80601f016020809104026020016040519081016040528092919081815260200182805462001d889062003e10565b801562001dd95780601f1062001dad5761010080835404028352916020019162001dd9565b820191906000526020600020905b81548152906001019060200180831162001dbb57829003601f168201915b50505050508152602001906001019062001d38565b5050505085620036ec565b62001e4a5760405160e560020a62461bcd02815260206004820152601e60248201527f4e6f6d62726520646520736572766963696f73207961206578697374652e0000604482015260640162000944565b600160a060020a038281166000908152600560205260409020546301000000900416331462001e905760405160e560020a62461bcd028152600401620009449062003ebf565b6040805160608101825261ffff85168152600160208201523381830152905160049062001ebf90879062003d65565b9081526040805191829003602090810190922083518154858501519590930151600160a060020a031663010000000276ffffffffffffffffffffffffffffffffffffffff00000019951515620100000262ffffff1990941661ffff9092169190911792909217939093161790915560088054600181018255600091909152855162001f72927ff3f7a9fe364faab93b216da50a3214154f22a0a2b415b23a84c8169e8b636ee390920191870190620037f2565b507f8e57bf275bc9d4afbccb31ba764024cab254f99c0a08044738ca22f06756a30860405162001ff99060208082526028908201527f53652068612063726561646f20756e206e7565766f20736572766963696f206560408201527f7370656369616c2e000000000000000000000000000000000000000000000000606082015260800190565b60405180910390a150505050565b60085460609060009067ffffffffffffffff8111156200202b576200202b620038b0565b6040519080825280602002602001820160405280156200206057816020015b60608152602001906001900390816200204a5790505b5090506000805b60085461ffff82161015620021ce57600460088261ffff168154811062002092576200209262003d83565b90600052602060002001604051620020ab919062003f9f565b9081526040519081900360200190205460ff62010000909104161515600103620021b95760088161ffff1681548110620020e957620020e962003d83565b906000526020600020018054620021009062003e10565b80601f01602080910402602001604051908101604052809291908181526020018280546200212e9062003e10565b80156200217f5780601f1062002153576101008083540402835291602001916200217f565b820191906000526020600020905b8154815290600101906020018083116200216157829003601f168201915b5050505050838361ffff16815181106200219d576200219d62003d83565b60200260200101819052508180620021b59062003db5565b9250505b80620021c58162003db5565b91505062002067565b509092915050565b600160a060020a038116600090815260056020526040902054606090829061ffff16158015620022295750600160a060020a03811660009081526005602052604090205462010000900460ff1615156001145b6200224b5760405160e560020a62461bcd028152600401620009449062003dd9565b600160a060020a0383811660009081526005602052604090205463010000009004163314620022915760405160e560020a62461bcd028152600401620009449062003ebf565b600033905080600160a060020a031663085634ec6040518163ffffffff1660e060020a028152600401600060405180830381600087803b158015620022d557600080fd5b505af1158015620022ea573d6000803e3d6000fd5b50506000805460405160e060020a6370a08231028152336004820152919350600160a060020a031691506370a0823190602401602060405180830381865afa1580156200233b573d6000803e3d6000fd5b505050506040513d601f19601f8201168201806040525081019062002361919062003e7e565b1115620024cc576000805460405160e060020a6370a08231028152336004820152600160a060020a03909116906370a0823190602401602060405180830381865afa158015620023b5573d6000803e3d6000fd5b505050506040513d601f19601f82011682018060405250810190620023db919062003e7e565b6000546002546040517f51ce139a000000000000000000000000000000000000000000000000000000008152336004820152600160a060020a0391821660248201526044810184905292935016906351ce139a90606401600060405180830381600087803b1580156200244d57600080fd5b505af115801562002462573d6000803e3d6000fd5b5050505084600160a060020a03166108fc6200247e83620036da565b6040518115909202916000818181858888f19350505050158015620024a7573d6000803e3d6000fd5b506040518060600160405280603e815260200162005bb0603e91399350505062000f44565b6040518060400160405280601d81526020017f547520636f6e747261746f206861207369646f2063616e63656c61646f00000081525092505062000f44565b600881815481106200251c57600080fd5b906000526020600020016000915090508054620016779062003e10565b60606000808360038560405162002551919062003d65565b9081526040519081900360200181206001015461ffff16906003906200257990889062003d65565b90815260405190819003602001902060010154919450925060ff620100009091041690509193909250565b8051602081830181018051600382529282019190930120915280548190620025cc9062003e10565b80601f0160208091040260200160405190810160405280929190818152602001828054620025fa9062003e10565b80156200264b5780601f106200261f576101008083540402835291602001916200264b565b820191906000526020600020905b8154815290600101906020018083116200262d57829003601f168201915b5050506001909301549192505061ffff81169060ff620100009091041683565b600160a060020a038116600090815260056020526040902054819061ffff16158015620026bb5750600160a060020a03811660009081526005602052604090205462010000900460ff1615156001145b620026dd5760405160e560020a62461bcd028152600401620009449062003dd9565b600160a060020a0382811660009081526005602052604090205463010000009004163314620027235760405160e560020a62461bcd028152600401620009449062003ebf565b60048360405162002735919062003d65565b9081526040516020918190039190910190205462010000900460ff161515600114620027a75760405160e560020a62461bcd02815260206004820152601660248201527f536572766963696f206e6f20646973706f6e69626c6500000000000000000000604482015260640162000944565b60005460405160e060020a6370a08231028152336004820152600160a060020a03909116906370a0823190602401602060405180830381865afa158015620027f3573d6000803e3d6000fd5b505050506040513d601f19601f8201168201806040525081019062002819919062003e7e565b6004846040516200282b919062003d65565b9081526040519081900360200190205461ffff161115620028925760405160e560020a62461bcd02815260206004820152601b60248201527f4e6f20706f73656520666f6e646f7320737566696369656e7465730000000000604482015260640162000944565b600054604051600160a060020a03909116906351ce139a903390600490620028bc90889062003d65565b90815260405190819003602001812054600160a060020a0363010000009091041690600490620028ee90899062003d65565b9081526040519081900360200181205460e060020a63ffffffff8616028252620014e993929161ffff9091169060040162003e98565b60085460609060009067ffffffffffffffff811115620029485762002948620038b0565b6040519080825280602002602001820160405280156200297d57816020015b6060815260200190600190039081620029675790505b5090506000805b60085461ffff82161015620021ce5733600160a060020a0316600460088361ffff1681548110620029b957620029b962003d83565b90600052602060002001604051620029d2919062003f9f565b90815260405190819003602001902054600160a060020a036301000000909104160362002ae35760088161ffff168154811062002a135762002a1362003d83565b90600052602060002001805462002a2a9062003e10565b80601f016020809104026020016040519081016040528092919081815260200182805462002a589062003e10565b801562002aa95780601f1062002a7d5761010080835404028352916020019162002aa9565b820191906000526020600020905b81548152906001019060200180831162002a8b57829003601f168201915b5050505050838361ffff168151811062002ac75762002ac762003d83565b6020026020010181905250818062002adf9062003db5565b9250505b8062002aef8162003db5565b91505062002984565b600781815481106200251c57600080fd5b60606007805480602002602001604051908101604052809291908181526020016000905b8282101562002be357838290600052602060002001805462002b4f9062003e10565b80601f016020809104026020016040519081016040528092919081815260200182805462002b7d9062003e10565b801562002bce5780601f1062002ba25761010080835404028352916020019162002bce565b820191906000526020600020905b81548152906001019060200180831162002bb057829003601f168201915b50505050508152602001906001019062002b2d565b50505050905090565b60075460609060009067ffffffffffffffff81111562002c105762002c10620038b0565b60405190808252806020026020018201604052801562002c4557816020015b606081526020019060019003908162002c2f5790505b5090506000805b60075461ffff82161015620021ce57600360078261ffff168154811062002c775762002c7762003d83565b9060005260206000200160405162002c90919062003f9f565b90815260405190819003602001902060019081015460ff62010000909104161515900362002da25760078161ffff168154811062002cd25762002cd262003d83565b90600052602060002001805462002ce99062003e10565b80601f016020809104026020016040519081016040528092919081815260200182805462002d179062003e10565b801562002d685780601f1062002d3c5761010080835404028352916020019162002d68565b820191906000526020600020905b81548152906001019060200180831162002d4a57829003601f168201915b5050505050838361ffff168151811062002d865762002d8662003d83565b6020026020010181905250818062002d9e9062003db5565b9250505b8062002dae8162003db5565b91505062002c4c565b60606008805480602002602001604051908101604052809291908181526020016000905b8282101562002be357838290600052602060002001805462002dfd9062003e10565b80601f016020809104026020016040519081016040528092919081815260200182805462002e2b9062003e10565b801562002e7c5780601f1062002e505761010080835404028352916020019162002e7c565b820191906000526020600020905b81548152906001019060200180831162002e5e57829003601f168201915b50505050508152602001906001019062002ddb565b62002e9b62003789565b62002ebd5760405160e560020a62461bcd028152600401620009449062004045565b60408051608081019091528060005b61ffff90811682526000602080840182905260408085018390526060948501839052338084526005835281842087518154948901519389015198909701511515770100000000000000000000000000000000000000000000000277ff000000000000000000000000000000000000000000000019600160a060020a03999099166301000000029890981677ffffffffffffffffffffffffffffffffffffffffff00000019931515620100000262ffffff199095169790961696909617929092171692909217939093179091556009805460018101825592527f6e1540171b6c0c960b71a7020d9f60077f6af931a8bbf590da0223dacf75c7af909101805473ffffffffffffffffffffffffffffffffffffffff19169091179055565b606060098054806020026020016040519081016040528092919081815260200182805480156200304257602002820191906000526020600020905b8154600160a060020a0316815260019091019060200180831162003023575b5050505050905090565b3360009081526005602052604090205462010000900460ff16151560011480156200308857503360009081526005602052604090205461ffff16155b620030aa5760405160e560020a62461bcd028152600401620009449062003f1c565b6002546040516000913391600160a060020a039091169062001bb4906200388b565b600160a060020a038116600090815260056020526040902054606090829061ffff166001148015620031215750600160a060020a03811660009081526005602052604090205462010000900460ff1615156001145b6200224b5760405160e560020a62461bcd028152600401620009449062003e49565b6200314d62003789565b6200316f5760405160e560020a62461bcd028152600401620009449062004045565b604080516080810190915280600162002ecc565b600160a060020a0381811660009081526005602052604090205463010000009004163314620031c95760405160e560020a62461bcd028152600401620009449062003ebf565b6000620031d683620036da565b905080341015620032535760405160e560020a62461bcd02815260206004820152603a60248201527f4e6563657369746173206d617320657468657273207061726120636f6d70726160448201527f7220657374612063616e746964616420646520746f6b656e732e000000000000606482015260840162000944565b6000620032618234620040a2565b604051909150600160a060020a0384169082156108fc029083906000818181858888f193505050501580156200329b573d6000803e3d6000fd5b506000546040517fa9059cbb00000000000000000000000000000000000000000000000000000000815233600482015260248101869052600160a060020a039091169063a9059cbb906044016020604051808303816000875af115801562003307573d6000803e3d6000fd5b505050506040513d601f19601f820116820180604052508101906200332d9190620040bc565b5050505050565b600154600160a060020a03163314620033645760405160e560020a62461bcd028152600401620009449062003d08565b6000546040517fa0712d6800000000000000000000000000000000000000000000000000000000815261ffff83166004820152600160a060020a039091169063a0712d6890602401600060405180830381600087803b158015620033c757600080fd5b505af1158015620033dc573d6000803e3d6000fd5b505060405161ffff841681527fa3fcbf85d2ee7bc02b55f15a3259f856a2b3489f50d6a91e302b612e43df01cb9250602001905062001882565b600160a060020a038116600090815260056020526040902054819061ffff166001148015620034685750600160a060020a03811660009081526005602052604090205462010000900460ff1615156001145b6200348a5760405160e560020a62461bcd028152600401620009449062003e49565b600160a060020a0382811660009081526005602052604090205463010000009004163314620034d05760405160e560020a62461bcd028152600401620009449062003ebf565b600483604051620034e2919062003d65565b9081526040519081900360200181205460ff620100009091041615906004906200350e90869062003d65565b9081526040519081900360200181208054921515620100000262ff000019909316929092179091557f7ea7da48cf18f9bc204a2781adfa6f4f7a2c3eb23101b97cf76fd373f029036f90620015b3906020808252603d908201527f53652068612063616d626961646f20656c2065737461646f2064656c2073657260408201527f766963696f20657370656369616c20636f7272656374616d656e74652e000000606082015260800190565b600154600160a060020a03163314620035ea5760405160e560020a62461bcd028152600401620009449062003d08565b600381604051620035fc919062003d65565b9081526040519081900360200181206001015460ff620100009091041615906003906200362b90849062003d65565b9081526040519081900360200181206001018054921515620100000262ff000019909316929092179091557f7ea7da48cf18f9bc204a2781adfa6f4f7a2c3eb23101b97cf76fd373f029036f90620018829060208082526034908201527f53652068612063616d626961646f20656c2065737461646f2064656c2073657260408201527f766963696f20636f7272656374616d656e74652e000000000000000000000000606082015260800190565b60006200163682633b9aca00620040e0565b600160005b83518110156200124e57826040516020016200370e919062003d65565b6040516020818303038152906040528051906020012084828151811062003739576200373962003d83565b602002602001015160405160200162003753919062003d65565b60405160208183030381529060405280519060200120036200377457600091505b80620037808162004102565b915050620036f1565b600160005b600954811015620037ee5733600160a060020a031660098281548110620037b957620037b962003d83565b600091825260209091200154600160a060020a031603620037d957600091505b80620037e58162004102565b9150506200378e565b5090565b828054620038009062003e10565b90600052602060002090601f0160209004810192826200382457600085556200386f565b82601f106200383f57805160ff19168380011785556200386f565b828001600101855582156200386f579182015b828111156200386f57825182559160200191906001019062003852565b50620037ee92915062003899565b610be7806200411f83390190565b610eaa8062004d0683390190565b5b80821115620037ee57600081556001016200389a565b60e060020a634e487b7102600052604160045260246000fd5b600082601f830112620038db57600080fd5b813567ffffffffffffffff80821115620038f957620038f9620038b0565b604051601f8301601f19908116603f01168101908282118183101715620039245762003924620038b0565b816040528381528660208588010111156200393e57600080fd5b836020870160208301376000602085830101528094505050505092915050565b6000602082840312156200397157600080fd5b813567ffffffffffffffff8111156200398957600080fd5b6200399784828501620038c9565b949350505050565b6020808252825182820181905260009190848201906040850190845b81811015620039e2578351600160a060020a031683529284019291840191600101620039bb565b50909695505050505050565b8035600160a060020a038116811462000de357600080fd5b60006020828403121562003a1957600080fd5b62003a2482620039ee565b9392505050565b60005b8381101562003a4857818101518382015260200162003a2e565b8381111562003a58576000848401525b50505050565b6000815180845262003a7881602086016020860162003a2b565b601f01601f19169290920160200192915050565b600060208083018184528085518083526040860191506040848202870101925083870160005b8281101562003ae457603f1988860301845262003ad185835162003a5e565b9450928501929085019060010162003ab2565b5092979650505050505050565b803561ffff8116811462000de357600080fd5b6000806040838503121562003b1857600080fd5b62003b2383620039ee565b915062003b336020840162003af1565b90509250929050565b60208152600062003a24602083018462003a5e565b6000806040838503121562003b6557600080fd5b823567ffffffffffffffff81111562003b7d57600080fd5b62003b8b85828601620038c9565b92505062003b3360208401620039ee565b6000806040838503121562003bb057600080fd5b62003bbb83620039ee565b946020939093013593505050565b60608152600062003bde606083018662003a5e565b61ffff94909416602083015250901515604090910152919050565b6000806040838503121562003c0d57600080fd5b823567ffffffffffffffff81111562003c2557600080fd5b62003c3385828601620038c9565b92505062003b336020840162003af1565b60008060006060848603121562003c5a57600080fd5b833567ffffffffffffffff81111562003c7257600080fd5b62003c8086828701620038c9565b93505062003c916020850162003af1565b915062003ca160408501620039ee565b90509250925092565b60006020828403121562003cbd57600080fd5b5035919050565b6000806040838503121562003cd857600080fd5b8235915062003b3360208401620039ee565b60006020828403121562003cfd57600080fd5b62003a248262003af1565b6020808252603c908201527f4e6f207469656e6573206c6f73207065726d69736f73206e656365736172696f60408201527f73207061726120656a65637574617220657374612066756e63696f6e00000000606082015260800190565b6000825162003d7981846020870162003a2b565b9190910192915050565b60e060020a634e487b7102600052603260045260246000fd5b60e060020a634e487b7102600052601160045260246000fd5b600061ffff80831681810362003dcf5762003dcf62003d9c565b6001019392505050565b6020808252601c908201527f4e6f20706f736565207065726d69736f7320646520636c69656e746500000000604082015260600190565b60028104600182168062003e2557607f821691505b60208210810362000f445760e060020a634e487b7102600052602260045260246000fd5b6020808252818101527f4e6f20706f736565207065726d69736f73206465206c61626f7261746f72696f604082015260600190565b60006020828403121562003e9157600080fd5b5051919050565b600160a060020a03938416815291909216602082015261ffff909116604082015260600190565b6020808252602f908201527f4e6f207469656e6573207065726d69736f73207061726120656a65637574617260408201527f2065737461206f7065726163696f6e0000000000000000000000000000000000606082015260800190565b6020808252604b908201527f4e6f207469656e657320686162696c697461646f20706172612063726561722060408201527f747520636f6e747261746f206f207469706f20646520636f6e747261746f206e60608201527f6f20636f696e636964652e000000000000000000000000000000000000000000608082015260a00190565b815460009081906002810460018083168062003fbc57607f831692505b6020808410820362003fdf5760e060020a634e487b710286526022600452602486fd5b81801562003ff65760018114620040085762004037565b60ff1986168952848901965062004037565b60008a81526020902060005b868110156200402f5781548b82015290850190830162004014565b505084890196505b509498975050505050505050565b60208082526026908201527f5961207469656e657320756e61207065746963696f6e2061207475206469726560408201527f6363696f6e2e0000000000000000000000000000000000000000000000000000606082015260800190565b600082821015620040b757620040b762003d9c565b500390565b600060208284031215620040cf57600080fd5b8151801515811462003a2457600080fd5b6000816000190483118215151615620040fd57620040fd62003d9c565b500290565b60006001820162004117576200411762003d9c565b506001019056fe608060405234801561001057600080fd5b50604051610be7380380610be783398101604081905261002f916100b8565b60008054600160a060020a0319908116600160a060020a039485161790915560018054600280549093169390941692909217905574010000000000000000000000000000000000000000600160a860020a03199092163060a060020a60ff021916179190911790556100eb565b8051600160a060020a03811681146100b357600080fd5b919050565b600080604083850312156100cb57600080fd5b6100d48361009c565b91506100e26020840161009c565b90509250929050565b610aed806100fa6000396000f3fe6080604052600436106100a3576000357c010000000000000000000000000000000000000000000000000000000090048063c98c64b711610076578063c98c64b71461014c578063cc805c201461016c578063d5808c751461017f578063e3e97a9a146101b0578063ea54d212146101d357600080fd5b8063085634ec146100a857806312494d16146100da5780638da5cb5b146100ef57806396b0e90d1461012c575b600080fd5b3480156100b457600080fd5b506100d86001805474ff000000000000000000000000000000000000000019169055565b005b3480156100e657600080fd5b506100d86101f5565b3480156100fb57600080fd5b5060005461010f90600160a060020a031681565b604051600160a060020a0390911681526020015b60405180910390f35b34801561013857600080fd5b506100d8610147366004610749565b6102bc565b34801561015857600080fd5b506100d861016736600461079d565b61036d565b6100d861017a3660046107eb565b61041f565b34801561018b57600080fd5b506001546101a09060a060020a900460ff1681565b6040519015158152602001610123565b3480156101bc57600080fd5b506101c56104e8565b604051908152602001610123565b3480156101df57600080fd5b506101e86105a5565b6040516101239190610869565b60015460a060020a900460ff1661022a5760405160e560020a62461bcd028152600401610221906108ca565b60405180910390fd5b6002546000546040517fbc224fb6000000000000000000000000000000000000000000000000000000008152600160a060020a03918216600482015291169063bc224fb6906024016000604051808303816000875af1158015610291573d6000803e3d6000fd5b505050506040513d6000823e601f3d908101601f191682016040526102b99190810190610946565b50565b60015460a060020a900460ff166102e85760405160e560020a62461bcd028152600401610221906108ca565b6002546000546040517fe6cbd058000000000000000000000000000000000000000000000000000000008152600160a060020a039283169263e6cbd058926103389286929091169060040161097b565b600060405180830381600087803b15801561035257600080fd5b505af1158015610366573d6000803e3d6000fd5b5050505050565b60015460a060020a900460ff166103995760405160e560020a62461bcd028152600401610221906108ca565b6002546000546040517f54c844fa000000000000000000000000000000000000000000000000000000008152600160a060020a03928316926354c844fa926103e9928792879216906004016109a6565b600060405180830381600087803b15801561040357600080fd5b505af1158015610417573d6000803e3d6000fd5b505050505050565b60015460a060020a900460ff1661044b5760405160e560020a62461bcd028152600401610221906108ca565b6002546000546040517f12754972000000000000000000000000000000000000000000000000000000008152600160a060020a03918216600482015261ffff841660248201529116906312754972906044016000604051808303816000875af11580156104bc573d6000803e3d6000fd5b505050506040513d6000823e601f3d908101601f191682016040526104e49190810190610946565b5050565b60015460009060a060020a900460ff166105175760405160e560020a62461bcd028152600401610221906108ca565b6002546001546040517f26c8fb70000000000000000000000000000000000000000000000000000000008152600160a060020a0391821660048201529116906326c8fb7090602401602060405180830381865afa15801561057c573d6000803e3d6000fd5b505050506040513d601f19601f820116820180604052508101906105a091906109dc565b905090565b60015460609060a060020a900460ff166105d45760405160e560020a62461bcd028152600401610221906108ca565b600260009054906101000a9004600160a060020a0316600160a060020a03166382a6f77c6040518163ffffffff167c0100000000000000000000000000000000000000000000000000000000028152600401600060405180830381865afa158015610643573d6000803e3d6000fd5b505050506040513d6000823e601f3d908101601f191682016040526105a091908101906109f5565b7f4e487b7100000000000000000000000000000000000000000000000000000000600052604160045260246000fd5b604051601f8201601f1916810167ffffffffffffffff811182821017156106c3576106c361066b565b604052919050565b600067ffffffffffffffff8211156106e5576106e561066b565b50601f01601f191660200190565b600082601f83011261070457600080fd5b8135610717610712826106cb565b61069a565b81815284602083860101111561072c57600080fd5b816020850160208301376000918101602001919091529392505050565b60006020828403121561075b57600080fd5b813567ffffffffffffffff81111561077257600080fd5b61077e848285016106f3565b949350505050565b803561ffff8116811461079857600080fd5b919050565b600080604083850312156107b057600080fd5b823567ffffffffffffffff8111156107c757600080fd5b6107d3858286016106f3565b9250506107e260208401610786565b90509250929050565b6000602082840312156107fd57600080fd5b61080682610786565b9392505050565b60005b83811015610828578181015183820152602001610810565b83811115610837576000848401525b50505050565b6000815180845261085581602086016020860161080d565b601f01601f19169290920160200192915050565b600060208083018184528085518083526040860191506040848202870101925083870160005b828110156108bd57603f198886030184526108ab85835161083d565b9450928501929085019060010161088f565b5092979650505050505050565b6020808252601c908201527f4e6f20706f73656520756e20636f6e74726163746f2061637469766f00000000604082015260600190565b600082601f83011261091257600080fd5b8151610920610712826106cb565b81815284602083860101111561093557600080fd5b61077e82602083016020870161080d565b60006020828403121561095857600080fd5b815167ffffffffffffffff81111561096f57600080fd5b61077e84828501610901565b60408152600061098e604083018561083d565b9050600160a060020a03831660208301529392505050565b6060815260006109b9606083018661083d565b905061ffff84166020830152600160a060020a0383166040830152949350505050565b6000602082840312156109ee57600080fd5b5051919050565b60006020808385031215610a0857600080fd5b825167ffffffffffffffff80821115610a2057600080fd5b818501915085601f830112610a3457600080fd5b815181811115610a4657610a4661066b565b838102610a5485820161069a565b9182528381018501918581019089841115610a6e57600080fd5b86860192505b83831015610aaa57825185811115610a8c5760008081fd5b610a9a8b89838a0101610901565b8352509186019190860190610a74565b999850505050505050505056fea2646970667358221220cd7cf355957083e72c4a24d00727ed5013ae7d68992587fa8518c54981c2b78864736f6c634300080e0033608060405234801561001057600080fd5b50604051610eaa380380610eaa83398101604081905261002f916100b4565b60008054600160a060020a03938416600160a060020a03199182161790915560018054821630179055600280546003805490931693909416928317909155600160a860020a031990921617740100000000000000000000000000000000000000001790556100e7565b8051600160a060020a03811681146100af57600080fd5b919050565b600080604083850312156100c757600080fd5b6100d083610098565b91506100de60208401610098565b90509250929050565b610db4806100f66000396000f3fe6080604052600436106100e15760003560e060020a90048063c73e271011610083578063db8366eb1161005d578063db8366eb14610262578063de1c548814610282578063e4f05b7614610297578063ea54d212146102b757600080fd5b8063c73e2710146101ec578063d25120ce1461020e578063d5808c751461023157600080fd5b806314f52f3a116100bf57806314f52f3a146101685780632b68bb2d146101975780638da5cb5b146101ac578063a5487a03146101cc57600080fd5b8063072ec0bb146100e6578063085634ec146101235780630e662cf014610155575b600080fd5b3480156100f257600080fd5b5060025461010690600160a060020a031681565b604051600160a060020a0390911681526020015b60405180910390f35b34801561012f57600080fd5b506101536002805474ff000000000000000000000000000000000000000019169055565b005b61015361016336600461092b565b6102cc565b34801561017457600080fd5b506101886101833660046109d7565b61038a565b60405161011a93929190610ab3565b61019f610459565b60405161011a9190610ae1565b3480156101b857600080fd5b5060005461010690600160a060020a031681565b3480156101d857600080fd5b506101886101e73660046109d7565b610572565b3480156101f857600080fd5b506102016105ef565b60405161011a9190610af4565b34801561021a57600080fd5b50610223610681565b60405190815260200161011a565b34801561023d57600080fd5b506002546102529060a060020a900460ff1681565b604051901515815260200161011a565b34801561026e57600080fd5b5061015361027d3660046109d7565b610739565b34801561028e57600080fd5b506102016107be565b3480156102a357600080fd5b506101536102b23660046109d7565b610843565b3480156102c357600080fd5b50610201610893565b60025460a060020a900460ff166103015760405160e560020a62461bcd0281526004016102f890610b55565b60405180910390fd5b6003546000546040517fc625e9b100000000000000000000000000000000000000000000000000000000815261ffff84166004820152600160a060020a03918216602482015291169063c625e9b19034906044016000604051808303818588803b15801561036e57600080fd5b505af1158015610382573d6000803e3d6000fd5b505050505050565b6060600080600260149054906101000a900460ff166103be5760405160e560020a62461bcd0281526004016102f890610b55565b6003546040517f6b073db6000000000000000000000000000000000000000000000000000000008152600160a060020a0390911690636b073db690610407908790600401610ae1565b600060405180830381865afa158015610424573d6000803e3d6000fd5b505050506040513d6000823e601f3d908101601f1916820160405261044c9190810190610bd9565b9250925092509193909250565b60025460609060a060020a900460ff166104de5760405160e560020a62461bcd02815260206004820152602760248201527f4e6f20706f73656520756e20636f6e74726163746f2061637469766f2061206360448201527f616e63656c61720000000000000000000000000000000000000000000000000060648201526084016102f8565b6003546000546040517f62909f93000000000000000000000000000000000000000000000000000000008152600160a060020a0391821660048201529116906362909f93906024016000604051808303816000875af1158015610545573d6000803e3d6000fd5b505050506040513d6000823e601f3d908101601f1916820160405261056d9190810190610c43565b905090565b6060600080600260149054906101000a900460ff166105a65760405160e560020a62461bcd0281526004016102f890610b55565b6003546040517f37cf7793000000000000000000000000000000000000000000000000000000008152600160a060020a03909116906337cf779390610407908790600401610ae1565b6003546000546040517f05c713c6000000000000000000000000000000000000000000000000000000008152600160a060020a03918216600482015260609291909116906305c713c690602401600060405180830381865afa158015610659573d6000803e3d6000fd5b505050506040513d6000823e601f3d908101601f1916820160405261056d9190810190610c78565b60025460009060a060020a900460ff166106b05760405160e560020a62461bcd0281526004016102f890610b55565b6003546001546040517f26c8fb70000000000000000000000000000000000000000000000000000000008152600160a060020a0391821660048201529116906326c8fb7090602401602060405180830381865afa158015610715573d6000803e3d6000fd5b505050506040513d601f19601f8201168201806040525081019061056d9190610d3a565b6003546000546040517f161e9e23000000000000000000000000000000000000000000000000000000008152600160a060020a039283169263161e9e239261078992869290911690600401610d53565b600060405180830381600087803b1580156107a357600080fd5b505af11580156107b7573d6000803e3d6000fd5b5050505050565b60025460609060a060020a900460ff166107ed5760405160e560020a62461bcd0281526004016102f890610b55565b600360009054906101000a9004600160a060020a0316600160a060020a0316639da1ec6b6040518163ffffffff1660e060020a028152600401600060405180830381865afa158015610659573d6000803e3d6000fd5b6003546000546040517f7748d3c4000000000000000000000000000000000000000000000000000000008152600160a060020a0392831692637748d3c49261078992869290911690600401610d53565b60025460609060a060020a900460ff166108c25760405160e560020a62461bcd0281526004016102f890610b55565b600360009054906101000a9004600160a060020a0316600160a060020a0316635b14ce066040518163ffffffff1660e060020a028152600401600060405180830381865afa158015610659573d6000803e3d6000fd5b61ffff8116811461092857600080fd5b50565b60006020828403121561093d57600080fd5b813561094881610918565b9392505050565b7f4e487b7100000000000000000000000000000000000000000000000000000000600052604160045260246000fd5b604051601f8201601f1916810167ffffffffffffffff811182821017156109a7576109a761094f565b604052919050565b600067ffffffffffffffff8211156109c9576109c961094f565b50601f01601f191660200190565b6000602082840312156109e957600080fd5b813567ffffffffffffffff811115610a0057600080fd5b8201601f81018413610a1157600080fd5b8035610a24610a1f826109af565b61097e565b818152856020838501011115610a3957600080fd5b81602084016020830137600091810160200191909152949350505050565b60005b83811015610a72578181015183820152602001610a5a565b83811115610a81576000848401525b50505050565b60008151808452610a9f816020860160208601610a57565b601f01601f19169290920160200192915050565b606081526000610ac66060830186610a87565b61ffff94909416602083015250901515604090910152919050565b6020815260006109486020830184610a87565b600060208083018184528085518083526040860191506040848202870101925083870160005b82811015610b4857603f19888603018452610b36858351610a87565b94509285019290850190600101610b1a565b5092979650505050505050565b6020808252601c908201527f4e6f20706f73656520756e20636f6e74726163746f2061637469766f00000000604082015260600190565b600082601f830112610b9d57600080fd5b8151610bab610a1f826109af565b818152846020838601011115610bc057600080fd5b610bd1826020830160208701610a57565b949350505050565b600080600060608486031215610bee57600080fd5b835167ffffffffffffffff811115610c0557600080fd5b610c1186828701610b8c565b9350506020840151610c2281610918565b60408501519092508015158114610c3857600080fd5b809150509250925092565b600060208284031215610c5557600080fd5b815167ffffffffffffffff811115610c6c57600080fd5b610bd184828501610b8c565b60006020808385031215610c8b57600080fd5b825167ffffffffffffffff80821115610ca357600080fd5b818501915085601f830112610cb757600080fd5b815181811115610cc957610cc961094f565b838102610cd785820161097e565b9182528381018501918581019089841115610cf157600080fd5b86860192505b83831015610d2d57825185811115610d0f5760008081fd5b610d1d8b89838a0101610b8c565b8352509186019190860190610cf7565b9998505050505050505050565b600060208284031215610d4c57600080fd5b5051919050565b604081526000610d666040830185610a87565b9050600160a060020a0383166020830152939250505056fea264697066735822122062ad8601870c07c8d491d6467fb7c2cb9a80b5556ced59be34edcbee0ab69cf764736f6c634300080e0033547520636f6e747261746f206861207369646f2063616e63656c61646f20792074752064696e65726f2064657675656c746f20612074752077616c6c6574a2646970667358221220f72c22fada45b653c6528b7acf6ac45cc98ac7fea364f6d399d257e08f3d3c7664736f6c634300080e003360806040523480156200001157600080fd5b5060405162000a3438038062000a348339810160408190526200003491620001f4565b81516200004990600290602085019062000068565b5080516200005f90600390602084019062000068565b505050620002b3565b82805462000076906200025e565b90600052602060002090601f0160209004810192826200009a5760008555620000e5565b82601f10620000b557805160ff1916838001178555620000e5565b82800160010185558215620000e5579182015b82811115620000e5578251825591602001919060010190620000c8565b50620000f3929150620000f7565b5090565b5b80821115620000f35760008155600101620000f8565b7f4e487b7100000000000000000000000000000000000000000000000000000000600052604160045260246000fd5b600082601f8301126200014f57600080fd5b81516001604060020a03808211156200016c576200016c6200010e565b604051601f8301601f19908116603f011681019082821181831017156200019757620001976200010e565b81604052838152602092508683858801011115620001b457600080fd5b600091505b83821015620001d85785820183015181830184015290820190620001b9565b83821115620001ea5760008385830101525b9695505050505050565b600080604083850312156200020857600080fd5b82516001604060020a03808211156200022057600080fd5b6200022e868387016200013d565b935060208501519150808211156200024557600080fd5b5062000254858286016200013d565b9150509250929050565b6002810460018216806200027357607f821691505b602082108103620002ad577f4e487b7100000000000000000000000000000000000000000000000000000000600052602260045260246000fd5b50919050565b61077180620002c36000396000f3fe608060405234801561001057600080fd5b506004361061009a576000357c01000000000000000000000000000000000000000000000000000000009004806370a082311161007857806370a08231146100e457806395d89b411461010d578063a0712d6814610115578063a9059cbb1461012857600080fd5b806306fdde031461009f57806318160ddd146100bd57806351ce139a146100cf575b600080fd5b6100a761014b565b6040516100b49190610578565b60405180910390f35b6001545b6040519081526020016100b4565b6100e26100dd3660046105e9565b6101dd565b005b6100c16100f2366004610625565b600160a060020a031660009081526020819052604090205490565b6100a761023c565b6100e2610123366004610647565b61024b565b61013b610136366004610660565b610258565b60405190151581526020016100b4565b60606002805461015a9061068a565b80601f01602080910402602001604051908101604052809291908181526020018280546101869061068a565b80156101d35780601f106101a8576101008083540402835291602001916101d3565b820191906000526020600020905b8154815290600101906020018083116101b657829003601f168201915b5050505050905090565b600160a060020a0383166000908152602081905260408120805483929061020590849061070c565b9091555050600160a060020a03821660009081526020819052604081208054839290610232908490610723565b9091555050505050565b60606003805461015a9061068a565b6102553382610270565b50565b600033610266818585610357565b5060019392505050565b600160a060020a0382166102ce5760405160e560020a62461bcd02815260206004820152601f60248201527f45524332303a206d696e7420746f20746865207a65726f20616464726573730060448201526064015b60405180910390fd5b80600160008282546102e09190610723565b9091555050600160a060020a0382166000908152602081905260408120805483929061030d908490610723565b9091555050604051818152600160a060020a038316906000907fddf252ad1be2c89b69c2b068fc378daa952ba7f163c4a11628f55a4df523b3ef9060200160405180910390a35050565b600160a060020a0383166103d65760405160e560020a62461bcd02815260206004820152602560248201527f45524332303a207472616e736665722066726f6d20746865207a65726f20616460448201527f647265737300000000000000000000000000000000000000000000000000000060648201526084016102c5565b600160a060020a0382166104555760405160e560020a62461bcd02815260206004820152602360248201527f45524332303a207472616e7366657220746f20746865207a65726f206164647260448201527f657373000000000000000000000000000000000000000000000000000000000060648201526084016102c5565b600160a060020a038316600090815260208190526040902054818110156104e75760405160e560020a62461bcd02815260206004820152602660248201527f45524332303a207472616e7366657220616d6f756e742065786365656473206260448201527f616c616e6365000000000000000000000000000000000000000000000000000060648201526084016102c5565b600160a060020a0380851660009081526020819052604080822085850390559185168152908120805484929061051e908490610723565b9250508190555082600160a060020a031684600160a060020a03167fddf252ad1be2c89b69c2b068fc378daa952ba7f163c4a11628f55a4df523b3ef8460405161056a91815260200190565b60405180910390a350505050565b600060208083528351808285015260005b818110156105a557858101830151858201604001528201610589565b818111156105b7576000604083870101525b50601f01601f1916929092016040019392505050565b8035600160a060020a03811681146105e457600080fd5b919050565b6000806000606084860312156105fe57600080fd5b610607846105cd565b9250610615602085016105cd565b9150604084013590509250925092565b60006020828403121561063757600080fd5b610640826105cd565b9392505050565b60006020828403121561065957600080fd5b5035919050565b6000806040838503121561067357600080fd5b61067c836105cd565b946020939093013593505050565b60028104600182168061069e57607f821691505b6020821081036106d7577f4e487b7100000000000000000000000000000000000000000000000000000000600052602260045260246000fd5b50919050565b7f4e487b7100000000000000000000000000000000000000000000000000000000600052601160045260246000fd5b60008282101561071e5761071e6106dd565b500390565b60008219821115610736576107366106dd565b50019056fea2646970667358221220ece6a1c0d07c7c3fc4fe4397433f7220fdc263e36317139682a78afcefca1ff664736f6c634300080e0033",
  "immutableReferences": {},
  "source": "// SPDX-License-Identifier: MIT\npragma solidity >=0.7.0 < 0.9.0;\nimport \"../Token/ERC20.sol\";\nimport \"./IInsuranceRocketCompany.sol\";\nimport \"./InsuranceClientRocketCompany.sol\";\nimport \"./InsuranceLaboratoryRocketCompany.sol\";\n\ncontract InsuranceRocketCompany is InterfaceRocket{\n    //Token\n    ERC20Rocket token;\n    address public owner;\n    address public addressContract;\n\n    constructor() {\n        token = new ERC20Rocket(\"MedicineRocket\", \"MR\");\n        token.mint(10000);\n\n        owner = msg.sender;\n        addressContract = address(this);\n    }\n\n    //Funcion Ether balance\n    function BalanceContractEthers ()public view returns(uint){\n        return addressContract.balance;\n    }\n\n    //---------------------------------------Modifiers---------------------------------------\n    modifier onlyOwner {\n        require(msg.sender == owner, \"No tienes los permisos necesarios para ejecutar esta funcion\");\n        _;\n    }\n\n    modifier onlyLaboratories(address ownerLaboratory) {\n        require (\n            RequestStatus[ownerLaboratory].requestType == uint16(1) && RequestStatus[ownerLaboratory].statusRequest == true,\n            \"No posee permisos de laboratorio\"\n        );\n        _;\n    }\n\n    modifier onlyClient(address _userWallet){\n        require (\n            RequestStatus[_userWallet].requestType == uint16(0) && RequestStatus[_userWallet].statusRequest == true,\n            \"No posee permisos de cliente\"\n        );\n        _;        \n    }\n\n    //---------------------------------------Mappings---------------------------------------\n    //Mapping para relacionar el nombre de un servicio con su estructura de datos\n    mapping(string => Service) public Services;\n\n    //Mapping para guardar los servicios especializados de laboratorios externos\n    mapping(string => SpecialService) public SpecialServices;\n\n    //Mapping que relaciona la address con la peticion\n    mapping(address => Request) public RequestStatus;\n\n    //Mapping que relacion un address de cada usuario con su historial de servicios\n    mapping(address => string []) public servicesClientHistory;\n\n    //---------------------------------------Enums---------------------------------------\n    //Enum para clasificar el tipo de peticion de suscripcion\n    enum RequestType { CLIENT, LABORATORY }\n\n    //---------------------------------------Arrays---------------------------------------\n    //Array para almacenar el listado de los servicios\n    string[] public listServices;\n\n    //Array para almacenar el listado de los servicios especiales de los laboratorios\n    string[] public listSpecialServices;\n\n    //Array para almacenar las peticiones de suscripcion de clientes\n    address[] requestMixed;\n\n    //---------------------------------------Funciones validadoras---------------------------------------\n\n    //Funcion para validar que el nombre de servicio ya no exista\n    function checkRepeatService(string [] memory services, string memory _name) private pure returns(bool identifier){\n        identifier = true;\n\n        for(uint i = 0; i < services.length; i++){\n            if(keccak256(abi.encodePacked(services[i])) == keccak256(abi.encodePacked(_name))){\n                identifier = false;\n            }\n        }\n    }\n\n    //Funcion para saber si una address ya tiene una peticion\n    function checkRepeatRequest() private view returns(bool identifier){\n        identifier = true;\n\n        for(uint i = 0; i < requestMixed.length; i++){\n            if(requestMixed[i] == msg.sender){\n                identifier = false;\n            }\n        }\n    }\n\n    //---------------------------------------Funciones de tokens----------------------------------------------------\n\n    //Funcion para recargar tokens al contrato\n    function rechargeTokens(uint16 _amount) public override onlyOwner {\n        token.mint(_amount);\n\n        emit rechargeTokensEvent(_amount);\n    }\n\n    //Funcion ver tokens de contrato principal\n    function balanceContractTokens() public view returns(uint){\n        uint balance = token.balanceOf(addressContract);\n\n        return balance;\n    }\n\n    //Funcion para convertir el precio de tokens a ethers\n    function tokenToGwei(uint _quantity) private pure returns(uint){\n        return _quantity * (1 gwei);\n    } \n\n    //Funcion para comprar tokens\n    function buyTokens(uint _quantity, address ownerClient) public payable {\n        require(RequestStatus[ownerClient].addressContract == msg.sender, \"No tienes permisos para ejecutar esta operacion\");\n\n        uint cost = tokenToGwei(_quantity);\n        require(msg.value >= cost, \"Necesitas mas ethers para comprar esta cantidad de tokens.\");\n\n        uint returnValue = msg.value - cost;\n        payable(ownerClient).transfer(returnValue);\n        token.transfer(msg.sender, _quantity );\n    }\n\n    //Funcion para recibir pagos\n    receive() external payable{}\n    fallback ()external payable{}\n\n    //---------------------------------------Funciones para contrato principal---------------------------------------\n\n    //Funcion para ver el listado de servicios activos\n    function showActivedServices() public view override returns(string[] memory){\n        string[] memory activedServices = new string[] (listServices.length);\n        uint16 counter = 0;\n\n        for(uint16 i = 0; i < listServices.length; i++){\n            if(Services[listServices[i]].statusService == true){\n                activedServices[counter] = listServices[i];\n                counter++;\n            }\n        }\n\n        return activedServices;       \n    }\n\n    //Funcion para ver el listado de servicios especiales activos\n    function showActivedSpecialServices() public view returns(string[] memory){\n        string[] memory activedServices = new string[] (listSpecialServices.length);\n        uint16 counter = 0;\n\n        for(uint16 i = 0; i < listSpecialServices.length; i++){\n            if(SpecialServices[listSpecialServices[i]].statusService == true){\n                activedServices[counter] = listSpecialServices[i];\n                counter++;\n            }\n        }\n\n        return activedServices;       \n    }\n\n    //Funcion para mostrar un servicio por su nombre\n    //function showService(string memory _name) public view override returns(Service memory){return Services[_name];} \n    function showServiceDetails(string memory _name) public view override returns(string memory, uint16, bool){\n        return (_name, Services[_name].priceService, Services[_name].statusService);\n    }\n\n    //Funcion para mostrar un servicio por su nombre\n    function showSpecialServiceDetails(string memory _name) public view  returns(string memory, uint16, bool){\n        return (_name, SpecialServices[_name].priceService, SpecialServices[_name].statusService);\n    }\n\n    //Funcion para revisar el numero de contrato de cada cliente\n    function checkNumberContract() public view returns(address){\n        return RequestStatus[msg.sender].addressContract;\n    }\n\n    //Funcion para ver saldo de Cliente\n    function balanceContractUser(address _addr) public view returns (uint){\n        return token.balanceOf(_addr);\n    }\n\n\n    //Funcion para saber el role y el status de cada usuario o laboratorio\n    function showStatusAndRole() public view returns(uint16, bool){\n        //Agragar require que pregunte si existe o no y validar\n        return (RequestStatus[msg.sender].requestType, RequestStatus[msg.sender].statusRequest);\n    }\n\n\n    //---------------------------------------Funciones para el admin ---------------------------------------\n\n    //Funcion para ver las solicitudes pendientes\n    function showPendingRequest(string memory _type) public view override onlyOwner returns(address[] memory) {\n        require(keccak256(abi.encodePacked(_type)) == keccak256(abi.encodePacked(\"Client\")) || keccak256(abi.encodePacked(_type)) == keccak256(abi.encodePacked(\"Laboratory\")), \"El tipo ingresado no es correcto\");\n        \n        uint16 counter;\n        address[] memory pendingRequests = new address[] (requestMixed.length);\n\n        if(keccak256(abi.encodePacked(_type)) == keccak256(abi.encodePacked(\"Client\"))){\n            for(uint16 i = 0; i < requestMixed.length; i++){\n                if(RequestStatus[requestMixed[i]].statusRequest == false && RequestStatus[requestMixed[i]].requestType == uint16(0)){\n                    pendingRequests[counter] = requestMixed[i];\n                    counter++;\n                }\n            }\n        }else{\n            for(uint16 i = 0; i < requestMixed.length; i++){\n                if(RequestStatus[requestMixed[i]].statusRequest == false  && RequestStatus[requestMixed[i]].requestType == uint16(1)){\n                    pendingRequests[counter] = requestMixed[i];\n                    counter++;\n                }\n            }\n        }\n        \n        return pendingRequests;\n    }\n\n    //Funcion para habilitar un cliente o laboratorio\n    function enableSubscription(address _addr) public override onlyOwner{\n        RequestStatus[_addr].statusRequest = true;\n        RequestStatus[_addr].isRequest = true;\n\n        emit enableSubscriptionEvent(\"Se ha habilitado una suscripcion\");\n    }\n\n    //Funcion para cambiar el estado de los servicios\n    function changeStatusService(string memory _name) public override onlyOwner{\n        Services[_name].statusService = !Services[_name].statusService;\n\n        emit changeStatusServiceEvent(\"Se ha cambiado el estado del servicio correctamente.\");\n    }\n\n    //Funcion para crear servicios\n    function createService(string memory _name, uint16 _price) public override onlyOwner{\n        require(checkRepeatService(listServices, _name), \"Nombre de servicios ya existe.\");\n\n        Services[_name] = Service(_name, _price, true);\n\n        listServices.push(_name);\n\n        emit createServiceEvent(\"Se ha creado un nuevo servicio.\");\n    }\n\n    //Funcion para mostrar los servicios basicos disponibles\n    function showListServices() public view returns(string [] memory ){\n        return listServices;\n    }\n\n    //Funcion para mostrar lista de usuarios sean clientes o laboratorios\n    // function showListUsers (string memory _type ) public view onlyOwner returns(address[] memory) {\n    //     require(keccak256(abi.encodePacked(_type)) == keccak256(abi.encodePacked(\"Client\")) || keccak256(abi.encodePacked(_type)) == keccak256(abi.encodePacked(\"Laboratory\")), \"El tipo ingresado no es correcto\");\n        \n    //     uint16 counter;\n    //     address[] memory pendingRequests = new address[] (requestMixed.length);\n\n    //     if(keccak256(abi.encodePacked(_type)) == keccak256(abi.encodePacked(\"Client\"))){\n    //         for(uint16 i = 0; i < requestMixed.length; i++){\n    //             if(RequestStatus[requestMixed[i]].isRequest == true && RequestStatus[requestMixed[i]].requestType == uint16(0)){\n    //                 pendingRequests[counter] = requestMixed[i];\n    //                 counter++;\n    //             }\n    //         }\n    //     }else{\n    //         for(uint16 i = 0; i < requestMixed.length; i++){\n    //             if(RequestStatus[requestMixed[i]].isRequest == true  && RequestStatus[requestMixed[i]].requestType == uint16(1)){\n    //                 pendingRequests[counter] = requestMixed[i];\n    //                 counter++;\n    //             }\n    //         }\n    //     }\n        \n    //     return pendingRequests;\n    // }\n\n    //Funcion para mostrar los servicios basicos disponibles\n    function showListUsers() public view returns(address [] memory ){\n        return requestMixed;\n    }\n\n    //Funcion para ver detalles de cada usuario sean clientes o laboratorios\n    function showDetailsUser (address _addr) public view returns (uint16, bool, address){\n        return (RequestStatus[_addr].requestType, RequestStatus[_addr].statusRequest, RequestStatus[_addr].addressContract);\n    }\n\n    //---------------------------------------Contrato clientes---------------------------------------\n\n    //Funcion para solicitar una suscripcion para un cliente\n    function requestSubscriptionClient() public override {\n        require(checkRepeatRequest(), \"Ya tienes una peticion a tu direccion.\");\n        RequestStatus[msg.sender] = Request(uint16(RequestType.CLIENT), false, address(0), false);\n        requestMixed.push(msg.sender);\n    }\n\n    //Funcion para creacion de contrato de Cliente\n    function createClientFactory() public {\n        require(RequestStatus[msg.sender].statusRequest == true && RequestStatus[msg.sender].requestType == 0, \"No tienes habilitado para crear tu contrato o tipo de contrato no coincide.\");\n\n        address clientAddressContract = address(new Client(msg.sender, addressContract));\n        RequestStatus[msg.sender].addressContract = clientAddressContract;\n\n        emit createFactoryEvent(\"Contrato creado\", clientAddressContract);\n    }\n\n    //Funcion cancelar contrato de un Client\n    function cancelContractClient(address _userWallet) external payable onlyClient(_userWallet) returns(string memory){\n        require(RequestStatus[_userWallet].addressContract == msg.sender, \"No tienes permisos para ejecutar esta operacion\");\n\n        Client ClientContract = Client(msg.sender);\n        ClientContract.changeStatus ();\n\n        if (token.balanceOf(msg.sender) > 0 ) {\n            uint balanceUserTokens = token.balanceOf(msg.sender);\n            token.transferTokenRocket(msg.sender,addressContract, balanceUserTokens );\n            payable (_userWallet).transfer(tokenToGwei(balanceUserTokens));\n\n            return \"Tu contrato ha sido cancelado y tu dinero devuelto a tu wallet\";\n        }else{\n            return \"Tu contrato ha sido cancelado\";\n        }\n    }\n\n    //Funcion para asginar un servicio a un cliente\n    function asignServiceClient(string memory _nameService, address _userWallet) external onlyClient(_userWallet) {\n        require(RequestStatus[_userWallet].addressContract == msg.sender, \"No tienes permisos para ejecutar esta operacion\");\n        require (Services[_nameService].statusService == true, \"Servicio no disponible\");\n        require (Services[_nameService].priceService <= token.balanceOf(msg.sender), \"No posee fondos sufiecientes\");\n\n        token.transferTokenRocket(msg.sender,addressContract, Services[_nameService].priceService);\n        servicesClientHistory[msg.sender].push(_nameService);\n\n        emit asignServiceClientEvent (\"Servicio asginado correctamente\", msg.sender);\n    }\n\n    //Funcion para mostrar los servicios de un Cliente\n    function showServicesClient(address _userWallet) external view onlyClient(_userWallet) returns(string [] memory){\n        return servicesClientHistory[msg.sender];\n    }\n\n    //Funcion para asginar un servicio especial a un cliente\n    function asignSpecialServiceClient(string memory _nameService, address _userWallet) external onlyClient(_userWallet) {\n        require(RequestStatus[_userWallet].addressContract == msg.sender, \"No tienes permisos para ejecutar esta operacion\");\n        require (SpecialServices[_nameService].statusService == true, \"Servicio no disponible\");\n        require (SpecialServices[_nameService].priceService <= token.balanceOf(msg.sender), \"No posee fondos suficientes\");\n\n        token.transferTokenRocket(msg.sender,SpecialServices[_nameService].laboratory, SpecialServices[_nameService].priceService);\n        servicesClientHistory[msg.sender].push(_nameService);\n\n        emit asignServiceClientEvent (\"Servicio asginado correctamente\", msg.sender);\n    }\n\n    //---------------------------------------Contratos laboratorios---------------------------------------\n\n    //Funcion para solicitar una suscripcion para un laboratorio\n    function requestSubscriptionLaboratory() public override {\n        require(checkRepeatRequest(), \"Ya tienes una peticion a tu direccion.\");\n        \n        RequestStatus[msg.sender] = Request(uint16(RequestType.LABORATORY), false, address(0), false);\n        requestMixed.push(msg.sender);\n    }\n\n    //Funcion para crear el contrato de un laboratorio cuando ya est habilitado\n    function createLaboratoryFactory() public {\n        require(RequestStatus[msg.sender].statusRequest == true && RequestStatus[msg.sender].requestType == 1, \"No tienes habilitado para crear tu contrato o tipo de contrato no coincide.\");\n\n        address laboratoryAddressContract = address(new Laboratory(msg.sender, addressContract ));\n        RequestStatus[msg.sender].addressContract = laboratoryAddressContract;\n\n        emit createFactoryEvent(\"Contrato creado\", laboratoryAddressContract);\n    }\n\n    //Funcion para crear servicios especiales\n    function createSpecialService(string memory _name, uint16 _price, address ownerLaboratory) external onlyLaboratories(ownerLaboratory) {\n        require(checkRepeatService(listSpecialServices, _name), \"Nombre de servicios ya existe.\");\n        require(RequestStatus[ownerLaboratory].addressContract == msg.sender, \"No tienes permisos para ejecutar esta operacion\");\n\n        SpecialServices[_name] = SpecialService(_price, true, msg.sender);\n        listSpecialServices.push(_name);\n\n        emit createServiceEvent(\"Se ha creado un nuevo servicio especial.\");\n    }\n\n    //Funcion para cambiar el estado de los servicios especiales\n    function changeStatusServiceLaboratory(string memory _name, address ownerLaboratory) external onlyLaboratories(ownerLaboratory){\n        require(RequestStatus[ownerLaboratory].addressContract == msg.sender, \"No tienes permisos para ejecutar esta operacion\");\n\n        SpecialServices[_name].statusService = !SpecialServices[_name].statusService;\n\n        emit changeStatusServiceEvent(\"Se ha cambiado el estado del servicio especial correctamente.\");\n    }\n\n    //Funcion para mostrar lista de servicios especiales\n    function showListServiceSpecial () public view returns (string [] memory){\n        return listSpecialServices;\n    }\n\n    //Funcion cancelar contrato de laborario\n    function cancelContractLaboratory(address _laboratory) external payable onlyLaboratories(_laboratory) returns(string memory){\n        require(RequestStatus[_laboratory].addressContract == msg.sender, \"No tienes permisos para ejecutar esta operacion\");\n\n        Laboratory LaboratoryContract = Laboratory(msg.sender);\n        LaboratoryContract.changeStatus ();\n\n        if (token.balanceOf(msg.sender) > 0 ) {\n            uint balanceLaboratyTokens = token.balanceOf(msg.sender);\n            token.transferTokenRocket(msg.sender, addressContract, balanceLaboratyTokens );\n            payable (_laboratory).transfer(tokenToGwei(balanceLaboratyTokens));\n\n            return \"Tu contrato ha sido cancelado y tu dinero devuelto a tu wallet\";\n        }else{\n            return \"Tu contrato ha sido cancelado\";\n        }\n    }\n\n    //Funcion para canjear sus tokens por dinero\n    function withdrawBalanceLaboratory(address _laboratoryWallet, uint16 _quantityTokens) external payable onlyLaboratories(_laboratoryWallet) returns(string memory){\n        require (token.balanceOf(msg.sender) > 0, \"No posee balance suficiente\");\n \n        uint balanceLaboratyTokens = token.balanceOf(msg.sender);\n        if(balanceLaboratyTokens >= _quantityTokens){\n            token.transferTokenRocket(msg.sender, addressContract, _quantityTokens);\n            payable(_laboratoryWallet).transfer(tokenToGwei(_quantityTokens));\n\n            return \"tu retiro ha sido exitoso\";\n        }\n\n        return \"No tiene fondos suficientes.\";\n    }\n\n    //Funcion para que cada laboratorio pueda ver sus servicios\n    function showMyActivedSpecialServices() external view returns(string[] memory){\n        string[] memory activedSpecialServices = new string[] (listSpecialServices.length);\n        uint16 counter = 0;\n\n        for(uint16 i = 0; i < listSpecialServices.length; i++){\n            if(SpecialServices[listSpecialServices[i]].laboratory == msg.sender){\n                activedSpecialServices[counter] = listSpecialServices[i];\n                counter++;\n            }\n        }\n\n        return activedSpecialServices;\n    }\n}",
  "sourcePath": "/home/xdx/Escritorio/Solidity proyects/sistema_salud_full/contracts/System/Company/InsuranceRocketCompany.sol",
  "compiler": {
    "name": "solc",
    "version": "0.8.14+commit.80d49f37.Emscripten.clang"
  },
  "schemaVersion": "3.4.7",
  "updatedAt": "2022-07-03T01:07:57.004Z",
  "networkType": "ethereum",
  "devdoc": {
    "kind": "dev",
    "methods": {},
    "version": 1
  },
  "userdoc": {
    "kind": "user",
    "methods": {},
    "version": 1
  }
}