{
  "contractName": "InsuranceRocketCompany",
  "abi": [
    {
      "inputs": [],
      "stateMutability": "nonpayable",
      "type": "constructor"
    },
    {
      "anonymous": false,
      "inputs": [
        {
          "indexed": false,
          "internalType": "string",
          "name": "",
          "type": "string"
        },
        {
          "indexed": false,
          "internalType": "address",
          "name": "",
          "type": "address"
        }
      ],
      "name": "createFactoryEvent",
      "type": "event"
    },
    {
      "anonymous": false,
      "inputs": [
        {
          "indexed": false,
          "internalType": "string",
          "name": "",
          "type": "string"
        }
      ],
      "name": "messageEvent",
      "type": "event"
    },
    {
      "anonymous": false,
      "inputs": [
        {
          "indexed": false,
          "internalType": "uint16",
          "name": "",
          "type": "uint16"
        }
      ],
      "name": "rechargeTokensEvent",
      "type": "event"
    },
    {
      "stateMutability": "payable",
      "type": "fallback",
      "payable": true
    },
    {
      "inputs": [
        {
          "internalType": "address",
          "name": "",
          "type": "address"
        }
      ],
      "name": "RequestStatus",
      "outputs": [
        {
          "internalType": "uint16",
          "name": "requestType",
          "type": "uint16"
        },
        {
          "internalType": "bool",
          "name": "statusRequest",
          "type": "bool"
        },
        {
          "internalType": "address",
          "name": "addressContract",
          "type": "address"
        },
        {
          "internalType": "bool",
          "name": "isRequest",
          "type": "bool"
        },
        {
          "internalType": "string",
          "name": "statusContract",
          "type": "string"
        }
      ],
      "stateMutability": "view",
      "type": "function",
      "constant": true
    },
    {
      "inputs": [
        {
          "internalType": "string",
          "name": "",
          "type": "string"
        }
      ],
      "name": "Services",
      "outputs": [
        {
          "internalType": "string",
          "name": "name",
          "type": "string"
        },
        {
          "internalType": "uint16",
          "name": "priceService",
          "type": "uint16"
        },
        {
          "internalType": "bool",
          "name": "statusService",
          "type": "bool"
        }
      ],
      "stateMutability": "view",
      "type": "function",
      "constant": true
    },
    {
      "inputs": [
        {
          "internalType": "string",
          "name": "",
          "type": "string"
        }
      ],
      "name": "SpecialServices",
      "outputs": [
        {
          "internalType": "uint16",
          "name": "priceService",
          "type": "uint16"
        },
        {
          "internalType": "bool",
          "name": "statusService",
          "type": "bool"
        },
        {
          "internalType": "address",
          "name": "laboratory",
          "type": "address"
        }
      ],
      "stateMutability": "view",
      "type": "function",
      "constant": true
    },
    {
      "inputs": [],
      "name": "addressContract",
      "outputs": [
        {
          "internalType": "address",
          "name": "",
          "type": "address"
        }
      ],
      "stateMutability": "view",
      "type": "function",
      "constant": true
    },
    {
      "inputs": [
        {
          "internalType": "uint256",
          "name": "",
          "type": "uint256"
        }
      ],
      "name": "listServices",
      "outputs": [
        {
          "internalType": "string",
          "name": "",
          "type": "string"
        }
      ],
      "stateMutability": "view",
      "type": "function",
      "constant": true
    },
    {
      "inputs": [
        {
          "internalType": "uint256",
          "name": "",
          "type": "uint256"
        }
      ],
      "name": "listSpecialServices",
      "outputs": [
        {
          "internalType": "string",
          "name": "",
          "type": "string"
        }
      ],
      "stateMutability": "view",
      "type": "function",
      "constant": true
    },
    {
      "inputs": [],
      "name": "owner",
      "outputs": [
        {
          "internalType": "address",
          "name": "",
          "type": "address"
        }
      ],
      "stateMutability": "view",
      "type": "function",
      "constant": true
    },
    {
      "inputs": [
        {
          "internalType": "address",
          "name": "",
          "type": "address"
        },
        {
          "internalType": "uint256",
          "name": "",
          "type": "uint256"
        }
      ],
      "name": "servicesClientHistory",
      "outputs": [
        {
          "internalType": "string",
          "name": "",
          "type": "string"
        }
      ],
      "stateMutability": "view",
      "type": "function",
      "constant": true
    },
    {
      "stateMutability": "payable",
      "type": "receive",
      "payable": true
    },
    {
      "inputs": [],
      "name": "BalanceContractEthers",
      "outputs": [
        {
          "internalType": "uint256",
          "name": "",
          "type": "uint256"
        }
      ],
      "stateMutability": "view",
      "type": "function",
      "constant": true
    },
    {
      "inputs": [
        {
          "internalType": "uint16",
          "name": "_amount",
          "type": "uint16"
        }
      ],
      "name": "rechargeTokens",
      "outputs": [],
      "stateMutability": "nonpayable",
      "type": "function"
    },
    {
      "inputs": [],
      "name": "balanceContractTokens",
      "outputs": [
        {
          "internalType": "uint256",
          "name": "",
          "type": "uint256"
        }
      ],
      "stateMutability": "view",
      "type": "function",
      "constant": true
    },
    {
      "inputs": [
        {
          "internalType": "uint256",
          "name": "_quantity",
          "type": "uint256"
        },
        {
          "internalType": "address",
          "name": "ownerClient",
          "type": "address"
        }
      ],
      "name": "buyTokens",
      "outputs": [],
      "stateMutability": "payable",
      "type": "function",
      "payable": true
    },
    {
      "inputs": [],
      "name": "showActivedServices",
      "outputs": [
        {
          "internalType": "string[]",
          "name": "",
          "type": "string[]"
        }
      ],
      "stateMutability": "view",
      "type": "function",
      "constant": true
    },
    {
      "inputs": [],
      "name": "showActivedSpecialServices",
      "outputs": [
        {
          "internalType": "string[]",
          "name": "",
          "type": "string[]"
        }
      ],
      "stateMutability": "view",
      "type": "function",
      "constant": true
    },
    {
      "inputs": [
        {
          "internalType": "string",
          "name": "_name",
          "type": "string"
        }
      ],
      "name": "showServiceDetails",
      "outputs": [
        {
          "internalType": "string",
          "name": "",
          "type": "string"
        },
        {
          "internalType": "uint16",
          "name": "",
          "type": "uint16"
        },
        {
          "internalType": "bool",
          "name": "",
          "type": "bool"
        }
      ],
      "stateMutability": "view",
      "type": "function",
      "constant": true
    },
    {
      "inputs": [
        {
          "internalType": "string",
          "name": "_name",
          "type": "string"
        }
      ],
      "name": "showSpecialServiceDetails",
      "outputs": [
        {
          "internalType": "string",
          "name": "",
          "type": "string"
        },
        {
          "internalType": "uint16",
          "name": "",
          "type": "uint16"
        },
        {
          "internalType": "bool",
          "name": "",
          "type": "bool"
        }
      ],
      "stateMutability": "view",
      "type": "function",
      "constant": true
    },
    {
      "inputs": [],
      "name": "checkNumberContract",
      "outputs": [
        {
          "internalType": "address",
          "name": "",
          "type": "address"
        }
      ],
      "stateMutability": "view",
      "type": "function",
      "constant": true
    },
    {
      "inputs": [
        {
          "internalType": "address",
          "name": "_addr",
          "type": "address"
        }
      ],
      "name": "balanceContractUser",
      "outputs": [
        {
          "internalType": "uint256",
          "name": "",
          "type": "uint256"
        }
      ],
      "stateMutability": "view",
      "type": "function",
      "constant": true
    },
    {
      "inputs": [],
      "name": "showStatusAndRole",
      "outputs": [
        {
          "internalType": "uint16",
          "name": "",
          "type": "uint16"
        },
        {
          "internalType": "bool",
          "name": "",
          "type": "bool"
        },
        {
          "internalType": "bool",
          "name": "",
          "type": "bool"
        },
        {
          "internalType": "string",
          "name": "",
          "type": "string"
        }
      ],
      "stateMutability": "view",
      "type": "function",
      "constant": true
    },
    {
      "inputs": [
        {
          "internalType": "address",
          "name": "_userWallet",
          "type": "address"
        }
      ],
      "name": "changeStatusContract",
      "outputs": [],
      "stateMutability": "payable",
      "type": "function",
      "payable": true
    },
    {
      "inputs": [
        {
          "internalType": "string",
          "name": "_type",
          "type": "string"
        }
      ],
      "name": "showPendingRequest",
      "outputs": [
        {
          "internalType": "address[]",
          "name": "",
          "type": "address[]"
        }
      ],
      "stateMutability": "view",
      "type": "function",
      "constant": true
    },
    {
      "inputs": [
        {
          "internalType": "address",
          "name": "_addr",
          "type": "address"
        }
      ],
      "name": "enableSubscription",
      "outputs": [],
      "stateMutability": "nonpayable",
      "type": "function"
    },
    {
      "inputs": [
        {
          "internalType": "string",
          "name": "_name",
          "type": "string"
        }
      ],
      "name": "changeStatusService",
      "outputs": [],
      "stateMutability": "nonpayable",
      "type": "function"
    },
    {
      "inputs": [
        {
          "internalType": "string",
          "name": "_name",
          "type": "string"
        },
        {
          "internalType": "uint16",
          "name": "_price",
          "type": "uint16"
        }
      ],
      "name": "createService",
      "outputs": [],
      "stateMutability": "nonpayable",
      "type": "function"
    },
    {
      "inputs": [],
      "name": "showListServices",
      "outputs": [
        {
          "internalType": "string[]",
          "name": "",
          "type": "string[]"
        }
      ],
      "stateMutability": "view",
      "type": "function",
      "constant": true
    },
    {
      "inputs": [],
      "name": "showListUsers",
      "outputs": [
        {
          "internalType": "address[]",
          "name": "",
          "type": "address[]"
        }
      ],
      "stateMutability": "view",
      "type": "function",
      "constant": true
    },
    {
      "inputs": [
        {
          "internalType": "address",
          "name": "_addr",
          "type": "address"
        }
      ],
      "name": "showDetailsUser",
      "outputs": [
        {
          "internalType": "uint16",
          "name": "",
          "type": "uint16"
        },
        {
          "internalType": "bool",
          "name": "",
          "type": "bool"
        },
        {
          "internalType": "address",
          "name": "",
          "type": "address"
        },
        {
          "internalType": "string",
          "name": "",
          "type": "string"
        }
      ],
      "stateMutability": "view",
      "type": "function",
      "constant": true
    },
    {
      "inputs": [
        {
          "internalType": "address",
          "name": "_addr",
          "type": "address"
        }
      ],
      "name": "bannedUser",
      "outputs": [],
      "stateMutability": "nonpayable",
      "type": "function"
    },
    {
      "inputs": [
        {
          "internalType": "address",
          "name": "_addr",
          "type": "address"
        }
      ],
      "name": "unBannedUser",
      "outputs": [],
      "stateMutability": "nonpayable",
      "type": "function"
    },
    {
      "inputs": [],
      "name": "requestSubscriptionClient",
      "outputs": [],
      "stateMutability": "nonpayable",
      "type": "function"
    },
    {
      "inputs": [],
      "name": "createClientFactory",
      "outputs": [],
      "stateMutability": "nonpayable",
      "type": "function"
    },
    {
      "inputs": [
        {
          "internalType": "string",
          "name": "_nameService",
          "type": "string"
        },
        {
          "internalType": "address",
          "name": "_owner",
          "type": "address"
        }
      ],
      "name": "asignServiceClient",
      "outputs": [],
      "stateMutability": "nonpayable",
      "type": "function"
    },
    {
      "inputs": [
        {
          "internalType": "address",
          "name": "_userWallet",
          "type": "address"
        }
      ],
      "name": "showServicesClient",
      "outputs": [
        {
          "internalType": "string[]",
          "name": "",
          "type": "string[]"
        }
      ],
      "stateMutability": "view",
      "type": "function",
      "constant": true
    },
    {
      "inputs": [
        {
          "internalType": "string",
          "name": "_nameService",
          "type": "string"
        },
        {
          "internalType": "address",
          "name": "_userWallet",
          "type": "address"
        }
      ],
      "name": "asignSpecialServiceClient",
      "outputs": [],
      "stateMutability": "nonpayable",
      "type": "function"
    },
    {
      "inputs": [],
      "name": "requestSubscriptionLaboratory",
      "outputs": [],
      "stateMutability": "nonpayable",
      "type": "function"
    },
    {
      "inputs": [],
      "name": "createLaboratoryFactory",
      "outputs": [],
      "stateMutability": "nonpayable",
      "type": "function"
    },
    {
      "inputs": [
        {
          "internalType": "string",
          "name": "_name",
          "type": "string"
        },
        {
          "internalType": "uint16",
          "name": "_price",
          "type": "uint16"
        },
        {
          "internalType": "address",
          "name": "ownerLaboratory",
          "type": "address"
        }
      ],
      "name": "createSpecialService",
      "outputs": [],
      "stateMutability": "nonpayable",
      "type": "function"
    },
    {
      "inputs": [
        {
          "internalType": "string",
          "name": "_name",
          "type": "string"
        },
        {
          "internalType": "address",
          "name": "ownerLaboratory",
          "type": "address"
        }
      ],
      "name": "changeStatusServiceLaboratory",
      "outputs": [],
      "stateMutability": "nonpayable",
      "type": "function"
    },
    {
      "inputs": [],
      "name": "showListServiceSpecial",
      "outputs": [
        {
          "internalType": "string[]",
          "name": "",
          "type": "string[]"
        }
      ],
      "stateMutability": "view",
      "type": "function",
      "constant": true
    },
    {
      "inputs": [
        {
          "internalType": "address",
          "name": "_laboratoryWallet",
          "type": "address"
        },
        {
          "internalType": "uint16",
          "name": "_quantityTokens",
          "type": "uint16"
        }
      ],
      "name": "withdrawBalanceLaboratory",
      "outputs": [
        {
          "internalType": "string",
          "name": "",
          "type": "string"
        }
      ],
      "stateMutability": "payable",
      "type": "function",
      "payable": true
    },
    {
      "inputs": [],
      "name": "showMyActivedSpecialServices",
      "outputs": [
        {
          "internalType": "string[]",
          "name": "",
          "type": "string[]"
        }
      ],
      "stateMutability": "view",
      "type": "function",
      "constant": true
    }
  ],
  "bytecode": "0x60806040523480156200001157600080fd5b50604051620000209062000158565b6040808252600e908201527f4d65646963696e65526f636b657400000000000000000000000000000000000060608201526080602082018190526002908201527f4d5200000000000000000000000000000000000000000000000000000000000060a082015260c001604051809103906000f080158015620000a6573d6000803e3d6000fd5b5060008054600160a060020a031916600160a060020a039290921691821790556040517fa0712d68000000000000000000000000000000000000000000000000000000008152612710600482015263a0712d6890602401600060405180830381600087803b1580156200011857600080fd5b505af11580156200012d573d6000803e3d6000fd5b505060018054600160a060020a03199081163317909155600280549091163017905550620001669050565b610a348062005fa683390190565b615e3080620001766000396000f3fe608060405260043610620002665760003560e060020a900480636b073db6116200014b578063a8352a7b11620000c3578063c47fe02a1162000085578063c47fe02a14620007cf578063c625e9b114620007e7578063d7d8427814620007fe578063e43ae2cd1462000835578063e6cbd058146200085a578063ee1e2d3d146200087f57005b8063a8352a7b1462000758578063aef5beb71462000770578063b53f2fa91462000787578063b5e6e371146200079f578063b60c704f14620007b757005b80638da5cb5b116200010d5780638da5cb5b14620006bc5780638de218fc14620006de5780638f8751971462000703578063909311e114620007285780639da1ec6b146200074057005b80636b073db614620006135780636fbb842214620006385780637748d3c4146200065d57806382a6f77c14620006825780638609b2fc146200069a57005b80633ceb906d11620001df57806354ba5d7811620001a157806354ba5d78146200051357806354c844fa146200052b5780635b14ce0614620005505780635ef31a2e14620005685780636894ebce14620005ee57005b80633ceb906d146200044657806342924ca8146200046b578063441548ee14620004905780634634852714620004c857806347f2b7c014620004e957005b80632c38c78711620002295780632c38c787146200036057806332dc5286146200038557806336c9aed614620003aa57806337776a2f14620003c257806337cf7793146200041057005b80624cef25146200027057806305c713c614620002ad5780631275497214620002e1578063161e9e23146200030757806326c8fb70146200032c57005b366200026e57005b005b3480156200027d57600080fd5b50620002956200028f36600462003adf565b620008a4565b604051620002a4919062003b20565b60405180910390f35b348015620002ba57600080fd5b50620002d2620002cc36600462003b87565b62000d7b565b604051620002a4919062003c09565b620002f8620002f236600462003c81565b62000edd565b604051620002a4919062003cb9565b3480156200031457600080fd5b506200026e6200032636600462003cce565b620011b0565b3480156200033957600080fd5b50620003516200034b36600462003b87565b620014b1565b604051908152602001620002a4565b3480156200036d57600080fd5b50620002f86200037f36600462003d19565b6200152d565b3480156200039257600080fd5b506200026e620003a436600462003b87565b620015ef565b348015620003b757600080fd5b506200035162001685565b348015620003cf57600080fd5b50620003f73360009081526005602052604090205463010000009004600160a060020a031690565b604051600160a060020a039091168152602001620002a4565b3480156200041d57600080fd5b50620004356200042f36600462003adf565b620016c2565b604051620002a49392919062003d46565b3480156200045357600080fd5b506200026e6200046536600462003b87565b62001727565b3480156200047857600080fd5b506200026e6200048a36600462003d76565b620017f8565b3480156200049d57600080fd5b50620004b5620004af36600462003b87565b62001a35565b604051620002a495949392919062003dc1565b348015620004d557600080fd5b50600254600160a060020a03163162000351565b348015620004f657600080fd5b506200050162001b0d565b604051620002a4949392919062003e0a565b3480156200052057600080fd5b506200026e62001be8565b3480156200053857600080fd5b506200026e6200054a36600462003e43565b62001e1d565b3480156200055d57600080fd5b50620002d2620020f8565b3480156200057557600080fd5b50620005c46200058736600462003adf565b805160208183018101805160048252928201919093012091525461ffff81169062010000810460ff169063010000009004600160a060020a031683565b6040805161ffff90941684529115156020840152600160a060020a031690820152606001620002a4565b348015620005fb57600080fd5b50620002f86200060d36600462003ea9565b620022c7565b3480156200062057600080fd5b50620004356200063236600462003adf565b620022f5565b3480156200064557600080fd5b50620004356200065736600462003adf565b62002360565b3480156200066a57600080fd5b506200026e6200067c36600462003cce565b62002427565b3480156200068f57600080fd5b50620002d2620026e0565b348015620006a757600080fd5b50600254620003f790600160a060020a031681565b348015620006c957600080fd5b50600154620003f790600160a060020a031681565b348015620006eb57600080fd5b506200026e620006fd36600462003b87565b620028b4565b3480156200071057600080fd5b50620002f86200072236600462003ea9565b62002946565b3480156200073557600080fd5b50620002d262002957565b3480156200074d57600080fd5b50620002d262002a3a565b3480156200076557600080fd5b50620002d262002c05565b6200026e6200078136600462003b87565b62002cdf565b3480156200079457600080fd5b506200026e62002f44565b348015620007ac57600080fd5b5062000295620030cb565b348015620007c457600080fd5b506200026e6200312f565b348015620007dc57600080fd5b506200026e6200322a565b6200026e620007f836600462003ec3565b62003360565b3480156200080b57600080fd5b50620008236200081d36600462003b87565b6200350a565b604051620002a4949392919062003ee9565b3480156200084257600080fd5b506200026e6200085436600462003f1f565b620035f1565b3480156200086757600080fd5b506200026e6200087936600462003cce565b62003699565b3480156200088c57600080fd5b506200026e6200089e36600462003adf565b620037bd565b600154606090600160a060020a03163314620008e05760405160e560020a62461bcd028152600401620008d79062003f3d565b60405180910390fd5b6040517f436c69656e7400000000000000000000000000000000000000000000000000006020820152602601604051602081830303815290604052805190602001208260405160200162000935919062003f9a565b604051602081830303815290604052805190602001201480620009c057506040517f4c61626f7261746f7279000000000000000000000000000000000000000000006020820152602a016040516020818303038152906040528051906020012082604051602001620009a8919062003f9a565b60405160208183030381529060405280519060200120145b62000a115760405160e560020a62461bcd02815260206004820181905260248201527f456c207469706f20696e6772657361646f206e6f20657320636f72726563746f6044820152606401620008d7565b600954600090819067ffffffffffffffff81111562000a345762000a3462003a31565b60405190808252806020026020018201604052801562000a5e578160200160208202803683370190505b506040517f436c69656e7400000000000000000000000000000000000000000000000000006020820152909150602601604051602081830303815290604052805190602001208460405160200162000ab7919062003f9a565b604051602081830303815290604052805190602001200362000c255760005b60095461ffff8216101562000c1e576005600060098361ffff168154811062000b035762000b0362003fb8565b6000918252602080832090910154600160a060020a0316835282019290925260400190205460ff620100009091041615801562000b8a5750600061ffff166005600060098461ffff168154811062000b5f5762000b5f62003fb8565b6000918252602080832090910154600160a060020a0316835282019290925260400190205461ffff16145b1562000c095760098161ffff168154811062000baa5762000baa62003fb8565b9060005260206000200160009054906101000a9004600160a060020a0316828461ffff168151811062000be15762000be162003fb8565b600160a060020a03909216602092830291909101909101528262000c058162003fea565b9350505b8062000c158162003fea565b91505062000ad6565b5062000d72565b60005b60095461ffff8216101562000d70576005600060098361ffff168154811062000c555762000c5562003fb8565b6000918252602080832090910154600160a060020a0316835282019290925260400190205460ff620100009091041615801562000cdc5750600161ffff166005600060098461ffff168154811062000cb15762000cb162003fb8565b6000918252602080832090910154600160a060020a0316835282019290925260400190205461ffff16145b1562000d5b5760098161ffff168154811062000cfc5762000cfc62003fb8565b9060005260206000200160009054906101000a9004600160a060020a0316828461ffff168151811062000d335762000d3362003fb8565b600160a060020a03909216602092830291909101909101528262000d578162003fea565b9350505b8062000d678162003fea565b91505062000c28565b505b9150505b919050565b600160a060020a038116600090815260056020526040902054606090829061ffff1615801562000dce5750600160a060020a03811660009081526005602052604090205462010000900460ff1615156001145b62000df05760405160e560020a62461bcd028152600401620008d7906200400e565b33600090815260066020908152604080832080548251818502810185019093528083529193909284015b8282101562000ed057838290600052602060002001805462000e3c9062004045565b80601f016020809104026020016040519081016040528092919081815260200182805462000e6a9062004045565b801562000ebb5780601f1062000e8f5761010080835404028352916020019162000ebb565b820191906000526020600020905b81548152906001019060200180831162000e9d57829003601f168201915b50505050508152602001906001019062000e1a565b5050505091505b50919050565b600160a060020a038216600090815260056020526040902054606090839061ffff16600114801562000f325750600160a060020a03811660009081526005602052604090205462010000900460ff1615156001145b62000f545760405160e560020a62461bcd028152600401620008d7906200407e565b6000805460405160e060020a6370a08231028152336004820152600160a060020a03909116906370a0823190602401602060405180830381865afa15801562000fa1573d6000803e3d6000fd5b505050506040513d601f19601f8201168201806040525081019062000fc79190620040b5565b11620010195760405160e560020a62461bcd02815260206004820152601460248201527f496e73756666696369656e742062616c616e63650000000000000000000000006044820152606401620008d7565b6000805460405160e060020a6370a08231028152336004820152600160a060020a03909116906370a0823190602401602060405180830381865afa15801562001066573d6000803e3d6000fd5b505050506040513d601f19601f820116820180604052508101906200108c9190620040b5565b90508361ffff1681106200118b576000546002546040517f51ce139a000000000000000000000000000000000000000000000000000000008152600160a060020a03928316926351ce139a92620010ee923392909116908990600401620040cf565b600060405180830381600087803b1580156200110957600080fd5b505af11580156200111e573d6000803e3d6000fd5b5050505084600160a060020a03166108fc6200113e8661ffff166200385b565b6040518115909202916000818181858888f1935050505015801562001167573d6000803e3d6000fd5b5060405180606001604052806023815260200162005dd860239139925050620011a9565b60405180606001604052806022815260200162005db6602291399250505b5092915050565b600160a060020a038116600090815260056020526040902054819061ffff16158015620012005750600160a060020a03811660009081526005602052604090205462010000900460ff1615156001145b620012225760405160e560020a62461bcd028152600401620008d7906200400e565b600160a060020a0382811660009081526005602052604090205463010000009004163314620012685760405160e560020a62461bcd028152600401620008d790620040f6565b6003836040516200127a919062003f9a565b90815260405190819003602001902060019081015460ff6201000090910416151514620012ed5760405160e560020a62461bcd02815260206004820152601560248201527f53657276696365206e6f7420617661696c61626c6500000000000000000000006044820152606401620008d7565b60005460405160e060020a6370a08231028152336004820152600160a060020a03909116906370a0823190602401602060405180830381865afa15801562001339573d6000803e3d6000fd5b505050506040513d601f19601f820116820180604052508101906200135f9190620040b5565b60038460405162001371919062003f9a565b9081526040519081900360200190206001015461ffff161115620013db5760405160e560020a62461bcd02815260206004820152601e60248201527f446f6573206e6f7420686176652073756666696369656e742066756e647300006044820152606401620008d7565b600054600254604051600160a060020a03928316926351ce139a9233929116906003906200140b90899062003f9a565b9081526040519081900360200181206001015460e060020a63ffffffff86160282526200144493929161ffff90911690600401620040cf565b600060405180830381600087803b1580156200145f57600080fd5b505af115801562001474573d6000803e3d6000fd5b505033600090815260066020908152604082208054600181018255908352918190208751620014ab95509201925086019062003973565b50505050565b6000805460405160e060020a6370a08231028152600160a060020a038481166004830152909116906370a08231906024015b602060405180830381865afa15801562001501573d6000803e3d6000fd5b505050506040513d601f19601f82011682018060405250810190620015279190620040b5565b92915050565b600660205281600052604060002081815481106200154a57600080fd5b90600052602060002001600091509150508054620015689062004045565b80601f0160208091040260200160405190810160405280929190818152602001828054620015969062004045565b8015620015e75780601f10620015bb57610100808354040283529160200191620015e7565b820191906000526020600020905b815481529060010190602001808311620015c957829003601f168201915b505050505081565b600154600160a060020a031633146200161f5760405160e560020a62461bcd028152600401620008d79062003f3d565b604080518082018252600681527f62616e6e656400000000000000000000000000000000000000000000000000006020808301918252600160a060020a0385166000908152600590915292909220905162001681926001909201919062003973565b5050565b6000805460025460405160e060020a6370a08231028152600160a060020a039182166004820152839291909116906370a0823190602401620014e3565b606060008083600485604051620016da919062003f9a565b9081526040519081900360200181205461ffff1690600490620016ff90889062003f9a565b90815260405190819003602001902054919450925060ff620100009091041690509193909250565b600154600160a060020a03163314620017575760405160e560020a62461bcd028152600401620008d79062003f3d565b600160a060020a0381166000818152600560208181526040808420805477ff0000000000000000000000000000000000000000ff00001916770100000000000000000000000000000000000000000100001781558151808301909252600782527f6163657074656400000000000000000000000000000000000000000000000000828401908152959094529190525162001681926001909201919062003973565b600154600160a060020a03163314620018285760405160e560020a62461bcd028152600401620008d79062003f3d565b6200190f6007805480602002602001604051908101604052809291908181526020016000905b8282101562001904578382906000526020600020018054620018709062004045565b80601f01602080910402602001604051908101604052809291908181526020018280546200189e9062004045565b8015620018ef5780601f10620018c357610100808354040283529160200191620018ef565b820191906000526020600020905b815481529060010190602001808311620018d157829003601f168201915b5050505050815260200190600101906200184e565b50505050836200386d565b620019605760405160e560020a62461bcd02815260206004820152601c60248201527f53657276696365206e616d6520616c7265616479206578697374732e000000006044820152606401620008d7565b6040805160608101825283815261ffff8316602082015260018183015290516003906200198f90859062003f9a565b90815260200160405180910390206000820151816000019080519060200190620019bb92919062003973565b50602082810151600192830180546040909501511515620100000262ffffff1990951661ffff9092169190911793909317909255600780549182018155600052835162001a30927fa66cc928b5edb82af9bd49922954155ab7b0942694bea4ce44661d9a8736c6889092019185019062003973565b505050565b6005602052600090815260409020805460018201805461ffff83169360ff620100008504811694600160a060020a0363010000008204169460b860020a9091049091169262001a849062004045565b80601f016020809104026020016040519081016040528092919081815260200182805462001ab29062004045565b801562001b035780601f1062001ad75761010080835404028352916020019162001b03565b820191906000526020600020905b81548152906001019060200180831162001ae557829003601f168201915b5050505050905085565b3360009081526005602052604081208054600190910180548392839260609261ffff83169260ff62010000820481169360b860020a9092041691819062001b549062004045565b80601f016020809104026020016040519081016040528092919081815260200182805462001b829062004045565b801562001bd35780601f1062001ba75761010080835404028352916020019162001bd3565b820191906000526020600020905b81548152906001019060200180831162001bb557829003601f168201915b50505050509050935093509350935090919293565b3360009081526005602052604090205462010000900460ff161515600114801562001c2657503360009081526005602052604090205461ffff166001145b62001cc35760405160e560020a62461bcd02815260206004820152605260248201527f596f7520617265206e6f7420656e61626c656420746f2063726561746520796f60448201527f757220636f6e7472616374206f7220796f757220636f6e74726163742074797060648201527f6520646f6573206e6f74206d617463682e2e0000000000000000000000000000608482015260a401620008d7565b6002546040516000913391600160a060020a039091169062001ce590620039fe565b600160a060020a03928316815291166020820152604001604051809103906000f08015801562001d19573d6000803e3d6000fd5b50336000818152600560208181526040808420805476ffffffffffffffffffffffffffffffffffffffff00000019166301000000600160a060020a038916021781558151808301909252600682527f6163746976650000000000000000000000000000000000000000000000000000828401908152959094529190525192935062001dab926001909101919062003973565b50604080518181526010818301527f436f6e74726163742063726561746564000000000000000000000000000000006060820152600160a060020a038316602082015290517f9ca50741aa35660fc78a732a8556916f45f5e93abc509a86d03a6aaaa7a222809181900360800190a150565b600160a060020a038116600090815260056020526040902054819061ffff16600114801562001e6f5750600160a060020a03811660009081526005602052604090205462010000900460ff1615156001145b62001e915760405160e560020a62461bcd028152600401620008d7906200407e565b62001f786008805480602002602001604051908101604052809291908181526020016000905b8282101562001f6d57838290600052602060002001805462001ed99062004045565b80601f016020809104026020016040519081016040528092919081815260200182805462001f079062004045565b801562001f585780601f1062001f2c5761010080835404028352916020019162001f58565b820191906000526020600020905b81548152906001019060200180831162001f3a57829003601f168201915b50505050508152602001906001019062001eb7565b50505050856200386d565b62001fc95760405160e560020a62461bcd02815260206004820152601c60248201527f53657276696365206e616d6520616c7265616479206578697374732e000000006044820152606401620008d7565b600160a060020a03828116600090815260056020526040902054630100000090041633146200200f5760405160e560020a62461bcd028152600401620008d790620040f6565b6040805160608101825261ffff8516815260016020820152338183015290516004906200203e90879062003f9a565b9081526040805191829003602090810190922083518154858501519590930151600160a060020a031663010000000276ffffffffffffffffffffffffffffffffffffffff00000019951515620100000262ffffff1990941661ffff90921691909117929092179390931617909155600880546001810182556000919091528551620020f1927ff3f7a9fe364faab93b216da50a3214154f22a0a2b415b23a84c8169e8b636ee39092019187019062003973565b5050505050565b60085460609060009067ffffffffffffffff8111156200211c576200211c62003a31565b6040519080825280602002602001820160405280156200215157816020015b60608152602001906001900390816200213b5790505b5090506000805b60085461ffff82161015620022bf57600460088261ffff168154811062002183576200218362003fb8565b906000526020600020016040516200219c919062004153565b9081526040519081900360200190205460ff62010000909104161515600103620022aa5760088161ffff1681548110620021da57620021da62003fb8565b906000526020600020018054620021f19062004045565b80601f01602080910402602001604051908101604052809291908181526020018280546200221f9062004045565b8015620022705780601f10620022445761010080835404028352916020019162002270565b820191906000526020600020905b8154815290600101906020018083116200225257829003601f168201915b5050505050838361ffff16815181106200228e576200228e62003fb8565b60200260200101819052508180620022a69062003fea565b9250505b80620022b68162003fea565b91505062002158565b509092915050565b60088181548110620022d857600080fd5b906000526020600020016000915090508054620015689062004045565b6060600080836003856040516200230d919062003f9a565b9081526040519081900360200181206001015461ffff16906003906200233590889062003f9a565b90815260405190819003602001902060010154919450925060ff620100009091041690509193909250565b8051602081830181018051600382529282019190930120915280548190620023889062004045565b80601f0160208091040260200160405190810160405280929190818152602001828054620023b69062004045565b8015620024075780601f10620023db5761010080835404028352916020019162002407565b820191906000526020600020905b815481529060010190602001808311620023e957829003601f168201915b5050506001909301549192505061ffff81169060ff620100009091041683565b600160a060020a038116600090815260056020526040902054819061ffff16158015620024775750600160a060020a03811660009081526005602052604090205462010000900460ff1615156001145b620024995760405160e560020a62461bcd028152600401620008d7906200400e565b600160a060020a0382811660009081526005602052604090205463010000009004163314620024df5760405160e560020a62461bcd028152600401620008d790620040f6565b600483604051620024f1919062003f9a565b9081526040516020918190039190910190205462010000900460ff161515600114620025635760405160e560020a62461bcd02815260206004820152601560248201527f53657276696365206e6f7420617661696c61626c6500000000000000000000006044820152606401620008d7565b60005460405160e060020a6370a08231028152336004820152600160a060020a03909116906370a0823190602401602060405180830381865afa158015620025af573d6000803e3d6000fd5b505050506040513d601f19601f82011682018060405250810190620025d59190620040b5565b600484604051620025e7919062003f9a565b9081526040519081900360200190205461ffff1611156200264e5760405160e560020a62461bcd02815260206004820152601260248201527f496e73756666696369656e742066756e647300000000000000000000000000006044820152606401620008d7565b600054604051600160a060020a03909116906351ce139a9033906004906200267890889062003f9a565b90815260405190819003602001812054600160a060020a0363010000009091041690600490620026aa90899062003f9a565b9081526040519081900360200181205460e060020a63ffffffff86160282526200144493929161ffff90911690600401620040cf565b60085460609060009067ffffffffffffffff81111562002704576200270462003a31565b6040519080825280602002602001820160405280156200273957816020015b6060815260200190600190039081620027235790505b5090506000805b60085461ffff82161015620022bf5733600160a060020a0316600460088361ffff168154811062002775576200277562003fb8565b906000526020600020016040516200278e919062004153565b90815260405190819003602001902054600160a060020a03630100000090910416036200289f5760088161ffff1681548110620027cf57620027cf62003fb8565b906000526020600020018054620027e69062004045565b80601f0160208091040260200160405190810160405280929190818152602001828054620028149062004045565b8015620028655780601f10620028395761010080835404028352916020019162002865565b820191906000526020600020905b8154815290600101906020018083116200284757829003601f168201915b5050505050838361ffff168151811062002883576200288362003fb8565b602002602001018190525081806200289b9062003fea565b9250505b80620028ab8162003fea565b91505062002740565b600154600160a060020a03163314620028e45760405160e560020a62461bcd028152600401620008d79062003f3d565b604080518082018252600681527f61637469766500000000000000000000000000000000000000000000000000006020808301918252600160a060020a0385166000908152600590915292909220905162001681926001909201919062003973565b60078181548110620022d857600080fd5b60606007805480602002602001604051908101604052809291908181526020016000905b8282101562002a315783829060005260206000200180546200299d9062004045565b80601f0160208091040260200160405190810160405280929190818152602001828054620029cb9062004045565b801562002a1c5780601f10620029f05761010080835404028352916020019162002a1c565b820191906000526020600020905b815481529060010190602001808311620029fe57829003601f168201915b5050505050815260200190600101906200297b565b50505050905090565b60075460609060009067ffffffffffffffff81111562002a5e5762002a5e62003a31565b60405190808252806020026020018201604052801562002a9357816020015b606081526020019060019003908162002a7d5790505b5090506000805b60075461ffff82161015620022bf57600360078261ffff168154811062002ac55762002ac562003fb8565b9060005260206000200160405162002ade919062004153565b90815260405190819003602001902060019081015460ff62010000909104161515900362002bf05760078161ffff168154811062002b205762002b2062003fb8565b90600052602060002001805462002b379062004045565b80601f016020809104026020016040519081016040528092919081815260200182805462002b659062004045565b801562002bb65780601f1062002b8a5761010080835404028352916020019162002bb6565b820191906000526020600020905b81548152906001019060200180831162002b9857829003601f168201915b5050505050838361ffff168151811062002bd45762002bd462003fb8565b6020026020010181905250818062002bec9062003fea565b9250505b8062002bfc8162003fea565b91505062002a9a565b60606008805480602002602001604051908101604052809291908181526020016000905b8282101562002a3157838290600052602060002001805462002c4b9062004045565b80601f016020809104026020016040519081016040528092919081815260200182805462002c799062004045565b801562002cca5780601f1062002c9e5761010080835404028352916020019162002cca565b820191906000526020600020905b81548152906001019060200180831162002cac57829003601f168201915b50505050508152602001906001019062002c29565b600160a060020a038181166000908152600560205260409020546301000000900416331462002d255760405160e560020a62461bcd028152600401620008d790620040f6565b604080518082018252600881527f696e6163746976650000000000000000000000000000000000000000000000006020808301918252600160a060020a0385166000908152600590915292909220905162002d87926001909201919062003973565b506000805460405160e060020a6370a08231028152336004820152600160a060020a03909116906370a0823190602401602060405180830381865afa15801562002dd5573d6000803e3d6000fd5b505050506040513d601f19601f8201168201806040525081019062002dfb9190620040b5565b111562002f41576000805460405160e060020a6370a08231028152336004820152600160a060020a03909116906370a0823190602401602060405180830381865afa15801562002e4f573d6000803e3d6000fd5b505050506040513d601f19601f8201168201806040525081019062002e759190620040b5565b6000546002546040517f51ce139a000000000000000000000000000000000000000000000000000000008152336004820152600160a060020a0391821660248201526044810184905292935016906351ce139a90606401600060405180830381600087803b15801562002ee757600080fd5b505af115801562002efc573d6000803e3d6000fd5b5050505081600160a060020a03166108fc62002f18836200385b565b6040518115909202916000818181858888f1935050505015801562001a30573d6000803e3d6000fd5b50565b62002f4e6200390a565b62002f705760405160e560020a62461bcd028152600401620008d790620041f9565b6040805160a081018252600080825260208083018281528385018381526060850184815286518088018852600781527f696e697469616c000000000000000000000000000000000000000000000000008186015260808701908152338652600585529690942085518154935192519551151560b860020a0277ff000000000000000000000000000000000000000000000019600160a060020a039097166301000000029690961677ffffffffffffffffffffffffffffffffffffffffff00000019931515620100000262ffffff1990951661ffff90921691909117939093179190911691909117929092178255925180519293919262003077926001850192019062003973565b5050600980546001810182556000919091527f6e1540171b6c0c960b71a7020d9f60077f6af931a8bbf590da0223dacf75c7af01805473ffffffffffffffffffffffffffffffffffffffff19163317905550565b606060098054806020026020016040519081016040528092919081815260200182805480156200312557602002820191906000526020600020905b8154600160a060020a0316815260019091019060200180831162003106575b5050505050905090565b3360009081526005602052604090205462010000900460ff16151560011480156200316b57503360009081526005602052604090205461ffff16155b620032085760405160e560020a62461bcd02815260206004820152605160248201527f596f7520617265206e6f7420656e61626c656420746f2063726561746520796f60448201527f757220636f6e7472616374206f7220796f757220636f6e74726163742074797060648201527f6520646f6573206e6f74206d617463682e000000000000000000000000000000608482015260a401620008d7565b6002546040516000913391600160a060020a039091169062001ce59062003a0c565b620032346200390a565b620032565760405160e560020a62461bcd028152600401620008d790620041f9565b6040805160a0810182526001808252600060208084018281528486018381526060860184815287518089018952600481527f6e756c6c000000000000000000000000000000000000000000000000000000008186015260808801908152338652600585529790942086518154935192519551151560b860020a0277ff000000000000000000000000000000000000000000000019600160a060020a039097166301000000029690961677ffffffffffffffffffffffffffffffffffffffffff00000019931515620100000262ffffff1990951661ffff9092169190911793909317919091169190911792909217825593518051939491936200307793850192919091019062003973565b600160a060020a0381811660009081526005602052604090205463010000009004163314620033a65760405160e560020a62461bcd028152600401620008d790620040f6565b6000620033b3836200385b565b905080341015620034305760405160e560020a62461bcd02815260206004820152603260248201527f596f75206e656564206d6f72652065746865727320746f20627579207468697360448201527f20616d6f756e74206f6620746f6b656e732e00000000000000000000000000006064820152608401620008d7565b60006200343e823462004256565b604051909150600160a060020a0384169082156108fc029083906000818181858888f1935050505015801562003478573d6000803e3d6000fd5b506000546040517fa9059cbb00000000000000000000000000000000000000000000000000000000815233600482015260248101869052600160a060020a039091169063a9059cbb906044016020604051808303816000875af1158015620034e4573d6000803e3d6000fd5b505050506040513d601f19601f82011682018060405250810190620020f1919062004270565b600160a060020a03808216600090815260056020526040812080546001909101805492938493849360609361ffff82169360ff62010000840416936301000000909304169181906200355c9062004045565b80601f01602080910402602001604051908101604052809291908181526020018280546200358a9062004045565b8015620035db5780601f10620035af57610100808354040283529160200191620035db565b820191906000526020600020905b815481529060010190602001808311620035bd57829003601f168201915b5050505050905093509350935093509193509193565b600154600160a060020a03163314620036215760405160e560020a62461bcd028152600401620008d79062003f3d565b6000546040517fa0712d6800000000000000000000000000000000000000000000000000000000815261ffff83166004820152600160a060020a039091169063a0712d6890602401600060405180830381600087803b1580156200368457600080fd5b505af1158015620020f1573d6000803e3d6000fd5b600160a060020a038116600090815260056020526040902054819061ffff166001148015620036eb5750600160a060020a03811660009081526005602052604090205462010000900460ff1615156001145b6200370d5760405160e560020a62461bcd028152600401620008d7906200407e565b600160a060020a0382811660009081526005602052604090205463010000009004163314620037535760405160e560020a62461bcd028152600401620008d790620040f6565b60048360405162003765919062003f9a565b9081526040519081900360200181205460ff620100009091041615906004906200379190869062003f9a565b9081526040519081900360200190208054911515620100000262ff000019909216919091179055505050565b600154600160a060020a03163314620037ed5760405160e560020a62461bcd028152600401620008d79062003f3d565b600381604051620037ff919062003f9a565b9081526040519081900360200181206001015460ff620100009091041615906003906200382e90849062003f9a565b9081526040519081900360200190206001018054911515620100000262ff00001990921691909117905550565b60006200152782633b9aca0062004294565b600160005b8351811015620011a957826040516020016200388f919062003f9a565b60405160208183030381529060405280519060200120848281518110620038ba57620038ba62003fb8565b6020026020010151604051602001620038d4919062003f9a565b6040516020818303038152906040528051906020012003620038f557600091505b806200390181620042b6565b91505062003872565b600160005b6009548110156200396f5733600160a060020a0316600982815481106200393a576200393a62003fb8565b600091825260209091200154600160a060020a0316036200395a57600091505b806200396681620042b6565b9150506200390f565b5090565b828054620039819062004045565b90600052602060002090601f016020900481019282620039a55760008555620039f0565b82601f10620039c057805160ff1916838001178555620039f0565b82800160010185558215620039f0579182015b82811115620039f0578251825591602001919060010190620039d3565b506200396f92915062003a1a565b610ccb80620042d383390190565b610e188062004f9e83390190565b5b808211156200396f576000815560010162003a1b565b60e060020a634e487b7102600052604160045260246000fd5b600082601f83011262003a5c57600080fd5b813567ffffffffffffffff8082111562003a7a5762003a7a62003a31565b604051601f8301601f19908116603f0116810190828211818310171562003aa55762003aa562003a31565b8160405283815286602085880101111562003abf57600080fd5b836020870160208301376000602085830101528094505050505092915050565b60006020828403121562003af257600080fd5b813567ffffffffffffffff81111562003b0a57600080fd5b62003b188482850162003a4a565b949350505050565b6020808252825182820181905260009190848201906040850190845b8181101562003b63578351600160a060020a03168352928401929184019160010162003b3c565b50909695505050505050565b8035600160a060020a038116811462000d7657600080fd5b60006020828403121562003b9a57600080fd5b62003ba58262003b6f565b9392505050565b60005b8381101562003bc957818101518382015260200162003baf565b83811115620014ab5750506000910152565b6000815180845262003bf581602086016020860162003bac565b601f01601f19169290920160200192915050565b600060208083018184528085518083526040860191506040848202870101925083870160005b8281101562003c6157603f1988860301845262003c4e85835162003bdb565b9450928501929085019060010162003c2f565b5092979650505050505050565b803561ffff8116811462000d7657600080fd5b6000806040838503121562003c9557600080fd5b62003ca08362003b6f565b915062003cb06020840162003c6e565b90509250929050565b60208152600062003ba5602083018462003bdb565b6000806040838503121562003ce257600080fd5b823567ffffffffffffffff81111562003cfa57600080fd5b62003d088582860162003a4a565b92505062003cb06020840162003b6f565b6000806040838503121562003d2d57600080fd5b62003d388362003b6f565b946020939093013593505050565b60608152600062003d5b606083018662003bdb565b61ffff94909416602083015250901515604090910152919050565b6000806040838503121562003d8a57600080fd5b823567ffffffffffffffff81111562003da257600080fd5b62003db08582860162003a4a565b92505062003cb06020840162003c6e565b61ffff861681528415156020820152600160a060020a0384166040820152821515606082015260a06080820152600062003dff60a083018462003bdb565b979650505050505050565b61ffff851681528315156020820152821515604082015260806060820152600062003e39608083018462003bdb565b9695505050505050565b60008060006060848603121562003e5957600080fd5b833567ffffffffffffffff81111562003e7157600080fd5b62003e7f8682870162003a4a565b93505062003e906020850162003c6e565b915062003ea06040850162003b6f565b90509250925092565b60006020828403121562003ebc57600080fd5b5035919050565b6000806040838503121562003ed757600080fd5b8235915062003cb06020840162003b6f565b61ffff851681528315156020820152600160a060020a038316604082015260806060820152600062003e39608083018462003bdb565b60006020828403121562003f3257600080fd5b62003ba58262003c6e565b6020808252603e908201527f596f7520646f206e6f74206861766520746865206e656365737361727920706560408201527f726d697373696f6e7320746f2072756e20746869732066756e6374696f6e0000606082015260800190565b6000825162003fae81846020870162003bac565b9190910192915050565b60e060020a634e487b7102600052603260045260246000fd5b60e060020a634e487b7102600052601160045260246000fd5b600061ffff80831681810362004004576200400462003fd1565b6001019392505050565b60208082526015908201527f4e6f20636c69656e74207065726d697373696f6e730000000000000000000000604082015260600190565b6002810460018216806200405a57607f821691505b60208210810362000ed75760e060020a634e487b7102600052602260045260246000fd5b60208082526015908201527f4e6f206c61626f7261746f7279207065726d6974730000000000000000000000604082015260600190565b600060208284031215620040c857600080fd5b5051919050565b600160a060020a03938416815291909216602082015261ffff909116604082015260600190565b60208082526031908201527f596f7520646f206e6f742068617665207065726d697373696f6e7320746f207260408201527f756e2074686973206f7065726174696f6e000000000000000000000000000000606082015260800190565b81546000908190600281046001808316806200417057607f831692505b60208084108203620041935760e060020a634e487b710286526022600452602486fd5b818015620041aa5760018114620041bc57620041eb565b60ff19861689528489019650620041eb565b60008a81526020902060005b86811015620041e35781548b820152908501908301620041c8565b505084890196505b509498975050505050505050565b6020808252602b908201527f596f7520616c726561647920686176652061207265717565737420746f20796f60408201527f757220616464726573732e000000000000000000000000000000000000000000606082015260800190565b6000828210156200426b576200426b62003fd1565b500390565b6000602082840312156200428357600080fd5b8151801515811462003ba557600080fd5b6000816000190483118215151615620042b157620042b162003fd1565b500290565b600060018201620042cb57620042cb62003fd1565b506001019056fe608060405234801561001057600080fd5b50604051610ccb380380610ccb83398101604081905261002f916100b8565b60008054600160a060020a0319908116600160a060020a039485161790915560018054600280549093169390941692909217905574010000000000000000000000000000000000000000600160a860020a03199092163060a060020a60ff021916179190911790556100eb565b8051600160a060020a03811681146100b357600080fd5b919050565b600080604083850312156100cb57600080fd5b6100d48361009c565b91506100e26020840161009c565b90509250929050565b610bd1806100fa6000396000f3fe608060405260043610610098576000357c010000000000000000000000000000000000000000000000000000000090048063cc805c201161006b578063cc805c2014610131578063d5808c7514610144578063e3e97a9a14610175578063ea54d2121461019857600080fd5b806312494d161461009d5780638da5cb5b146100b457806396b0e90d146100f1578063c98c64b714610111575b600080fd5b3480156100a957600080fd5b506100b26101ba565b005b3480156100c057600080fd5b506000546100d490600160a060020a031681565b604051600160a060020a0390911681526020015b60405180910390f35b3480156100fd57600080fd5b506100b261010c36600461082d565b6102d2565b34801561011d57600080fd5b506100b261012c366004610881565b6103ea565b6100b261013f3660046108cf565b610503565b34801561015057600080fd5b506001546101659060a060020a900460ff1681565b60405190151581526020016100e8565b34801561018157600080fd5b5061018a6105cc565b6040519081526020016100e8565b3480156101a457600080fd5b506101ad610689565b6040516100e8919061094d565b60015460a060020a900460ff166101ef5760405160e560020a62461bcd0281526004016101e6906109ae565b60405180910390fd5b6002546000546040517faef5beb7000000000000000000000000000000000000000000000000000000008152600160a060020a03918216600482015291169063aef5beb790602401600060405180830381600087803b15801561025157600080fd5b505af1158015610265573d6000803e3d6000fd5b505050507f8fb8e77703b1fc88b5be52da1e07c7ea6c9758371ee19d107adcf70f24714e2d6040516102c8906020808252601d908201527f4c61626f7261746f727920636f6e74726163742063616e63656c6c6564000000604082015260600190565b60405180910390a1565b60015460a060020a900460ff166102fe5760405160e560020a62461bcd0281526004016101e6906109ae565b6002546000546040517fe6cbd058000000000000000000000000000000000000000000000000000000008152600160a060020a039283169263e6cbd0589261034e928692909116906004016109e5565b600060405180830381600087803b15801561036857600080fd5b505af115801561037c573d6000803e3d6000fd5b505050507f52d2c476367a5c510d10dc00aa26840e839c8207ffb1fe1f851d383b1c3939e66040516103df906020808252600e908201527f537461747573206368616e676564000000000000000000000000000000000000604082015260600190565b60405180910390a150565b60015460a060020a900460ff166104165760405160e560020a62461bcd0281526004016101e6906109ae565b6002546000546040517f54c844fa000000000000000000000000000000000000000000000000000000008152600160a060020a03928316926354c844fa9261046692879287921690600401610a10565b600060405180830381600087803b15801561048057600080fd5b505af1158015610494573d6000803e3d6000fd5b505050507f208275776c16b77743a1409e20eff6a2abaaa054ce0042f8314e2b131353b0166040516104f79060208082526017908201527f7370656369616c20736572766963652063726561746564000000000000000000604082015260600190565b60405180910390a15050565b60015460a060020a900460ff1661052f5760405160e560020a62461bcd0281526004016101e6906109ae565b6002546000546040517f12754972000000000000000000000000000000000000000000000000000000008152600160a060020a03918216600482015261ffff841660248201529116906312754972906044016000604051808303816000875af11580156105a0573d6000803e3d6000fd5b505050506040513d6000823e601f3d908101601f191682016040526105c89190810190610a8b565b5050565b60015460009060a060020a900460ff166105fb5760405160e560020a62461bcd0281526004016101e6906109ae565b6002546001546040517f26c8fb70000000000000000000000000000000000000000000000000000000008152600160a060020a0391821660048201529116906326c8fb7090602401602060405180830381865afa158015610660573d6000803e3d6000fd5b505050506040513d601f19601f820116820180604052508101906106849190610ac0565b905090565b60015460609060a060020a900460ff166106b85760405160e560020a62461bcd0281526004016101e6906109ae565b600260009054906101000a9004600160a060020a0316600160a060020a03166382a6f77c6040518163ffffffff167c0100000000000000000000000000000000000000000000000000000000028152600401600060405180830381865afa158015610727573d6000803e3d6000fd5b505050506040513d6000823e601f3d908101601f191682016040526106849190810190610ad9565b7f4e487b7100000000000000000000000000000000000000000000000000000000600052604160045260246000fd5b604051601f8201601f1916810167ffffffffffffffff811182821017156107a7576107a761074f565b604052919050565b600067ffffffffffffffff8211156107c9576107c961074f565b50601f01601f191660200190565b600082601f8301126107e857600080fd5b81356107fb6107f6826107af565b61077e565b81815284602083860101111561081057600080fd5b816020850160208301376000918101602001919091529392505050565b60006020828403121561083f57600080fd5b813567ffffffffffffffff81111561085657600080fd5b610862848285016107d7565b949350505050565b803561ffff8116811461087c57600080fd5b919050565b6000806040838503121561089457600080fd5b823567ffffffffffffffff8111156108ab57600080fd5b6108b7858286016107d7565b9250506108c66020840161086a565b90509250929050565b6000602082840312156108e157600080fd5b6108ea8261086a565b9392505050565b60005b8381101561090c5781810151838201526020016108f4565b8381111561091b576000848401525b50505050565b600081518084526109398160208601602086016108f1565b601f01601f19169290920160200192915050565b600060208083018184528085518083526040860191506040848202870101925083870160005b828110156109a157603f1988860301845261098f858351610921565b94509285019290850190600101610973565b5092979650505050505050565b60208082526012908201527f4e6f2061637469766520636f6e74726163740000000000000000000000000000604082015260600190565b6040815260006109f86040830185610921565b9050600160a060020a03831660208301529392505050565b606081526000610a236060830186610921565b905061ffff84166020830152600160a060020a0383166040830152949350505050565b600082601f830112610a5757600080fd5b8151610a656107f6826107af565b818152846020838601011115610a7a57600080fd5b6108628260208301602087016108f1565b600060208284031215610a9d57600080fd5b815167ffffffffffffffff811115610ab457600080fd5b61086284828501610a46565b600060208284031215610ad257600080fd5b5051919050565b60006020808385031215610aec57600080fd5b825167ffffffffffffffff80821115610b0457600080fd5b818501915085601f830112610b1857600080fd5b815181811115610b2a57610b2a61074f565b838102610b3885820161077e565b9182528381018501918581019089841115610b5257600080fd5b86860192505b83831015610b8e57825185811115610b705760008081fd5b610b7e8b89838a0101610a46565b8352509186019190860190610b58565b999850505050505050505056fea26469706673582212202cd8939f7bf5540a1b878d02b134966a58de846321bebad10ccabc48619838cd64736f6c634300080e0033608060405234801561001057600080fd5b50604051610e18380380610e1883398101604081905261002f916100b4565b60008054600160a060020a03938416600160a060020a03199182161790915560018054821630179055600280546003805490931693909416928317909155600160a860020a031990921617740100000000000000000000000000000000000000001790556100e7565b8051600160a060020a03811681146100af57600080fd5b919050565b600080604083850312156100c757600080fd5b6100d083610098565b91506100de60208401610098565b90509250929050565b610d22806100f66000396000f3fe6080604052600436106100e15760003560e060020a90048063c73e271011610083578063db8366eb1161005d578063db8366eb14610245578063de1c548814610265578063e4f05b761461027a578063ea54d2121461029a57600080fd5b8063c73e2710146101cf578063d25120ce146101f1578063d5808c751461021457600080fd5b80632b68bb2d116100bf5780632b68bb2d146101675780638609b2fc1461016f5780638da5cb5b1461018f578063a5487a03146101af57600080fd5b8063072ec0bb146100e65780630e662cf01461012357806314f52f3a14610138575b600080fd5b3480156100f257600080fd5b5060025461010690600160a060020a031681565b604051600160a060020a0390911681526020015b60405180910390f35b6101366101313660046108d2565b6102af565b005b34801561014457600080fd5b5061015861015336600461097e565b61036d565b60405161011a93929190610a56565b61013661043c565b34801561017b57600080fd5b5060015461010690600160a060020a031681565b34801561019b57600080fd5b5060005461010690600160a060020a031681565b3480156101bb57600080fd5b506101586101ca36600461097e565b610514565b3480156101db57600080fd5b506101e4610591565b60405161011a9190610a84565b3480156101fd57600080fd5b50610206610628565b60405190815260200161011a565b34801561022057600080fd5b506002546102359060a060020a900460ff1681565b604051901515815260200161011a565b34801561025157600080fd5b5061013661026036600461097e565b6106e0565b34801561027157600080fd5b506101e4610765565b34801561028657600080fd5b5061013661029536600461097e565b6107ea565b3480156102a657600080fd5b506101e461083a565b60025460a060020a900460ff166102e45760405160e560020a62461bcd0281526004016102db90610ae5565b60405180910390fd5b6003546000546040517fc625e9b100000000000000000000000000000000000000000000000000000000815261ffff84166004820152600160a060020a03918216602482015291169063c625e9b19034906044016000604051808303818588803b15801561035157600080fd5b505af1158015610365573d6000803e3d6000fd5b505050505050565b6060600080600260149054906101000a900460ff166103a15760405160e560020a62461bcd0281526004016102db90610ae5565b6003546040517f6b073db6000000000000000000000000000000000000000000000000000000008152600160a060020a0390911690636b073db6906103ea908790600401610b1c565b600060405180830381865afa158015610407573d6000803e3d6000fd5b505050506040513d6000823e601f3d908101601f1916820160405261042f9190810190610b7c565b9250925092509193909250565b60025460a060020a900460ff166104985760405160e560020a62461bcd02815260206004820152601d60248201527f4e6f2061637469766520636f6e747261637420612063616e63656c617200000060448201526064016102db565b6003546000546040517faef5beb7000000000000000000000000000000000000000000000000000000008152600160a060020a03918216600482015291169063aef5beb790602401600060405180830381600087803b1580156104fa57600080fd5b505af115801561050e573d6000803e3d6000fd5b50505050565b6060600080600260149054906101000a900460ff166105485760405160e560020a62461bcd0281526004016102db90610ae5565b6003546040517f37cf7793000000000000000000000000000000000000000000000000000000008152600160a060020a03909116906337cf7793906103ea908790600401610b1c565b6003546000546040517f05c713c6000000000000000000000000000000000000000000000000000000008152600160a060020a03918216600482015260609291909116906305c713c690602401600060405180830381865afa1580156105fb573d6000803e3d6000fd5b505050506040513d6000823e601f3d908101601f191682016040526106239190810190610be6565b905090565b60025460009060a060020a900460ff166106575760405160e560020a62461bcd0281526004016102db90610ae5565b6003546001546040517f26c8fb70000000000000000000000000000000000000000000000000000000008152600160a060020a0391821660048201529116906326c8fb7090602401602060405180830381865afa1580156106bc573d6000803e3d6000fd5b505050506040513d601f19601f820116820180604052508101906106239190610ca8565b6003546000546040517f161e9e23000000000000000000000000000000000000000000000000000000008152600160a060020a039283169263161e9e239261073092869290911690600401610cc1565b600060405180830381600087803b15801561074a57600080fd5b505af115801561075e573d6000803e3d6000fd5b5050505050565b60025460609060a060020a900460ff166107945760405160e560020a62461bcd0281526004016102db90610ae5565b600360009054906101000a9004600160a060020a0316600160a060020a0316639da1ec6b6040518163ffffffff1660e060020a028152600401600060405180830381865afa1580156105fb573d6000803e3d6000fd5b6003546000546040517f7748d3c4000000000000000000000000000000000000000000000000000000008152600160a060020a0392831692637748d3c49261073092869290911690600401610cc1565b60025460609060a060020a900460ff166108695760405160e560020a62461bcd0281526004016102db90610ae5565b600360009054906101000a9004600160a060020a0316600160a060020a0316635b14ce066040518163ffffffff1660e060020a028152600401600060405180830381865afa1580156105fb573d6000803e3d6000fd5b61ffff811681146108cf57600080fd5b50565b6000602082840312156108e457600080fd5b81356108ef816108bf565b9392505050565b7f4e487b7100000000000000000000000000000000000000000000000000000000600052604160045260246000fd5b604051601f8201601f1916810167ffffffffffffffff8111828210171561094e5761094e6108f6565b604052919050565b600067ffffffffffffffff821115610970576109706108f6565b50601f01601f191660200190565b60006020828403121561099057600080fd5b813567ffffffffffffffff8111156109a757600080fd5b8201601f810184136109b857600080fd5b80356109cb6109c682610956565b610925565b8181528560208385010111156109e057600080fd5b81602084016020830137600091810160200191909152949350505050565b60005b83811015610a19578181015183820152602001610a01565b8381111561050e5750506000910152565b60008151808452610a428160208601602086016109fe565b601f01601f19169290920160200192915050565b606081526000610a696060830186610a2a565b61ffff94909416602083015250901515604090910152919050565b600060208083018184528085518083526040860191506040848202870101925083870160005b82811015610ad857603f19888603018452610ac6858351610a2a565b94509285019290850190600101610aaa565b5092979650505050505050565b60208082526012908201527f4e6f2061637469766520636f6e74726163740000000000000000000000000000604082015260600190565b6020815260006108ef6020830184610a2a565b600082601f830112610b4057600080fd5b8151610b4e6109c682610956565b818152846020838601011115610b6357600080fd5b610b748260208301602087016109fe565b949350505050565b600080600060608486031215610b9157600080fd5b835167ffffffffffffffff811115610ba857600080fd5b610bb486828701610b2f565b9350506020840151610bc5816108bf565b60408501519092508015158114610bdb57600080fd5b809150509250925092565b60006020808385031215610bf957600080fd5b825167ffffffffffffffff80821115610c1157600080fd5b818501915085601f830112610c2557600080fd5b815181811115610c3757610c376108f6565b838102610c45858201610925565b9182528381018501918581019089841115610c5f57600080fd5b86860192505b83831015610c9b57825185811115610c7d5760008081fd5b610c8b8b89838a0101610b2f565b8352509186019190860190610c65565b9998505050505050505050565b600060208284031215610cba57600080fd5b5051919050565b604081526000610cd46040830185610a2a565b9050600160a060020a0383166020830152939250505056fea2646970667358221220d574cf859949281934111f6936d629d7072d94cda7e7295c5b04db5f892b5dca64736f6c634300080e0033497420646f6573206e6f7420686176652073756666696369656e742066756e64732e796f7572207265746972656d656e7420686173206265656e207375636365737366756ca2646970667358221220481373fe157f1fc25837579b1dc32d6cf00b5f022d1cc798cd6486d287ddd49e64736f6c634300080e003360806040523480156200001157600080fd5b5060405162000a3438038062000a348339810160408190526200003491620001f4565b81516200004990600290602085019062000068565b5080516200005f90600390602084019062000068565b505050620002b3565b82805462000076906200025e565b90600052602060002090601f0160209004810192826200009a5760008555620000e5565b82601f10620000b557805160ff1916838001178555620000e5565b82800160010185558215620000e5579182015b82811115620000e5578251825591602001919060010190620000c8565b50620000f3929150620000f7565b5090565b5b80821115620000f35760008155600101620000f8565b7f4e487b7100000000000000000000000000000000000000000000000000000000600052604160045260246000fd5b600082601f8301126200014f57600080fd5b81516001604060020a03808211156200016c576200016c6200010e565b604051601f8301601f19908116603f011681019082821181831017156200019757620001976200010e565b81604052838152602092508683858801011115620001b457600080fd5b600091505b83821015620001d85785820183015181830184015290820190620001b9565b83821115620001ea5760008385830101525b9695505050505050565b600080604083850312156200020857600080fd5b82516001604060020a03808211156200022057600080fd5b6200022e868387016200013d565b935060208501519150808211156200024557600080fd5b5062000254858286016200013d565b9150509250929050565b6002810460018216806200027357607f821691505b602082108103620002ad577f4e487b7100000000000000000000000000000000000000000000000000000000600052602260045260246000fd5b50919050565b61077180620002c36000396000f3fe608060405234801561001057600080fd5b506004361061009a576000357c01000000000000000000000000000000000000000000000000000000009004806370a082311161007857806370a08231146100e457806395d89b411461010d578063a0712d6814610115578063a9059cbb1461012857600080fd5b806306fdde031461009f57806318160ddd146100bd57806351ce139a146100cf575b600080fd5b6100a761014b565b6040516100b49190610578565b60405180910390f35b6001545b6040519081526020016100b4565b6100e26100dd3660046105e9565b6101dd565b005b6100c16100f2366004610625565b600160a060020a031660009081526020819052604090205490565b6100a761023c565b6100e2610123366004610647565b61024b565b61013b610136366004610660565b610258565b60405190151581526020016100b4565b60606002805461015a9061068a565b80601f01602080910402602001604051908101604052809291908181526020018280546101869061068a565b80156101d35780601f106101a8576101008083540402835291602001916101d3565b820191906000526020600020905b8154815290600101906020018083116101b657829003601f168201915b5050505050905090565b600160a060020a0383166000908152602081905260408120805483929061020590849061070c565b9091555050600160a060020a03821660009081526020819052604081208054839290610232908490610723565b9091555050505050565b60606003805461015a9061068a565b6102553382610270565b50565b600033610266818585610357565b5060019392505050565b600160a060020a0382166102ce5760405160e560020a62461bcd02815260206004820152601f60248201527f45524332303a206d696e7420746f20746865207a65726f20616464726573730060448201526064015b60405180910390fd5b80600160008282546102e09190610723565b9091555050600160a060020a0382166000908152602081905260408120805483929061030d908490610723565b9091555050604051818152600160a060020a038316906000907fddf252ad1be2c89b69c2b068fc378daa952ba7f163c4a11628f55a4df523b3ef9060200160405180910390a35050565b600160a060020a0383166103d65760405160e560020a62461bcd02815260206004820152602560248201527f45524332303a207472616e736665722066726f6d20746865207a65726f20616460448201527f647265737300000000000000000000000000000000000000000000000000000060648201526084016102c5565b600160a060020a0382166104555760405160e560020a62461bcd02815260206004820152602360248201527f45524332303a207472616e7366657220746f20746865207a65726f206164647260448201527f657373000000000000000000000000000000000000000000000000000000000060648201526084016102c5565b600160a060020a038316600090815260208190526040902054818110156104e75760405160e560020a62461bcd02815260206004820152602660248201527f45524332303a207472616e7366657220616d6f756e742065786365656473206260448201527f616c616e6365000000000000000000000000000000000000000000000000000060648201526084016102c5565b600160a060020a0380851660009081526020819052604080822085850390559185168152908120805484929061051e908490610723565b9250508190555082600160a060020a031684600160a060020a03167fddf252ad1be2c89b69c2b068fc378daa952ba7f163c4a11628f55a4df523b3ef8460405161056a91815260200190565b60405180910390a350505050565b600060208083528351808285015260005b818110156105a557858101830151858201604001528201610589565b818111156105b7576000604083870101525b50601f01601f1916929092016040019392505050565b8035600160a060020a03811681146105e457600080fd5b919050565b6000806000606084860312156105fe57600080fd5b610607846105cd565b9250610615602085016105cd565b9150604084013590509250925092565b60006020828403121561063757600080fd5b610640826105cd565b9392505050565b60006020828403121561065957600080fd5b5035919050565b6000806040838503121561067357600080fd5b61067c836105cd565b946020939093013593505050565b60028104600182168061069e57607f821691505b6020821081036106d7577f4e487b7100000000000000000000000000000000000000000000000000000000600052602260045260246000fd5b50919050565b7f4e487b7100000000000000000000000000000000000000000000000000000000600052601160045260246000fd5b60008282101561071e5761071e6106dd565b500390565b60008219821115610736576107366106dd565b50019056fea2646970667358221220ece6a1c0d07c7c3fc4fe4397433f7220fdc263e36317139682a78afcefca1ff664736f6c634300080e0033",
  "immutableReferences": {},
  "source": "// SPDX-License-Identifier: MIT\npragma solidity >=0.7.0 < 0.9.0;\nimport \"../Token/ERC20.sol\";\nimport \"./IInsuranceRocketCompany.sol\";\nimport \"./InsuranceClientRocketCompany.sol\";\nimport \"./InsuranceLaboratoryRocketCompany.sol\";\n\ncontract InsuranceRocketCompany is InterfaceRocket{\n    //Token\n    ERC20Rocket token;\n    address public owner;\n    address public addressContract;\n\n    constructor() {\n        token = new ERC20Rocket(\"MedicineRocket\", \"MR\");\n        token.mint(10000);\n\n        owner = msg.sender;\n        addressContract = address(this);\n    }\n\n    //Funcion Ether balance\n    function BalanceContractEthers ()public view returns(uint){\n        return addressContract.balance;\n    }\n\n    //---------------------------------------Modifiers---------------------------------------\n    modifier onlyOwner {\n        require(msg.sender == owner, \"You do not have the necessary permissions to run this function\");\n        _;\n    }\n\n    modifier onlyLaboratories(address ownerLaboratory) {\n        require (\n            RequestStatus[ownerLaboratory].requestType == uint16(1) && RequestStatus[ownerLaboratory].statusRequest == true,\n            \"No laboratory permits\"\n        );\n        _;\n    }\n\n    modifier onlyClient(address _userWallet){\n\n        require (\n            RequestStatus[_userWallet].requestType == uint16(0) && RequestStatus[_userWallet].statusRequest == true,\n            \"No client permissions\"\n        );\n        _;        \n    }\n\n    //---------------------------------------Mappings---------------------------------------\n    //Mapping para relacionar el nombre de un servicio con su estructura de datos\n    mapping(string => Service) public Services;\n\n    //Mapping para guardar los servicios especializados de laboratorios externos\n    mapping(string => SpecialService) public SpecialServices;\n\n    //Mapping que relaciona la address con la peticion\n    mapping(address => Request) public RequestStatus;\n\n    //Mapping que relacion un address de cada usuario con su historial de servicios\n    mapping(address => string []) public servicesClientHistory;\n\n    //---------------------------------------Enums---------------------------------------\n    //Enum para clasificar el tipo de peticion de suscripcion\n    enum RequestType { CLIENT, LABORATORY }\n\n    //---------------------------------------Arrays---------------------------------------\n    //Array para almacenar el listado de los servicios\n    string[] public listServices;\n\n    //Array para almacenar el listado de los servicios especiales de los laboratorios\n    string[] public listSpecialServices;\n\n    //Array para almacenar las peticiones de suscripcion de clientes\n    address[] requestMixed;\n\n    //---------------------------------------Funciones validadoras---------------------------------------\n\n    //Funcion para validar que el nombre de servicio ya no exista\n    function checkRepeatService(string [] memory services, string memory _name) private pure returns(bool identifier){\n        identifier = true;\n\n        for(uint i = 0; i < services.length; i++){\n            if(keccak256(abi.encodePacked(services[i])) == keccak256(abi.encodePacked(_name))){\n                identifier = false;\n            }\n        }\n    }\n\n    //Funcion para saber si una address ya tiene una peticion\n    function checkRepeatRequest() private view returns(bool identifier){\n        identifier = true;\n\n        for(uint i = 0; i < requestMixed.length; i++){\n            if(requestMixed[i] == msg.sender){\n                identifier = false;\n            }\n        }\n    }\n\n    //---------------------------------------Funciones de tokens----------------------------------------------------\n\n    //Funcion para recargar tokens al contrato\n    function rechargeTokens(uint16 _amount) public override onlyOwner {\n        token.mint(_amount);\n\n        // emit rechargeTokensEvent(_amount);\n    }\n\n    //Funcion ver tokens de contrato principal\n    function balanceContractTokens() public view returns(uint){\n        uint balance = token.balanceOf(addressContract);\n\n        return balance;\n    }\n\n    //Funcion para convertir el precio de tokens a ethers\n    function tokenToGwei(uint _quantity) private pure returns(uint){\n        return _quantity * (1 gwei);\n    } \n\n    //Funcion para comprar tokens\n    function buyTokens(uint _quantity, address ownerClient) public payable {\n        require(RequestStatus[ownerClient].addressContract == msg.sender, \"You do not have permissions to run this operation\");\n\n        uint cost = tokenToGwei(_quantity);\n        require(msg.value >= cost, \"You need more ethers to buy this amount of tokens.\");\n\n        uint returnValue = msg.value - cost;\n        payable(ownerClient).transfer(returnValue);\n        token.transfer(msg.sender, _quantity );\n    }\n\n    //Funcion para recibir pagos\n    receive() external payable{}\n    fallback ()external payable{}\n\n    //---------------------------------------Funciones para contrato principal---------------------------------------\n\n    //Funcion para ver el listado de servicios activos\n    function showActivedServices() public view override returns(string[] memory){\n        string[] memory activedServices = new string[] (listServices.length);\n        uint16 counter = 0;\n\n        for(uint16 i = 0; i < listServices.length; i++){\n            if(Services[listServices[i]].statusService == true){\n                activedServices[counter] = listServices[i];\n                counter++;\n            }\n        }\n\n        return activedServices;       \n    }\n\n    //Funcion para ver el listado de servicios especiales activos\n    function showActivedSpecialServices() public view returns(string[] memory){\n        string[] memory activedServices = new string[] (listSpecialServices.length);\n        uint16 counter = 0;\n\n        for(uint16 i = 0; i < listSpecialServices.length; i++){\n            if(SpecialServices[listSpecialServices[i]].statusService == true){\n                activedServices[counter] = listSpecialServices[i];\n                counter++;\n            }\n        }\n\n        return activedServices;       \n    }\n\n    //Funcion para mostrar un servicio por su nombre\n    //function showService(string memory _name) public view override returns(Service memory){return Services[_name];} \n    function showServiceDetails(string memory _name) public view override returns(string memory, uint16, bool){\n        return (_name, Services[_name].priceService, Services[_name].statusService);\n    }\n\n    //Funcion para mostrar un servicio por su nombre\n    function showSpecialServiceDetails(string memory _name) public view  returns(string memory, uint16, bool){\n        return (_name, SpecialServices[_name].priceService, SpecialServices[_name].statusService);\n    }\n\n    //Funcion para revisar el numero de contrato de cada cliente\n    function checkNumberContract() public view returns(address){\n        return RequestStatus[msg.sender].addressContract;\n    }\n\n    //Funcion para ver saldo de Cliente\n    function balanceContractUser(address _addr) public view returns (uint){\n        return token.balanceOf(_addr);\n    }\n\n\n    //Funcion para saber el role y el status de cada usuario o laboratorio\n    function showStatusAndRole() public view returns(uint16, bool, bool, string memory){\n        //Agragar require que pregunte si existe o no y validar\n        return (RequestStatus[msg.sender].requestType, RequestStatus[msg.sender].statusRequest, RequestStatus[msg.sender].isRequest, RequestStatus[msg.sender].statusContract );\n    }\n\n    //change status contract clients or laboratory\n    function changeStatusContract(address _userWallet) external payable {\n\n        require(RequestStatus[_userWallet].addressContract == msg.sender, \"You do not have permissions to run this operation\");\n\n        RequestStatus[_userWallet].statusContract = 'inactive';\n\n        if (token.balanceOf(msg.sender) > 0 ) {\n            uint balanceUserTokens = token.balanceOf(msg.sender);\n            token.transferTokenRocket(msg.sender,addressContract, balanceUserTokens );\n            payable (_userWallet).transfer(tokenToGwei(balanceUserTokens));\n\n            //  emit messageEvent (\"Your contract has been cancelled and your money returned to your wallet.\");\n        }\n        // else{\n        //      emit messageEvent (\"Your contract has been cancelled\");\n        // }\n    }\n\n    //---------------------------------------Funciones para el admin ---------------------------------------\n\n    //Funcion para ver las solicitudes pendientes\n    function showPendingRequest(string memory _type) public view override onlyOwner returns(address[] memory) {\n        require(keccak256(abi.encodePacked(_type)) == keccak256(abi.encodePacked(\"Client\")) || keccak256(abi.encodePacked(_type)) == keccak256(abi.encodePacked(\"Laboratory\")), \"El tipo ingresado no es correcto\");\n        \n        uint16 counter;\n        address[] memory pendingRequests = new address[] (requestMixed.length);\n\n        if(keccak256(abi.encodePacked(_type)) == keccak256(abi.encodePacked(\"Client\"))){\n            for(uint16 i = 0; i < requestMixed.length; i++){\n                if(RequestStatus[requestMixed[i]].statusRequest == false && RequestStatus[requestMixed[i]].requestType == uint16(0)){\n                    pendingRequests[counter] = requestMixed[i];\n                    counter++;\n                }\n            }\n        }else{\n            for(uint16 i = 0; i < requestMixed.length; i++){\n                if(RequestStatus[requestMixed[i]].statusRequest == false  && RequestStatus[requestMixed[i]].requestType == uint16(1)){\n                    pendingRequests[counter] = requestMixed[i];\n                    counter++;\n                }\n            }\n        }\n        return pendingRequests;\n    }\n\n    //Funcion para habilitar un cliente o laboratorio\n    function enableSubscription(address _addr) public override onlyOwner{\n        RequestStatus[_addr].statusRequest = true;\n        RequestStatus[_addr].isRequest = true;\n        RequestStatus[_addr].statusContract = 'acepted';\n        // emit messageEvent(\"A subscription has been enabled\");\n    }\n\n    //Funcion para cambiar el estado de los servicios\n    function changeStatusService(string memory _name) public override onlyOwner{\n        Services[_name].statusService = !Services[_name].statusService;\n\n        // emit messageEvent(\"The service status has been successfully changed.\");\n    }\n\n    //Funcion para crear servicios\n    function createService(string memory _name, uint16 _price) public override onlyOwner{\n        require(checkRepeatService(listServices, _name), \"Service name already exists.\");\n\n        Services[_name] = Service(_name, _price, true);\n\n        listServices.push(_name);\n\n        // emit messageEvent(\"A new service has been created.\");\n    }\n\n    //Funcion para mostrar los servicios basicos disponibles\n    function showListServices() public view returns(string [] memory ){\n        return listServices;\n    }\n\n    //Funcion para mostrar los servicios basicos disponibles\n    function showListUsers() public view returns(address [] memory ){\n        return requestMixed;\n    }\n\n    //Funcion para ver detalles de cada usuario sean clientes o laboratorios\n    function showDetailsUser (address _addr) public view returns (uint16, bool, address, string memory ){\n        return (RequestStatus[_addr].requestType, RequestStatus[_addr].statusRequest, RequestStatus[_addr].addressContract, RequestStatus[_addr].statusContract);\n    }\n\n    //Funcion para banear un cliente o laboratorio\n    function bannedUser(address _addr) public onlyOwner{\n        RequestStatus[_addr].statusContract = 'banned';\n\n        // emit messageEvent(\"User banned\");\n    }\n\n    //Funcion para desbanear un cliente o laboratorio\n    function unBannedUser(address _addr ) public onlyOwner{\n        RequestStatus[_addr].statusContract = 'active';\n\n        // Client ClientContract = Client(msg.sender);\n        // ClientContract.changeStatus ();\n        // emit messageEvent(\"User unbanned\");\n    }\n\n    //---------------------------------------Contrato clientes---------------------------------------\n\n    //Funcion para solicitar una suscripcion para un cliente\n    function requestSubscriptionClient() public override {\n        require(checkRepeatRequest(), \"You already have a request to your address.\");\n        // require(keccak256(abi.encodePacked(RequestStatus[msg.sender].statusContract)) != keccak256(abi.encodePacked('inactive')), \"Your contract is disable.\");\n        // require(keccak256(abi.encodePacked(RequestStatus[msg.sender].statusContract)) != keccak256(abi.encodePacked('banned')), \"Your account is banned.\");\n        RequestStatus[msg.sender] = Request(uint16(RequestType.CLIENT), false, address(0), false, 'initial');\n        requestMixed.push(msg.sender);\n\n        // emit messageEvent('Successful request');\n    }\n\n    //Funcion para creacion de contrato de Cliente\n    function createClientFactory() public {\n        require(RequestStatus[msg.sender].statusRequest == true && RequestStatus[msg.sender].requestType == 0, \"You are not enabled to create your contract or your contract type does not match.\");\n\n        address clientAddressContract = address(new Client(msg.sender, addressContract));\n        RequestStatus[msg.sender].addressContract = clientAddressContract;\n        RequestStatus[msg.sender].statusContract = 'active';\n        emit createFactoryEvent(\"Contract created\", clientAddressContract);\n    }\n\n    // Funcion para asginar un servicio a un cliente\n    function asignServiceClient(string memory _nameService, address _owner) external onlyClient(_owner) {\n        require(RequestStatus[_owner].addressContract == msg.sender, \"You do not have permissions to run this operation\");\n        require (Services[_nameService].statusService == true, \"Service not available\");\n        require (Services[_nameService].priceService <= token.balanceOf(msg.sender), \"Does not have sufficient funds\");\n\n        token.transferTokenRocket(msg.sender, addressContract, Services[_nameService].priceService);\n        servicesClientHistory[msg.sender].push(_nameService);\n\n        // emit asignServiceClientEvent (\"Correctly assigned service\");\n    }\n\n    //Funcion para mostrar los servicios de un Cliente\n    function showServicesClient(address _userWallet) external view onlyClient(_userWallet) returns(string [] memory){\n        return servicesClientHistory[msg.sender];\n    }\n\n    //Funcion para asginar un servicio especial a un cliente\n    function asignSpecialServiceClient(string memory _nameService, address _userWallet) external onlyClient(_userWallet) {\n        require(RequestStatus[_userWallet].addressContract == msg.sender, \"You do not have permissions to run this operation\");\n        require (SpecialServices[_nameService].statusService == true, \"Service not available\");\n        require (SpecialServices[_nameService].priceService <= token.balanceOf(msg.sender), \"Insufficient funds\");\n\n        token.transferTokenRocket(msg.sender,SpecialServices[_nameService].laboratory, SpecialServices[_nameService].priceService);\n        servicesClientHistory[msg.sender].push(_nameService);\n\n        // emit messageEvent (\"Correctly assigned service\");\n    }\n\n    //---------------------------------------Contratos laboratorios---------------------------------------\n\n    //Funcion para solicitar una suscripcion para un laboratorio\n    function requestSubscriptionLaboratory() public override {\n        require(checkRepeatRequest(), \"You already have a request to your address.\");\n        \n        RequestStatus[msg.sender] = Request(uint16(RequestType.LABORATORY), false, address(0), false, 'null');\n        requestMixed.push(msg.sender);\n\n        // emit messageEvent('Successful request');\n    }\n\n    //Funcion para crear el contrato de un laboratorio cuando ya est habilitado\n    function createLaboratoryFactory() public {\n        require(RequestStatus[msg.sender].statusRequest == true && RequestStatus[msg.sender].requestType == 1, \"You are not enabled to create your contract or your contract type does not match..\");\n\n        address laboratoryAddressContract = address(new Laboratory(msg.sender, addressContract ));\n        RequestStatus[msg.sender].addressContract = laboratoryAddressContract;\n        RequestStatus[msg.sender].statusContract = 'active';\n\n        emit createFactoryEvent(\"Contract created\", laboratoryAddressContract);\n    }\n\n    //Funcion para crear servicios especiales\n    function createSpecialService(string memory _name, uint16 _price, address ownerLaboratory) external onlyLaboratories(ownerLaboratory) {\n        require(checkRepeatService(listSpecialServices, _name), \"Service name already exists.\");\n        require(RequestStatus[ownerLaboratory].addressContract == msg.sender, \"You do not have permissions to run this operation\");\n\n        SpecialServices[_name] = SpecialService(_price, true, msg.sender);\n        listSpecialServices.push(_name);\n\n        // emit messageEvent(\"A new special service has been created.\");\n    }\n\n    //Funcion para cambiar el estado de los servicios especiales\n    function changeStatusServiceLaboratory(string memory _name, address ownerLaboratory) external onlyLaboratories(ownerLaboratory){\n        require(RequestStatus[ownerLaboratory].addressContract == msg.sender, \"You do not have permissions to run this operation\");\n\n        SpecialServices[_name].statusService = !SpecialServices[_name].statusService;\n\n        // emit messageEvent(\"Special service status has been successfully changed.\");\n    }\n\n    //Funcion para mostrar lista de servicios especiales\n    function showListServiceSpecial () public view returns (string [] memory){\n        return listSpecialServices;\n    }\n\n    //Funcion para canjear sus tokens por dinero\n    function withdrawBalanceLaboratory(address _laboratoryWallet, uint16 _quantityTokens) external payable onlyLaboratories(_laboratoryWallet) returns(string memory){\n        require (token.balanceOf(msg.sender) > 0, \"Insufficient balance\");\n \n        uint balanceLaboratyTokens = token.balanceOf(msg.sender);\n        if(balanceLaboratyTokens >= _quantityTokens){\n            token.transferTokenRocket(msg.sender, addressContract, _quantityTokens);\n            payable(_laboratoryWallet).transfer(tokenToGwei(_quantityTokens));\n\n            return \"your retirement has been successful\";\n        }\n\n        return \"It does not have sufficient funds.\";\n    }\n\n    //Funcion para que cada laboratorio pueda ver sus servicios\n    function showMyActivedSpecialServices() external view returns(string[] memory){\n        string[] memory activedSpecialServices = new string[] (listSpecialServices.length);\n        uint16 counter = 0;\n\n        for(uint16 i = 0; i < listSpecialServices.length; i++){\n            if(SpecialServices[listSpecialServices[i]].laboratory == msg.sender){\n                activedSpecialServices[counter] = listSpecialServices[i];\n                counter++;\n            }\n        }\n\n        return activedSpecialServices;\n    }\n}",
  "sourcePath": "/home/xdx/Escritorio/Solidity proyects/sistema_salud_full/contracts/System/Company/InsuranceRocketCompany.sol",
  "compiler": {
    "name": "solc",
    "version": "0.8.14+commit.80d49f37.Emscripten.clang"
  },
  "schemaVersion": "3.4.7",
  "updatedAt": "2022-07-13T15:51:47.125Z",
  "networkType": "ethereum",
  "devdoc": {
    "kind": "dev",
    "methods": {},
    "version": 1
  },
  "userdoc": {
    "kind": "user",
    "methods": {},
    "version": 1
  }
}