{
  "contractName": "InsuranceRocketCompany",
  "abi": [
    {
      "inputs": [],
      "stateMutability": "nonpayable",
      "type": "constructor"
    },
    {
      "anonymous": false,
      "inputs": [
        {
          "indexed": false,
          "internalType": "string",
          "name": "",
          "type": "string"
        },
        {
          "indexed": false,
          "internalType": "address",
          "name": "",
          "type": "address"
        }
      ],
      "name": "createFactoryEvent",
      "type": "event"
    },
    {
      "anonymous": false,
      "inputs": [
        {
          "indexed": false,
          "internalType": "string",
          "name": "",
          "type": "string"
        }
      ],
      "name": "messageEvent",
      "type": "event"
    },
    {
      "anonymous": false,
      "inputs": [
        {
          "indexed": false,
          "internalType": "uint16",
          "name": "",
          "type": "uint16"
        }
      ],
      "name": "rechargeTokensEvent",
      "type": "event"
    },
    {
      "stateMutability": "payable",
      "type": "fallback",
      "payable": true
    },
    {
      "inputs": [
        {
          "internalType": "address",
          "name": "",
          "type": "address"
        }
      ],
      "name": "RequestStatus",
      "outputs": [
        {
          "internalType": "uint16",
          "name": "requestType",
          "type": "uint16"
        },
        {
          "internalType": "bool",
          "name": "statusRequest",
          "type": "bool"
        },
        {
          "internalType": "address",
          "name": "addressContract",
          "type": "address"
        },
        {
          "internalType": "bool",
          "name": "isRequest",
          "type": "bool"
        },
        {
          "internalType": "string",
          "name": "statusContract",
          "type": "string"
        }
      ],
      "stateMutability": "view",
      "type": "function",
      "constant": true
    },
    {
      "inputs": [
        {
          "internalType": "string",
          "name": "",
          "type": "string"
        }
      ],
      "name": "Services",
      "outputs": [
        {
          "internalType": "string",
          "name": "name",
          "type": "string"
        },
        {
          "internalType": "uint16",
          "name": "priceService",
          "type": "uint16"
        },
        {
          "internalType": "bool",
          "name": "statusService",
          "type": "bool"
        }
      ],
      "stateMutability": "view",
      "type": "function",
      "constant": true
    },
    {
      "inputs": [
        {
          "internalType": "uint256",
          "name": "",
          "type": "uint256"
        }
      ],
      "name": "ServicesUsedClient",
      "outputs": [
        {
          "internalType": "address",
          "name": "onwer",
          "type": "address"
        },
        {
          "internalType": "address",
          "name": "client",
          "type": "address"
        },
        {
          "internalType": "string",
          "name": "typeService",
          "type": "string"
        },
        {
          "internalType": "uint256",
          "name": "price",
          "type": "uint256"
        },
        {
          "internalType": "string",
          "name": "name",
          "type": "string"
        }
      ],
      "stateMutability": "view",
      "type": "function",
      "constant": true
    },
    {
      "inputs": [
        {
          "internalType": "string",
          "name": "",
          "type": "string"
        }
      ],
      "name": "SpecialServices",
      "outputs": [
        {
          "internalType": "uint16",
          "name": "priceService",
          "type": "uint16"
        },
        {
          "internalType": "bool",
          "name": "statusService",
          "type": "bool"
        },
        {
          "internalType": "address",
          "name": "laboratory",
          "type": "address"
        }
      ],
      "stateMutability": "view",
      "type": "function",
      "constant": true
    },
    {
      "inputs": [],
      "name": "addressContract",
      "outputs": [
        {
          "internalType": "address",
          "name": "",
          "type": "address"
        }
      ],
      "stateMutability": "view",
      "type": "function",
      "constant": true
    },
    {
      "inputs": [],
      "name": "counterServices",
      "outputs": [
        {
          "internalType": "uint256",
          "name": "",
          "type": "uint256"
        }
      ],
      "stateMutability": "view",
      "type": "function",
      "constant": true
    },
    {
      "inputs": [
        {
          "internalType": "uint256",
          "name": "",
          "type": "uint256"
        }
      ],
      "name": "listServices",
      "outputs": [
        {
          "internalType": "string",
          "name": "",
          "type": "string"
        }
      ],
      "stateMutability": "view",
      "type": "function",
      "constant": true
    },
    {
      "inputs": [
        {
          "internalType": "uint256",
          "name": "",
          "type": "uint256"
        }
      ],
      "name": "listSpecialServices",
      "outputs": [
        {
          "internalType": "string",
          "name": "",
          "type": "string"
        }
      ],
      "stateMutability": "view",
      "type": "function",
      "constant": true
    },
    {
      "inputs": [],
      "name": "owner",
      "outputs": [
        {
          "internalType": "address",
          "name": "",
          "type": "address"
        }
      ],
      "stateMutability": "view",
      "type": "function",
      "constant": true
    },
    {
      "inputs": [
        {
          "internalType": "address",
          "name": "",
          "type": "address"
        },
        {
          "internalType": "uint256",
          "name": "",
          "type": "uint256"
        }
      ],
      "name": "servicesClientHistory",
      "outputs": [
        {
          "internalType": "string",
          "name": "",
          "type": "string"
        }
      ],
      "stateMutability": "view",
      "type": "function",
      "constant": true
    },
    {
      "stateMutability": "payable",
      "type": "receive",
      "payable": true
    },
    {
      "inputs": [],
      "name": "BalanceContractEthers",
      "outputs": [
        {
          "internalType": "uint256",
          "name": "",
          "type": "uint256"
        }
      ],
      "stateMutability": "view",
      "type": "function",
      "constant": true
    },
    {
      "inputs": [
        {
          "internalType": "uint16",
          "name": "_amount",
          "type": "uint16"
        }
      ],
      "name": "rechargeTokens",
      "outputs": [],
      "stateMutability": "nonpayable",
      "type": "function"
    },
    {
      "inputs": [],
      "name": "balanceContractTokens",
      "outputs": [
        {
          "internalType": "uint256",
          "name": "",
          "type": "uint256"
        }
      ],
      "stateMutability": "view",
      "type": "function",
      "constant": true
    },
    {
      "inputs": [
        {
          "internalType": "uint256",
          "name": "_quantity",
          "type": "uint256"
        },
        {
          "internalType": "address",
          "name": "ownerClient",
          "type": "address"
        }
      ],
      "name": "buyTokens",
      "outputs": [],
      "stateMutability": "payable",
      "type": "function",
      "payable": true
    },
    {
      "inputs": [],
      "name": "showActivedServices",
      "outputs": [
        {
          "internalType": "string[]",
          "name": "",
          "type": "string[]"
        }
      ],
      "stateMutability": "view",
      "type": "function",
      "constant": true
    },
    {
      "inputs": [],
      "name": "showActivedSpecialServices",
      "outputs": [
        {
          "internalType": "string[]",
          "name": "",
          "type": "string[]"
        }
      ],
      "stateMutability": "view",
      "type": "function",
      "constant": true
    },
    {
      "inputs": [
        {
          "internalType": "string",
          "name": "_name",
          "type": "string"
        }
      ],
      "name": "showServiceDetails",
      "outputs": [
        {
          "internalType": "string",
          "name": "",
          "type": "string"
        },
        {
          "internalType": "uint16",
          "name": "",
          "type": "uint16"
        },
        {
          "internalType": "bool",
          "name": "",
          "type": "bool"
        }
      ],
      "stateMutability": "view",
      "type": "function",
      "constant": true
    },
    {
      "inputs": [
        {
          "internalType": "string",
          "name": "_name",
          "type": "string"
        }
      ],
      "name": "showSpecialServiceDetails",
      "outputs": [
        {
          "internalType": "string",
          "name": "",
          "type": "string"
        },
        {
          "internalType": "uint16",
          "name": "",
          "type": "uint16"
        },
        {
          "internalType": "bool",
          "name": "",
          "type": "bool"
        }
      ],
      "stateMutability": "view",
      "type": "function",
      "constant": true
    },
    {
      "inputs": [],
      "name": "checkNumberContract",
      "outputs": [
        {
          "internalType": "address",
          "name": "",
          "type": "address"
        }
      ],
      "stateMutability": "view",
      "type": "function",
      "constant": true
    },
    {
      "inputs": [
        {
          "internalType": "address",
          "name": "_addr",
          "type": "address"
        }
      ],
      "name": "balanceContractUser",
      "outputs": [
        {
          "internalType": "uint256",
          "name": "",
          "type": "uint256"
        }
      ],
      "stateMutability": "view",
      "type": "function",
      "constant": true
    },
    {
      "inputs": [],
      "name": "showStatusAndRole",
      "outputs": [
        {
          "internalType": "uint16",
          "name": "",
          "type": "uint16"
        },
        {
          "internalType": "bool",
          "name": "",
          "type": "bool"
        },
        {
          "internalType": "bool",
          "name": "",
          "type": "bool"
        },
        {
          "internalType": "string",
          "name": "",
          "type": "string"
        }
      ],
      "stateMutability": "view",
      "type": "function",
      "constant": true
    },
    {
      "inputs": [
        {
          "internalType": "address",
          "name": "_userWallet",
          "type": "address"
        }
      ],
      "name": "changeStatusContract",
      "outputs": [],
      "stateMutability": "payable",
      "type": "function",
      "payable": true
    },
    {
      "inputs": [
        {
          "internalType": "string",
          "name": "_type",
          "type": "string"
        }
      ],
      "name": "showPendingRequest",
      "outputs": [
        {
          "internalType": "address[]",
          "name": "",
          "type": "address[]"
        }
      ],
      "stateMutability": "view",
      "type": "function",
      "constant": true
    },
    {
      "inputs": [
        {
          "internalType": "address",
          "name": "_addr",
          "type": "address"
        }
      ],
      "name": "enableSubscription",
      "outputs": [],
      "stateMutability": "nonpayable",
      "type": "function"
    },
    {
      "inputs": [
        {
          "internalType": "string",
          "name": "_name",
          "type": "string"
        }
      ],
      "name": "changeStatusService",
      "outputs": [],
      "stateMutability": "nonpayable",
      "type": "function"
    },
    {
      "inputs": [
        {
          "internalType": "string",
          "name": "_name",
          "type": "string"
        },
        {
          "internalType": "uint16",
          "name": "_price",
          "type": "uint16"
        }
      ],
      "name": "createService",
      "outputs": [],
      "stateMutability": "nonpayable",
      "type": "function"
    },
    {
      "inputs": [],
      "name": "showListServices",
      "outputs": [
        {
          "internalType": "string[]",
          "name": "",
          "type": "string[]"
        }
      ],
      "stateMutability": "view",
      "type": "function",
      "constant": true
    },
    {
      "inputs": [],
      "name": "showListUsers",
      "outputs": [
        {
          "internalType": "address[]",
          "name": "",
          "type": "address[]"
        }
      ],
      "stateMutability": "view",
      "type": "function",
      "constant": true
    },
    {
      "inputs": [
        {
          "internalType": "address",
          "name": "_addr",
          "type": "address"
        }
      ],
      "name": "showDetailsUser",
      "outputs": [
        {
          "internalType": "uint16",
          "name": "",
          "type": "uint16"
        },
        {
          "internalType": "bool",
          "name": "",
          "type": "bool"
        },
        {
          "internalType": "address",
          "name": "",
          "type": "address"
        },
        {
          "internalType": "string",
          "name": "",
          "type": "string"
        }
      ],
      "stateMutability": "view",
      "type": "function",
      "constant": true
    },
    {
      "inputs": [
        {
          "internalType": "address",
          "name": "_addr",
          "type": "address"
        }
      ],
      "name": "bannedUser",
      "outputs": [],
      "stateMutability": "nonpayable",
      "type": "function"
    },
    {
      "inputs": [
        {
          "internalType": "address",
          "name": "_addr",
          "type": "address"
        }
      ],
      "name": "unBannedUser",
      "outputs": [],
      "stateMutability": "nonpayable",
      "type": "function"
    },
    {
      "inputs": [],
      "name": "requestSubscriptionClient",
      "outputs": [],
      "stateMutability": "nonpayable",
      "type": "function"
    },
    {
      "inputs": [],
      "name": "createClientFactory",
      "outputs": [],
      "stateMutability": "nonpayable",
      "type": "function"
    },
    {
      "inputs": [
        {
          "internalType": "string",
          "name": "_nameService",
          "type": "string"
        },
        {
          "internalType": "address",
          "name": "_owner",
          "type": "address"
        }
      ],
      "name": "asignServiceClient",
      "outputs": [],
      "stateMutability": "nonpayable",
      "type": "function"
    },
    {
      "inputs": [
        {
          "internalType": "string",
          "name": "_nameService",
          "type": "string"
        },
        {
          "internalType": "address",
          "name": "_userWallet",
          "type": "address"
        }
      ],
      "name": "asignSpecialServiceClient",
      "outputs": [],
      "stateMutability": "nonpayable",
      "type": "function"
    },
    {
      "inputs": [
        {
          "internalType": "uint256",
          "name": "_position",
          "type": "uint256"
        }
      ],
      "name": "showDetailServiceUsed",
      "outputs": [
        {
          "internalType": "address",
          "name": "",
          "type": "address"
        },
        {
          "internalType": "address",
          "name": "",
          "type": "address"
        },
        {
          "internalType": "string",
          "name": "",
          "type": "string"
        },
        {
          "internalType": "uint256",
          "name": "",
          "type": "uint256"
        },
        {
          "internalType": "string",
          "name": "",
          "type": "string"
        }
      ],
      "stateMutability": "view",
      "type": "function",
      "constant": true
    },
    {
      "inputs": [],
      "name": "requestSubscriptionLaboratory",
      "outputs": [],
      "stateMutability": "nonpayable",
      "type": "function"
    },
    {
      "inputs": [],
      "name": "createLaboratoryFactory",
      "outputs": [],
      "stateMutability": "nonpayable",
      "type": "function"
    },
    {
      "inputs": [
        {
          "internalType": "string",
          "name": "_name",
          "type": "string"
        },
        {
          "internalType": "uint16",
          "name": "_price",
          "type": "uint16"
        },
        {
          "internalType": "address",
          "name": "ownerLaboratory",
          "type": "address"
        }
      ],
      "name": "createSpecialService",
      "outputs": [],
      "stateMutability": "nonpayable",
      "type": "function"
    },
    {
      "inputs": [
        {
          "internalType": "string",
          "name": "_name",
          "type": "string"
        },
        {
          "internalType": "address",
          "name": "ownerLaboratory",
          "type": "address"
        }
      ],
      "name": "changeStatusServiceLaboratory",
      "outputs": [],
      "stateMutability": "nonpayable",
      "type": "function"
    },
    {
      "inputs": [],
      "name": "showListServiceSpecial",
      "outputs": [
        {
          "internalType": "string[]",
          "name": "",
          "type": "string[]"
        }
      ],
      "stateMutability": "view",
      "type": "function",
      "constant": true
    },
    {
      "inputs": [
        {
          "internalType": "address",
          "name": "_laboratoryWallet",
          "type": "address"
        },
        {
          "internalType": "uint16",
          "name": "_quantityTokens",
          "type": "uint16"
        }
      ],
      "name": "withdrawBalanceLaboratory",
      "outputs": [],
      "stateMutability": "payable",
      "type": "function",
      "payable": true
    },
    {
      "inputs": [],
      "name": "showSpecialServicesByLaboratory",
      "outputs": [
        {
          "internalType": "string[]",
          "name": "",
          "type": "string[]"
        }
      ],
      "stateMutability": "view",
      "type": "function",
      "constant": true
    }
  ],
  "bytecode": "0x60806040523480156200001157600080fd5b5060405162000020906200015c565b6040808252600e908201527f4d65646963696e65526f636b657400000000000000000000000000000000000060608201526080602082018190526002908201527f4d5200000000000000000000000000000000000000000000000000000000000060a082015260c001604051809103906000f080158015620000a6573d6000803e3d6000fd5b5060008054600160a060020a031916600160a060020a039290921691821790556040517fa0712d68000000000000000000000000000000000000000000000000000000008152612710600482015263a0712d6890602401600060405180830381600087803b1580156200011857600080fd5b505af11580156200012d573d6000803e3d6000fd5b50506000600355505060018054600160a060020a0319908116331790915560028054909116301790556200016a565b610a348062005fd683390190565b615e5c806200017a6000396000f3fe6080604052600436106200027e5760003560e060020a900480636b073db61162000157578063b53f2fa911620000c3578063c625e9b11162000085578063c625e9b1146200082a578063d7d842781462000841578063e43ae2cd1462000878578063e5030a45146200089d578063e6cbd05814620008c2578063ee1e2d3d14620008e757005b8063b53f2fa914620007b2578063b5e6e37114620007ca578063b60c704f14620007e2578063b78e56b514620007fa578063c47fe02a146200081257005b80638de218fc11620001195780638de218fc14620007095780638f875197146200072e578063909311e114620007535780639da1ec6b146200076b578063a8352a7b1462000783578063aef5beb7146200079b57005b80636b073db614620006565780636fbb8422146200067b5780637748d3c414620006a05780638609b2fc14620006c55780638da5cb5b14620006e757005b806342924ca811620001f757806354ba5d7811620001b957806354ba5d78146200050f57806354c844fa14620005275780635b14ce06146200054c5780635d9ad71a14620005735780635ef31a2e14620005ab5780636894ebce146200063157005b806342924ca8146200044f578063441548ee14620004745780634634852714620004ac57806347f2b7c014620004cd57806349a62abe14620004f757005b806332dc5286116200024157806332dc5286146200036957806336c9aed6146200038e57806337776a2f14620003a657806337cf779314620003f45780633ceb906d146200042a57005b80624cef2514620002885780631275497214620002c5578063161e9e2314620002dc57806326c8fb7014620003015780632c38c787146200033557005b366200028657005b005b3480156200029557600080fd5b50620002ad620002a736600462003f9c565b6200090c565b604051620002bc919062003fdd565b60405180910390f35b62000286620002d636600462004057565b62000de3565b348015620002e957600080fd5b5062000286620002fb3660046200408f565b62001194565b3480156200030e57600080fd5b506200032662000320366004620040da565b62001601565b604051908152602001620002bc565b3480156200034257600080fd5b506200035a62000354366004620040ff565b6200167d565b604051620002bc919062004189565b3480156200037657600080fd5b506200028662000388366004620040da565b6200173f565b3480156200039b57600080fd5b5062000326620017d3565b348015620003b357600080fd5b50620003db3360009081526006602052604090205463010000009004600160a060020a031690565b604051600160a060020a039091168152602001620002bc565b3480156200040157600080fd5b50620004196200041336600462003f9c565b62001810565b604051620002bc939291906200419e565b3480156200043757600080fd5b506200028662000449366004620040da565b62001875565b3480156200045c57600080fd5b50620002866200046e366004620041ce565b62001946565b3480156200048157600080fd5b506200049962000493366004620040da565b62001b83565b604051620002bc95949392919062004219565b348015620004b957600080fd5b50600254600160a060020a03163162000326565b348015620004da57600080fd5b50620004e562001c6f565b604051620002bc949392919062004262565b3480156200050457600080fd5b506200032660035481565b3480156200051c57600080fd5b506200028662001d5e565b3480156200053457600080fd5b5062000286620005463660046200429b565b62001f92565b3480156200055957600080fd5b50620005646200226d565b604051620002bc919062004301565b3480156200058057600080fd5b50620005986200059236600462004366565b6200243c565b604051620002bc95949392919062004380565b348015620005b857600080fd5b5062000607620005ca36600462003f9c565b805160208183018101805160058252928201919093012091525461ffff81169062010000810460ff169063010000009004600160a060020a031683565b6040805161ffff90941684529115156020840152600160a060020a031690820152606001620002bc565b3480156200063e57600080fd5b506200035a6200065036600462004366565b6200250f565b3480156200066357600080fd5b50620004196200067536600462003f9c565b6200253d565b3480156200068857600080fd5b50620004196200069a36600462003f9c565b620025a8565b348015620006ad57600080fd5b5062000286620006bf3660046200408f565b6200266f565b348015620006d257600080fd5b50600254620003db90600160a060020a031681565b348015620006f457600080fd5b50600154620003db90600160a060020a031681565b3480156200071657600080fd5b506200028662000728366004620040da565b62002af0565b3480156200073b57600080fd5b506200035a6200074d36600462004366565b62002b80565b3480156200076057600080fd5b506200056462002b91565b3480156200077857600080fd5b506200056462002c74565b3480156200079057600080fd5b506200056462002e3f565b62000286620007ac366004620040da565b62002f19565b348015620007bf57600080fd5b50620002866200317e565b348015620007d757600080fd5b50620002ad62003329565b348015620007ef57600080fd5b50620002866200338d565b3480156200080757600080fd5b506200056462003488565b3480156200081f57600080fd5b50620002866200365c565b620002866200083b366004620043d4565b6200369c565b3480156200084e57600080fd5b506200086662000860366004620040da565b62003846565b604051620002bc9493929190620043fa565b3480156200088557600080fd5b50620002866200089736600462004430565b6200392d565b348015620008aa57600080fd5b5062000598620008bc36600462004366565b620039d5565b348015620008cf57600080fd5b5062000286620008e13660046200408f565b62003b4f565b348015620008f457600080fd5b50620002866200090636600462003f9c565b62003c73565b600154606090600160a060020a03163314620009485760405160e560020a62461bcd0281526004016200093f906200444e565b60405180910390fd5b6040517f436c69656e740000000000000000000000000000000000000000000000000000602082015260260160405160208183030381529060405280519060200120826040516020016200099d9190620044ab565b60405160208183030381529060405280519060200120148062000a2857506040517f4c61626f7261746f7279000000000000000000000000000000000000000000006020820152602a01604051602081830303815290604052805190602001208260405160200162000a109190620044ab565b60405160208183030381529060405280519060200120145b62000a795760405160e560020a62461bcd02815260206004820181905260248201527f456c207469706f20696e6772657361646f206e6f20657320636f72726563746f60448201526064016200093f565b600b54600090819067ffffffffffffffff81111562000a9c5762000a9c62003eee565b60405190808252806020026020018201604052801562000ac6578160200160208202803683370190505b506040517f436c69656e7400000000000000000000000000000000000000000000000000006020820152909150602601604051602081830303815290604052805190602001208460405160200162000b1f9190620044ab565b604051602081830303815290604052805190602001200362000c8d5760005b600b5461ffff8216101562000c865760066000600b8361ffff168154811062000b6b5762000b6b620044c9565b6000918252602080832090910154600160a060020a0316835282019290925260400190205460ff620100009091041615801562000bf25750600061ffff1660066000600b8461ffff168154811062000bc75762000bc7620044c9565b6000918252602080832090910154600160a060020a0316835282019290925260400190205461ffff16145b1562000c7157600b8161ffff168154811062000c125762000c12620044c9565b9060005260206000200160009054906101000a9004600160a060020a0316828461ffff168151811062000c495762000c49620044c9565b600160a060020a03909216602092830291909101909101528262000c6d81620044fb565b9350505b8062000c7d81620044fb565b91505062000b3e565b5062000dda565b60005b600b5461ffff8216101562000dd85760066000600b8361ffff168154811062000cbd5762000cbd620044c9565b6000918252602080832090910154600160a060020a0316835282019290925260400190205460ff620100009091041615801562000d445750600161ffff1660066000600b8461ffff168154811062000d195762000d19620044c9565b6000918252602080832090910154600160a060020a0316835282019290925260400190205461ffff16145b1562000dc357600b8161ffff168154811062000d645762000d64620044c9565b9060005260206000200160009054906101000a9004600160a060020a0316828461ffff168151811062000d9b5762000d9b620044c9565b600160a060020a03909216602092830291909101909101528262000dbf81620044fb565b9350505b8062000dcf81620044fb565b91505062000c90565b505b9150505b919050565b600160a060020a038216600090815260066020526040902054829061ffff16600114801562000e355750600160a060020a03811660009081526006602052604090205462010000900460ff1615156001145b62000e575760405160e560020a62461bcd0281526004016200093f906200451f565b6000805460405160e060020a6370a08231028152336004820152600160a060020a03909116906370a0823190602401602060405180830381865afa15801562000ea4573d6000803e3d6000fd5b505050506040513d601f19601f8201168201806040525081019062000eca919062004556565b1162000f1c5760405160e560020a62461bcd02815260206004820152601460248201527f496e73756666696369656e742062616c616e636500000000000000000000000060448201526064016200093f565b6000805460405160e060020a6370a08231028152336004820152600160a060020a03909116906370a0823190602401602060405180830381865afa15801562000f69573d6000803e3d6000fd5b505050506040513d601f19601f8201168201806040525081019062000f8f919062004556565b90508261ffff168110620010ff576000546002546040517f51ce139a000000000000000000000000000000000000000000000000000000008152600160a060020a03928316926351ce139a9262000ff192339290911690889060040162004570565b600060405180830381600087803b1580156200100c57600080fd5b505af115801562001021573d6000803e3d6000fd5b5050505083600160a060020a03166108fc620010418561ffff1662003d11565b6040518115909202916000818181858888f193505050501580156200106a573d6000803e3d6000fd5b507f9fd40b777a67006201b62c0025adca7fed13f4f97a8c97e859b02a025adad78f604051620010f19060208082526023908201527f796f7572207265746972656d656e7420686173206265656e207375636365737360408201527f66756c0000000000000000000000000000000000000000000000000000000000606082015260800190565b60405180910390a16200118e565b7f9fd40b777a67006201b62c0025adca7fed13f4f97a8c97e859b02a025adad78f604051620011859060208082526022908201527f497420646f6573206e6f7420686176652073756666696369656e742066756e6460408201527f732e000000000000000000000000000000000000000000000000000000000000606082015260800190565b60405180910390a15b50505050565b600160a060020a038116600090815260066020526040902054819061ffff16158015620011e45750600160a060020a03811660009081526006602052604090205462010000900460ff1615156001145b620012355760405160e560020a62461bcd02815260206004820152601560248201527f4e6f20636c69656e74207065726d697373696f6e73000000000000000000000060448201526064016200093f565b600160a060020a03828116600090815260066020526040902054630100000090041633146200127b5760405160e560020a62461bcd0281526004016200093f9062004597565b6004836040516200128d9190620044ab565b90815260405190819003602001902060019081015460ff6201000090910416151514620013005760405160e560020a62461bcd02815260206004820152601560248201527f53657276696365206e6f7420617661696c61626c65000000000000000000000060448201526064016200093f565b60005460405160e060020a6370a08231028152336004820152600160a060020a03909116906370a0823190602401602060405180830381865afa1580156200134c573d6000803e3d6000fd5b505050506040513d601f19601f8201168201806040525081019062001372919062004556565b600484604051620013849190620044ab565b9081526040519081900360200190206001015461ffff161115620013ee5760405160e560020a62461bcd02815260206004820152601e60248201527f446f6573206e6f7420686176652073756666696369656e742066756e6473000060448201526064016200093f565b600054600254604051600160a060020a03928316926351ce139a9233929116906004906200141e908990620044ab565b9081526040519081900360200181206001015460e060020a63ffffffff86160282526200145793929161ffff9091169060040162004570565b600060405180830381600087803b1580156200147257600080fd5b505af115801562001487573d6000803e3d6000fd5b505033600090815260076020908152604082208054600181018255908352918190208751620014be95509201925086019062003e30565b506040805160a081018252600254600160a060020a031681523360208083019190915282518084018452600581527f62617369630000000000000000000000000000000000000000000000000000009181019190915281830152905160608201906004906200152f908790620044ab565b908152604080516020928190038301902060019081015461ffff1684529282018790526003546000908152600883528190208451815473ffffffffffffffffffffffffffffffffffffffff19908116600160a060020a0392831617835586850151958301805490911695909116949094179093558301518051620015ba926002850192019062003e30565b506060820151600382015560808201518051620015e291600484019160209091019062003e30565b50506003805491506000620015f783620045f4565b9190505550505050565b6000805460405160e060020a6370a08231028152600160a060020a038481166004830152909116906370a08231906024015b602060405180830381865afa15801562001651573d6000803e3d6000fd5b505050506040513d601f19601f8201168201806040525081019062001677919062004556565b92915050565b600760205281600052604060002081815481106200169a57600080fd5b90600052602060002001600091509150508054620016b89062004610565b80601f0160208091040260200160405190810160405280929190818152602001828054620016e69062004610565b8015620017375780601f106200170b5761010080835404028352916020019162001737565b820191906000526020600020905b8154815290600101906020018083116200171957829003601f168201915b505050505081565b600154600160a060020a031633146200176f5760405160e560020a62461bcd0281526004016200093f906200444e565b60408051808201825260068082527f62616e6e656400000000000000000000000000000000000000000000000000006020808401918252600160a060020a03861660009081529290529290209051620017cf926001909201919062003e30565b5050565b6000805460025460405160e060020a6370a08231028152600160a060020a039182166004820152839291909116906370a082319060240162001633565b606060008083600585604051620018289190620044ab565b9081526040519081900360200181205461ffff16906005906200184d908890620044ab565b90815260405190819003602001902054919450925060ff620100009091041690509193909250565b600154600160a060020a03163314620018a55760405160e560020a62461bcd0281526004016200093f906200444e565b600160a060020a0381166000818152600660208181526040808420805477ff0000000000000000000000000000000000000000ff00001916770100000000000000000000000000000000000000000100001781558151808301909252600782527f61636570746564000000000000000000000000000000000000000000000000008284019081529590945291905251620017cf926001909201919062003e30565b600154600160a060020a03163314620019765760405160e560020a62461bcd0281526004016200093f906200444e565b62001a5d6009805480602002602001604051908101604052809291908181526020016000905b8282101562001a52578382906000526020600020018054620019be9062004610565b80601f0160208091040260200160405190810160405280929190818152602001828054620019ec9062004610565b801562001a3d5780601f1062001a115761010080835404028352916020019162001a3d565b820191906000526020600020905b81548152906001019060200180831162001a1f57829003601f168201915b5050505050815260200190600101906200199c565b505050508362003d23565b62001aae5760405160e560020a62461bcd02815260206004820152601c60248201527f53657276696365206e616d6520616c7265616479206578697374732e0000000060448201526064016200093f565b6040805160608101825283815261ffff83166020820152600181830152905160049062001add908590620044ab565b9081526020016040518091039020600082015181600001908051906020019062001b0992919062003e30565b50602082810151600192830180546040909501511515620100000262ffffff1990951661ffff9092169190911793909317909255600980549182018155600052835162001b7e927f6e1540171b6c0c960b71a7020d9f60077f6af931a8bbf590da0223dacf75c7af9092019185019062003e30565b505050565b6006602052600090815260409020805460018201805461ffff83169360ff620100008504811694600160a060020a03630100000082041694770100000000000000000000000000000000000000000000009091049091169262001be69062004610565b80601f016020809104026020016040519081016040528092919081815260200182805462001c149062004610565b801562001c655780601f1062001c395761010080835404028352916020019162001c65565b820191906000526020600020905b81548152906001019060200180831162001c4757829003601f168201915b5050505050905085565b3360009081526006602052604081208054600190910180548392839260609261ffff83169260ff620100008204811693770100000000000000000000000000000000000000000000009092041691819062001cca9062004610565b80601f016020809104026020016040519081016040528092919081815260200182805462001cf89062004610565b801562001d495780601f1062001d1d5761010080835404028352916020019162001d49565b820191906000526020600020905b81548152906001019060200180831162001d2b57829003601f168201915b50505050509050935093509350935090919293565b3360009081526006602052604090205462010000900460ff161515600114801562001d9c57503360009081526006602052604090205461ffff166001145b62001e395760405160e560020a62461bcd02815260206004820152605260248201527f596f7520617265206e6f7420656e61626c656420746f2063726561746520796f60448201527f757220636f6e7472616374206f7220796f757220636f6e74726163742074797060648201527f6520646f6573206e6f74206d617463682e2e0000000000000000000000000000608482015260a4016200093f565b6002546040516000913391600160a060020a039091169062001e5b9062003ebb565b600160a060020a03928316815291166020820152604001604051809103906000f08015801562001e8f573d6000803e3d6000fd5b50336000818152600660208181526040808420805476ffffffffffffffffffffffffffffffffffffffff00000019166301000000600160a060020a0389160217815581518083019092528382527f6163746976650000000000000000000000000000000000000000000000000000828401908152959094529190525192935062001f20926001909101919062003e30565b50604080518181526010818301527f436f6e74726163742063726561746564000000000000000000000000000000006060820152600160a060020a038316602082015290517f9ca50741aa35660fc78a732a8556916f45f5e93abc509a86d03a6aaaa7a222809181900360800190a150565b600160a060020a038116600090815260066020526040902054819061ffff16600114801562001fe45750600160a060020a03811660009081526006602052604090205462010000900460ff1615156001145b620020065760405160e560020a62461bcd0281526004016200093f906200451f565b620020ed600a805480602002602001604051908101604052809291908181526020016000905b82821015620020e25783829060005260206000200180546200204e9062004610565b80601f01602080910402602001604051908101604052809291908181526020018280546200207c9062004610565b8015620020cd5780601f10620020a157610100808354040283529160200191620020cd565b820191906000526020600020905b815481529060010190602001808311620020af57829003601f168201915b5050505050815260200190600101906200202c565b505050508562003d23565b6200213e5760405160e560020a62461bcd02815260206004820152601c60248201527f53657276696365206e616d6520616c7265616479206578697374732e0000000060448201526064016200093f565b600160a060020a0382811660009081526006602052604090205463010000009004163314620021845760405160e560020a62461bcd0281526004016200093f9062004597565b6040805160608101825261ffff851681526001602082015233818301529051600590620021b3908790620044ab565b9081526040805191829003602090810190922083518154858501519590930151600160a060020a031663010000000276ffffffffffffffffffffffffffffffffffffffff00000019951515620100000262ffffff1990941661ffff90921691909117929092179390931617909155600a8054600181018255600091909152855162002266927fc65a7bb8d6351c1cf70c95a316cc6a92839c986682d98bc35f958f4883f9d2a89092019187019062003e30565b5050505050565b600a5460609060009067ffffffffffffffff81111562002291576200229162003eee565b604051908082528060200260200182016040528015620022c657816020015b6060815260200190600190039081620022b05790505b5090506000805b600a5461ffff8216101562002434576005600a8261ffff1681548110620022f857620022f8620044c9565b906000526020600020016040516200231191906200464f565b9081526040519081900360200190205460ff620100009091041615156001036200241f57600a8161ffff16815481106200234f576200234f620044c9565b906000526020600020018054620023669062004610565b80601f0160208091040260200160405190810160405280929190818152602001828054620023949062004610565b8015620023e55780601f10620023b957610100808354040283529160200191620023e5565b820191906000526020600020905b815481529060010190602001808311620023c757829003601f168201915b5050505050838361ffff1681518110620024035762002403620044c9565b602002602001018190525081806200241b90620044fb565b9250505b806200242b81620044fb565b915050620022cd565b509092915050565b600860205260009081526040902080546001820154600283018054600160a060020a03938416949290931692620024739062004610565b80601f0160208091040260200160405190810160405280929190818152602001828054620024a19062004610565b8015620024f25780601f10620024c657610100808354040283529160200191620024f2565b820191906000526020600020905b815481529060010190602001808311620024d457829003601f168201915b50505050509080600301549080600401805462001be69062004610565b600a81815481106200252057600080fd5b906000526020600020016000915090508054620016b89062004610565b606060008083600485604051620025559190620044ab565b9081526040519081900360200181206001015461ffff16906004906200257d908890620044ab565b90815260405190819003602001902060010154919450925060ff620100009091041690509193909250565b8051602081830181018051600482529282019190930120915280548190620025d09062004610565b80601f0160208091040260200160405190810160405280929190818152602001828054620025fe9062004610565b80156200264f5780601f1062002623576101008083540402835291602001916200264f565b820191906000526020600020905b8154815290600101906020018083116200263157829003601f168201915b5050506001909301549192505061ffff81169060ff620100009091041683565b600160a060020a038116600090815260066020526040902054819061ffff16158015620026bf5750600160a060020a03811660009081526006602052604090205462010000900460ff1615156001145b620027105760405160e560020a62461bcd02815260206004820152601560248201527f4e6f20636c69656e74207065726d697373696f6e73000000000000000000000060448201526064016200093f565b600160a060020a0382811660009081526006602052604090205463010000009004163314620027565760405160e560020a62461bcd0281526004016200093f9062004597565b600583604051620027689190620044ab565b9081526040516020918190039190910190205462010000900460ff161515600114620027da5760405160e560020a62461bcd02815260206004820152601560248201527f53657276696365206e6f7420617661696c61626c65000000000000000000000060448201526064016200093f565b60005460405160e060020a6370a08231028152336004820152600160a060020a03909116906370a0823190602401602060405180830381865afa15801562002826573d6000803e3d6000fd5b505050506040513d601f19601f820116820180604052508101906200284c919062004556565b6005846040516200285e9190620044ab565b9081526040519081900360200190205461ffff161115620028c55760405160e560020a62461bcd02815260206004820152601260248201527f496e73756666696369656e742066756e6473000000000000000000000000000060448201526064016200093f565b600054604051600160a060020a03909116906351ce139a903390600590620028ef908890620044ab565b90815260405190819003602001812054600160a060020a036301000000909104169060059062002921908990620044ab565b9081526040519081900360200181205460e060020a63ffffffff86160282526200295793929161ffff9091169060040162004570565b600060405180830381600087803b1580156200297257600080fd5b505af115801562002987573d6000803e3d6000fd5b505033600090815260076020908152604082208054600181018255908352918190208751620029be95509201925086019062003e30565b506040518060a00160405280600585604051620029dc9190620044ab565b908152602001604051809103902060000160039054906101000a9004600160a060020a0316600160a060020a0316815260200133600160a060020a031681526020016040518060400160405280600781526020017f7370656369616c00000000000000000000000000000000000000000000000000815250815260200160058560405162002a6b9190620044ab565b908152604080519182900360209081019092205461ffff16835291810186905260035460009081526008825282902083518154600160a060020a0391821673ffffffffffffffffffffffffffffffffffffffff1991821617835585840151600184018054919093169116179055918301518051620015ba926002850192019062003e30565b600154600160a060020a0316331462002b205760405160e560020a62461bcd0281526004016200093f906200444e565b60408051808201825260068082527f61637469766500000000000000000000000000000000000000000000000000006020808401918252600160a060020a03861660009081529290529290209051620017cf926001909201919062003e30565b600981815481106200252057600080fd5b60606009805480602002602001604051908101604052809291908181526020016000905b8282101562002c6b57838290600052602060002001805462002bd79062004610565b80601f016020809104026020016040519081016040528092919081815260200182805462002c059062004610565b801562002c565780601f1062002c2a5761010080835404028352916020019162002c56565b820191906000526020600020905b81548152906001019060200180831162002c3857829003601f168201915b50505050508152602001906001019062002bb5565b50505050905090565b60095460609060009067ffffffffffffffff81111562002c985762002c9862003eee565b60405190808252806020026020018201604052801562002ccd57816020015b606081526020019060019003908162002cb75790505b5090506000805b60095461ffff821610156200243457600460098261ffff168154811062002cff5762002cff620044c9565b9060005260206000200160405162002d1891906200464f565b90815260405190819003602001902060019081015460ff62010000909104161515900362002e2a5760098161ffff168154811062002d5a5762002d5a620044c9565b90600052602060002001805462002d719062004610565b80601f016020809104026020016040519081016040528092919081815260200182805462002d9f9062004610565b801562002df05780601f1062002dc45761010080835404028352916020019162002df0565b820191906000526020600020905b81548152906001019060200180831162002dd257829003601f168201915b5050505050838361ffff168151811062002e0e5762002e0e620044c9565b6020026020010181905250818062002e2690620044fb565b9250505b8062002e3681620044fb565b91505062002cd4565b6060600a805480602002602001604051908101604052809291908181526020016000905b8282101562002c6b57838290600052602060002001805462002e859062004610565b80601f016020809104026020016040519081016040528092919081815260200182805462002eb39062004610565b801562002f045780601f1062002ed85761010080835404028352916020019162002f04565b820191906000526020600020905b81548152906001019060200180831162002ee657829003601f168201915b50505050508152602001906001019062002e63565b600160a060020a038181166000908152600660205260409020546301000000900416331462002f5f5760405160e560020a62461bcd0281526004016200093f9062004597565b604080518082018252600881527f696e6163746976650000000000000000000000000000000000000000000000006020808301918252600160a060020a0385166000908152600690915292909220905162002fc1926001909201919062003e30565b506000805460405160e060020a6370a08231028152336004820152600160a060020a03909116906370a0823190602401602060405180830381865afa1580156200300f573d6000803e3d6000fd5b505050506040513d601f19601f8201168201806040525081019062003035919062004556565b11156200317b576000805460405160e060020a6370a08231028152336004820152600160a060020a03909116906370a0823190602401602060405180830381865afa15801562003089573d6000803e3d6000fd5b505050506040513d601f19601f82011682018060405250810190620030af919062004556565b6000546002546040517f51ce139a000000000000000000000000000000000000000000000000000000008152336004820152600160a060020a0391821660248201526044810184905292935016906351ce139a90606401600060405180830381600087803b1580156200312157600080fd5b505af115801562003136573d6000803e3d6000fd5b5050505081600160a060020a03166108fc620031528362003d11565b6040518115909202916000818181858888f1935050505015801562001b7e573d6000803e3d6000fd5b50565b6200318862003dc7565b620031aa5760405160e560020a62461bcd0281526004016200093f90620046f5565b6040805160a081019091528060005b61ffff9081168252600060208084018290526040808501839052606080860184905281518083018352600781527f696e697469616c00000000000000000000000000000000000000000000000000818501526080968701523384526006835292819020865181548885015193890151958901511515770100000000000000000000000000000000000000000000000277ff000000000000000000000000000000000000000000000019600160a060020a03979097166301000000029690961677ffffffffffffffffffffffffffffffffffffffffff00000019941515620100000262ffffff1990921692909716919091171791909116939093179190911782559183015180519192620032d59260018501929091019062003e30565b5050600b80546001810182556000919091527f0175b7a638427703f0dbe7bb9bbf987a2551717b34e79f33b5b1008d1fa01db901805473ffffffffffffffffffffffffffffffffffffffff19163317905550565b6060600b8054806020026020016040519081016040528092919081815260200182805480156200338357602002820191906000526020600020905b8154600160a060020a0316815260019091019060200180831162003364575b5050505050905090565b3360009081526006602052604090205462010000900460ff1615156001148015620033c957503360009081526006602052604090205461ffff16155b620034665760405160e560020a62461bcd02815260206004820152605160248201527f596f7520617265206e6f7420656e61626c656420746f2063726561746520796f60448201527f757220636f6e7472616374206f7220796f757220636f6e74726163742074797060648201527f6520646f6573206e6f74206d617463682e000000000000000000000000000000608482015260a4016200093f565b6002546040516000913391600160a060020a039091169062001e5b9062003ec9565b600a5460609060009067ffffffffffffffff811115620034ac57620034ac62003eee565b604051908082528060200260200182016040528015620034e157816020015b6060815260200190600190039081620034cb5790505b5090506000805b600a5461ffff82161015620024345733600160a060020a03166005600a8361ffff16815481106200351d576200351d620044c9565b906000526020600020016040516200353691906200464f565b90815260405190819003602001902054600160a060020a03630100000090910416036200364757600a8161ffff1681548110620035775762003577620044c9565b9060005260206000200180546200358e9062004610565b80601f0160208091040260200160405190810160405280929190818152602001828054620035bc9062004610565b80156200360d5780601f10620035e1576101008083540402835291602001916200360d565b820191906000526020600020905b815481529060010190602001808311620035ef57829003601f168201915b5050505050838361ffff16815181106200362b576200362b620044c9565b602002602001018190525081806200364390620044fb565b9250505b806200365381620044fb565b915050620034e8565b6200366662003dc7565b620036885760405160e560020a62461bcd0281526004016200093f90620046f5565b6040805160a08101909152806001620031b9565b600160a060020a0381811660009081526006602052604090205463010000009004163314620036e25760405160e560020a62461bcd0281526004016200093f9062004597565b6000620036ef8362003d11565b9050803410156200376c5760405160e560020a62461bcd02815260206004820152603260248201527f596f75206e656564206d6f72652065746865727320746f20627579207468697360448201527f20616d6f756e74206f6620746f6b656e732e000000000000000000000000000060648201526084016200093f565b60006200377a823462004752565b604051909150600160a060020a0384169082156108fc029083906000818181858888f19350505050158015620037b4573d6000803e3d6000fd5b506000546040517fa9059cbb00000000000000000000000000000000000000000000000000000000815233600482015260248101869052600160a060020a039091169063a9059cbb906044016020604051808303816000875af115801562003820573d6000803e3d6000fd5b505050506040513d601f19601f820116820180604052508101906200226691906200476c565b600160a060020a03808216600090815260066020526040812080546001909101805492938493849360609361ffff82169360ff6201000084041693630100000090930416918190620038989062004610565b80601f0160208091040260200160405190810160405280929190818152602001828054620038c69062004610565b8015620039175780601f10620038eb5761010080835404028352916020019162003917565b820191906000526020600020905b815481529060010190602001808311620038f957829003601f168201915b5050505050905093509350935093509193509193565b600154600160a060020a031633146200395d5760405160e560020a62461bcd0281526004016200093f906200444e565b6000546040517fa0712d6800000000000000000000000000000000000000000000000000000000815261ffff83166004820152600160a060020a039091169063a0712d6890602401600060405180830381600087803b158015620039c057600080fd5b505af115801562002266573d6000803e3d6000fd5b6000818152600860205260408120805460018201546003830154600284018054869560609587958795600160a060020a03928316959190921693909260040190839062003a229062004610565b80601f016020809104026020016040519081016040528092919081815260200182805462003a509062004610565b801562003aa15780601f1062003a755761010080835404028352916020019162003aa1565b820191906000526020600020905b81548152906001019060200180831162003a8357829003601f168201915b5050505050925080805462003ab69062004610565b80601f016020809104026020016040519081016040528092919081815260200182805462003ae49062004610565b801562003b355780601f1062003b095761010080835404028352916020019162003b35565b820191906000526020600020905b81548152906001019060200180831162003b1757829003601f168201915b505050505090509450945094509450945091939590929450565b600160a060020a038116600090815260066020526040902054819061ffff16600114801562003ba15750600160a060020a03811660009081526006602052604090205462010000900460ff1615156001145b62003bc35760405160e560020a62461bcd0281526004016200093f906200451f565b600160a060020a038281166000908152600660205260409020546301000000900416331462003c095760405160e560020a62461bcd0281526004016200093f9062004597565b60058360405162003c1b9190620044ab565b9081526040519081900360200181205460ff6201000090910416159060059062003c47908690620044ab565b9081526040519081900360200190208054911515620100000262ff000019909216919091179055505050565b600154600160a060020a0316331462003ca35760405160e560020a62461bcd0281526004016200093f906200444e565b60048160405162003cb59190620044ab565b9081526040519081900360200181206001015460ff6201000090910416159060049062003ce4908490620044ab565b9081526040519081900360200190206001018054911515620100000262ff00001990921691909117905550565b60006200167782633b9aca0062004790565b600160005b835181101562003dc0578260405160200162003d459190620044ab565b6040516020818303038152906040528051906020012084828151811062003d705762003d70620044c9565b602002602001015160405160200162003d8a9190620044ab565b604051602081830303815290604052805190602001200362003dab57600091505b8062003db781620045f4565b91505062003d28565b5092915050565b600160005b600b5481101562003e2c5733600160a060020a0316600b828154811062003df75762003df7620044c9565b600091825260209091200154600160a060020a03160362003e1757600091505b8062003e2381620045f4565b91505062003dcc565b5090565b82805462003e3e9062004610565b90600052602060002090601f01602090048101928262003e62576000855562003ead565b82601f1062003e7d57805160ff191683800117855562003ead565b8280016001018555821562003ead579182015b8281111562003ead57825182559160200191906001019062003e90565b5062003e2c92915062003ed7565b610adc80620047b383390190565b610b98806200528f83390190565b5b8082111562003e2c576000815560010162003ed8565b60e060020a634e487b7102600052604160045260246000fd5b600082601f83011262003f1957600080fd5b813567ffffffffffffffff8082111562003f375762003f3762003eee565b604051601f8301601f19908116603f0116810190828211818310171562003f625762003f6262003eee565b8160405283815286602085880101111562003f7c57600080fd5b836020870160208301376000602085830101528094505050505092915050565b60006020828403121562003faf57600080fd5b813567ffffffffffffffff81111562003fc757600080fd5b62003fd58482850162003f07565b949350505050565b6020808252825182820181905260009190848201906040850190845b8181101562004020578351600160a060020a03168352928401929184019160010162003ff9565b50909695505050505050565b8035600160a060020a038116811462000dde57600080fd5b803561ffff8116811462000dde57600080fd5b600080604083850312156200406b57600080fd5b62004076836200402c565b9150620040866020840162004044565b90509250929050565b60008060408385031215620040a357600080fd5b823567ffffffffffffffff811115620040bb57600080fd5b620040c98582860162003f07565b92505062004086602084016200402c565b600060208284031215620040ed57600080fd5b620040f8826200402c565b9392505050565b600080604083850312156200411357600080fd5b6200411e836200402c565b946020939093013593505050565b60005b83811015620041495781810151838201526020016200412f565b838111156200118e5750506000910152565b60008151808452620041758160208601602086016200412c565b601f01601f19169290920160200192915050565b602081526000620040f860208301846200415b565b606081526000620041b360608301866200415b565b61ffff94909416602083015250901515604090910152919050565b60008060408385031215620041e257600080fd5b823567ffffffffffffffff811115620041fa57600080fd5b620042088582860162003f07565b925050620040866020840162004044565b61ffff861681528415156020820152600160a060020a0384166040820152821515606082015260a0608082015260006200425760a08301846200415b565b979650505050505050565b61ffff85168152831515602082015282151560408201526080606082015260006200429160808301846200415b565b9695505050505050565b600080600060608486031215620042b157600080fd5b833567ffffffffffffffff811115620042c957600080fd5b620042d78682870162003f07565b935050620042e86020850162004044565b9150620042f8604085016200402c565b90509250925092565b600060208083018184528085518083526040860191506040848202870101925083870160005b828110156200435957603f19888603018452620043468583516200415b565b9450928501929085019060010162004327565b5092979650505050505050565b6000602082840312156200437957600080fd5b5035919050565b6000600160a060020a03808816835280871660208401525060a06040830152620043ae60a08301866200415b565b8460608401528281036080840152620043c881856200415b565b98975050505050505050565b60008060408385031215620043e857600080fd5b8235915062004086602084016200402c565b61ffff851681528315156020820152600160a060020a03831660408201526080606082015260006200429160808301846200415b565b6000602082840312156200444357600080fd5b620040f88262004044565b6020808252603e908201527f596f7520646f206e6f74206861766520746865206e656365737361727920706560408201527f726d697373696f6e7320746f2072756e20746869732066756e6374696f6e0000606082015260800190565b60008251620044bf8184602087016200412c565b9190910192915050565b60e060020a634e487b7102600052603260045260246000fd5b60e060020a634e487b7102600052601160045260246000fd5b600061ffff808316818103620045155762004515620044e2565b6001019392505050565b60208082526015908201527f4e6f206c61626f7261746f7279207065726d6974730000000000000000000000604082015260600190565b6000602082840312156200456957600080fd5b5051919050565b600160a060020a03938416815291909216602082015261ffff909116604082015260600190565b60208082526031908201527f596f7520646f206e6f742068617665207065726d697373696f6e7320746f207260408201527f756e2074686973206f7065726174696f6e000000000000000000000000000000606082015260800190565b600060018201620046095762004609620044e2565b5060010190565b6002810460018216806200462557607f821691505b602082108103620046495760e060020a634e487b7102600052602260045260246000fd5b50919050565b81546000908190600281046001808316806200466c57607f831692505b602080841082036200468f5760e060020a634e487b710286526022600452602486fd5b818015620046a65760018114620046b857620046e7565b60ff19861689528489019650620046e7565b60008a81526020902060005b86811015620046df5781548b820152908501908301620046c4565b505084890196505b509498975050505050505050565b6020808252602b908201527f596f7520616c726561647920686176652061207265717565737420746f20796f60408201527f757220616464726573732e000000000000000000000000000000000000000000606082015260800190565b600082821015620047675762004767620044e2565b500390565b6000602082840312156200477f57600080fd5b81518015158114620040f857600080fd5b6000816000190483118215151615620047ad57620047ad620044e2565b50029056fe608060405234801561001057600080fd5b50604051610adc380380610adc83398101604081905261002f91610086565b60008054600160a060020a03938416600160a060020a03199182161790915560018054821630179055600280549290931691161790556100b9565b8051600160a060020a038116811461008157600080fd5b919050565b6000806040838503121561009957600080fd5b6100a28361006a565b91506100b06020840161006a565b90509250929050565b610a14806100c86000396000f3fe608060405260043610610098576000357c010000000000000000000000000000000000000000000000000000000090048063c98c64b71161006b578063c98c64b714610140578063cc805c2014610160578063e3e97a9a14610173578063ea54d2121461019657600080fd5b806312494d161461009d5780638da5cb5b146100b457806396b0e90d146100f1578063a5487a0314610111575b600080fd5b3480156100a957600080fd5b506100b26101b8565b005b3480156100c057600080fd5b506000546100d490600160a060020a031681565b604051600160a060020a0390911681526020015b60405180910390f35b3480156100fd57600080fd5b506100b261010c366004610633565b610234565b34801561011d57600080fd5b5061013161012c366004610633565b6102b9565b6040516100e8939291906106c8565b34801561014c57600080fd5b506100b261015b366004610709565b61035a565b6100b261016e36600461075b565b6103e0565b34801561017f57600080fd5b50610188610437565b6040519081526020016100e8565b3480156101a257600080fd5b506101ab6104ca565b6040516100e8919061077f565b6002546000546040517faef5beb7000000000000000000000000000000000000000000000000000000008152600160a060020a03918216600482015291169063aef5beb790602401600060405180830381600087803b15801561021a57600080fd5b505af115801561022e573d6000803e3d6000fd5b50505050565b6002546000546040517fe6cbd058000000000000000000000000000000000000000000000000000000008152600160a060020a039283169263e6cbd05892610284928692909116906004016107e0565b600060405180830381600087803b15801561029e57600080fd5b505af11580156102b2573d6000803e3d6000fd5b5050505050565b6002546040517f37cf77930000000000000000000000000000000000000000000000000000000081526060916000918291600160a060020a0316906337cf77939061030890879060040161080b565b600060405180830381865afa158015610325573d6000803e3d6000fd5b505050506040513d6000823e601f3d908101601f1916820160405261034d9190810190610863565b9250925092509193909250565b6002546000546040517f54c844fa000000000000000000000000000000000000000000000000000000008152600160a060020a03928316926354c844fa926103aa928792879216906004016108cd565b600060405180830381600087803b1580156103c457600080fd5b505af11580156103d8573d6000803e3d6000fd5b505050505050565b6002546000546040517f12754972000000000000000000000000000000000000000000000000000000008152600160a060020a03918216600482015261ffff84166024820152911690631275497290604401610284565b6002546001546040517f26c8fb70000000000000000000000000000000000000000000000000000000008152600160a060020a03918216600482015260009291909116906326c8fb7090602401602060405180830381865afa1580156104a1573d6000803e3d6000fd5b505050506040513d601f19601f820116820180604052508101906104c59190610903565b905090565b600254604080517fb78e56b50000000000000000000000000000000000000000000000000000000081529051606092600160a060020a03169163b78e56b59160048083019260009291908290030181865afa15801561052d573d6000803e3d6000fd5b505050506040513d6000823e601f3d908101601f191682016040526104c5919081019061091c565b7f4e487b7100000000000000000000000000000000000000000000000000000000600052604160045260246000fd5b604051601f8201601f1916810167ffffffffffffffff811182821017156105ad576105ad610555565b604052919050565b600067ffffffffffffffff8211156105cf576105cf610555565b50601f01601f191660200190565b600082601f8301126105ee57600080fd5b81356106016105fc826105b5565b610584565b81815284602083860101111561061657600080fd5b816020850160208301376000918101602001919091529392505050565b60006020828403121561064557600080fd5b813567ffffffffffffffff81111561065c57600080fd5b610668848285016105dd565b949350505050565b60005b8381101561068b578181015183820152602001610673565b8381111561022e5750506000910152565b600081518084526106b4816020860160208601610670565b601f01601f19169290920160200192915050565b6060815260006106db606083018661069c565b61ffff94909416602083015250901515604090910152919050565b61ffff8116811461070657600080fd5b50565b6000806040838503121561071c57600080fd5b823567ffffffffffffffff81111561073357600080fd5b61073f858286016105dd565b9250506020830135610750816106f6565b809150509250929050565b60006020828403121561076d57600080fd5b8135610778816106f6565b9392505050565b600060208083018184528085518083526040860191506040848202870101925083870160005b828110156107d357603f198886030184526107c185835161069c565b945092850192908501906001016107a5565b5092979650505050505050565b6040815260006107f3604083018561069c565b9050600160a060020a03831660208301529392505050565b602081526000610778602083018461069c565b600082601f83011261082f57600080fd5b815161083d6105fc826105b5565b81815284602083860101111561085257600080fd5b610668826020830160208701610670565b60008060006060848603121561087857600080fd5b835167ffffffffffffffff81111561088f57600080fd5b61089b8682870161081e565b93505060208401516108ac816106f6565b604085015190925080151581146108c257600080fd5b809150509250925092565b6060815260006108e0606083018661069c565b905061ffff84166020830152600160a060020a0383166040830152949350505050565b60006020828403121561091557600080fd5b5051919050565b6000602080838503121561092f57600080fd5b825167ffffffffffffffff8082111561094757600080fd5b818501915085601f83011261095b57600080fd5b81518181111561096d5761096d610555565b83810261097b858201610584565b918252838101850191858101908984111561099557600080fd5b86860192505b838310156109d1578251858111156109b35760008081fd5b6109c18b89838a010161081e565b835250918601919086019061099b565b999850505050505050505056fea2646970667358221220c89eda04c27a239e08d283d672e881da510707f639f783bb20549f419183b29c64736f6c634300080e0033608060405234801561001057600080fd5b50604051610b98380380610b9883398101604081905261002f91610093565b60008054600160a060020a03938416600160a060020a0319918216179091556001805482163017905560028054929093169181168217909255600380549092161790556100c6565b8051600160a060020a038116811461008e57600080fd5b919050565b600080604083850312156100a657600080fd5b6100af83610077565b91506100bd60208401610077565b90509250929050565b610ac3806100d56000396000f3fe6080604052600436106100c4576000357c010000000000000000000000000000000000000000000000000000000090048063a5487a0311610081578063a5487a0314610192578063d25120ce146101b2578063db8366eb146101d5578063de1c5488146101f5578063e4f05b7614610217578063ea54d2121461023757600080fd5b8063072ec0bb146100c95780630e662cf01461010657806314f52f3a1461011b5780632b68bb2d1461014a5780638609b2fc146101525780638da5cb5b14610172575b600080fd5b3480156100d557600080fd5b506002546100e990600160a060020a031681565b604051600160a060020a0390911681526020015b60405180910390f35b6101196101143660046106aa565b61024c565b005b34801561012757600080fd5b5061013b610136366004610756565b6102d5565b6040516100fd9392919061082e565b610119610376565b34801561015e57600080fd5b506001546100e990600160a060020a031681565b34801561017e57600080fd5b506000546100e990600160a060020a031681565b34801561019e57600080fd5b5061013b6101ad366004610756565b6103f2565b3480156101be57600080fd5b506101c7610441565b6040519081526020016100fd565b3480156101e157600080fd5b506101196101f0366004610756565b6104d4565b34801561020157600080fd5b5061020a610559565b6040516100fd919061085c565b34801561022357600080fd5b50610119610232366004610756565b6105e4565b34801561024357600080fd5b5061020a610634565b6003546000546040517fc625e9b100000000000000000000000000000000000000000000000000000000815261ffff84166004820152600160a060020a03918216602482015291169063c625e9b19034906044016000604051808303818588803b1580156102b957600080fd5b505af11580156102cd573d6000803e3d6000fd5b505050505050565b6003546040517f6b073db60000000000000000000000000000000000000000000000000000000081526060916000918291600160a060020a031690636b073db6906103249087906004016108bd565b600060405180830381865afa158015610341573d6000803e3d6000fd5b505050506040513d6000823e601f3d908101601f19168201604052610369919081019061091d565b9250925092509193909250565b6003546000546040517faef5beb7000000000000000000000000000000000000000000000000000000008152600160a060020a03918216600482015291169063aef5beb790602401600060405180830381600087803b1580156103d857600080fd5b505af11580156103ec573d6000803e3d6000fd5b50505050565b6003546040517f37cf77930000000000000000000000000000000000000000000000000000000081526060916000918291600160a060020a0316906337cf7793906103249087906004016108bd565b6003546001546040517f26c8fb70000000000000000000000000000000000000000000000000000000008152600160a060020a03918216600482015260009291909116906326c8fb7090602401602060405180830381865afa1580156104ab573d6000803e3d6000fd5b505050506040513d601f19601f820116820180604052508101906104cf9190610987565b905090565b6003546000546040517f161e9e23000000000000000000000000000000000000000000000000000000008152600160a060020a039283169263161e9e2392610524928692909116906004016109a0565b600060405180830381600087803b15801561053e57600080fd5b505af1158015610552573d6000803e3d6000fd5b5050505050565b600354604080517f9da1ec6b0000000000000000000000000000000000000000000000000000000081529051606092600160a060020a031691639da1ec6b9160048083019260009291908290030181865afa1580156105bc573d6000803e3d6000fd5b505050506040513d6000823e601f3d908101601f191682016040526104cf91908101906109cb565b6003546000546040517f7748d3c4000000000000000000000000000000000000000000000000000000008152600160a060020a0392831692637748d3c492610524928692909116906004016109a0565b600354604080517f5b14ce060000000000000000000000000000000000000000000000000000000081529051606092600160a060020a031691635b14ce069160048083019260009291908290030181865afa1580156105bc573d6000803e3d6000fd5b61ffff811681146106a757600080fd5b50565b6000602082840312156106bc57600080fd5b81356106c781610697565b9392505050565b7f4e487b7100000000000000000000000000000000000000000000000000000000600052604160045260246000fd5b604051601f8201601f1916810167ffffffffffffffff81118282101715610726576107266106ce565b604052919050565b600067ffffffffffffffff821115610748576107486106ce565b50601f01601f191660200190565b60006020828403121561076857600080fd5b813567ffffffffffffffff81111561077f57600080fd5b8201601f8101841361079057600080fd5b80356107a361079e8261072e565b6106fd565b8181528560208385010111156107b857600080fd5b81602084016020830137600091810160200191909152949350505050565b60005b838110156107f15781810151838201526020016107d9565b838111156103ec5750506000910152565b6000815180845261081a8160208601602086016107d6565b601f01601f19169290920160200192915050565b6060815260006108416060830186610802565b61ffff94909416602083015250901515604090910152919050565b600060208083018184528085518083526040860191506040848202870101925083870160005b828110156108b057603f1988860301845261089e858351610802565b94509285019290850190600101610882565b5092979650505050505050565b6020815260006106c76020830184610802565b600082601f8301126108e157600080fd5b81516108ef61079e8261072e565b81815284602083860101111561090457600080fd5b6109158260208301602087016107d6565b949350505050565b60008060006060848603121561093257600080fd5b835167ffffffffffffffff81111561094957600080fd5b610955868287016108d0565b935050602084015161096681610697565b6040850151909250801515811461097c57600080fd5b809150509250925092565b60006020828403121561099957600080fd5b5051919050565b6040815260006109b36040830185610802565b9050600160a060020a03831660208301529392505050565b600060208083850312156109de57600080fd5b825167ffffffffffffffff808211156109f657600080fd5b818501915085601f830112610a0a57600080fd5b815181811115610a1c57610a1c6106ce565b838102610a2a8582016106fd565b9182528381018501918581019089841115610a4457600080fd5b86860192505b83831015610a8057825185811115610a625760008081fd5b610a708b89838a01016108d0565b8352509186019190860190610a4a565b999850505050505050505056fea264697066735822122032f16ede13cfbcf0f36deb099e359b90fed56c1a6b91d1d4a8bacc1e7b7dd2a264736f6c634300080e0033a2646970667358221220e78494a49a64850cf393bc48db8c5cf6d59eeea6e6874e7c3bafd8974fb85a3364736f6c634300080e003360806040523480156200001157600080fd5b5060405162000a3438038062000a348339810160408190526200003491620001f4565b81516200004990600290602085019062000068565b5080516200005f90600390602084019062000068565b505050620002b3565b82805462000076906200025e565b90600052602060002090601f0160209004810192826200009a5760008555620000e5565b82601f10620000b557805160ff1916838001178555620000e5565b82800160010185558215620000e5579182015b82811115620000e5578251825591602001919060010190620000c8565b50620000f3929150620000f7565b5090565b5b80821115620000f35760008155600101620000f8565b7f4e487b7100000000000000000000000000000000000000000000000000000000600052604160045260246000fd5b600082601f8301126200014f57600080fd5b81516001604060020a03808211156200016c576200016c6200010e565b604051601f8301601f19908116603f011681019082821181831017156200019757620001976200010e565b81604052838152602092508683858801011115620001b457600080fd5b600091505b83821015620001d85785820183015181830184015290820190620001b9565b83821115620001ea5760008385830101525b9695505050505050565b600080604083850312156200020857600080fd5b82516001604060020a03808211156200022057600080fd5b6200022e868387016200013d565b935060208501519150808211156200024557600080fd5b5062000254858286016200013d565b9150509250929050565b6002810460018216806200027357607f821691505b602082108103620002ad577f4e487b7100000000000000000000000000000000000000000000000000000000600052602260045260246000fd5b50919050565b61077180620002c36000396000f3fe608060405234801561001057600080fd5b506004361061009a576000357c01000000000000000000000000000000000000000000000000000000009004806370a082311161007857806370a08231146100e457806395d89b411461010d578063a0712d6814610115578063a9059cbb1461012857600080fd5b806306fdde031461009f57806318160ddd146100bd57806351ce139a146100cf575b600080fd5b6100a761014b565b6040516100b49190610578565b60405180910390f35b6001545b6040519081526020016100b4565b6100e26100dd3660046105e9565b6101dd565b005b6100c16100f2366004610625565b600160a060020a031660009081526020819052604090205490565b6100a761023c565b6100e2610123366004610647565b61024b565b61013b610136366004610660565b610258565b60405190151581526020016100b4565b60606002805461015a9061068a565b80601f01602080910402602001604051908101604052809291908181526020018280546101869061068a565b80156101d35780601f106101a8576101008083540402835291602001916101d3565b820191906000526020600020905b8154815290600101906020018083116101b657829003601f168201915b5050505050905090565b600160a060020a0383166000908152602081905260408120805483929061020590849061070c565b9091555050600160a060020a03821660009081526020819052604081208054839290610232908490610723565b9091555050505050565b60606003805461015a9061068a565b6102553382610270565b50565b600033610266818585610357565b5060019392505050565b600160a060020a0382166102ce5760405160e560020a62461bcd02815260206004820152601f60248201527f45524332303a206d696e7420746f20746865207a65726f20616464726573730060448201526064015b60405180910390fd5b80600160008282546102e09190610723565b9091555050600160a060020a0382166000908152602081905260408120805483929061030d908490610723565b9091555050604051818152600160a060020a038316906000907fddf252ad1be2c89b69c2b068fc378daa952ba7f163c4a11628f55a4df523b3ef9060200160405180910390a35050565b600160a060020a0383166103d65760405160e560020a62461bcd02815260206004820152602560248201527f45524332303a207472616e736665722066726f6d20746865207a65726f20616460448201527f647265737300000000000000000000000000000000000000000000000000000060648201526084016102c5565b600160a060020a0382166104555760405160e560020a62461bcd02815260206004820152602360248201527f45524332303a207472616e7366657220746f20746865207a65726f206164647260448201527f657373000000000000000000000000000000000000000000000000000000000060648201526084016102c5565b600160a060020a038316600090815260208190526040902054818110156104e75760405160e560020a62461bcd02815260206004820152602660248201527f45524332303a207472616e7366657220616d6f756e742065786365656473206260448201527f616c616e6365000000000000000000000000000000000000000000000000000060648201526084016102c5565b600160a060020a0380851660009081526020819052604080822085850390559185168152908120805484929061051e908490610723565b9250508190555082600160a060020a031684600160a060020a03167fddf252ad1be2c89b69c2b068fc378daa952ba7f163c4a11628f55a4df523b3ef8460405161056a91815260200190565b60405180910390a350505050565b600060208083528351808285015260005b818110156105a557858101830151858201604001528201610589565b818111156105b7576000604083870101525b50601f01601f1916929092016040019392505050565b8035600160a060020a03811681146105e457600080fd5b919050565b6000806000606084860312156105fe57600080fd5b610607846105cd565b9250610615602085016105cd565b9150604084013590509250925092565b60006020828403121561063757600080fd5b610640826105cd565b9392505050565b60006020828403121561065957600080fd5b5035919050565b6000806040838503121561067357600080fd5b61067c836105cd565b946020939093013593505050565b60028104600182168061069e57607f821691505b6020821081036106d7577f4e487b7100000000000000000000000000000000000000000000000000000000600052602260045260246000fd5b50919050565b7f4e487b7100000000000000000000000000000000000000000000000000000000600052601160045260246000fd5b60008282101561071e5761071e6106dd565b500390565b60008219821115610736576107366106dd565b50019056fea2646970667358221220ece6a1c0d07c7c3fc4fe4397433f7220fdc263e36317139682a78afcefca1ff664736f6c634300080e0033",
  "immutableReferences": {},
  "source": "// SPDX-License-Identifier: MIT\npragma solidity >=0.7.0 < 0.9.0;\nimport \"../Token/ERC20.sol\";\nimport \"./IInsuranceRocketCompany.sol\";\nimport \"./InsuranceClientRocketCompany.sol\";\nimport \"./InsuranceLaboratoryRocketCompany.sol\";\n\ncontract InsuranceRocketCompany is InterfaceRocket{\n    //Token\n    ERC20Rocket token;\n    address public owner;\n    address public addressContract;\n    uint public counterServices;\n\n    constructor() {\n        token = new ERC20Rocket(\"MedicineRocket\", \"MR\");\n        token.mint(10000);\n        counterServices = 0;\n        owner = msg.sender;\n        addressContract = address(this);\n    }\n\n    //Funcion Ether balance\n    function BalanceContractEthers ()public view returns(uint){\n        return addressContract.balance;\n    }\n\n    //---------------------------------------Modifiers---------------------------------------\n    modifier onlyOwner {\n        require(msg.sender == owner, \"You do not have the necessary permissions to run this function\");\n        _;\n    }\n\n    modifier onlyLaboratories(address ownerLaboratory) {\n        require (\n            RequestStatus[ownerLaboratory].requestType == uint16(1) && RequestStatus[ownerLaboratory].statusRequest == true,\n            \"No laboratory permits\"\n        );\n        _;\n    }\n\n    modifier onlyClient(address _userWallet){\n\n        require (\n            RequestStatus[_userWallet].requestType == uint16(0) && RequestStatus[_userWallet].statusRequest == true,\n            \"No client permissions\"\n        );\n        _;        \n    }\n\n    //---------------------------------------Mappings---------------------------------------\n    //Mapping para relacionar el nombre de un servicio con su estructura de datos\n    mapping(string => Service) public Services;\n\n    //Mapping para guardar los servicios especializados de laboratorios externos\n    mapping(string => SpecialService) public SpecialServices;\n\n    //Mapping que relaciona la address con la peticion\n    mapping(address => Request) public RequestStatus;\n\n    //Mapping que relacion un address de cada usuario con su historial de servicios\n    mapping(address => string []) public servicesClientHistory;\n\n    //Mapping que guarda todos los servicios usados y sus respetivos clientes y provedores\n    mapping(uint => ServicesUsed) public ServicesUsedClient;\n\n    //---------------------------------------Enums---------------------------------------\n    //Enum para clasificar el tipo de peticion de suscripcion\n    enum RequestType { CLIENT, LABORATORY }\n\n    //---------------------------------------Arrays---------------------------------------\n    //Array para almacenar el listado de los servicios\n    string[] public listServices;\n\n    //Array para almacenar el listado de los servicios especiales de los laboratorios\n    string[] public listSpecialServices;\n\n    //Array para almacenar las peticiones de suscripcion de clientes\n    address[] requestMixed;\n\n    //---------------------------------------Funciones validadoras---------------------------------------\n\n    //Funcion para validar que el nombre de servicio ya no exista\n    function checkRepeatService(string [] memory services, string memory _name) private pure returns(bool identifier){\n        identifier = true;\n\n        for(uint i = 0; i < services.length; i++){\n            if(keccak256(abi.encodePacked(services[i])) == keccak256(abi.encodePacked(_name))){\n                identifier = false;\n            }\n        }\n    }\n\n    //Funcion para saber si una address ya tiene una peticion\n    function checkRepeatRequest() private view returns(bool identifier){\n        identifier = true;\n\n        for(uint i = 0; i < requestMixed.length; i++){\n            if(requestMixed[i] == msg.sender){\n                identifier = false;\n            }\n        }\n    }\n\n    //---------------------------------------Funciones de tokens----------------------------------------------------\n\n    //Funcion para recargar tokens al contrato\n    function rechargeTokens(uint16 _amount) public override onlyOwner {\n        token.mint(_amount);\n\n        // emit rechargeTokensEvent(_amount);\n    }\n\n    //Funcion ver tokens de contrato principal\n    function balanceContractTokens() public view returns(uint){\n        uint balance = token.balanceOf(addressContract);\n\n        return balance;\n    }\n\n    //Funcion para convertir el precio de tokens a ethers\n    function tokenToGwei(uint _quantity) private pure returns(uint){\n        return _quantity * (1 gwei);\n    } \n\n    //Funcion para comprar tokens\n    function buyTokens(uint _quantity, address ownerClient) public payable {\n        require(RequestStatus[ownerClient].addressContract == msg.sender, \"You do not have permissions to run this operation\");\n\n        uint cost = tokenToGwei(_quantity);\n        require(msg.value >= cost, \"You need more ethers to buy this amount of tokens.\");\n\n        uint returnValue = msg.value - cost;\n        payable(ownerClient).transfer(returnValue);\n        token.transfer(msg.sender, _quantity );\n    }\n\n    //Funcion para recibir pagos\n    receive() external payable{}\n    fallback ()external payable{}\n\n    //---------------------------------------Funciones para contrato principal---------------------------------------\n\n    //Funcion para ver el listado de servicios activos\n    function showActivedServices() public view override returns(string[] memory){\n        string[] memory activedServices = new string[] (listServices.length);\n        uint16 counter = 0;\n\n        for(uint16 i = 0; i < listServices.length; i++){\n            if(Services[listServices[i]].statusService == true){\n                activedServices[counter] = listServices[i];\n                counter++;\n            }\n        }\n\n        return activedServices;       \n    }\n\n    //Funcion para ver el listado de servicios especiales activos\n    function showActivedSpecialServices() public view returns(string[] memory){\n        string[] memory activedServices = new string[] (listSpecialServices.length);\n        uint16 counter = 0;\n\n        for(uint16 i = 0; i < listSpecialServices.length; i++){\n            if(SpecialServices[listSpecialServices[i]].statusService == true){\n                activedServices[counter] = listSpecialServices[i];\n                counter++;\n            }\n        }\n\n        return activedServices;       \n    }\n\n    //Funcion para mostrar un servicio por su nombre\n    function showServiceDetails(string memory _name) public view override returns(string memory, uint16, bool){\n        return (_name, Services[_name].priceService, Services[_name].statusService);\n    }\n\n    //Funcion para mostrar un servicio por su nombre\n    function showSpecialServiceDetails(string memory _name) public view  returns(string memory, uint16, bool){\n        return (_name, SpecialServices[_name].priceService, SpecialServices[_name].statusService);\n    }\n\n    //Funcion para revisar el numero de contrato de cada cliente\n    function checkNumberContract() public view returns(address){\n        return RequestStatus[msg.sender].addressContract;\n    }\n\n    //Funcion para ver saldo de Cliente\n    function balanceContractUser(address _addr) public view returns (uint){\n        return token.balanceOf(_addr);\n    }\n\n\n    //Funcion para saber el role y el status de cada usuario o laboratorio\n    function showStatusAndRole() public view returns(uint16, bool, bool, string memory){\n        return (RequestStatus[msg.sender].requestType, RequestStatus[msg.sender].statusRequest, RequestStatus[msg.sender].isRequest, RequestStatus[msg.sender].statusContract );\n    }\n\n    //change status contract clients or laboratory\n    function changeStatusContract(address _userWallet) external payable {\n\n        require(RequestStatus[_userWallet].addressContract == msg.sender, \"You do not have permissions to run this operation\");\n\n        RequestStatus[_userWallet].statusContract = 'inactive';\n\n        if (token.balanceOf(msg.sender) > 0 ) {\n            uint balanceUserTokens = token.balanceOf(msg.sender);\n            token.transferTokenRocket(msg.sender,addressContract, balanceUserTokens );\n            payable (_userWallet).transfer(tokenToGwei(balanceUserTokens));\n        }\n    }\n\n    //---------------------------------------Funciones para el admin ---------------------------------------\n\n    //Funcion para ver las solicitudes pendientes\n    function showPendingRequest(string memory _type) public view override onlyOwner returns(address[] memory) {\n        require(keccak256(abi.encodePacked(_type)) == keccak256(abi.encodePacked(\"Client\")) || keccak256(abi.encodePacked(_type)) == keccak256(abi.encodePacked(\"Laboratory\")), \"El tipo ingresado no es correcto\");\n        \n        uint16 counter;\n        address[] memory pendingRequests = new address[] (requestMixed.length);\n\n        if(keccak256(abi.encodePacked(_type)) == keccak256(abi.encodePacked(\"Client\"))){\n            for(uint16 i = 0; i < requestMixed.length; i++){\n                if(RequestStatus[requestMixed[i]].statusRequest == false && RequestStatus[requestMixed[i]].requestType == uint16(0)){\n                    pendingRequests[counter] = requestMixed[i];\n                    counter++;\n                }\n            }\n        }else{\n            for(uint16 i = 0; i < requestMixed.length; i++){\n                if(RequestStatus[requestMixed[i]].statusRequest == false  && RequestStatus[requestMixed[i]].requestType == uint16(1)){\n                    pendingRequests[counter] = requestMixed[i];\n                    counter++;\n                }\n            }\n        }\n        return pendingRequests;\n    }\n\n    //Funcion para habilitar un cliente o laboratorio\n    function enableSubscription(address _addr) public override onlyOwner{\n        RequestStatus[_addr].statusRequest = true;\n        RequestStatus[_addr].isRequest = true;\n        RequestStatus[_addr].statusContract = 'acepted';\n    }\n\n    //Funcion para cambiar el estado de los servicios\n    function changeStatusService(string memory _name) public override onlyOwner{\n        Services[_name].statusService = !Services[_name].statusService;\n    }\n\n    //Funcion para crear servicios\n    function createService(string memory _name, uint16 _price) public override onlyOwner{\n        require(checkRepeatService(listServices, _name), \"Service name already exists.\");\n\n        Services[_name] = Service(_name, _price, true);\n\n        listServices.push(_name);\n    }\n\n    //Funcion para mostrar los servicios basicos disponibles\n    function showListServices() public view returns(string [] memory ){\n        return listServices;\n    }\n\n    //Funcion para mostrar los servicios basicos disponibles\n    function showListUsers() public view returns(address [] memory ){\n        return requestMixed;\n    }\n\n    //Funcion para ver detalles de cada usuario sean clientes o laboratorios\n    function showDetailsUser (address _addr) public view returns (uint16, bool, address, string memory ){\n        return (RequestStatus[_addr].requestType, RequestStatus[_addr].statusRequest, RequestStatus[_addr].addressContract, RequestStatus[_addr].statusContract);\n    }\n\n    //Funcion para banear un cliente o laboratorio\n    function bannedUser(address _addr) public onlyOwner{\n        RequestStatus[_addr].statusContract = 'banned';\n    }\n\n    //Funcion para desbanear un cliente o laboratorio\n    function unBannedUser(address _addr ) public onlyOwner{\n        RequestStatus[_addr].statusContract = 'active';\n    }\n\n    //---------------------------------------Contrato clientes---------------------------------------\n\n    //Funcion para solicitar una suscripcion para un cliente\n    function requestSubscriptionClient() public override {\n        require(checkRepeatRequest(), \"You already have a request to your address.\");\n        RequestStatus[msg.sender] = Request(uint16(RequestType.CLIENT), false, address(0), false, 'initial');\n        requestMixed.push(msg.sender);\n    }\n\n    //Funcion para creacion de contrato de Cliente\n    function createClientFactory() public {\n        require(RequestStatus[msg.sender].statusRequest == true && RequestStatus[msg.sender].requestType == 0, \"You are not enabled to create your contract or your contract type does not match.\");\n\n        address clientAddressContract = address(new Client(msg.sender, addressContract));\n        RequestStatus[msg.sender].addressContract = clientAddressContract;\n        RequestStatus[msg.sender].statusContract = 'active';\n        emit createFactoryEvent(\"Contract created\", clientAddressContract);\n    }\n\n    // Funcion para asginar un servicio a un cliente\n    function asignServiceClient(string memory _nameService, address _owner) external onlyClient(_owner) {\n        require(RequestStatus[_owner].addressContract == msg.sender, \"You do not have permissions to run this operation\");\n        require (Services[_nameService].statusService == true, \"Service not available\");\n        require (Services[_nameService].priceService <= token.balanceOf(msg.sender), \"Does not have sufficient funds\");\n\n        token.transferTokenRocket(msg.sender, addressContract, Services[_nameService].priceService);\n        servicesClientHistory[msg.sender].push(_nameService);\n\n        ServicesUsedClient[counterServices] = ServicesUsed(addressContract, msg.sender, 'basic', Services[_nameService].priceService, _nameService );\n        counterServices++;\n    }\n\n    //Funcion para mostrar los servicios de un Cliente\n    // function showServicesClient(address _userWallet) external view onlyClient(_userWallet) returns(string [] memory){\n    //     return servicesClientHistory[msg.sender];\n    // }\n\n    //Funcion para asginar un servicio especial a un cliente\n    function asignSpecialServiceClient(string memory _nameService, address _userWallet) external onlyClient(_userWallet) {\n        require(RequestStatus[_userWallet].addressContract == msg.sender, \"You do not have permissions to run this operation\");\n        require (SpecialServices[_nameService].statusService == true, \"Service not available\");\n        require (SpecialServices[_nameService].priceService <= token.balanceOf(msg.sender), \"Insufficient funds\");\n\n        token.transferTokenRocket(msg.sender,SpecialServices[_nameService].laboratory, SpecialServices[_nameService].priceService);\n        servicesClientHistory[msg.sender].push(_nameService);\n\n        ServicesUsedClient[counterServices] = ServicesUsed(SpecialServices[_nameService].laboratory, msg.sender, 'special', SpecialServices[_nameService].priceService, _nameService );\n        counterServices++;\n    }\n\n    function showDetailServiceUsed(uint _position) public view returns(address, address, string memory, uint, string memory){\n        return (ServicesUsedClient[_position].onwer, ServicesUsedClient[_position].client, ServicesUsedClient[_position].typeService, ServicesUsedClient[_position].price, ServicesUsedClient[_position].name);\n    }\n\n    //---------------------------------------Contratos laboratorios---------------------------------------\n\n    //Funcion para solicitar una suscripcion para un laboratorio\n    function requestSubscriptionLaboratory() public override {\n        require(checkRepeatRequest(), \"You already have a request to your address.\");\n        \n        RequestStatus[msg.sender] = Request(uint16(RequestType.LABORATORY), false, address(0), false, 'initial');\n        requestMixed.push(msg.sender);\n    }\n\n    //Funcion para crear el contrato de un laboratorio cuando ya est habilitado\n    function createLaboratoryFactory() public {\n        require(RequestStatus[msg.sender].statusRequest == true && RequestStatus[msg.sender].requestType == 1, \"You are not enabled to create your contract or your contract type does not match..\");\n\n        address laboratoryAddressContract = address(new Laboratory(msg.sender, addressContract ));\n        RequestStatus[msg.sender].addressContract = laboratoryAddressContract;\n        RequestStatus[msg.sender].statusContract = 'active';\n\n        emit createFactoryEvent(\"Contract created\", laboratoryAddressContract);\n    }\n\n    //Funcion para crear servicios especiales\n    function createSpecialService(string memory _name, uint16 _price, address ownerLaboratory) external onlyLaboratories(ownerLaboratory) {\n        require(checkRepeatService(listSpecialServices, _name), \"Service name already exists.\");\n        require(RequestStatus[ownerLaboratory].addressContract == msg.sender, \"You do not have permissions to run this operation\");\n\n        SpecialServices[_name] = SpecialService(_price, true, msg.sender);\n        listSpecialServices.push(_name);\n    }\n\n    //Funcion para cambiar el estado de los servicios especiales\n    function changeStatusServiceLaboratory(string memory _name, address ownerLaboratory) external onlyLaboratories(ownerLaboratory){\n        require(RequestStatus[ownerLaboratory].addressContract == msg.sender, \"You do not have permissions to run this operation\");\n\n        SpecialServices[_name].statusService = !SpecialServices[_name].statusService;\n    }\n\n    //Funcion para mostrar lista de servicios especiales\n    function showListServiceSpecial () public view returns (string [] memory){\n        return listSpecialServices;\n    }\n\n    //Funcion para canjear sus tokens por dinero\n    function withdrawBalanceLaboratory(address _laboratoryWallet, uint16 _quantityTokens) external payable onlyLaboratories(_laboratoryWallet) {\n        require (token.balanceOf(msg.sender) > 0, \"Insufficient balance\");\n \n        uint balanceLaboratyTokens = token.balanceOf(msg.sender);\n        if(balanceLaboratyTokens >= _quantityTokens){\n            token.transferTokenRocket(msg.sender, addressContract, _quantityTokens);\n            payable(_laboratoryWallet).transfer(tokenToGwei(_quantityTokens));\n\n            emit messageEvent (\"your retirement has been successful\");\n        }else{\n            emit messageEvent (\"It does not have sufficient funds.\");\n        }\n    }\n\n    //Funcion para que cada laboratorio pueda ver sus servicios\n    function showSpecialServicesByLaboratory() external view returns(string[] memory){\n        string[] memory activedSpecialServices = new string[] (listSpecialServices.length);\n        uint16 counter = 0;\n\n        for(uint16 i = 0; i < listSpecialServices.length; i++){\n            if(SpecialServices[listSpecialServices[i]].laboratory == msg.sender){\n                activedSpecialServices[counter] = listSpecialServices[i];\n                counter++;\n            }\n        }\n        return activedSpecialServices;\n    }\n}",
  "sourcePath": "/home/xdx/Escritorio/Solidity proyects/sistema_salud_full/contracts/System/Company/InsuranceRocketCompany.sol",
  "compiler": {
    "name": "solc",
    "version": "0.8.14+commit.80d49f37.Emscripten.clang"
  },
  "schemaVersion": "3.4.7",
  "updatedAt": "2022-07-15T06:10:19.054Z",
  "networkType": "ethereum",
  "devdoc": {
    "kind": "dev",
    "methods": {},
    "version": 1
  },
  "userdoc": {
    "kind": "user",
    "methods": {},
    "version": 1
  }
}