{
  "contractName": "Laboratory",
  "abi": [
    {
      "inputs": [
        {
          "internalType": "address",
          "name": "_addr",
          "type": "address"
        },
        {
          "internalType": "address",
          "name": "_addressContract",
          "type": "address"
        }
      ],
      "stateMutability": "nonpayable",
      "type": "constructor"
    },
    {
      "anonymous": false,
      "inputs": [
        {
          "indexed": false,
          "internalType": "string",
          "name": "",
          "type": "string"
        }
      ],
      "name": "cancelContractLaboratoryEvent",
      "type": "event"
    },
    {
      "anonymous": false,
      "inputs": [
        {
          "indexed": false,
          "internalType": "string",
          "name": "",
          "type": "string"
        }
      ],
      "name": "changeStatusEvent",
      "type": "event"
    },
    {
      "anonymous": false,
      "inputs": [
        {
          "indexed": false,
          "internalType": "string",
          "name": "",
          "type": "string"
        }
      ],
      "name": "changeStatusServiceLaboratoryEvent",
      "type": "event"
    },
    {
      "anonymous": false,
      "inputs": [
        {
          "indexed": false,
          "internalType": "string",
          "name": "",
          "type": "string"
        }
      ],
      "name": "createSpecialServiceEvent",
      "type": "event"
    },
    {
      "anonymous": false,
      "inputs": [
        {
          "indexed": false,
          "internalType": "string",
          "name": "",
          "type": "string"
        }
      ],
      "name": "withdrawBalanceLaboratoryEvent",
      "type": "event"
    },
    {
      "inputs": [],
      "name": "owner",
      "outputs": [
        {
          "internalType": "address",
          "name": "",
          "type": "address"
        }
      ],
      "stateMutability": "view",
      "type": "function"
    },
    {
      "inputs": [],
      "name": "statusContract",
      "outputs": [
        {
          "internalType": "bool",
          "name": "",
          "type": "bool"
        }
      ],
      "stateMutability": "view",
      "type": "function"
    },
    {
      "inputs": [
        {
          "internalType": "string",
          "name": "_name",
          "type": "string"
        },
        {
          "internalType": "uint16",
          "name": "_price",
          "type": "uint16"
        }
      ],
      "name": "createSpecialService",
      "outputs": [],
      "stateMutability": "nonpayable",
      "type": "function"
    },
    {
      "inputs": [
        {
          "internalType": "string",
          "name": "_name",
          "type": "string"
        }
      ],
      "name": "changeStatusServiceLaboratory",
      "outputs": [],
      "stateMutability": "nonpayable",
      "type": "function"
    },
    {
      "inputs": [],
      "name": "cancelContractLaboratory",
      "outputs": [],
      "stateMutability": "nonpayable",
      "type": "function"
    },
    {
      "inputs": [
        {
          "internalType": "uint16",
          "name": "_quantityTokens",
          "type": "uint16"
        }
      ],
      "name": "withdrawBalanceLaboratory",
      "outputs": [],
      "stateMutability": "payable",
      "type": "function"
    },
    {
      "inputs": [],
      "name": "balanceLaboratory",
      "outputs": [
        {
          "internalType": "uint256",
          "name": "",
          "type": "uint256"
        }
      ],
      "stateMutability": "view",
      "type": "function"
    },
    {
      "inputs": [],
      "name": "listSpecialServices",
      "outputs": [
        {
          "internalType": "string[]",
          "name": "",
          "type": "string[]"
        }
      ],
      "stateMutability": "view",
      "type": "function"
    }
  ],
  "bytecode": "0x608060405234801561001057600080fd5b50604051610ccb380380610ccb83398101604081905261002f916100b8565b60008054600160a060020a0319908116600160a060020a039485161790915560018054600280549093169390941692909217905574010000000000000000000000000000000000000000600160a860020a03199092163060a060020a60ff021916179190911790556100eb565b8051600160a060020a03811681146100b357600080fd5b919050565b600080604083850312156100cb57600080fd5b6100d48361009c565b91506100e26020840161009c565b90509250929050565b610bd1806100fa6000396000f3fe608060405260043610610098576000357c010000000000000000000000000000000000000000000000000000000090048063cc805c201161006b578063cc805c2014610131578063d5808c7514610144578063e3e97a9a14610175578063ea54d2121461019857600080fd5b806312494d161461009d5780638da5cb5b146100b457806396b0e90d146100f1578063c98c64b714610111575b600080fd5b3480156100a957600080fd5b506100b26101ba565b005b3480156100c057600080fd5b506000546100d490600160a060020a031681565b604051600160a060020a0390911681526020015b60405180910390f35b3480156100fd57600080fd5b506100b261010c36600461082d565b6102d2565b34801561011d57600080fd5b506100b261012c366004610881565b6103ea565b6100b261013f3660046108cf565b610503565b34801561015057600080fd5b506001546101659060a060020a900460ff1681565b60405190151581526020016100e8565b34801561018157600080fd5b5061018a6105cc565b6040519081526020016100e8565b3480156101a457600080fd5b506101ad610689565b6040516100e8919061094d565b60015460a060020a900460ff166101ef5760405160e560020a62461bcd0281526004016101e6906109ae565b60405180910390fd5b6002546000546040517faef5beb7000000000000000000000000000000000000000000000000000000008152600160a060020a03918216600482015291169063aef5beb790602401600060405180830381600087803b15801561025157600080fd5b505af1158015610265573d6000803e3d6000fd5b505050507f8fb8e77703b1fc88b5be52da1e07c7ea6c9758371ee19d107adcf70f24714e2d6040516102c8906020808252601d908201527f4c61626f7261746f727920636f6e74726163742063616e63656c6c6564000000604082015260600190565b60405180910390a1565b60015460a060020a900460ff166102fe5760405160e560020a62461bcd0281526004016101e6906109ae565b6002546000546040517fe6cbd058000000000000000000000000000000000000000000000000000000008152600160a060020a039283169263e6cbd0589261034e928692909116906004016109e5565b600060405180830381600087803b15801561036857600080fd5b505af115801561037c573d6000803e3d6000fd5b505050507f52d2c476367a5c510d10dc00aa26840e839c8207ffb1fe1f851d383b1c3939e66040516103df906020808252600e908201527f537461747573206368616e676564000000000000000000000000000000000000604082015260600190565b60405180910390a150565b60015460a060020a900460ff166104165760405160e560020a62461bcd0281526004016101e6906109ae565b6002546000546040517f54c844fa000000000000000000000000000000000000000000000000000000008152600160a060020a03928316926354c844fa9261046692879287921690600401610a10565b600060405180830381600087803b15801561048057600080fd5b505af1158015610494573d6000803e3d6000fd5b505050507f208275776c16b77743a1409e20eff6a2abaaa054ce0042f8314e2b131353b0166040516104f79060208082526017908201527f7370656369616c20736572766963652063726561746564000000000000000000604082015260600190565b60405180910390a15050565b60015460a060020a900460ff1661052f5760405160e560020a62461bcd0281526004016101e6906109ae565b6002546000546040517f12754972000000000000000000000000000000000000000000000000000000008152600160a060020a03918216600482015261ffff841660248201529116906312754972906044016000604051808303816000875af11580156105a0573d6000803e3d6000fd5b505050506040513d6000823e601f3d908101601f191682016040526105c89190810190610a8b565b5050565b60015460009060a060020a900460ff166105fb5760405160e560020a62461bcd0281526004016101e6906109ae565b6002546001546040517f26c8fb70000000000000000000000000000000000000000000000000000000008152600160a060020a0391821660048201529116906326c8fb7090602401602060405180830381865afa158015610660573d6000803e3d6000fd5b505050506040513d601f19601f820116820180604052508101906106849190610ac0565b905090565b60015460609060a060020a900460ff166106b85760405160e560020a62461bcd0281526004016101e6906109ae565b600260009054906101000a9004600160a060020a0316600160a060020a03166382a6f77c6040518163ffffffff167c0100000000000000000000000000000000000000000000000000000000028152600401600060405180830381865afa158015610727573d6000803e3d6000fd5b505050506040513d6000823e601f3d908101601f191682016040526106849190810190610ad9565b7f4e487b7100000000000000000000000000000000000000000000000000000000600052604160045260246000fd5b604051601f8201601f1916810167ffffffffffffffff811182821017156107a7576107a761074f565b604052919050565b600067ffffffffffffffff8211156107c9576107c961074f565b50601f01601f191660200190565b600082601f8301126107e857600080fd5b81356107fb6107f6826107af565b61077e565b81815284602083860101111561081057600080fd5b816020850160208301376000918101602001919091529392505050565b60006020828403121561083f57600080fd5b813567ffffffffffffffff81111561085657600080fd5b610862848285016107d7565b949350505050565b803561ffff8116811461087c57600080fd5b919050565b6000806040838503121561089457600080fd5b823567ffffffffffffffff8111156108ab57600080fd5b6108b7858286016107d7565b9250506108c66020840161086a565b90509250929050565b6000602082840312156108e157600080fd5b6108ea8261086a565b9392505050565b60005b8381101561090c5781810151838201526020016108f4565b8381111561091b576000848401525b50505050565b600081518084526109398160208601602086016108f1565b601f01601f19169290920160200192915050565b600060208083018184528085518083526040860191506040848202870101925083870160005b828110156109a157603f1988860301845261098f858351610921565b94509285019290850190600101610973565b5092979650505050505050565b60208082526012908201527f4e6f2061637469766520636f6e74726163740000000000000000000000000000604082015260600190565b6040815260006109f86040830185610921565b9050600160a060020a03831660208301529392505050565b606081526000610a236060830186610921565b905061ffff84166020830152600160a060020a0383166040830152949350505050565b600082601f830112610a5757600080fd5b8151610a656107f6826107af565b818152846020838601011115610a7a57600080fd5b6108628260208301602087016108f1565b600060208284031215610a9d57600080fd5b815167ffffffffffffffff811115610ab457600080fd5b61086284828501610a46565b600060208284031215610ad257600080fd5b5051919050565b60006020808385031215610aec57600080fd5b825167ffffffffffffffff80821115610b0457600080fd5b818501915085601f830112610b1857600080fd5b815181811115610b2a57610b2a61074f565b838102610b3885820161077e565b9182528381018501918581019089841115610b5257600080fd5b86860192505b83831015610b8e57825185811115610b705760008081fd5b610b7e8b89838a0101610a46565b8352509186019190860190610b58565b999850505050505050505056fea26469706673582212202cd8939f7bf5540a1b878d02b134966a58de846321bebad10ccabc48619838cd64736f6c634300080e0033",
  "immutableReferences": {},
  "source": "// SPDX-License-Identifier: MIT\npragma solidity >=0.7.0 < 0.9.0;\nimport \"./InsuranceRocketCompany.sol\";\n\ncontract Laboratory{\n    address public owner;\n    address private addressContract;\n    bool public statusContract;\n    InsuranceRocketCompany private IPrincipalContract;\n\n    constructor(address _addr, address _addressContract) {\n        owner = _addr;\n        addressContract = address(this);\n        IPrincipalContract =InsuranceRocketCompany(payable(_addressContract));\n        statusContract = true;\n\n    }\n\n    //-----------------------------------------Events----------------------------------------------\n    //Evento para el cambio de status del contrato\n    event changeStatusEvent(string);\n\n    //Evento para cuando se crea un servicio especial\n    event createSpecialServiceEvent(string);\n\n    //Evento para cambiar el estado de los servicio especiales\n    event changeStatusServiceLaboratoryEvent(string);\n\n    //Evento para cancelacin de contrato de laboratorio\n    event cancelContractLaboratoryEvent(string);\n\n    //Evento para canjear tokens por dinero\n    event withdrawBalanceLaboratoryEvent(string);\n\n    //Funcion cancelar contrato\n    function changeStatus() private {\n        statusContract = false;\n        // emit changeStatusEvent(\"Contract has been cancelled\");\n    }\n\n    //Funcion para crear los servicios ofrecidos\n    function createSpecialService(string memory _name, uint16 _price) public {\n        require(statusContract, \"No active contract\");\n        IPrincipalContract.createSpecialService(_name, _price, owner);\n        emit createSpecialServiceEvent(\"special service created\");\n    }\n\n    //Funcion para cambiar el estado de los servicios especiales\n    function changeStatusServiceLaboratory(string memory _name) public {\n        require(statusContract, \"No active contract\");\n        IPrincipalContract.changeStatusServiceLaboratory(_name, owner);\n        emit changeStatusServiceLaboratoryEvent(\"Status changed\");\n    }\n\n    //Funcion cancelar contrato de laborario\n    function cancelContractLaboratory() public{\n        require(statusContract, \"No active contract\");\n        // IPrincipalContract.cancelContractLaboratory(owner);\n        IPrincipalContract.changeStatusContract(owner);\n        // changeStatus();\n        emit cancelContractLaboratoryEvent(\"Laboratory contract cancelled\");\n    }\n\n    //Funcion para canjear sus tokens por dinero\n    function withdrawBalanceLaboratory(uint16 _quantityTokens) public payable {\n        require(statusContract, \"No active contract\");\n        IPrincipalContract.withdrawBalanceLaboratory(owner, _quantityTokens);\n\n    }\n    \n    //Funcion para ver el balance del laboratorio\n    function balanceLaboratory() public  view returns(uint){\n        require(statusContract, \"No active contract\");\n        return  IPrincipalContract.balanceContractUser(addressContract);\n    }\n\n    //Funcion para ver servicios especiales disponibles\n    function listSpecialServices() public view returns(string[] memory){\n        require(statusContract , \"No active contract\");\n        return IPrincipalContract.showMyActivedSpecialServices();\n    }\n}",
  "sourcePath": "/home/xdx/Escritorio/Solidity proyects/sistema_salud_full/contracts/System/Company/InsuranceLaboratoryRocketCompany.sol",
  "compiler": {
    "name": "solc",
    "version": "0.8.14+commit.80d49f37.Emscripten.clang"
  },
  "schemaVersion": "3.4.7",
  "updatedAt": "2022-07-13T06:10:34.938Z",
  "devdoc": {
    "kind": "dev",
    "methods": {},
    "version": 1
  },
  "userdoc": {
    "kind": "user",
    "methods": {},
    "version": 1
  }
}