{
  "contractName": "Laboratory",
  "abi": [
    {
      "inputs": [
        {
          "internalType": "address",
          "name": "_addr",
          "type": "address"
        },
        {
          "internalType": "address",
          "name": "_addressContract",
          "type": "address"
        }
      ],
      "stateMutability": "nonpayable",
      "type": "constructor"
    },
    {
      "inputs": [],
      "name": "owner",
      "outputs": [
        {
          "internalType": "address",
          "name": "",
          "type": "address"
        }
      ],
      "stateMutability": "view",
      "type": "function"
    },
    {
      "inputs": [
        {
          "internalType": "string",
          "name": "_name",
          "type": "string"
        },
        {
          "internalType": "uint16",
          "name": "_price",
          "type": "uint16"
        }
      ],
      "name": "createSpecialService",
      "outputs": [],
      "stateMutability": "nonpayable",
      "type": "function"
    },
    {
      "inputs": [
        {
          "internalType": "string",
          "name": "_name",
          "type": "string"
        }
      ],
      "name": "changeStatusServiceLaboratory",
      "outputs": [],
      "stateMutability": "nonpayable",
      "type": "function"
    },
    {
      "inputs": [],
      "name": "cancelContractLaboratory",
      "outputs": [],
      "stateMutability": "nonpayable",
      "type": "function"
    },
    {
      "inputs": [
        {
          "internalType": "uint16",
          "name": "_quantityTokens",
          "type": "uint16"
        }
      ],
      "name": "withdrawBalanceLaboratory",
      "outputs": [],
      "stateMutability": "payable",
      "type": "function"
    },
    {
      "inputs": [],
      "name": "balanceLaboratory",
      "outputs": [
        {
          "internalType": "uint256",
          "name": "",
          "type": "uint256"
        }
      ],
      "stateMutability": "view",
      "type": "function"
    },
    {
      "inputs": [],
      "name": "listSpecialServices",
      "outputs": [
        {
          "internalType": "string[]",
          "name": "",
          "type": "string[]"
        }
      ],
      "stateMutability": "view",
      "type": "function"
    },
    {
      "inputs": [
        {
          "internalType": "string",
          "name": "_name",
          "type": "string"
        }
      ],
      "name": "detailsSpecialService",
      "outputs": [
        {
          "internalType": "string",
          "name": "",
          "type": "string"
        },
        {
          "internalType": "uint16",
          "name": "",
          "type": "uint16"
        },
        {
          "internalType": "bool",
          "name": "",
          "type": "bool"
        }
      ],
      "stateMutability": "view",
      "type": "function"
    }
  ],
  "bytecode": "0x608060405234801561001057600080fd5b50604051610adc380380610adc83398101604081905261002f91610086565b60008054600160a060020a03938416600160a060020a03199182161790915560018054821630179055600280549290931691161790556100b9565b8051600160a060020a038116811461008157600080fd5b919050565b6000806040838503121561009957600080fd5b6100a28361006a565b91506100b06020840161006a565b90509250929050565b610a14806100c86000396000f3fe608060405260043610610098576000357c010000000000000000000000000000000000000000000000000000000090048063c98c64b71161006b578063c98c64b714610140578063cc805c2014610160578063e3e97a9a14610173578063ea54d2121461019657600080fd5b806312494d161461009d5780638da5cb5b146100b457806396b0e90d146100f1578063a5487a0314610111575b600080fd5b3480156100a957600080fd5b506100b26101b8565b005b3480156100c057600080fd5b506000546100d490600160a060020a031681565b604051600160a060020a0390911681526020015b60405180910390f35b3480156100fd57600080fd5b506100b261010c366004610633565b610234565b34801561011d57600080fd5b5061013161012c366004610633565b6102b9565b6040516100e8939291906106c8565b34801561014c57600080fd5b506100b261015b366004610709565b61035a565b6100b261016e36600461075b565b6103e0565b34801561017f57600080fd5b50610188610437565b6040519081526020016100e8565b3480156101a257600080fd5b506101ab6104ca565b6040516100e8919061077f565b6002546000546040517faef5beb7000000000000000000000000000000000000000000000000000000008152600160a060020a03918216600482015291169063aef5beb790602401600060405180830381600087803b15801561021a57600080fd5b505af115801561022e573d6000803e3d6000fd5b50505050565b6002546000546040517fe6cbd058000000000000000000000000000000000000000000000000000000008152600160a060020a039283169263e6cbd05892610284928692909116906004016107e0565b600060405180830381600087803b15801561029e57600080fd5b505af11580156102b2573d6000803e3d6000fd5b5050505050565b6002546040517f37cf77930000000000000000000000000000000000000000000000000000000081526060916000918291600160a060020a0316906337cf77939061030890879060040161080b565b600060405180830381865afa158015610325573d6000803e3d6000fd5b505050506040513d6000823e601f3d908101601f1916820160405261034d9190810190610863565b9250925092509193909250565b6002546000546040517f54c844fa000000000000000000000000000000000000000000000000000000008152600160a060020a03928316926354c844fa926103aa928792879216906004016108cd565b600060405180830381600087803b1580156103c457600080fd5b505af11580156103d8573d6000803e3d6000fd5b505050505050565b6002546000546040517f12754972000000000000000000000000000000000000000000000000000000008152600160a060020a03918216600482015261ffff84166024820152911690631275497290604401610284565b6002546001546040517f26c8fb70000000000000000000000000000000000000000000000000000000008152600160a060020a03918216600482015260009291909116906326c8fb7090602401602060405180830381865afa1580156104a1573d6000803e3d6000fd5b505050506040513d601f19601f820116820180604052508101906104c59190610903565b905090565b600254604080517fb78e56b50000000000000000000000000000000000000000000000000000000081529051606092600160a060020a03169163b78e56b59160048083019260009291908290030181865afa15801561052d573d6000803e3d6000fd5b505050506040513d6000823e601f3d908101601f191682016040526104c5919081019061091c565b7f4e487b7100000000000000000000000000000000000000000000000000000000600052604160045260246000fd5b604051601f8201601f1916810167ffffffffffffffff811182821017156105ad576105ad610555565b604052919050565b600067ffffffffffffffff8211156105cf576105cf610555565b50601f01601f191660200190565b600082601f8301126105ee57600080fd5b81356106016105fc826105b5565b610584565b81815284602083860101111561061657600080fd5b816020850160208301376000918101602001919091529392505050565b60006020828403121561064557600080fd5b813567ffffffffffffffff81111561065c57600080fd5b610668848285016105dd565b949350505050565b60005b8381101561068b578181015183820152602001610673565b8381111561022e5750506000910152565b600081518084526106b4816020860160208601610670565b601f01601f19169290920160200192915050565b6060815260006106db606083018661069c565b61ffff94909416602083015250901515604090910152919050565b61ffff8116811461070657600080fd5b50565b6000806040838503121561071c57600080fd5b823567ffffffffffffffff81111561073357600080fd5b61073f858286016105dd565b9250506020830135610750816106f6565b809150509250929050565b60006020828403121561076d57600080fd5b8135610778816106f6565b9392505050565b600060208083018184528085518083526040860191506040848202870101925083870160005b828110156107d357603f198886030184526107c185835161069c565b945092850192908501906001016107a5565b5092979650505050505050565b6040815260006107f3604083018561069c565b9050600160a060020a03831660208301529392505050565b602081526000610778602083018461069c565b600082601f83011261082f57600080fd5b815161083d6105fc826105b5565b81815284602083860101111561085257600080fd5b610668826020830160208701610670565b60008060006060848603121561087857600080fd5b835167ffffffffffffffff81111561088f57600080fd5b61089b8682870161081e565b93505060208401516108ac816106f6565b604085015190925080151581146108c257600080fd5b809150509250925092565b6060815260006108e0606083018661069c565b905061ffff84166020830152600160a060020a0383166040830152949350505050565b60006020828403121561091557600080fd5b5051919050565b6000602080838503121561092f57600080fd5b825167ffffffffffffffff8082111561094757600080fd5b818501915085601f83011261095b57600080fd5b81518181111561096d5761096d610555565b83810261097b858201610584565b918252838101850191858101908984111561099557600080fd5b86860192505b838310156109d1578251858111156109b35760008081fd5b6109c18b89838a010161081e565b835250918601919086019061099b565b999850505050505050505056fea2646970667358221220c89eda04c27a239e08d283d672e881da510707f639f783bb20549f419183b29c64736f6c634300080e0033",
  "immutableReferences": {},
  "source": "// SPDX-License-Identifier: MIT\npragma solidity >=0.7.0 < 0.9.0;\nimport \"./InsuranceRocketCompany.sol\";\n\ncontract Laboratory{\n    address public owner;\n    address private addressContract;\n    InsuranceRocketCompany private IPrincipalContract;\n\n    constructor(address _addr, address _addressContract) {\n        owner = _addr;\n        addressContract = address(this);\n        IPrincipalContract =InsuranceRocketCompany(payable(_addressContract));\n    }\n\n    //Funcion para crear los servicios ofrecidos\n    function createSpecialService(string memory _name, uint16 _price) public {\n        IPrincipalContract.createSpecialService(_name, _price, owner);\n    }\n\n    //Funcion para cambiar el estado de los servicios especiales\n    function changeStatusServiceLaboratory(string memory _name) public {\n        IPrincipalContract.changeStatusServiceLaboratory(_name, owner);\n    }\n\n    //Funcion cancelar contrato de laborario\n    function cancelContractLaboratory() public{\n        IPrincipalContract.changeStatusContract(owner);\n    }\n\n    //Funcion para canjear sus tokens por dinero\n    function withdrawBalanceLaboratory(uint16 _quantityTokens) public payable {\n         IPrincipalContract.withdrawBalanceLaboratory(owner, _quantityTokens);\n    }\n    \n    //Funcion para ver el balance del laboratorio\n    function balanceLaboratory() public  view returns(uint){\n        return  IPrincipalContract.balanceContractUser(addressContract);\n    }\n\n    //Funcion para ver servicios especiales disponibles\n    function listSpecialServices() public view returns(string[] memory){\n        return IPrincipalContract.showSpecialServicesByLaboratory();\n    }\n\n    function detailsSpecialService(string memory _name) public  view returns(string memory , uint16 , bool){\n       return IPrincipalContract.showSpecialServiceDetails(_name);\n    }\n}",
  "sourcePath": "/home/xdx/Escritorio/Solidity proyects/sistema_salud_full/contracts/System/Company/InsuranceLaboratoryRocketCompany.sol",
  "compiler": {
    "name": "solc",
    "version": "0.8.14+commit.80d49f37.Emscripten.clang"
  },
  "schemaVersion": "3.4.7",
  "updatedAt": "2022-07-15T06:09:39.994Z",
  "devdoc": {
    "kind": "dev",
    "methods": {},
    "version": 1
  },
  "userdoc": {
    "kind": "user",
    "methods": {},
    "version": 1
  }
}