{
  "contractName": "Laboratory",
  "abi": [
    {
      "inputs": [
        {
          "internalType": "address",
          "name": "_addr",
          "type": "address"
        },
        {
          "internalType": "address",
          "name": "_addressContract",
          "type": "address"
        }
      ],
      "stateMutability": "nonpayable",
      "type": "constructor"
    },
    {
      "inputs": [],
      "name": "owner",
      "outputs": [
        {
          "internalType": "address",
          "name": "",
          "type": "address"
        }
      ],
      "stateMutability": "view",
      "type": "function"
    },
    {
      "inputs": [
        {
          "internalType": "string",
          "name": "_name",
          "type": "string"
        },
        {
          "internalType": "uint16",
          "name": "_price",
          "type": "uint16"
        }
      ],
      "name": "createSpecialService",
      "outputs": [],
      "stateMutability": "nonpayable",
      "type": "function"
    },
    {
      "inputs": [
        {
          "internalType": "string",
          "name": "_name",
          "type": "string"
        }
      ],
      "name": "changeStatusServiceLaboratory",
      "outputs": [],
      "stateMutability": "nonpayable",
      "type": "function"
    },
    {
      "inputs": [],
      "name": "cancelContractLaboratory",
      "outputs": [],
      "stateMutability": "nonpayable",
      "type": "function"
    },
    {
      "inputs": [
        {
          "internalType": "uint16",
          "name": "_quantityTokens",
          "type": "uint16"
        }
      ],
      "name": "withdrawBalanceLaboratory",
      "outputs": [],
      "stateMutability": "payable",
      "type": "function"
    },
    {
      "inputs": [],
      "name": "balanceLaboratory",
      "outputs": [
        {
          "internalType": "uint256",
          "name": "",
          "type": "uint256"
        }
      ],
      "stateMutability": "view",
      "type": "function"
    },
    {
      "inputs": [],
      "name": "listSpecialServices",
      "outputs": [
        {
          "internalType": "string[]",
          "name": "",
          "type": "string[]"
        }
      ],
      "stateMutability": "view",
      "type": "function"
    },
    {
      "inputs": [
        {
          "internalType": "string",
          "name": "_name",
          "type": "string"
        }
      ],
      "name": "detailsSpecialService",
      "outputs": [
        {
          "internalType": "string",
          "name": "",
          "type": "string"
        },
        {
          "internalType": "uint16",
          "name": "",
          "type": "uint16"
        },
        {
          "internalType": "bool",
          "name": "",
          "type": "bool"
        },
        {
          "internalType": "address",
          "name": "",
          "type": "address"
        }
      ],
      "stateMutability": "view",
      "type": "function"
    }
  ],
  "bytecode": "0x608060405234801561001057600080fd5b50604051610b0f380380610b0f83398101604081905261002f91610086565b60008054600160a060020a03938416600160a060020a03199182161790915560018054821630179055600280549290931691161790556100b9565b8051600160a060020a038116811461008157600080fd5b919050565b6000806040838503121561009957600080fd5b6100a28361006a565b91506100b06020840161006a565b90509250929050565b610a47806100c86000396000f3fe608060405260043610610098576000357c010000000000000000000000000000000000000000000000000000000090048063c98c64b71161006b578063c98c64b714610141578063cc805c2014610161578063e3e97a9a14610174578063ea54d2121461019757600080fd5b806312494d161461009d5780638da5cb5b146100b457806396b0e90d146100f1578063a5487a0314610111575b600080fd5b3480156100a957600080fd5b506100b26101b9565b005b3480156100c057600080fd5b506000546100d490600160a060020a031681565b604051600160a060020a0390911681526020015b60405180910390f35b3480156100fd57600080fd5b506100b261010c36600461063a565b610235565b34801561011d57600080fd5b5061013161012c36600461063a565b6102ba565b6040516100e894939291906106cf565b34801561014d57600080fd5b506100b261015c36600461071e565b610361565b6100b261016f366004610770565b6103e7565b34801561018057600080fd5b5061018961043e565b6040519081526020016100e8565b3480156101a357600080fd5b506101ac6104d1565b6040516100e89190610794565b6002546000546040517faef5beb7000000000000000000000000000000000000000000000000000000008152600160a060020a03918216600482015291169063aef5beb790602401600060405180830381600087803b15801561021b57600080fd5b505af115801561022f573d6000803e3d6000fd5b50505050565b6002546000546040517fe6cbd058000000000000000000000000000000000000000000000000000000008152600160a060020a039283169263e6cbd05892610285928692909116906004016107f5565b600060405180830381600087803b15801561029f57600080fd5b505af11580156102b3573d6000803e3d6000fd5b5050505050565b6002546040517f37cf779300000000000000000000000000000000000000000000000000000000815260609160009182918291600160a060020a03909116906337cf77939061030d908890600401610820565b600060405180830381865afa15801561032a573d6000803e3d6000fd5b505050506040513d6000823e601f3d908101601f191682016040526103529190810190610878565b93509350935093509193509193565b6002546000546040517f54c844fa000000000000000000000000000000000000000000000000000000008152600160a060020a03928316926354c844fa926103b192879287921690600401610900565b600060405180830381600087803b1580156103cb57600080fd5b505af11580156103df573d6000803e3d6000fd5b505050505050565b6002546000546040517f12754972000000000000000000000000000000000000000000000000000000008152600160a060020a03918216600482015261ffff84166024820152911690631275497290604401610285565b6002546001546040517f26c8fb70000000000000000000000000000000000000000000000000000000008152600160a060020a03918216600482015260009291909116906326c8fb7090602401602060405180830381865afa1580156104a8573d6000803e3d6000fd5b505050506040513d601f19601f820116820180604052508101906104cc9190610936565b905090565b600254604080517fb78e56b50000000000000000000000000000000000000000000000000000000081529051606092600160a060020a03169163b78e56b59160048083019260009291908290030181865afa158015610534573d6000803e3d6000fd5b505050506040513d6000823e601f3d908101601f191682016040526104cc919081019061094f565b7f4e487b7100000000000000000000000000000000000000000000000000000000600052604160045260246000fd5b604051601f8201601f1916810167ffffffffffffffff811182821017156105b4576105b461055c565b604052919050565b600067ffffffffffffffff8211156105d6576105d661055c565b50601f01601f191660200190565b600082601f8301126105f557600080fd5b8135610608610603826105bc565b61058b565b81815284602083860101111561061d57600080fd5b816020850160208301376000918101602001919091529392505050565b60006020828403121561064c57600080fd5b813567ffffffffffffffff81111561066357600080fd5b61066f848285016105e4565b949350505050565b60005b8381101561069257818101518382015260200161067a565b8381111561022f5750506000910152565b600081518084526106bb816020860160208601610677565b601f01601f19169290920160200192915050565b6080815260006106e260808301876106a3565b61ffff959095166020830152509115156040830152600160a060020a0316606090910152919050565b61ffff8116811461071b57600080fd5b50565b6000806040838503121561073157600080fd5b823567ffffffffffffffff81111561074857600080fd5b610754858286016105e4565b92505060208301356107658161070b565b809150509250929050565b60006020828403121561078257600080fd5b813561078d8161070b565b9392505050565b600060208083018184528085518083526040860191506040848202870101925083870160005b828110156107e857603f198886030184526107d68583516106a3565b945092850192908501906001016107ba565b5092979650505050505050565b60408152600061080860408301856106a3565b9050600160a060020a03831660208301529392505050565b60208152600061078d60208301846106a3565b600082601f83011261084457600080fd5b8151610852610603826105bc565b81815284602083860101111561086757600080fd5b61066f826020830160208701610677565b6000806000806080858703121561088e57600080fd5b845167ffffffffffffffff8111156108a557600080fd5b6108b187828801610833565b94505060208501516108c28161070b565b604086015190935080151581146108d857600080fd5b6060860151909250600160a060020a03811681146108f557600080fd5b939692955090935050565b60608152600061091360608301866106a3565b905061ffff84166020830152600160a060020a0383166040830152949350505050565b60006020828403121561094857600080fd5b5051919050565b6000602080838503121561096257600080fd5b825167ffffffffffffffff8082111561097a57600080fd5b818501915085601f83011261098e57600080fd5b8151818111156109a0576109a061055c565b8381026109ae85820161058b565b91825283810185019185810190898411156109c857600080fd5b86860192505b83831015610a04578251858111156109e65760008081fd5b6109f48b89838a0101610833565b83525091860191908601906109ce565b999850505050505050505056fea264697066735822122053a7a3461839b7a47254b5d427ca547553bd5e5688b1ed0ab9a9b9325368009e64736f6c634300080e0033",
  "immutableReferences": {},
  "source": "// SPDX-License-Identifier: MIT\npragma solidity >=0.7.0 < 0.9.0;\nimport \"./InsuranceRocketCompany.sol\";\n\ncontract Laboratory{\n    address public owner;\n    address private addressContract;\n    InsuranceRocketCompany private IPrincipalContract;\n\n    constructor(address _addr, address _addressContract) {\n        owner = _addr;\n        addressContract = address(this);\n        IPrincipalContract =InsuranceRocketCompany(payable(_addressContract));\n    }\n\n    //Funcion para crear los servicios ofrecidos\n    function createSpecialService(string memory _name, uint16 _price) public {\n        IPrincipalContract.createSpecialService(_name, _price, owner);\n    }\n\n    //Funcion para cambiar el estado de los servicios especiales\n    function changeStatusServiceLaboratory(string memory _name) public {\n        IPrincipalContract.changeStatusServiceLaboratory(_name, owner);\n    }\n\n    //Funcion cancelar contrato de laborario\n    function cancelContractLaboratory() public{\n        IPrincipalContract.changeStatusContract(owner);\n    }\n\n    //Funcion para canjear sus tokens por dinero\n    function withdrawBalanceLaboratory(uint16 _quantityTokens) public payable {\n         IPrincipalContract.withdrawBalanceLaboratory(owner, _quantityTokens);\n    }\n    \n    //Funcion para ver el balance del laboratorio\n    function balanceLaboratory() public  view returns(uint){\n        return  IPrincipalContract.balanceContractUser(addressContract);\n    }\n\n    //Funcion para ver servicios especiales disponibles\n    function listSpecialServices() public view returns(string[] memory){\n        return IPrincipalContract.showSpecialServicesByLaboratory();\n    }\n\n    function detailsSpecialService(string memory _name) public  view returns(string memory , uint16 , bool, address){\n       return IPrincipalContract.showSpecialServiceDetails(_name);\n    }\n}",
  "sourcePath": "/home/xdx/Escritorio/Solidity proyects/sistema_salud_full/contracts/System/Company/InsuranceLaboratoryRocketCompany.sol",
  "compiler": {
    "name": "solc",
    "version": "0.8.14+commit.80d49f37.Emscripten.clang"
  },
  "schemaVersion": "3.4.7",
  "updatedAt": "2022-07-16T20:14:31.114Z",
  "devdoc": {
    "kind": "dev",
    "methods": {},
    "version": 1
  },
  "userdoc": {
    "kind": "user",
    "methods": {},
    "version": 1
  }
}