{
  "contractName": "Laboratory",
  "abi": [
    {
      "inputs": [
        {
          "internalType": "address",
          "name": "_addr",
          "type": "address"
        },
        {
          "internalType": "address",
          "name": "_addressContract",
          "type": "address"
        }
      ],
      "stateMutability": "nonpayable",
      "type": "constructor"
    },
    {
      "inputs": [],
      "name": "owner",
      "outputs": [
        {
          "internalType": "address",
          "name": "",
          "type": "address"
        }
      ],
      "stateMutability": "view",
      "type": "function"
    },
    {
      "inputs": [],
      "name": "statusContract",
      "outputs": [
        {
          "internalType": "bool",
          "name": "",
          "type": "bool"
        }
      ],
      "stateMutability": "view",
      "type": "function"
    },
    {
      "inputs": [],
      "name": "changeStatus",
      "outputs": [],
      "stateMutability": "nonpayable",
      "type": "function"
    },
    {
      "inputs": [
        {
          "internalType": "string",
          "name": "_name",
          "type": "string"
        },
        {
          "internalType": "uint16",
          "name": "_price",
          "type": "uint16"
        }
      ],
      "name": "createSpecialService",
      "outputs": [],
      "stateMutability": "nonpayable",
      "type": "function"
    },
    {
      "inputs": [
        {
          "internalType": "string",
          "name": "_name",
          "type": "string"
        }
      ],
      "name": "changeStatusServiceLaboratory",
      "outputs": [],
      "stateMutability": "nonpayable",
      "type": "function"
    },
    {
      "inputs": [],
      "name": "cancelContractLaboratory",
      "outputs": [],
      "stateMutability": "nonpayable",
      "type": "function"
    },
    {
      "inputs": [
        {
          "internalType": "uint16",
          "name": "_quantityTokens",
          "type": "uint16"
        }
      ],
      "name": "withdrawBalanceLaboratory",
      "outputs": [],
      "stateMutability": "payable",
      "type": "function"
    },
    {
      "inputs": [],
      "name": "balanceLaboratory",
      "outputs": [
        {
          "internalType": "uint256",
          "name": "",
          "type": "uint256"
        }
      ],
      "stateMutability": "view",
      "type": "function"
    },
    {
      "inputs": [],
      "name": "listSpecialServices",
      "outputs": [
        {
          "internalType": "string[]",
          "name": "",
          "type": "string[]"
        }
      ],
      "stateMutability": "view",
      "type": "function"
    }
  ],
  "bytecode": "0x608060405234801561001057600080fd5b50604051610be7380380610be783398101604081905261002f916100b8565b60008054600160a060020a0319908116600160a060020a039485161790915560018054600280549093169390941692909217905574010000000000000000000000000000000000000000600160a860020a03199092163060a060020a60ff021916179190911790556100eb565b8051600160a060020a03811681146100b357600080fd5b919050565b600080604083850312156100cb57600080fd5b6100d48361009c565b91506100e26020840161009c565b90509250929050565b610aed806100fa6000396000f3fe6080604052600436106100a3576000357c010000000000000000000000000000000000000000000000000000000090048063c98c64b711610076578063c98c64b71461014c578063cc805c201461016c578063d5808c751461017f578063e3e97a9a146101b0578063ea54d212146101d357600080fd5b8063085634ec146100a857806312494d16146100da5780638da5cb5b146100ef57806396b0e90d1461012c575b600080fd5b3480156100b457600080fd5b506100d86001805474ff000000000000000000000000000000000000000019169055565b005b3480156100e657600080fd5b506100d86101f5565b3480156100fb57600080fd5b5060005461010f90600160a060020a031681565b604051600160a060020a0390911681526020015b60405180910390f35b34801561013857600080fd5b506100d8610147366004610749565b6102bc565b34801561015857600080fd5b506100d861016736600461079d565b61036d565b6100d861017a3660046107eb565b61041f565b34801561018b57600080fd5b506001546101a09060a060020a900460ff1681565b6040519015158152602001610123565b3480156101bc57600080fd5b506101c56104e8565b604051908152602001610123565b3480156101df57600080fd5b506101e86105a5565b6040516101239190610869565b60015460a060020a900460ff1661022a5760405160e560020a62461bcd028152600401610221906108ca565b60405180910390fd5b6002546000546040517fbc224fb6000000000000000000000000000000000000000000000000000000008152600160a060020a03918216600482015291169063bc224fb6906024016000604051808303816000875af1158015610291573d6000803e3d6000fd5b505050506040513d6000823e601f3d908101601f191682016040526102b99190810190610946565b50565b60015460a060020a900460ff166102e85760405160e560020a62461bcd028152600401610221906108ca565b6002546000546040517fe6cbd058000000000000000000000000000000000000000000000000000000008152600160a060020a039283169263e6cbd058926103389286929091169060040161097b565b600060405180830381600087803b15801561035257600080fd5b505af1158015610366573d6000803e3d6000fd5b5050505050565b60015460a060020a900460ff166103995760405160e560020a62461bcd028152600401610221906108ca565b6002546000546040517f54c844fa000000000000000000000000000000000000000000000000000000008152600160a060020a03928316926354c844fa926103e9928792879216906004016109a6565b600060405180830381600087803b15801561040357600080fd5b505af1158015610417573d6000803e3d6000fd5b505050505050565b60015460a060020a900460ff1661044b5760405160e560020a62461bcd028152600401610221906108ca565b6002546000546040517f12754972000000000000000000000000000000000000000000000000000000008152600160a060020a03918216600482015261ffff841660248201529116906312754972906044016000604051808303816000875af11580156104bc573d6000803e3d6000fd5b505050506040513d6000823e601f3d908101601f191682016040526104e49190810190610946565b5050565b60015460009060a060020a900460ff166105175760405160e560020a62461bcd028152600401610221906108ca565b6002546001546040517f26c8fb70000000000000000000000000000000000000000000000000000000008152600160a060020a0391821660048201529116906326c8fb7090602401602060405180830381865afa15801561057c573d6000803e3d6000fd5b505050506040513d601f19601f820116820180604052508101906105a091906109dc565b905090565b60015460609060a060020a900460ff166105d45760405160e560020a62461bcd028152600401610221906108ca565b600260009054906101000a9004600160a060020a0316600160a060020a03166382a6f77c6040518163ffffffff167c0100000000000000000000000000000000000000000000000000000000028152600401600060405180830381865afa158015610643573d6000803e3d6000fd5b505050506040513d6000823e601f3d908101601f191682016040526105a091908101906109f5565b7f4e487b7100000000000000000000000000000000000000000000000000000000600052604160045260246000fd5b604051601f8201601f1916810167ffffffffffffffff811182821017156106c3576106c361066b565b604052919050565b600067ffffffffffffffff8211156106e5576106e561066b565b50601f01601f191660200190565b600082601f83011261070457600080fd5b8135610717610712826106cb565b61069a565b81815284602083860101111561072c57600080fd5b816020850160208301376000918101602001919091529392505050565b60006020828403121561075b57600080fd5b813567ffffffffffffffff81111561077257600080fd5b61077e848285016106f3565b949350505050565b803561ffff8116811461079857600080fd5b919050565b600080604083850312156107b057600080fd5b823567ffffffffffffffff8111156107c757600080fd5b6107d3858286016106f3565b9250506107e260208401610786565b90509250929050565b6000602082840312156107fd57600080fd5b61080682610786565b9392505050565b60005b83811015610828578181015183820152602001610810565b83811115610837576000848401525b50505050565b6000815180845261085581602086016020860161080d565b601f01601f19169290920160200192915050565b600060208083018184528085518083526040860191506040848202870101925083870160005b828110156108bd57603f198886030184526108ab85835161083d565b9450928501929085019060010161088f565b5092979650505050505050565b6020808252601c908201527f4e6f20706f73656520756e20636f6e74726163746f2061637469766f00000000604082015260600190565b600082601f83011261091257600080fd5b8151610920610712826106cb565b81815284602083860101111561093557600080fd5b61077e82602083016020870161080d565b60006020828403121561095857600080fd5b815167ffffffffffffffff81111561096f57600080fd5b61077e84828501610901565b60408152600061098e604083018561083d565b9050600160a060020a03831660208301529392505050565b6060815260006109b9606083018661083d565b905061ffff84166020830152600160a060020a0383166040830152949350505050565b6000602082840312156109ee57600080fd5b5051919050565b60006020808385031215610a0857600080fd5b825167ffffffffffffffff80821115610a2057600080fd5b818501915085601f830112610a3457600080fd5b815181811115610a4657610a4661066b565b838102610a5485820161069a565b9182528381018501918581019089841115610a6e57600080fd5b86860192505b83831015610aaa57825185811115610a8c5760008081fd5b610a9a8b89838a0101610901565b8352509186019190860190610a74565b999850505050505050505056fea26469706673582212209b42946b80374a402fc666d1563eb36d5317c948c9e26d59108e351b9421633c64736f6c634300080e0033",
  "immutableReferences": {},
  "source": "// SPDX-License-Identifier: MIT\npragma solidity >=0.7.0 < 0.9.0;\nimport \"./InsuranceRocketCompany.sol\";\n\ncontract Laboratory{\n    address public owner;\n    address private addressContract;\n    bool public statusContract;\n    InsuranceRocketCompany private IPrincipalContract;\n\n    constructor(address _addr, address _addressContract) {\n        owner = _addr;\n        addressContract = address(this);\n        IPrincipalContract =InsuranceRocketCompany(payable(_addressContract));\n        statusContract = true;\n\n    }\n\n    //Funcion cancelar contrato\n    function changeStatus() external {\n        statusContract = false;\n    }\n\n    //Funcion para crear los servicios ofrecidos\n    function createSpecialService(string memory _name, uint16 _price) public {\n        require(statusContract, \"No posee un contracto activo\");\n        IPrincipalContract.createSpecialService(_name, _price, owner);\n    }\n\n    //Funcion para cambiar el estado de los servicios especiales\n    function changeStatusServiceLaboratory(string memory _name) public {\n        require(statusContract, \"No posee un contracto activo\");\n        IPrincipalContract.changeStatusServiceLaboratory(_name, owner);\n    }\n\n    //Funcion cancelar contrato de laborario\n    function cancelContractLaboratory() public{\n        require(statusContract, \"No posee un contracto activo\");\n        IPrincipalContract.cancelContractLaboratory(owner);\n    }\n\n    //Funcion para canjear sus tokens por dinero\n    function withdrawBalanceLaboratory(uint16 _quantityTokens) public payable {\n        require(statusContract, \"No posee un contracto activo\");\n        IPrincipalContract.withdrawBalanceLaboratory(owner, _quantityTokens);\n    }\n    \n    //Funcion para ver el balance del laboratorio\n    function balanceLaboratory() public  view returns(uint){\n        require(statusContract, \"No posee un contracto activo\");\n        return  IPrincipalContract.balanceContractUser(addressContract);\n    }\n\n    //Funcion para ver servicios especiales disponibles\n    function listSpecialServices() public view returns(string[] memory){\n        require(statusContract , \"No posee un contracto activo\");\n        return IPrincipalContract.showMyActivedSpecialServices();\n    }\n}",
  "sourcePath": "/home/xdx/Escritorio/Solidity proyects/sistema_salud_full/contracts/System/Company/InsuranceLaboratoryRocketCompany.sol",
  "compiler": {
    "name": "solc",
    "version": "0.8.14+commit.80d49f37.Emscripten.clang"
  },
  "schemaVersion": "3.4.7",
  "updatedAt": "2022-06-26T04:18:33.100Z",
  "devdoc": {
    "kind": "dev",
    "methods": {},
    "version": 1
  },
  "userdoc": {
    "kind": "user",
    "methods": {},
    "version": 1
  }
}