{
  "contractName": "Laboratory",
  "abi": [
    {
      "inputs": [
        {
          "internalType": "address",
          "name": "_addr",
          "type": "address"
        },
        {
          "internalType": "address",
          "name": "_addressContract",
          "type": "address"
        }
      ],
      "stateMutability": "nonpayable",
      "type": "constructor"
    },
    {
      "anonymous": false,
      "inputs": [
        {
          "indexed": false,
          "internalType": "string",
          "name": "",
          "type": "string"
        }
      ],
      "name": "cancelContractLaboratoryEvent",
      "type": "event"
    },
    {
      "anonymous": false,
      "inputs": [
        {
          "indexed": false,
          "internalType": "string",
          "name": "",
          "type": "string"
        }
      ],
      "name": "changeStatusEvent",
      "type": "event"
    },
    {
      "anonymous": false,
      "inputs": [
        {
          "indexed": false,
          "internalType": "string",
          "name": "",
          "type": "string"
        }
      ],
      "name": "changeStatusServiceLaboratoryEvent",
      "type": "event"
    },
    {
      "anonymous": false,
      "inputs": [
        {
          "indexed": false,
          "internalType": "string",
          "name": "",
          "type": "string"
        }
      ],
      "name": "createSpecialServiceEvent",
      "type": "event"
    },
    {
      "anonymous": false,
      "inputs": [
        {
          "indexed": false,
          "internalType": "string",
          "name": "",
          "type": "string"
        }
      ],
      "name": "withdrawBalanceLaboratoryEvent",
      "type": "event"
    },
    {
      "inputs": [],
      "name": "owner",
      "outputs": [
        {
          "internalType": "address",
          "name": "",
          "type": "address"
        }
      ],
      "stateMutability": "view",
      "type": "function"
    },
    {
      "inputs": [],
      "name": "statusContract",
      "outputs": [
        {
          "internalType": "bool",
          "name": "",
          "type": "bool"
        }
      ],
      "stateMutability": "view",
      "type": "function"
    },
    {
      "inputs": [],
      "name": "changeStatus",
      "outputs": [],
      "stateMutability": "nonpayable",
      "type": "function"
    },
    {
      "inputs": [
        {
          "internalType": "string",
          "name": "_name",
          "type": "string"
        },
        {
          "internalType": "uint16",
          "name": "_price",
          "type": "uint16"
        }
      ],
      "name": "createSpecialService",
      "outputs": [],
      "stateMutability": "nonpayable",
      "type": "function"
    },
    {
      "inputs": [
        {
          "internalType": "string",
          "name": "_name",
          "type": "string"
        }
      ],
      "name": "changeStatusServiceLaboratory",
      "outputs": [],
      "stateMutability": "nonpayable",
      "type": "function"
    },
    {
      "inputs": [],
      "name": "cancelContractLaboratory",
      "outputs": [],
      "stateMutability": "nonpayable",
      "type": "function"
    },
    {
      "inputs": [
        {
          "internalType": "uint16",
          "name": "_quantityTokens",
          "type": "uint16"
        }
      ],
      "name": "withdrawBalanceLaboratory",
      "outputs": [],
      "stateMutability": "payable",
      "type": "function"
    },
    {
      "inputs": [],
      "name": "balanceLaboratory",
      "outputs": [
        {
          "internalType": "uint256",
          "name": "",
          "type": "uint256"
        }
      ],
      "stateMutability": "view",
      "type": "function"
    },
    {
      "inputs": [],
      "name": "listSpecialServices",
      "outputs": [
        {
          "internalType": "string[]",
          "name": "",
          "type": "string[]"
        }
      ],
      "stateMutability": "view",
      "type": "function"
    }
  ],
  "bytecode": "0x608060405234801561001057600080fd5b50604051610d1c380380610d1c83398101604081905261002f916100b8565b60008054600160a060020a0319908116600160a060020a039485161790915560018054600280549093169390941692909217905574010000000000000000000000000000000000000000600160a860020a03199092163060a060020a60ff021916179190911790556100eb565b8051600160a060020a03811681146100b357600080fd5b919050565b600080604083850312156100cb57600080fd5b6100d48361009c565b91506100e26020840161009c565b90509250929050565b610c22806100fa6000396000f3fe6080604052600436106100a3576000357c010000000000000000000000000000000000000000000000000000000090048063c98c64b711610076578063c98c64b71461014c578063cc805c201461016c578063d5808c751461017f578063e3e97a9a146101b0578063ea54d212146101d357600080fd5b8063085634ec146100a857806312494d16146100da5780638da5cb5b146100ef57806396b0e90d1461012c575b600080fd5b3480156100b457600080fd5b506100d86001805474ff000000000000000000000000000000000000000019169055565b005b3480156100e657600080fd5b506100d86101f5565b3480156100fb57600080fd5b5060005461010f90600160a060020a031681565b604051600160a060020a0390911681526020015b60405180910390f35b34801561013857600080fd5b506100d861014736600461087e565b610323565b34801561015857600080fd5b506100d86101673660046108d2565b61043b565b6100d861017a366004610920565b610554565b34801561018b57600080fd5b506001546101a09060a060020a900460ff1681565b6040519015158152602001610123565b3480156101bc57600080fd5b506101c561061d565b604051908152602001610123565b3480156101df57600080fd5b506101e86106da565b604051610123919061099e565b60015460a060020a900460ff1661022a5760405160e560020a62461bcd028152600401610221906109ff565b60405180910390fd5b6002546000546040517fbc224fb6000000000000000000000000000000000000000000000000000000008152600160a060020a03918216600482015291169063bc224fb6906024016000604051808303816000875af1158015610291573d6000803e3d6000fd5b505050506040513d6000823e601f3d908101601f191682016040526102b99190810190610a7b565b507f8fb8e77703b1fc88b5be52da1e07c7ea6c9758371ee19d107adcf70f24714e2d604051610319906020808252601d908201527f4c61626f7261746f727920636f6e74726163742063616e63656c6c6564000000604082015260600190565b60405180910390a1565b60015460a060020a900460ff1661034f5760405160e560020a62461bcd028152600401610221906109ff565b6002546000546040517fe6cbd058000000000000000000000000000000000000000000000000000000008152600160a060020a039283169263e6cbd0589261039f92869290911690600401610ab0565b600060405180830381600087803b1580156103b957600080fd5b505af11580156103cd573d6000803e3d6000fd5b505050507f52d2c476367a5c510d10dc00aa26840e839c8207ffb1fe1f851d383b1c3939e6604051610430906020808252600e908201527f537461747573206368616e676564000000000000000000000000000000000000604082015260600190565b60405180910390a150565b60015460a060020a900460ff166104675760405160e560020a62461bcd028152600401610221906109ff565b6002546000546040517f54c844fa000000000000000000000000000000000000000000000000000000008152600160a060020a03928316926354c844fa926104b792879287921690600401610adb565b600060405180830381600087803b1580156104d157600080fd5b505af11580156104e5573d6000803e3d6000fd5b505050507f208275776c16b77743a1409e20eff6a2abaaa054ce0042f8314e2b131353b0166040516105489060208082526017908201527f7370656369616c20736572766963652063726561746564000000000000000000604082015260600190565b60405180910390a15050565b60015460a060020a900460ff166105805760405160e560020a62461bcd028152600401610221906109ff565b6002546000546040517f12754972000000000000000000000000000000000000000000000000000000008152600160a060020a03918216600482015261ffff841660248201529116906312754972906044016000604051808303816000875af11580156105f1573d6000803e3d6000fd5b505050506040513d6000823e601f3d908101601f191682016040526106199190810190610a7b565b5050565b60015460009060a060020a900460ff1661064c5760405160e560020a62461bcd028152600401610221906109ff565b6002546001546040517f26c8fb70000000000000000000000000000000000000000000000000000000008152600160a060020a0391821660048201529116906326c8fb7090602401602060405180830381865afa1580156106b1573d6000803e3d6000fd5b505050506040513d601f19601f820116820180604052508101906106d59190610b11565b905090565b60015460609060a060020a900460ff166107095760405160e560020a62461bcd028152600401610221906109ff565b600260009054906101000a9004600160a060020a0316600160a060020a03166382a6f77c6040518163ffffffff167c0100000000000000000000000000000000000000000000000000000000028152600401600060405180830381865afa158015610778573d6000803e3d6000fd5b505050506040513d6000823e601f3d908101601f191682016040526106d59190810190610b2a565b7f4e487b7100000000000000000000000000000000000000000000000000000000600052604160045260246000fd5b604051601f8201601f1916810167ffffffffffffffff811182821017156107f8576107f86107a0565b604052919050565b600067ffffffffffffffff82111561081a5761081a6107a0565b50601f01601f191660200190565b600082601f83011261083957600080fd5b813561084c61084782610800565b6107cf565b81815284602083860101111561086157600080fd5b816020850160208301376000918101602001919091529392505050565b60006020828403121561089057600080fd5b813567ffffffffffffffff8111156108a757600080fd5b6108b384828501610828565b949350505050565b803561ffff811681146108cd57600080fd5b919050565b600080604083850312156108e557600080fd5b823567ffffffffffffffff8111156108fc57600080fd5b61090885828601610828565b925050610917602084016108bb565b90509250929050565b60006020828403121561093257600080fd5b61093b826108bb565b9392505050565b60005b8381101561095d578181015183820152602001610945565b8381111561096c576000848401525b50505050565b6000815180845261098a816020860160208601610942565b601f01601f19169290920160200192915050565b600060208083018184528085518083526040860191506040848202870101925083870160005b828110156109f257603f198886030184526109e0858351610972565b945092850192908501906001016109c4565b5092979650505050505050565b60208082526012908201527f4e6f2061637469766520636f6e74726163740000000000000000000000000000604082015260600190565b600082601f830112610a4757600080fd5b8151610a5561084782610800565b818152846020838601011115610a6a57600080fd5b6108b3826020830160208701610942565b600060208284031215610a8d57600080fd5b815167ffffffffffffffff811115610aa457600080fd5b6108b384828501610a36565b604081526000610ac36040830185610972565b9050600160a060020a03831660208301529392505050565b606081526000610aee6060830186610972565b905061ffff84166020830152600160a060020a0383166040830152949350505050565b600060208284031215610b2357600080fd5b5051919050565b60006020808385031215610b3d57600080fd5b825167ffffffffffffffff80821115610b5557600080fd5b818501915085601f830112610b6957600080fd5b815181811115610b7b57610b7b6107a0565b838102610b898582016107cf565b9182528381018501918581019089841115610ba357600080fd5b86860192505b83831015610bdf57825185811115610bc15760008081fd5b610bcf8b89838a0101610a36565b8352509186019190860190610ba9565b999850505050505050505056fea2646970667358221220e68ccdbe76c5829913ad923b57649b29c0f50737839c24f9a11135c5a23f50bc64736f6c634300080e0033",
  "immutableReferences": {},
  "source": "// SPDX-License-Identifier: MIT\npragma solidity >=0.7.0 < 0.9.0;\nimport \"./InsuranceRocketCompany.sol\";\n\ncontract Laboratory{\n    address public owner;\n    address private addressContract;\n    bool public statusContract;\n    InsuranceRocketCompany private IPrincipalContract;\n\n    constructor(address _addr, address _addressContract) {\n        owner = _addr;\n        addressContract = address(this);\n        IPrincipalContract =InsuranceRocketCompany(payable(_addressContract));\n        statusContract = true;\n\n    }\n\n    //-----------------------------------------Events----------------------------------------------\n    //Evento para el cambio de status del contrato\n    event changeStatusEvent(string);\n\n    //Evento para cuando se crea un servicio especial\n    event createSpecialServiceEvent(string);\n\n    //Evento para cambiar el estado de los servicio especiales\n    event changeStatusServiceLaboratoryEvent(string);\n\n    //Evento para cancelacin de contrato de laboratorio\n    event cancelContractLaboratoryEvent(string);\n\n    //Evento para canjear tokens por dinero\n    event withdrawBalanceLaboratoryEvent(string);\n\n    //Funcion cancelar contrato\n    function changeStatus() external {\n        statusContract = false;\n        // emit changeStatusEvent(\"Contract has been cancelled\");\n    }\n\n    //Funcion para crear los servicios ofrecidos\n    function createSpecialService(string memory _name, uint16 _price) public {\n        require(statusContract, \"No active contract\");\n        IPrincipalContract.createSpecialService(_name, _price, owner);\n        emit createSpecialServiceEvent(\"special service created\");\n    }\n\n    //Funcion para cambiar el estado de los servicios especiales\n    function changeStatusServiceLaboratory(string memory _name) public {\n        require(statusContract, \"No active contract\");\n        IPrincipalContract.changeStatusServiceLaboratory(_name, owner);\n        emit changeStatusServiceLaboratoryEvent(\"Status changed\");\n    }\n\n    //Funcion cancelar contrato de laborario\n    function cancelContractLaboratory() public{\n        require(statusContract, \"No active contract\");\n        IPrincipalContract.cancelContractLaboratory(owner);\n        emit cancelContractLaboratoryEvent(\"Laboratory contract cancelled\");\n    }\n\n    //Funcion para canjear sus tokens por dinero\n    function withdrawBalanceLaboratory(uint16 _quantityTokens) public payable {\n        require(statusContract, \"No active contract\");\n        IPrincipalContract.withdrawBalanceLaboratory(owner, _quantityTokens);\n\n    }\n    \n    //Funcion para ver el balance del laboratorio\n    function balanceLaboratory() public  view returns(uint){\n        require(statusContract, \"No active contract\");\n        return  IPrincipalContract.balanceContractUser(addressContract);\n    }\n\n    //Funcion para ver servicios especiales disponibles\n    function listSpecialServices() public view returns(string[] memory){\n        require(statusContract , \"No active contract\");\n        return IPrincipalContract.showMyActivedSpecialServices();\n    }\n}",
  "sourcePath": "/home/xdx/Escritorio/Solidity proyects/sistema_salud_full/contracts/System/Company/InsuranceLaboratoryRocketCompany.sol",
  "compiler": {
    "name": "solc",
    "version": "0.8.14+commit.80d49f37.Emscripten.clang"
  },
  "schemaVersion": "3.4.7",
  "updatedAt": "2022-07-10T15:26:25.787Z",
  "devdoc": {
    "kind": "dev",
    "methods": {},
    "version": 1
  },
  "userdoc": {
    "kind": "user",
    "methods": {},
    "version": 1
  }
}